:10000000801E0020750C0000175B0000610C0000D2
:10001000610C0000610C0000610C00000000000099
:10002000000000000000000000000000E10D0000E2
:10003000610C0000000000007D0D0000610C00005C
:10004000690F0000690F0000690F0000690F0000D0
:10005000690F0000690F0000690F0000690F0000C0
:10006000690F0000690F0000690F0000690F0000B0
:10007000690F0000690F0000690F0000690F0000A0
:10008000690F0000690F0000690F0000690F000090
:10009000690F0000690F0000690F0000690F000080
:1000A000690F0000690F0000690F0000690F000070
:1000B000690F0000690F0000690F0000690F000060
:1000C000690F0000690F0000690F0000690F000050
:1000D000690F0000690F0000690F0000690F000040
:1000E000690F0000690F0000690F0000690F000030
:1000F000690F0000690F0000690F0000690F000020
:1001000053B94AB9002908BF00281CBF4FF0FF317E
:100110004FF0FF3000F00CB8ADF1080C6DE904CEE3
:1001200000F008F8DDF804E0DDE9022304B07047D0
:10013000704700BF2DE9F04786468C460846089E6A
:10014000154674461946002B40F0C2808542B2FA2B
:1001500082F245D94AB1C2F1200300FA02FC2EFA1C
:1001600003F3954043EA0C0C94404FEA154EA8B2B5
:10017000BCFBFEF8230C0EFB18CC08FB00F943EA8D
:100180000C43994528D9EB1808F1FF3704D299455B
:1001900002D9A8F102072B44A3EB0903A4B2B3FBD5
:1001A000FEFC0EFB1C330CFB00F044EA0344A042AF
:1001B00014D92C190CF1FF3304D2A04202D9ACF1AE
:1001C00002032C44241A43EA07401EB1D440002302
:1001D00034607360BDE8F0874746DDE76346F1E7CA
:1001E00092BB431B01214FEA154EAFB2B3FBFEFC9D
:1001F000200C0EFB1C330CFB07F840EA0343984528
:1002000062D9EB180CF1FF3004D2984502D9ACF159
:1002100002002B44A3EB0803A4B2B3FBFEFC0EFBCD
:100220001C330CFB07F744EA0344A7424ED92C19B0
:100230000CF1FF3304D2A74202D9ACF102032C44E3
:10024000E41B43EA0040C0E7C2F1200320FA03F1B7
:10025000954090402EFA03F303434FEA154EAFB298
:10026000B1FBFEFC0EFB1C10190C0CFB07F841EA5D
:100270000041884504FA02F422D969180CF1FF30D4
:1002800004D2884502D9ACF102002944A1EB08014F
:100290009BB2B1FBFEFC0EFB1C110CFB07F743EA03
:1002A00001439F420ED9EB180CF1FF3104D29F425B
:1002B00002D9ACF102012B44DB1B41EA004192E779
:1002C0006046E3E76146F7E76046A3E76346B7E7C2
:1002D000834206D916B9002108467BE7C6E900E04B
:1002E000F9E7B3FA83F78FB9834201D3724508D88F
:1002F000BEEB020460EB030301209C461EB9002103
:1003000068E73846FAE7C6E9004CF8E7C7F1200C81
:10031000BB4022FA0CF41C432EFA0CF120FA0CF329
:10032000B84001434FEA14490EFA07F5B3FBF9F858
:100330001FFA84FE09FB18300B0C08FB0EFA43EA87
:1003400000439A4502FA07F240D9E31808F1FF305A
:1003500004D29A4502D9A8F102002344A3EB0A0370
:1003600089B2B3FBF9F809FB183308FB0EFE41EA2A
:1003700003418E452CD9611808F1FF3304D28E4514
:1003800002D9A8F10203214443EA0040A0FB0298ED
:10039000A1EB0E014145CE46434602D306D14D4561
:1003A00004D2B9EB020E68EB04030138002EA6D08C
:1003B000B5EB0E0261EB030101FA0CFC22FA07F324
:1003C0004CEA0303F940C6E9003198E74046C5E727
:1003D0004346D9E770B588B02D4C204606F09FF80B
:1003E00028B92C4805F0A7FA002008B070BDA36812
:1003F0009B684BB9284805F09EFA284C206806F007
:100400008EF838B92648EDE70121204698470028A4
:10041000F3D0EFE7234B24481988ADF8101004AD52
:100420009B78AB70FF2245218DF80C2005F083FAF4
:10043000032306930223206805958DF81C309DF850
:100440001C30826843F002038DF81C3096685023FC
:10045000012205A9B0470146144805F06CFA0021B5
:100460004FF4A47006F083F9012300932A4603ABEE
:100470002068502105F063F901460D4805F05BFA4C
:100480009DF80C200B48452105F055FAACE700BF5C
:10049000146A0000B46E0000D36E0000C004002097
:1004A000EA6E0000706C0000046F0000306F000006
:1004B0004A6F0000636F0000014B1B68184700BFC4
:1004C000C4040020014B1860704700BFC404002022
:1004D00030B585B004460D4610220021684606F06E
:1004E000ABF902238DF802302A46044B01932146D2
:1004F000684604F0C7FE05B030BD00BFB904000077
:1005000080B505460E461746984604F081FA034624
:1005100006F0FEF9DFF81890044649F8003042462C
:1005200030463946A84754F8090000F011FC00BFD6
:10053000080000002DE9F047058B04462807904687
:1005400011D4022905F0070540F0CC80204605F0C3
:10055000FFF978B10138218B042811D8DFE800F0C9
:10056000C2106D85950001290CBF45F0100545F0BE
:100570002005258388F31188BFF36F8FBDE8F087CE
:1005800001F0070AAA4500F0A5800027B9463E46BB
:10059000A368002B00F0BC8041F00801218388F3A0
:1005A0001188BFF36F8FA168002900F0BA800D6831
:1005B000002900F0B680D1F8048033465246204628
:1005C000C047002D76D02B6829461D46F0E701F084
:1005D00007035A1F012A1BD8002221F00701062B0E
:1005E000276889B2C4E9002209D13B4603E0628B47
:1005F000013262831B68002BF9D141F00201218393
:10060000204605F0A5F900287AD041F0200176E0D7
:10061000042B0AD121F0070189B22183204605F07D
:1006200097F910B141F020012183218B01F0070AD5
:10063000AA454FD00027B946AAE7236921F0070150
:1006400041F00601062DD3F8009021832DD1B9F198
:10065000000F3FD041F00801218388F31188BFF3D8
:100660006F8F3A492046C84729E021F007012369E6
:1006700041F0040189B2042DD3F804902183E6D01F
:1006800000273E464FF0040A82E721F00701236964
:1006900041F0050189B2052DD3F808902183D6D009
:1006A00000273E464FF0050A72E700273E464FF00E
:1006B000060A6DE72B4687E7B9F1000FD1D1EFF3BA
:1006C0001188202383F31288BFF36F8F238B23F0CD
:1006D00008032383258BEA062ED525F010032383F8
:1006E00005F007056669218B002EBFF670AF002369
:1006F0002768C4E9003321F0070141F0010121839B
:10070000218B01F0070AAA454FF000097FF440AFA2
:10071000002F9CD041F00801218388F31188BFF39A
:100720006F8F002FC8D03D68394633465246204669
:1007300005F03AF92F46F4E7AB067FF51BAF25F03D
:100740002003238305F0070500E700BFD55900000B
:10075000014B036000207047886C000008B5044816
:1007600005F0E9F8BDE80840024805F0E4B800BF2C
:100770008E6F0000C46F0000014804F0DBBB00BFB7
:10078000886C000038B5044618B90F4B0F485B68F9
:1007900098476168B1F5683F10D0B1F5680F0DD08A
:1007A0000B4DA9420AD011F46861206807D00146B8
:1007B000084805F00FFF00232360656038BD142250
:1007C00006F03AF8F9E700BFB0050020F26F00002C
:1007D0002C5F5CA9300D002008B520B34368B3F549
:1007E000683F10D101220368BFF35B8F53E8001FFD
:1007F000002903D143E800200028F7D1BFF35B8F25
:100800000DD1002008BD094A93420AD000684FF07C
:10081000FF324FF0FF3303F021FD0028F1D00448F0
:10082000F0E70448EEE76FF4E040EBE72C5F5CA9EB
:10083000E98FFFFFEA8FFFFF08B5D8B14368B3F532
:10084000683F10D100220368BFF35B8F53E8001F9D
:10085000012903D143E800200028F7D1BFF35B8FC3
:100860000BD1002008BD074A934208D0006803F06E
:100870006DFDF6E76FF4E040F4E70348F2E7034864
:10088000F0E700BF2C5F5CA9E98FFFFFEA8FFFFF55
:1008900010B5044618B91D4B1D485B68984763683E
:1008A000B3F5683F2FD0B3F5680F2CD0194A9342A7
:1008B00019D1236803BB18484FF0FF324FF0FF33C4
:1008C000214603F09DFC08B923681BB90F4B134860
:1008D0005B68984720681422002105F0ADFF4FF4B3
:1008E0006863636008E0B3F5683F0DD83A2B03D026
:1008F00040F6BA629342DED1206805F0B5FE636827
:1009000043F03A03636010BD054AF3E7B0050020E9
:10091000F26F00002C5F5CA9300D00201870000001
:100920003A00003A08B5064906484023142205F06B
:1009300043FEBDE808400449044804F06DBB00BF15
:1009400030080020300D0020906C0000A46C0000E6
:1009500030BFFFF7FDBF00BF2DE9F0410B4EDFF8C0
:10096000308006EB0807CC1B054632460949204675
:1009700005F054FFA01942460021083C05F05CFF39
:100980002C6707F10800BDE8F08100BF00000000FF
:1009900004000000706C0000074A936893F90E1081
:1009A000002907DB526993421FBF044A536843F092
:1009B00080535360704700BF940E002000ED00E0AC
:1009C00070B5264B15469A6A12F0100F9A6A14BF3A
:1009D0001124102412F0080F9A6A18BF12249207EB
:1009E00006460AD5586B9A6A140634D519B19A6A24
:1009F00022F080029A62132401E06FF01500174B79
:100A00009A6A12F0010F9A6A18BF142412F0200F8C
:100A10009A6A18BF1524D20602D49B6A9B070AD58E
:100A20000E4B5B68190506D5314600F057FA10B138
:100A300080F309880224094B9A6A920642BF5A6AD7
:100A400022F400525A629A6A42F0FF029A6200232C
:100A50002B70204670BD6FF01500CCE700ED00E074
:100A6000134B9A6A12F0007F9A6A14BF1E201D2051
:100A700012F0807F9A6A18BF1F2012F4002F9A6A22
:100A800018BF212012F4802F9A6A18BF222012F476
:100A9000003F9A6A18BF232012F4803F9A6A6FEAD7
:100AA00002426FEA12429A6218BF2420704700BFC8
:100AB00000ED00E010B5194B0246986A9C6A10F4EC
:100AC000805F14BF1720162014F4006F9C6A18BFB3
:100AD0001820A40509D5986B986A000404D51AB1AA
:100AE0009A6A22F400429A6219200C4B9A6A12F414
:100AF000806F9A6A18BF1A20D2050CD49B6A13F42F
:100B0000005F18BF1C20054A936A43F47F43936239
:100B100000230B7010BD1B20F5E700BF00ED00E0C7
:100B2000F0B5484B5B688BB00446C3F3080300255F
:100B300085F31188BFF36F8F02F07F40B0F17F4FD4
:100B400011D102F00C0008280DD010074CBF0C4644
:100B500001250022033B8DF80720032B05D8DFE891
:100B600003F0246367602C46F3E700239DF8072019
:100B7000CAB902AE04F1200720686168324603C298
:100B80000834BC421646F7D1099A002D54D0C2F35E
:100B9000080121B96FEA52226FEA4222099202A9A2
:100BA000184604F0AEFF0BB0F0BD264BDA6A910791
:100BB000DBD4DA6A002AD8DBDA6A5200D5D55A6962
:100BC000A16942F480725A61BFF34F8FBFF36F8FF8
:100BD0005A6931F8021C22F480725A61BFF34F8FB8
:100BE000BFF36F8F4DF6027291420AD09A6AD2B269
:100BF0004AB10DF1070201212046FFF7E1FE03464D
:100C0000B4E72368B2E79A6A12F47F4F05D00DF17A
:100C100007010120FFF74EFFF1E79B6AB3F5803F24
:100C2000A3D3FFF71DFFEAE70DF107020021E3E779
:100C30000DF107010020EDE722F4FF7222F001021E
:100C4000ACE700BF00ED00E0044B5A6942F010022F
:100C50005A615A6922F008025A61704700ED00E0BB
:100C6000EFF30880EFF3098101B57246FFF758FFF3
:100C700001BD00BF002080F31488BFF36F8F01F027
:100C8000BFFC00200D490860BFF34F8F0C4880F374
:100C9000088800F02BF8202080F3118809484FF4D1
:100CA0000461401880F30988EFF31480022108439F
:100CB00080F31488BFF36F8F00F0D8F894ED00E054
:100CC000801E0020C01000200749D1F8902000238A
:100CD000C2F307221846934200DB7047C1F89830F0
:100CE000C1F8A0000133F6E700ED00E008B572B6E8
:100CF000002383F31388FFF7E7FF144B4FF0FF3215
:100D0000C3F88020C3F88420C3F88820C3F88C205F
:100D1000C3F89020C3F89420C3F89820C3F89C200F
:100D2000C3F88021C3F88421C3F88821C3F88C213B
:100D3000C3F89021C3F89421C3F89821C3F89C21EB
:100D400062B6BFF34F8FBFF36F8F08BD00E100E0C5
:100D5000084B9B6883420BD1EFF3058343B1064BED
:100D60005A6842F080525A605A6A22F400425A622B
:100D700003F054BE940E002000ED00E015498A688F
:100D80004FF030001044EFF3098C80E8F01F202072
:100D900080F31288BFF36F8F0F4F4FF000664A69E0
:100DA0008A603E604FF07004141920680B4C20607C
:100DB000506F0023536780F3118804B5104600F08C
:100DC000F1F8BDE8044002F1300090E8F01F8CF328
:100DD00009887047940E002004ED00E04C0D0020BF
:100DE0001EF0040F0CBFEFF30880EFF30980816958
:100DF00011F8021C0229FFD001B5724604F087FEEB
:100E000001BD00BF40B2002807DB044A41090123AD
:100E100000F01F00834042F82130704700E100E0FD
:100E2000054B420900F01F0053F82220012303FA6A
:100E300000F01040704700BF00E100E040B2002821
:100E4000A8BF00F1604001F10101B8BF064B4FEAB5
:100E50004111ACBF00F5614000F00F00C9B2B4BF52
:100E6000195480F80013704714ED00E00B4A08B5E0
:100E70000B4B22F07F029A60BFF34F8FBFF36F8F4F
:100E8000D3F8882022F47002C3F8882003F0F4F825
:100E900003F0D2FE00F05CF803F032F9000000002D
:100EA00000ED00E042F8203C009B42F81C3C0A495F
:100EB000019B42F8183C029B42F8143C21F00101CE
:100EC0004FF0807342F8043C42F8081C0023203A9B
:100ED00002654367704700BF01050000094A0346E9
:100EE000906870B113F1160F006E05D0A0F14002AA
:100EF0009A4205D8834203D2814228BF002070471E
:100F000000207047940E002008B51546094A0A4B88
:100F10009060026F1A600E4600F044F82C4686F38B
:100F200009880020054B9847204600210022002315
:100F3000034C2047940E00204C0D00202D5B000038
:100F400001050000014B10221A61704700ED00E01E
:100F5000044800232021C2180133302B82F80013EB
:100F6000F9D1704700E100E008B5EFF30583064AC8
:100F7000103B02EBC30152F8330049688847BDE8D3
:100F80000840FFF709BD00BF286A0000024B034A72
:100F90000348012100F076B8000004200000002082
:100FA000B46C0000026E054B403A1A60044A4021BE
:100FB000C3E901121846012100F06EB8500D00205F
:100FC00000000B15084AC2F898000B6823F01F03B5
:100FD000034343F01003C2F89C308B6843F00103D5
:100FE000C2F8A030704700BF00ED00E02DE9F043EB
:100FF000DFF8608085B00E461F4604464FF00009BA
:10100000B14523DA6068D8B13FB1411E08421BD117
:101010001F2819D92368194216D12368019304F0B7
:10102000A8FDA36803430393D8F89050C5F30725A0
:10103000D0B2013DA84207D801A9FFF7C3FF421C67
:1010400009F101090C34DBE76FF01502104605B019
:10105000BDE8F08300ED00E0044B0522C3F89420C6
:10106000BFF34F8FBFF36F8F704700BF00ED00E0FD
:10107000BFF35F8F024B0022C3F89420704700BF7C
:1010800000ED00E010B5034C01232278FFF7AEFF1E
:10109000207010BDA410002008B50B4A0023127860
:1010A000FFF7A4FF10F1160F07D0084A0021D2F86D
:1010B0009030C3F30723984200DB08BDC2F89800C4
:1010C000C2F8A0100130F2E7A410002000ED00E00B
:1010D0002DE9F043534B544CD3F890302568C3F3BB
:1010E00007239D4285B000F29A80FFF7C1FF0020E0
:1010F0000C2685421AD14D4C4D4F25706846FFF79E
:1011000027FBDFF82081DFF82C9106460025AE4250
:1011100013D1237843490020D1F89020C2F307224D
:10112000934276DBFFF798FF002042E0616806FB00
:101130000011FFF747FF0130DBE7009800EB0511D6
:101140004FEA051CCB683B40B3F5000F48D00AD8E6
:10115000B3F5001F30D0B3F5800F36D0B3F5801F44
:1011600010D00135D3E7B3F1807F42D0B3F1007FD7
:10117000F7D150F80C3088684A6804F0FAFC40F463
:10118000802009E050F80C3088684A6804F0F1FCCF
:1011900040F0885040F43020CDE901230390D8F886
:1011A00090302078C3F30723013B98422AD96FF08F
:1011B000150005B0BDE8F08350F80C3088684A6827
:1011C00004F0D7FC40EA0900E6E750F80C308868E4
:1011D0004A6804F0CEFC40F0E06040F40030DBE709
:1011E00050F80C3088684A6804F0C3FC40F0827004
:1011F000D2E750F80C3088684A6804F0BAFC40F036
:101200008870C9E701A9FFF7DDFE23780133237059
:10121000A7E7C1F89830C1F8A00001337CE74FF090
:10122000FF30C6E700ED00E0C06C0000A410002015
:101230000000F0FF0000081108B5024B1B6898473A
:10124000002008BD5C0D0020034B044A1860937811
:1012500043F00203937070475C0D0020E804002007
:1012600008B50649064821F00701C1F1005202F510
:10127000802204F006FB002008BD00BFC71E00202E
:10128000600D00200E4A0123C2F840354FF0804225
:101290004FF08051C2F87835D1F83001082808D1D4
:1012A000D1F83411052904D80648415C09B1C2F8C7
:1012B00038364FF080430122C3F880250020704764
:1012C00000E001405470000020B1034B800143F066
:1012D00001031847704700BF806C0000F0B44468F9
:1012E000268867880469C9B9002A07D13BB9A38059
:1012F000E3800221F0BC406804F037BD2EDBB2422F
:101300002CDA002B2ADBBB4228DA1849A280E380C2
:10131000595C114461F07F01C9B2EBE7012921D189
:10132000A588154495FBF6F106FB1155E18892FB63
:10133000F6F20B441344002D93FBF7F207FB123334
:10134000AAB2B8BF921999B2B8BF92B2002BBCBF73
:10135000C91989B2054BA280E180D9E76FF0150069
:10136000F0BC70476FF05700FAE700BF5A700000FA
:10137000084B70B5C31A0D4607499B1004465943E4
:101380000648402204F040FD2B4601462046BDE8B9
:1013900070401847800D0020B76DDBB69C690000D7
:1013A00073B50C4C0C4A4023041B00930D460B46AE
:1013B0000A49A41061430646094804F051FD011E84
:1013C00005DA30462B4602B0BDE87040184702B03F
:1013D00070BD00BF800D0020CB5E0000B76DDBB696
:1013E0009C69000010B5EFF31184202383F3128869
:1013F000BFF36F8F074A136823F00201DB07116008
:1014000002D4012004F0DCFE84F31188BFF36F8F57
:1014100010BD00BFD00D0020002270B50121044690
:101420001046FFF70BFD0F4801F074FA0E4B98427F
:1014300015D101F07FFA26690C49304604F0D7FA3D
:1014400000280BDB012535642469084904F11C00E0
:1014500004F0CDFA002801DBE564002070BD6FF0D8
:101460000400FBE7691500000000AD0BFC6C0000F8
:101470001FB500220123CDE90223094ACDF800D08F
:101480006B46CDF804D004F019FD002805DB4FF4BD
:1014900080420023684602F0DDFF05B05DF804FBE2
:1014A000E95E000030B4104B0C2202FB0033014611
:1014B0000020D3E90E529863EFF31180202484F3C7
:1014C0001288BFF36F8F1C6C04F0C00444F0020458
:1014D0001C6480F31188BFF36F8F1DB12B46034846
:1014E00030BC184730BC7047800D00209C6900005C
:1014F00010B4EFF31182202383F31288BFF36F8FB0
:101500001748016841F002040460C80707D482F359
:101510001188BFF36F8F012010BC01F01DBA4FF08E
:101520008041D1F80C04D1F80C14C907EFD5EFF3C2
:10153000118083F31288BFF36F8F0A490B6C03F09D
:10154000C00343F002030B6480F31188BFF36F8F75
:1015500082F31188BFF36F8F002010BCFFF7A2BF8A
:10156000D00D0020800D002010B1012804D070475C
:10157000034B1B6C5B0701D1FFF794BF704700BFA3
:10158000800D00202DE9F0413849BFF35B8F0746FD
:10159000012251E8003F41E800200028F9D1BFF3C3
:1015A0005B8F33B9324933484B60CB608A6004F0BB
:1015B00031FA7B1E012B2BD8012F07D14FF080432E
:1015C000D3F81C3403F00303012B21D005F05FF89E
:1015D0000546F8B9284B1B78E3B14FF0804302224F
:1015E000C3F808230646DFF894804FF08044D4F80F
:1015F0001824D4F81834D20315D503F00303012BB3
:1016000001D0012F0FD155B386F31188BFF36F8F2F
:10161000BDE8F081EFF31186202383F31288BFF336
:101620006F8F0125DFE7ADB1304604F093FAD4F8AF
:101630001835002BDBD1D4F80421002AD7D0C4F808
:101640000431D4F804310123C4F81835C8F88031C6
:10165000A360CCE70021212005F089F8E7E74FF0EF
:1016600080430222C3F80423D2E700BF7C0D002090
:101670006C0D00209C0D0020B710002000E100E060
:1016800008B5074804F04BFF38B10648FFF7DCFD0A
:101690000448FEF717FF002008BD6FF01200FBE7BB
:1016A000D8690000A91600000A2838B5074D04467D
:1016B00004D1AB680D215B6828469847AB680348A6
:1016C0005B68E1B29847204638BD00BFD86900008A
:1016D000F0B54068057B01F01F0444EA4514056934
:1016E00087B0002D64D0B2F5001F00F1100506D1BF
:1016F0002146284604F0E4FD002007B0F0BD01AE0D
:101700000027B2F5800F0197776039D1B3F1007FE0
:1017100014BF052304238DF804300023CDE90463AE
:101720000393836823FA01F111F001011AD1B2F198
:10173000A07F17D104F01F03620903F5E0732AD0DC
:10174000012A3BD11F4A52F82330DB070AD40DF19E
:10175000030632462146284601F0DCFB1A4B98422C
:101760001CD0029603AA2146284601F095FA174B91
:10177000984220D101222146284601F02FFCBBE7E8
:10178000B3F1C06F05D0B3F1007F14BF0123022372
:10179000C1E70323BFE74FF0A042D4E73146284614
:1017A00001F016FC094B9842DBD06FF00B00A4E768
:1017B0006FF08500A1E76FF015009EE751F8233028
:1017C000FFDE00BF000300500400AD0B0000AD0BB6
:1017D00038B545682B69B3B11035284601F0E8FBF0
:1017E000044680B90146284601F0AEFB084B9842FA
:1017F0000BD108492246284601F086FB22460521E6
:101800000620FFF71BFB002038BD6FF00400FBE74C
:101810000000AD0B19180000420970B5034602D054
:10182000012A17D070BD0D4E326951680029F9D0D8
:1018300003F01F0301250C689D400029F2D08A683F
:101840002A4002D04B68304698472CB12368214685
:101850001C46F2E7024EE7E72346F8E7C4690000BA
:10186000B06900002DE9F043466840F20635D00625
:10187000337B87B002EA050554BFC2F34010032052
:1018800001F01F07B5F5837F144647EA43178DF82B
:10189000030045D00FD8062D18D007D8B5B1022DBA
:1018A00040D06FF0150007B0BDE8F083B5F5807F3C
:1018B000F7D101250AE040F20222954234D0B5F575
:1018C000407F33D0B5F5007FEBD102250123220301
:1018D00003FA01F12CD57368C3F80815326982BB8D
:1018E00007F01F037F0929D0012F77D13E4A02EB71
:1018F000830284F48033D2F80017C3F30043C4F3A7
:10190000404444EA430421F4E16144EA800421F0C4
:10191000070144EA05230B43C2F800370020C2E761
:101920000725D3E70425D1E70525CFE70325CDE734
:10193000630344BF7368C3F80C15CFE74FF0A042B0
:10194000D5E710360DF102023946304601F0E2FAD1
:1019500014F4403F80460CD13946304604F0AEFCCA
:10196000224B9845DAD19DF80210304601F02AFB4F
:10197000D4E701AB4FF0000903AA39463046CDE960
:101980000439CDE90199CDF80C9001F085F9174B98
:10199000984286D114F4003315D09DF803308DF8A9
:1019A0000E3084F48034C4F300444B4603AA394615
:1019B00030468DF80C508DF80D4001F027FA0B4B96
:1019C0009842CDD06DE7CDE9043303AA0DF10303AE
:1019D00039463046039301F05FF9F0E703F5E07311
:1019E00052F82330FFDE00BF000300500000AD0BB3
:1019F00002780B69012A08D0022A08D04AB9064A9F
:101A00005A6203F1140002F0F1BC044AF8E7044AF8
:101A1000F6E7044AF4E700BF0000AD0B0100AE0B8F
:101A20000200AE0B0100AD0B2DE9F04FD0F8109085
:101A3000D0F8048085B005460C461746029309F19C
:101A4000040A4FF0FF324FF0FF33504602F002FD20
:101A500009F1140B00230022584602F0FBFC40461B
:101A600001F072FD7B1E00260393B74201D80023CC
:101A700022E0039B217AB34283BF237D83F00403DA
:101A8000C3F3800300230193029B0093D4E9002356
:101A9000284600F04DF8034670B94FF48042002309
:101AA000584602F0D7FC98B1404601F05DFD28464B
:101AB00000F02CF86FF004034046029301F054FD4F
:101AC000504602F093FC029B184605B0BDE8F08F2B
:101AD000D9F82430034A934204F10C04EAD10136C8
:101AE000C3E700BF0000AD0B08B50346406882693C
:101AF00000F1080101F0E4FC034B984214BF6FF0C1
:101B00000F00002008BD00BF0000AD0B08B5436802
:101B10001B68D3F80805D3F80C1502F05DF9034BE8
:101B2000984214BF6FF00F00002008BD0000AD0BFD
:101B30002DE9F04186B00C4647689DF83480154683
:101B4000002112220DF106001E4604F075FEBDF8BC
:101B500030208DF8052004F0010314F008028DF800
:101B600004300296049519D1A10704D4B8F1000FEE
:101B700012D19BB9202201A9384601F011FD0A4B70
:101B800098420ED00B3398420CBF6FF00F006FF0ED
:101B9000040006B0BDE8F0814022ECE76FF085005C
:101BA000F7E70020F5E700BF0000AD0B02780B69F6
:101BB000012A08D0022A08D04AB9064A1A6203F15B
:101BC000100002F013BC044AF8E7044AF6E7044A9E
:101BD000F4E700BF0000AD0B0100AE0B0200AE0B3E
:101BE0000100AD0B2DE9F04F87B005460493436823
:101BF0000769D3F828909B8B03930C4690464FF0CF
:101C0000FF324FF0FF33384602F024FC07F1100397
:101C100002930023002207F11000002602F01AFCB4
:101C20003346464501D300234DE0207A010775D4A1
:101C30000136464521680BD2820709D4227D80EA0D
:101C4000020C0CF0010C02F004025CEA020C08D059
:101C500023B901F06042B2F1005F1AD04FF0000AE0
:101C600001E04FF0010A6268DDF80CE003EB020CC2
:101C7000F44556D8C00705D409EB0300059304F0DA
:101C8000CDFD059B62681A4493B2BAF1000F2ED1C4
:101C900013BBD4F800B0A3884FF0000A049A217A4D
:101CA000009228465A4600F061F8031E0BDB4FF401
:101CB00080420298002302F0CDFB80B1284600F05C
:101CC00035F86FF004030293384602F08FFB029B55
:101CD000184607B0BDE8F08F9A46CB46DEE73B6A70
:101CE000114A9342EDD1237ADB0702D400230C344E
:101CF00097E7CB45FAD1A34609E0AAEB02011FFA08
:101D000081FADBF80C0019FA81F104F087FDDBF8A9
:101D100004209245ABF10C0BEFD2E7E76FF085039F
:101D2000D1E76FF01B03CEE70000AD0B70B5446840
:101D30002368D3F80855D3F80C65204601F096FDCA
:101D40003146284602F048F800210546606A04F052
:101D500074F9204601F07AFD034B9D4214BF6FF0E9
:101D60000F00002070BD00BF0000AD0BF0B587B0C4
:101D700047680C461646002112220DF106001D464A
:101D800004F05AFD04F001038DF80430BDF8303042
:101D90008DF80530BB8D0295AB42049614D384F0C8
:101DA0000202C2F34002520101A9384601F092FD3D
:101DB000084B98420BD00B33984214BF6FF00400CD
:101DC0006FF00F0007B0F0BD6FF01B00FAE70020C6
:101DD000F8E700BF0000AD0B38B545682B6A044634
:101DE0009847686A012104F028F92346AA6905F199
:101DF0000801284601F0F0FC064B984206D101216B
:101E0000204604F040F900EAE07038BD6FF00400AD
:101E1000FBE700BF0000AD0B036803F01F025B0986
:101E2000026004D0012B034818BF002070474FF018
:101E3000A0407047000300502DE9F04FDFF8949167
:101E4000DFF894A185B01546834600EB810140F28E
:101E5000FF18594503D1002005B0BDE8F08FDBF82D
:101E600000305E04C3F3C322C3F3080400F1AC8066
:101E70001B0E19F80270444508BF4FF0FF34222BA7
:101E800000F2A580DFE803F012191F22252B22A300
:101E9000A3A3A33B68A3A3A3A3A3A3A3A3A36B810F
:101EA0008487A3A3A38A9194979A9D00C5F80C45B3
:101EB000601C5ED10BF1040BCBE7C5F81445621C26
:101EC000F8D000265FE0C5F80845F1E7C5F81045F1
:101ED000F5E7631CC5F80845ECD0002604E0661C55
:101EE000C5F80C45E6D0012603A80394FFF794FF3C
:101EF000039B012202FA03F3C0F80C3508E0C5F891
:101F00000845002FDBD1631CD4D0002632460627BB
:101F1000DBF80030019303F40040002818BF0022D2
:101F200003A8009218BF01260394FFF775FF039CD6
:101F3000019B009A00EB8400C3F3412CD0F80047CA
:101F40003B0243EA8C03134304EA0A04234343EAB3
:101F50004603C0F80037ADE7C5F80C45D1E7C5F832
:101F60006045601CDBF80030A4D0C3F30043002BB5
:101F7000B9D003A80394FFF74FFF039B012606FA8D
:101F800003F3C0F808353246C2E7C5F86445E8E710
:101F9000C5F86845E5E7C5F86C45E2E7C5F82445AE
:101FA000621C87D000220126B2E7C5F828457FE7EA
:101FB000C5F83045F4E7C5F83445F1E7C5F83845CC
:101FC000EEE7C5F83C4573E76FF0150044E76FF0A6
:101FD000850041E7AD700000F0F8FCFF2DE9F0410D
:101FE000044647680D4604F052FB4FF0200888B9BC
:101FF000264B1B7873B16426606804F08AF8F0B948
:10200000012004F0CFF8013EF6D10021212004F098
:10201000AEFBF0E7EFF31186314688F31288BFF389
:102020006F8F606804F075F8A8B986F31188BFF364
:102030006F8FEFE786F31188BFF36F8FE5E7EFF35C
:102040001186314688F31288BFF36F8F606804F001
:1020500060F80028EED0BB691D706368BA691B6820
:102060000020C3F844250122C3F84825C3F8200105
:10207000D3F82041C3F85801D3F858019A6081F38E
:102080001188BFF36F8FBDE8F08100BFB71000204B
:10209000F7B50546002201210220FEF7CFFE0220FF
:1020A000FEF7B0FE6A6811681369C1F82435137D24
:1020B000507D927D03431343C1F86C356E68D6E9B9
:1020C000004313F0010348D02F6907F1080004F022
:1020D00075F8304B98425AD1387A04F10C0204F565
:1020E000907104F061F8387A012707FA00F000F0E7
:1020F000A9FB0823C4F80035B369C4F844350023AC
:10210000C4F84835A760D4F85831002BFBD0002123
:10211000C4F800156B68DC6801AA204603F0CCFF08
:10212000002805DB019B226819791868FFF784FEF7
:102130006A6813680821C3F80015117A51B9D26989
:10214000C3F834250122C3F83825C3F81011D3F899
:1021500010111A60002003B0F0BD0822C4F8002559
:10216000B269C4F84425C4F848350123A360D4F803
:102170002031002BFBD00023C4F82031D4F82031CB
:102180000123E3604FF48073C4F80433BBE76FF0BE
:102190000400E0E70000AD0B70B5012383400E4A58
:1021A000BFF35B8FDC4352E8001F01EA040542E8FD
:1021B0000056002EF7D1BFF35B8F4FF48032824080
:1021C0000648C0F80823BFF35F8FBFF36F8F0B4241
:1021D00014BF0120002070BD200E0020001001401F
:1021E00070B40E49D1E90034D01AC31844F1000488
:1021F00022F07F46C1E90034A6F50013B3F5400F85
:1022000009D2074B1B681A0A1B069C19054B42F1A1
:102210000005C3E9004570BC02F0CEBD8006002079
:10222000240E00208806002011B3BFF35B8F01232A
:10223000104A834052E800CF4CEA030C42E800C148
:102240000029F7D1BFF35B8F0B4A4FF480338340F3
:10225000C2F80433094BBFF35B8F1B68BFF35B8F7E
:10226000C340DB0742BF064B4FF40032C3F80021E6
:10227000704700BF200E0020001001401C0E0020FF
:1022800000E100E00D4B1868010A0006BFF35F8F04
:102290000B4BD3F80435181841F10001B3F5801F3A
:1022A0000AD2084BD3E90023904271EB030303D217
:1022B00010F1807041F10001704700BF240E002032
:1022C00000100140880600202DE9F04F85B0164629
:1022D0001F469DF840A00446FFF75EFF0190FFF700
:1022E000D1FFB04271EB070354D23E4B301A67EB7B
:1022F0000101984271F100014FD23B4B03EB0413F3
:10230000D3E902239F4208BF96425ED037494FF47B
:10231000803804F1500508FA04F8AD00C1F848838C
:102320002046ADB203F026FF26F07F4B05F1804535
:1023300004F5A87305F58835DC464FF003090293D0
:10234000029A2CF07F4341F82230C1F84483D1F83F
:102350000435274A6FF00200C01A604420F07F4025
:10236000904232D9286868B1D1F804350393A3EBC1
:102370000B0020F07F40B0F5000F26D9204603F077
:10238000F9FE039BBAF1000F07D109EB030C09F129
:102390000109D5E7BAF1000F09D06FF01505204605
:1023A0000199FFF741FF284605B0BDE8F08F0123F2
:1023B000104ABFF35B8FA34052E8000F184342E876
:1023C00000010029F8D1BFF35B8F07490E98230164
:1023D00001EB0412C8500F9B5360C2E9026700254D
:1023E000DDE700BF01008000700600200010014002
:1023F000FDFF7F001C0E00207FB51C4C1C4BC4F859
:102400000833C4F848331B4B00254FF0FF304FF022
:10241000FF31C4F80855C3E902014FF48033C4F812
:102420000433154B02264FF400320121C4F8046333
:102430001120C3F880212A46FEF700FD1120FEF787
:10244000E1FC0E4A0123A360236013600C4B0D4A8C
:102450000093CDE9015500232846FFF735FF3046AC
:10246000FFF790F8284604B070BD00BF001001408F
:1024700003000F007006002000E100E0200E0020A5
:10248000E1210000FFFF7F002DE9F7432F4CD4F836
:10249000043399070BD5D4F8043143B12C4A0023F7
:1024A000C4F80431D4F80431136801331360D4F84C
:1024B0000433DA0329D5BFF35B8F264B53E8002F93
:1024C00022F0010143E800100028F7D1BFF35B8F31
:1024D000D30702D4D4F84031BBB10025C4F8405131
:1024E000D4F84031FFF7CEFEEFF31182202383F3BF
:1024F0001288BFF36F8F184BD3E90267B042B9411E
:1025000006D282F31188BFF36F8F03B0BDE8F0836A
:102510004FF0FF384FF0FF39C3E90289D3E90010CB
:102520001D604FF48033C4F84833C4F84051D4F8E8
:10253000403182F31188BFF36F8F0029E5D00090FE
:1025400032463B4628468847DFE700BF001001407F
:10255000240E00201C0E00207006002030B5431C05
:10256000124C85B005D08442A8BF0446012CB8BFE8
:102570000124FFF787FE0E4B0C4DD3E90013401AE0
:10258000B0F5000F10D22218AA4228BF2A465218CE
:102590004FF0000007490091CDE9010043F100032D
:1025A000FFF792FE05B030BD2A46F0E7FFFF7F003F
:1025B00080060020E121000008B5FFF763FE024B12
:1025C0001B68C01A08BD00BF800600204FF0805372
:1025D000D3F83021082A06D1D3F83431052B02D89C
:1025E000024AD05C70470020704700BFC9700000ED
:1025F000024AD2F80034002BFBD0704700E00140C3
:1026000010B54FF08053D3F83021082A4ED14FF047
:1026100080420021C2F80C11C2F81011C2F838151E
:1026200002F54042D3F80414C2F82015D3F8081478
:10263000C2F82415D3F80C14C2F82815D3F81014D6
:10264000C2F82C15D3F81414C2F83015D3F81814A6
:10265000C2F83415D3F81C14C2F84015D3F820146E
:10266000C2F84415D3F82414C2F84815D3F8281436
:10267000C2F84C15D3F82C14C2F85015D3F8301406
:10268000C2F85415D3F83414C2F86015D3F83814CE
:10269000C2F86415D3F83C14C2F86815D3F8401496
:1026A000C2F86C15D3F84434C2F87035FFF78EFFCA
:1026B00018B13A4B3A4AC3F88C26FFF787FF18B196
:1026C000384BFB22C3F81825FFF780FF70B14FF09D
:1026D00080414FF08053D1F8E42ED3F8583222F0E5
:1026E0000F0203F00F031343C1F8E43EFFF76EFF40
:1026F00020B12D4B4FF40072C3F840264FF08053A9
:10270000D3F83031082B1AD14FF08043D3F800248E
:10271000D20744BF6FF00102C3F800244FF080538A
:10272000D3F83431052B02D8204AD35C3BB14FF0AB
:102730001023D3F808224FF08043C3F858254FF0F8
:102740001023D3F80022002A03DBD3F80432002B35
:1027500022DA174901234FF01020C1F80435122462
:10276000FFF746FFC0F80042FFF742FFC0F80442FF
:10277000FFF73EFF0023C1F80435FFF739FFBFF331
:102780004F8F0C490C4BCA6802F4E0621343CB60D4
:10279000BFF34F8F00BFFDE710BD00BF00500040EA
:1027A0004881030000F0004000900240C370000028
:1027B00000E0014000ED00E00400FA0530B50468D7
:1027C000CCB1BFF35B8FB4FA84F3C3F11F03DBB268
:1027D00001229A4024EA020250E8005FA54204D197
:1027E00040E8002CBCF1000FF6D1BFF35B8FE6D1BF
:1027F00002480B7030BD0248FCE700BF0000AD0B83
:102800000200AD0B10B50368CB40DB0714D40123E5
:102810008B400268BFF35B8F43EA020150E8004F30
:10282000944204D140E8001CBCF1000FF6D1BFF384
:102830005B8FEED1014810BD0148FCE70000AD0BF5
:102840000400AD0B014BC3F80405704700F00140D4
:10285000F7B50546F8B101281BD104224FF4807367
:1028600001464FF0804003440244C0F8081300269C
:10287000012111601E608D421B688DF8071008BF92
:102880000DF1070642F210744FF0804745B1012D5B
:1028900028D003B0F0BD0C224FF482730221E0E790
:1028A000D7F8183403F480333EB9002BF1D001205F
:1028B00003F078FC013CF3D1EBE7D7F8182402F0E1
:1028C00003023260002BE4D09DF80700012803D1F9
:1028D00003F068FC013CD9D1012DDAD10C4B002268
:1028E0005A71D6E7D7F80C3403F480333EB9002B85
:1028F000F4D0012003F056FC013CF3D1EEE7D7F809
:102900000C2402F001023270002BDDD1E6E700BF9B
:10291000280E0020044B1A7922B9012218609A80EF
:102920000248704702487047280E00200000AD0B97
:102930000C00AD0B08B5074B1B682BB10020FEF750
:102940006FFA08B9FEF75EFA4FF080430022C3F831
:10295000182508BD280E002010B510B1012843D05D
:1029600010BD4FF08043D3F81814D3F81824C803CF
:1029700021D502F00303012B04D013B10020FFF78F
:1029800067FF00234FF080420220C2F8183508226A
:102990004FF4827303F180430021196002F18042F9
:1029A0001C6801241460154A12680AB34FF0804372
:1029B000C3F80403D4E7D3F81424D107E1D5D3F83E
:1029C0001C249207DAD40D4A12681AB10222C3F805
:1029D0000423C5E7D3F80421002AFBD00022C3F862
:1029E0000421D3F80431BBE700224FF48073D1E710
:1029F0001A68002AFCD019601B68B1E7280E002075
:102A000010B54FF08043D3F800216AB10022C3F81B
:102A10000021D3F800210122C3F80823114B587973
:102A200010B95A711B6898474FF08043D3F80421BE
:102A300072B10022C3F80421D3F80421D3F818247A
:102A4000D3F81824920704D10122C3F818259A60FC
:102A500010BD0222C3F80823024BBDE810401B68DA
:102A600001201847280E0020036803F01F025B09AD
:102A7000026004D0012B034818BF002070474FF0BC
:102A8000A040704700030050034A430900F01F00B4
:102A9000D35C1844C0B27047CF70000070B50546D3
:102AA000FFF7F2FF0C4C08300E4634F81030DA0510
:102AB00008D5C3F3432304EBC302284654F833304C
:102AC00052689847A3682BB1E26831462846BDE8B2
:102AD0007040184770BD00BF2005002008B5FFF703
:102AE000D3FF034B083033F81000400B08BD00BF84
:102AF0002005002008B5FFF7C7FF034B083033F867
:102B00001000C0F3400008BD2005002008B5FFF705
:102B1000BBFF034B083033F81000C0F3401008BD72
:102B200020050020034611F0010010B5CCB20DD1F4
:102B3000A207C4F3400012D5094AD2F82005586014
:102B4000C2F82005003818BF012008E04FF0A0416E
:102B5000D1F820251A60C1F82025002AE8D010BD40
:102B60000003005010B5FFF78FFF124A083032F80B
:102B70001030D9051CD5C3F3432123F4F85322F8B0
:102B8000103002F10E04002034F8023F13F4807F6D
:102B900003D0C3F3432399420AD001303028F3D144
:102BA000002342F831300448BDE81040FFF72ABE48
:102BB00010BD00BF2005002098050020F0B5054697
:102BC00000200446012607468C420BD1114BD3F856
:102BD0007C2132B10022C3F87C21D3F87C3140F053
:102BE0000040F0BDE3B29B0003F580729B0806FA3B
:102BF00003F31D420BD002F1804202F5C042D2F82D
:102C000000C0BCF1000F02D01760126818430134F5
:102C1000DAE700BF00600040F7B506460846FFF758
:102C200033FF194F00F108050C4637F81530DB0764
:102C300027D5304603F01EFB2046FFF767FF40B163
:102C40002046FFF74BFF316800F5A270002341F8E2
:102C500020302046FFF786FF002301A827F8153013
:102C60000194FFF701FF019B00EB8300074BD0F8B5
:102C70000027134043F00203C0F80037044803B0B4
:102C8000F0BD0448FBE700BF20050020F0F8FCFF82
:102C90000000AD0B0400AD0B2DE9FF411646804648
:102CA0000846FFF7F1FE0D463168044609B3284691
:102CB000FFF720FF18B12846FFF728FF10BB0023BD
:102CC000CDE900338DF80E308DF80F300DF10F0285
:102CD0000B4628460DF10E0103F074FA474A04F141
:102CE000080132F8113023F0020343F0010322F807
:102CF0001130736863B328461F785968FFF7FAFEEE
:102D000010B1D1B13E4826E03C4A04F1080032F847
:102D1000103023F02003DB04DB0C22F8103061B10B
:102D2000032FEFD87168496891F800C0D8F80010F7
:102D3000A7B90CF5A27C41F82C70304A04F10801C7
:102D400032F8113023F01C0343EA870322F81130D4
:102D5000B3684BBB2B4804B0BDE8F08101EB8C019C
:102D600043EA4C33D1F810E52EF0030EC1F810E51C
:102D7000D8F8001001EB8C0E43F02003DEF810159C
:102D800022F8103021F44F3121F44071CEF81015A3
:102D90002902DEF8108501F47C5141EA074141EA3D
:102DA0000801CEF81015C8E7D3E900672846FFF7F9
:102DB000D9FE002ECED0114DD5E90023964203D185
:102DC0009F4201D1002209E00F480DF10F01FFF7EA
:102DD000F5FC0C4B9842BED19DF80F2045F83260AF
:102DE00005EBC20308345F6035F8143043EA422330
:102DF00043F4807325F81430ACE700BF20050020B1
:102E00000400AD0B0000AD0B980500202DE9F04348
:102E10000C4685B08046204611461E46FFF734FE1C
:102E2000054629B32046FFF765FE18B92046FFF78F
:102E30006DFE18BB314F05F1080937F8193013F052
:102E40001C0F02D04B78012B18D001238DF80F30C6
:102E50000023CDE900134A1C8B1C20460DF10F0105
:102E600003F0B0F937F8193043F0030327F81930AD
:102E7000002E41D02046FFF73DFE18B9204805B08E
:102E8000BDE8F08396F800C0D8F800301B4F0CF571
:102E9000A272002143F8221005F1080237F812103F
:102EA00021F02001C904C90C27F8121075781DB350
:102EB000D8F80000B67800EB8C002D04D0F810355F
:102EC00023F4991323F4F853C0F81035230203F4C4
:102ED0007C5305F440353605D0F810E52B4306F455
:102EE000801641EA4C31334341F0200143EA0E039E
:102EF00027F81210C0F810350248C0E7200500205E
:102F00000400AD0B0000AD0B014BC3E9021270478A
:102F10002005002010B508461446FFF7F7FD50B114
:102F20000846FFF7B1FD054B083033F81030044870
:102F30005B0B237010BD0348FCE700BF2005002099
:102F40000000AD0B0400AD0B70B5164D95F8804038
:102F500006462CBB2146602205F1100003F06CFCF4
:102F600030682E6F21468E420ED10023C0F87C318E
:102F7000D0F87C3140F30730FDF744FF01230A48C5
:102F800085F88030AB6770BDCBB29B0003F58072D3
:102F90007C2B08BF845001F1010108BF8358E2E790
:102FA0000248F0E7200500200000AD0B0C00AD0B3F
:102FB000034B93F88000003818BF0120704700BF12
:102FC000200500200148FFF71DBC00BF940500202C
:102FD0000148FFF7F3BB00BF9405002073B50368F9
:102FE0001646D3F80423002AA8BF4FF00042054636
:102FF000A8BFC3F8042308460C46FFF787FD00B3BB
:103000000846FFF777FD0146D8B92046FFF766FD71
:1030100004B2A40004F58072034628688150296830
:1030200082582144D1F8102542F00102C1F8102540
:103030002EB12968012202FA03F3C1F8043302B069
:1030400070BD2046FFF720FD0F4B083033F81030DD
:10305000C3F38203042B12D0052B12D001A80194D4
:10306000FFF702FD019AD0F81035D34003F00103B9
:10307000991C204602B0BDE8704003F0ECB8032173
:10308000F7E70221F5E700BF200500202DE9F04F0A
:10309000694BDFF8A881D3F80403D8F87010C0B2E8
:1030A00089B040F00040FFF789FD051E2FDAC246C7
:1030B00000235AF87C1F06A8CDE90633FFF732FD3E
:1030C0005F4B01930DF118094FF0000B019A12F8B4
:1030D000013B0192DA0803F007031AF8022022FAF2
:1030E00003F3DA071CD409F10409BBF1000F14D073
:1030F000D8F870104FF00040FFF760FDD8F87C1052
:1031000006A8FFF70FFD0028DAD125F000450124BD
:10311000002D79D109B0BDE8F08F4FF0010BD5E754
:10312000484B5B440293D9F800100029DBD0029B86
:1031300091FAA1F11C78B1FA81F141EA44142046D8
:10314000FFF7A2FC0830059438F81070C808BB08D7
:1031500019F80020039301F00701012303FA01F19C
:1031600022EA010209F8002005A8FFF77DFC059A74
:10317000039B02F5E072C7F3820650F822205B073A
:103180003746C2F3014224D520463946D6B2FFF76E
:1031900085FC05A80594FFF767FC059B03F5E07324
:1031A00050F82330C3F301439E4207D1002120464B
:1031B00003F051F83146204603F04DF805A8059478
:1031C000FFF752FC059B012202FA03F3C0F82035F9
:1031D000A9E7022A0CD10321204603F03CF806F0AF
:1031E0000503012BEAD139462046FFF757FCE5E7F6
:1031F00002212046039203F02EF8032EF3D0039A07
:10320000032ADBD1022EEDE795FAA5F3B3FA83F397
:1032100004FA03F29B0003F1804303F5C04325EA5F
:103220000205D3F81005D3F81015C0F30520C1F33B
:103230000141FFF733FC6BE70060004020050020F0
:10324000DF700000DF70000001460148FFF7B6BAEA
:10325000A405002030B500F01F04400911D001285A
:1032600012D10C4800EB84001B02D0F800570A4C26
:1032700043EA82022C4042EA41012143C0F8001790
:1032800030BD4FF0A040EDE704F5E074002353F8A3
:103290002430FFDE00030050F0F8FCFFCB7B10B4BD
:1032A00033B9D1E900420368C3F80845C3F80C25D7
:1032B00003688A68C3F8242503793C225343054AEE
:1032C000D3582BB1006810BC40F30730FDF79ABD0E
:1032D00010BC7047300E002013B53B4B0193002308
:1032E000C0F80431D0F80421C0F82431D0F82421EA
:1032F000C0F81C31D0F81C21C0F80831D0F80821E2
:10330000C0F800324B6381F82F300123036291F83B
:103310002D209A4218BF83604B6B8A6A9342044601
:103320000ED24A6AD35CC0F81C350B6803B340F276
:1033300086238B608B682548C4F8043302B010BD27
:1033400091F82C3013B10123C361EEE70B6A13F03F
:10335000400F4FF0010316BFC361436181F82D3068
:10336000E3E7204602F0AEFF28B1019B013B019349
:10337000019B002BF5DC91F82F305BB91348019BC2
:10338000002BDBDC0023C4F8003505231048C4F80B
:103390000035D3E7D4F8C434C4F8C4348BB10D4A33
:1033A0000B4813F0010F18BF104613F0020F02F183
:1033B000010218BF104613F0040F074B18BF184640
:1033C000DDE70348DBE700BFA08601000000AD0B8E
:1033D0000100AD0B0000AE0B0200AE0B13B5334B7A
:1033E00001930023C0F80431D0F80421C0F824313F
:1033F000D0F82421C0F81C31D0F81C21C0F80831C5
:10340000D0F808214B6381F82F308B6A012B0446DA
:1034100017D10B6A5B0614D40223C4F800320123CF
:10342000236291F82D20022A18BF23600B688BB10C
:1034300040F286238B608B681D48C4F8043302B0C9
:1034400010BD0123E9E7204602F03CFF28B1019BB3
:10345000013B0193019B002BF5DC91F82F305BB908
:103460001348019B002BEADC0023C4F80035052338
:103470001048C4F80035E2E7D4F8C434C4F8C434C2
:103480008BB10D4A0B4813F0010F18BF104613F013
:10349000020F02F1010218BF104613F0040F074B90
:1034A00018BF1846DDE70348DBE700BFA086010030
:1034B0000000AD0B0100AD0B0000AE0B0200AE0B27
:1034C0002DE9F84390F804901C4E07463C2000FB81
:1034D00009F035180C4695F82E1061BBA9603250E2
:1034E0006B6085F82D1085F8311085F83010CCB15F
:1034F000637B85F8383094F80E8085F83980B8F110
:10350000000F0BD12068062303224146FFF7A2FEDD
:103510006068062303224146FFF79CFE2146384699
:10352000FFF7BCFE3C2303FB09660548012386F830
:103530002E30BDE8F8830348FBE700BF300E0020C3
:103540000000AD0B0C00AD0B036802790521C3F838
:103550000015044B3C2101FB0233022283F82E208C
:10356000704700BF300E002003680B4A0179C3F892
:103570000823D3F8002222F00302C3F8002200221D
:10358000C3F80025054B3C2000FB0133012183F8E3
:103590002E1083F83020704786420400300E002041
:1035A0002DE9F047314F0479D0F800903C2303FB1C
:1035B00004730D4693F82D30012B944604D10B78FB
:1035C000012B06D12A4811E0022B02D10B78012BE6
:1035D000F8D13C26274BC9F8083306FB047696F849
:1035E00030302BB1B3682448C9F80433BDE8F08704
:1035F0008CF00403C3F3800386F83030C6F820C093
:10360000A846B8E80F0006F10C0EAEE80F00D8F897
:103610000030CEF800306B68B362EB6873626B7891
:10362000C9F888352B78C4EB041A012B07EB8A0AFA
:1036300017D09BB9CCF3401C3C2303FB04735146C9
:10364000484683F82CC0FFF747FE3C235C433A19F9
:103650003B59002BCAD182F83030C7E74FF0010C3C
:10366000EAE751464846FFF7B9FEEEE7300E002084
:103670000500AD0B864204000B00AD0BF0B5324CDB
:10368000324887B0214602F01DFE002859D194F837
:103690002F70FFB9227B931E012B1BD8606AA36990
:1036A000984217D1E36963626369A362236A27487A
:1036B00084F82D70C3F34013032A84F82C3004D10E
:1036C00007B0BDE8F040FFF707BE07B0BDE8F04027
:1036D000FFF784BE1E4E0FCE01AD0FC533682B60C1
:1036E00047B31A4AD2F8C434C2F8C43413F0020102
:1036F00006D001238DF80030002384F8303007E035
:1037000013F0040209D002238DF8003084F8301041
:10371000D4E900316846984713E013F0010305D05F
:1037200003238DF8003084F83020F1E704228DF86F
:103730000020E2E7236A8DF800705B0784F83070A0
:10374000E6D507B0F0BD00BF300E002000300040CD
:103750003C0E002030B500F01F04400911D00128B4
:1037600012D10C4800EB84001B02D0F800570A4C21
:1037700043EA82022C4042EA41012143C0F800178B
:1037800030BD4FF0A040EDE704F5E074002353F89E
:103790002430FFDE00030050F0F8FCFF10B4CC7BB7
:1037A0008A6803682CB9D1E90041C3F80845C3F819
:1037B0000C15C3F82425037928225343054AD3580E
:1037C0002BB1006810BC40F30730FDF71BBB10BCE9
:1037D000704700BF6C0E00202DE9F04190F8048086
:1037E000164E0746282000FB08F035180C4695F8C1
:1037F0002210F1B9A96032506B6085F8251085F868
:1038000024106CB1A37B85F82730204602F023FEFC
:1038100088B1637B85F8263021463846FFF7BEFF26
:10382000282303FB08660648012386F82230BDE8FA
:10383000F0810448FBE70448F9E700BF6C0E002064
:103840000000AD0B0C00AD0B0400AD0B036802795A
:103850000621C3F80015044B282101FB0233022284
:1038600083F82220704700BF6C0E002010B5164B65
:103870000479282202FB0432002191600268134976
:10388000C2F80813D2F8001221F4BC51C2F8001299
:103890004FF08051D1F83001082809D1D1F8341106
:1038A000052905D80A48415C11B10921C2F8001563
:1038B0000021C2F80015282202FB0433012283F8FC
:1038C000222083F8241010BD6C0E002002029C01FF
:1038D000E17000002DE9F84FB04D90F804900468B5
:1038E000282303FB09539046002283F823204B68CA
:1038F0000E4633B1CB6803F06043B3F1005F40F094
:1039000085813378023B012B06D8336903F060438D
:10391000B3F1005F40F07A81A14BC4F8083328234B
:1039200003FB095393F8241001F0FF0239B19B689F
:10393000DFF870B2C4F804335846BDE8F88F18F0C9
:10394000140F0CBF0121002183F82410317883F873
:103950002010717883F82110F168D96071681961BD
:1039600031695961B1689961C8F3001183F8251074
:10397000C3F81C807378C4F88835C4F86021D4F883
:103980006031C4F84821D4F84831C4F82421D4F86F
:103990002431C4F80421D4F8043118F0010318BF0D
:1039A0000123C4F8503518F0020318BF0123C4F8EE
:1039B0004035337809EB890705EBC707032B00F285
:1039C000A380DFE803F0799862024FF48073C4F8B3
:1039D0000032D7E90323C4F84425C4F8483501234D
:1039E000A3604FF48011204602F058FD0028F8D162
:1039F000D7E90523C4F84425C4F84835282303FB38
:103A000009534FF480229A60DFF89CB1282202FB10
:103A100009F218F0080AAB5805EB020013D131780F
:103A2000032910D0012940F085802160002B6ED041
:103A3000282202FB09F27168AA5821B9002A00F075
:103A4000BB8001226261282202FB09F2A918AA5850
:103A5000002A00F0B18018F0040F1CBF00228A6019
:103A600018F0400F06D1282202FB0952916841F05C
:103A700002019160282202FB0952916841F4007111
:103A800091609268C4F8042356E7D7E90323C4F889
:103A90004425C4F84835D7E90523C4F83425C4F8CB
:103AA00038354FF48453C4F80032012323622823AD
:103AB00003FB09530222A6E7D7E9032318F0200FDE
:103AC000C4F84425C4F848354FF0280315BF4FF417
:103AD00080724FF4007203FB095303FB095315BFB7
:103AE000C4F80022C4F800224FF4802202229A6017
:103AF0000123236288E7D7E90323C4F83425C4F8F7
:103B000038354FF48053CEE7DFF8A0B07EE7026986
:103B100002B961612649DFF89CA0204602F0BEFC94
:103B2000012210F4007F18BF626110EA0A0F2049D9
:103B3000F3D07DE70121A160002B7FF479AF00690C
:103B400018B31C4B1AEA030F7FF472AF18492046D2
:103B500002F0A4FC10F4007F8246F2D04FF0807196
:103B6000204602F09BFCD4F8001280B111F40070E2
:103B700003D10122226282466261CB05E1D54FF476
:103B80008021204602F08AFC04E06161D9E701222D
:103B9000226262614FF0000AD3E700BF6C0E002082
:103BA00002029C010B00AD0B0000AD0B0400AD0B3D
:103BB00002020400020004002821D4F8C424C4F83E
:103BC000C42401FB0955002185F824108AB111494C
:103BD000114B12F0010F14BF8B469B46013112F0BE
:103BE000020F18BF8B4612F0040F0C4A18BF934601
:103BF000A2E618F0400F7FF49FAE3946204602F04F
:103C0000F9FB054A002808BF934695E6DFF810B097
:103C100092E600BF0000AE0B0100AD0B0200AE0B40
:103C20000A00AD0B30B5022187B04FF0402002F002
:103C300035FC4FF4007105464FF0402002F02EFC99
:103C40005A4CF0B1FDB94FF04025A368C5F80833D0
:103C50000223A360A368C5F804334FF0807128469F
:103C600002F01CFC18B1D5F800329A0504D44FF0CC
:103C7000402301221A625A61012384F8233007B0DD
:103C800030BD002D5AD0E5696B060BD494F8233073
:103C900043B946494FF0402002F0ACFB80F00100F0
:103CA00084F8230015F0040525D14FF0402394F843
:103CB0002520C3F86051D3F86011C3F85C51D3F8E4
:103CC0005C1112B194F8232052B10022C3F80022F3
:103CD000A260374AC3F80823364B1022C3F880216C
:103CE000238CADF80430E36804932369029363697D
:103CF0000593A36903934FF04022D2F8C434C2F86D
:103D0000C43498074CD459074CD4DA074CD494F8EF
:103D100023309B00DBB28DF8003094F825300BB9CE
:103D200084F82430E3695B0703D594F82330002B33
:103D3000A5D0D4E9003168469847A0E74FF4802128
:103D40004FF0402002F0AAFB94F820204FF04023CF
:103D5000A2B994F825204AB9C3F80022A260144AF7
:103D6000C3F80823134B1022C3F8802100238DF8D9
:103D7000043094F821308DF80530B4E74FF4007228
:103D8000C3F8002240F20222A26002F1CE72C3F810
:103D90000823A268C3F8042301229A601A626EE71E
:103DA0000123B8E70223B6E70323B4E76C0E002033
:103DB00002029C0100E100E0036803F01F025B09BE
:103DC000026004D0012B034818BF002070474FF059
:103DD000A040704700030050F7B5064602F088FB8C
:103DE000084602F085FB01A80196FFF7E5FF019B5D
:103DF0002E4D00EB83000C46D0F80037019440F2C2
:103E00000D612B400B43C0F8003701A8FFF7D4FF2A
:103E1000019B00EB83000127D0F800372B400B43B8
:103E2000C0F80037042002F0BDF9092501A801946B
:103E3000FFF7C2FF019AD0F81035D340DB0715D445
:103E400001A80196FFF7B8FF019B07FA03F3C0F83A
:103E50000C35042002F0A6F9304602F049FB013D82
:103E6000042002F09FF915F0FF05DFD101A80194AD
:103E7000FFF7A2FF019A01239340C0F80C350420FC
:103E800002F090F9204602F033FB042002F08AF998
:103E900001A80194FFF790FF019AD0F8103504486B
:103EA000D34003F00103C01A03B0F0BDF0F8FCFFEB
:103EB0000100AD0B08B5144BA8220021184602F0F2
:103EC000BBFC0322026111494261114A8161C26156
:103ED0004FF480620262002282624262C262016624
:103EE0000C4941661021816603460267C26642673B
:103EF000BFF35F8F084911F8010D98540132102A61
:103F0000F9D1BFF35F8F08BD10040020E7700000F7
:103F100010000020000000200071000010B4BFF36A
:103F20005F8F0B4A0B490023C85C12F8014D844295
:103F300009D10133102BF7D10023BFF35F8F23B1D9
:103F400010BCFFF7B7BF0123F7E710BC704700BFF5
:103F5000007100001004002038B5EFF31185202314
:103F600083F31288BFF36F8F064B9C6802F0EAFA66
:103F700085F31188BFF36F8F2046BDE83840FCF70A
:103F8000E7BE00BF940E002038B5094B53F820401F
:103F9000013053F82050A54200D838BD636823B1E2
:103FA000204602F0D2FA0834F5E723689847FAE78A
:103FB000146E000070B52B4B2B4C2C4D012286B09B
:103FC00003201A70FFF7E0FFFCF7C8FB02F0D9FAF4
:103FD0000420FFF7D9FF2646AE4204F1300410D387
:103FE00000F01CFC204C224EAC4226D300F02AFCF0
:103FF000FCF7F0F91F4A137B23F00103137306B09B
:1040000070BD54F80C3C059354F8103C049354F8DC
:10401000143C039354F8183C029354F81C3C01934D
:1040200054F8203C009354E90A2354E90C0100F0B1
:1040300037FA54F8303C5E65CDE7D4E90A23B3F192
:10404000FF3F08BFB2F1FF3F05D052EA03012068ED
:1040500003D100F0B7FC3034C6E73146183000F029
:1040600035FEF8E7B7100020A86B0000A86B000031
:10407000676700001007002008B50348034A0021C5
:10408000121A02F07AFA08BD70060020BC10002057
:1040900070B5002386B00122CDE90423134E144DE0
:1040A00001930F22CDE902321249142303FB00557C
:1040B00006EBC01604464FF4C07000FB04110E4B13
:1040C00000954FF4A072304600F0EAF9737B0B4A7A
:1040D000EE6023F0040373734FF4046304FB0333B3
:1040E00013442C746B6006B070BD00BF90060020B6
:1040F000940E00200019002043660000C01000202C
:10410000BFB50020FFF740FF2C4B83F308882C4DF0
:104110002C4E6B692C4F43F400736B610024E02339
:1041200085F82230EC772C766C76AC7685F82040DA
:104130006B6A43F4E0236B6285F82340FCF784FD4F
:10414000FCF700FF4FF0FF33AB62EB62FCF7C0FF00
:10415000FCF71CFF1D4BB36040F201129A81C3E9CA
:104160001844DC6602F0DAF90120FFF70DFF0220A7
:10417000174DFFF709FF00F099FB164B756105938A
:10418000012315490094CDE903434FF480623B4677
:10419000CDE90144284600F083F96A7B064622F007
:1041A000040228466A7302F0B2FA2046FFF770FF55
:1041B0003A4631462846FCF7A7FE00BF001900200A
:1041C00000ED00E0940E0020B53F000090070020B5
:1041D0001007002001710000801A002038B5064C3D
:1041E000064D0020AC4200D338BD204602F0CAF98B
:1041F0000028F9DB1C34F5E71E0600201E0600200F
:1042000073B50C46EFF31181202585F31288BFF3B7
:104210006F8FC5685DB125602B68C360836901330A
:104220008361002081F31188BFF36F8F11E052EAA0
:10423000030603D125606FF00B00F3E7CDE90023FF
:104240000246083000F04AFA18B9034B9B685B69D4
:10425000236002B070BD00BF940E00202DE9F34131
:10426000044617461E46EFF31188202383F3128875
:10427000BFF36F8FC368334A7BB18068916888420F
:1042800019D057EA060318D188F31188BFF36F8F4E
:104290006FF00F0002B0BDE8F081916891F90E1047
:1042A00021610133E3609368A36088F31188BFF351
:1042B0006F8F0020EEE72169F2E791F90E1090F977
:1042C0000E309942A8BF19466FF07E029142B8BFE6
:1042D00011468B422DDD02F0BFF90546CDE900768F
:1042E00019482246414600F0F9F90028E1D0EFF3E1
:1042F0001186202383F31288BFF36F8FA068D0B19B
:10430000236821699C420AD04BB193F90E3099423F
:10431000A8BF19466FF07E039942B8BF194602F054
:104320009BF940B10848314600F052FA6FF00A009C
:10433000B0E70025D2E7002DF4D186F31188BFF352
:104340006F8FF3E7940E0020B8100020F8B5836853
:104350000546002B3FD0234A926893423ED1C36862
:10436000012B03D9013BC3600020F8BDEFF3118797
:10437000202383F31288BFF36F8F0169806802F0F6
:104380006BF92C68A54207D10023C5E9023387F3F6
:104390001188BFF36F8FE7E7002CF5D0D4E9003226
:1043A00013605A60637B002623F002036373C4E941
:1043B0000066A66004F1180002F00BFAAC6094F9F4
:1043C0000E302B612046A66702F0A1F90648394657
:1043D00000F0FEF9C8E76FF01500C6E74FF0FF30B8
:1043E000C3E700BF940E0020B810002070B5EFF3B3
:1043F0001186202383F31288BFF36F8F0468A042D5
:104400001AD0CCB1D4E9003213605A60637B002526
:1044100023F002036373C4E90055A56004F118009A
:1044200002F0D7F92046A56702F071F93146084835
:10443000BDE8704000F0CCB9D0E902329A4218BF12
:104440000133836086F31188BFF36F8F70BD00BFA7
:10445000B810002013B5EFF31181202484F31288E3
:10446000BFF36F8F846844B1013C846081F311888D
:10447000BFF36F8F002002B010BD52EA030406D1D3
:1044800081F31188BFF36F8F6FF00F00F3E7CDE971
:1044900000230246014800F021F9ECE7B8100020A3
:1044A0002DE9F043073285B022F007020E461F4681
:1044B0001099017300F158037F32C0E916330446A6
:1044C000002322F03F020421836041733F2A0F98AA
:1044D000A073C4E90633E37306F14009A2F1400872
:1044E00005D883F31188BFF36F8F084602DFB51834
:1044F00029462046FCF730FA07300E9B20F00700D3
:10450000A066C4E9189802930D9B01932D1A0C9B89
:1045100000932A463B4631462046FCF7C3FC002365
:104520006365044B9B6803B1DB6EE366284605B008
:10453000BDE8F083940E0020094A93686FF00A01E9
:104540009967084958674B6843F080534B600023D4
:1045500083F31188BFF36F8F9368986F704700BF24
:10456000940E002000ED00E070B590F90D20437B23
:10457000002A39DBD90637D18269002A34D11D4C93
:1045800063F07F032246437352F8183F93422CD1C5
:10459000E169C0E900210860E06111E09942F8D0CA
:1045A0001B68002BF5D090F90E5093F90E60B542C0
:1045B000F4D0AE42F2DD5968C0E9003108605860BD
:1045C000A569954200D005B9E568A3685A7BD20673
:1045D00004D1DA897F2A01D9AA6942B1AB4202D05B
:1045E000284600F0D1FA656170BDE169D9E76361E1
:1045F000FAE700BF940E002038B590F90D20437BF8
:10460000002A014604DA03F07F03437302F045F801
:104610000D4D2A46AB6852F8184F944200D004B9A9
:10462000EC688B4207D05A7BD20604D1DA897F2A04
:1046300001D9A2692AB1A34202D0204600F0A4FA0F
:1046400023466B6138BD00BF940E002070B590F911
:104650000D20437B002A014604DA03F07F034373F5
:1046600002F01BF84B7B1C4C63F07F0322464B731C
:1046700052F8183FE069934207D1C1E90020016078
:10468000E16111E09842F8D01B68002BF5D091F958
:104690000E5093F90E60B542F4D0AE42F2DD586888
:1046A000C1E9003001605960A569A368954200D056
:1046B00005B9E5688B4207D05A7BD20604D1DA8966
:1046C0007F2A01D9AA692AB1AB4202D0284600F05C
:1046D0005BFA2B46636170BD940E0020F8B5124B57
:1046E0000C461146114A98681060DDE90676EFF332
:1046F0001182202282F31288BFF36F8F9D682846B3
:1047000001F0DDFFB6F1FF3F08BFB7F1FF3F06D074
:1047100007493A46334605F1180000F0D7FA20461B
:10472000BDE8F840FFF708BF940E0020B40E00204B
:1047300067670000F8B50446EFF31186202383F382
:104740001288BFF36F8F437BDA0649B217D18269B3
:10475000AAB903F07F03437301F09FFF1B4D437B16
:10476000817363F07F032A46437352F8183F9342E4
:104770002AD1E869C4E900200460EC6116E0A17365
:10478000002086F31188BFF36F8FF8BD8342F1D00C
:104790001B68002BEED093F90E70B942F6D08F4211
:1047A000F4DD5968C4E900310C605C60AC69944286
:1047B00000D004B9EC68AB689C4202D0204600F0FF
:1047C000E3F96C610120DCE7E869E2E7940E002080
:1047D00049B9EFF3058030B9054B5A699B689A4295
:1047E00001D0FFF7A9BE81F31188BFF36F8F704727
:1047F000940E0020034648B9EFF3058232B9064A09
:1048000051699268914201D0FFF796BE83F31188F7
:10481000BFF36F8F704700BF940E0020EFF311813C
:10482000202383F31288BFF36F8F054B9A68D37BE5
:10483000013BD37381F31188BFF36F8F704700BFC3
:10484000940E002070B5EFF31186202383F31288B5
:10485000BFF36F8F144DAB68DA7B0132DA732A46EF
:1048600052F8184F944200D004B9EC685A7BD20633
:1048700004D1DA897F2A01D9A2692AB1A34202D0E0
:10488000204600F081F923466B6186F31188BFF35F
:104890006F8FEFF31180202383F31288BFF36F8FA4
:1048A000BDE87040FFF7A6BF940E0020024B03F155
:1048B0001802C3E906227047940E002070B5EFF38A
:1048C0001186202383F31288BFF36F8F1B4CA168DE
:1048D000E0690B68814214BF1A46002249680B60E8
:1048E0005960A368E1692AB9154AC3E900210B6040
:1048F000E3610CE093F90E0092F90E50A84218D033
:10490000854216DD5168C3E900210B605360A5693B
:104910000B4B9D4200D005B9E568A3689D4202D0CB
:10492000284600F031F965613046BDE87040FFF778
:1049300003BE8A42D8D01268D5E700BF940E00208B
:10494000AC0E002050EA01032DE9F04105460E4669
:1049500004D1FFF7B3FF0020BDE8F081831C71F1A3
:10496000FF3324DB01F056FF4419EFF311882023B5
:1049700083F31288BFF36F8F0F4F104BB868186026
:10498000FFF73AFEB8680E492A463346183000F061
:104990009DF9BA68537B43F0040353734046FFF715
:1049A000CBFD01F037FF201A20EAE070D4E76FF06A
:1049B0000104241AD9E700BF940E0020B40E002091
:1049C0006767000038B50446183001F002FFEFF3C6
:1049D0001185202383F31288BFF36F8F637B5A07FF
:1049E00004D485F31188BFF36F8F38BD23F004031F
:1049F00063732046FFF7B8FDEFF30583002BF0D17A
:104A000029460248BDE83840FFF7E2BEB810002052
:104A1000014B9868704700BF940E00202DE9F843C1
:104A20000446EFF31187202383F31288BFF36F8FBF
:104A3000067B16F001060DD087F31188BFF36F8F48
:104A4000002383F31188BFF36F8F0423184602DF1E
:104A5000BDE8F883437B1A0704D587F31188BFF3B9
:104A60006F8FF5E7D90943F0080250D14273A3686C
:104A700013B1204601F019FE04F1180001F0A9FE5F
:104A8000A56D04F15808A84511D04FF0000975B183
:104A9000284601F00AFE05F1180001F09AFEC5F85B
:104AA00078902846FFF760FDA56DA845EFD11C4D15
:104AB000AB689C4204D1EFF30586003E18BF012687
:104AC000D5F81880174A904502D0B8F1000F01D1EF
:104AD000D5F80C80434502D0404600F055F8C5F8A3
:104AE000148046B1104BAB6040F201129A81002253
:104AF000C3E91822DA66AB689C42AED1EFF30583B6
:104B0000002BAAD13846BDE8F843FFF715BD03F0E6
:104B10007F0343F00803437301F0BFFDA7E700BF25
:104B2000940E0020AC0E002090070020044BC01A09
:104B3000044BC0105843044B01221A54704700BF65
:104B400010080020ABAAAAAAB8100020C3897F2BA6
:104B500012D80A4B1B6863B1094B90F90E201B68F1
:104B60009A4209DB437BDB0606D1064BC31A18BF0A
:104B7000012303F0010070470023FAE7BC0E002078
:104B8000B80E00209006002070B50E4B0E4C1E7C17
:104B900006EB460304EBC3040546204601F019FE6C
:104BA0000A4B002228469A55FFF7D0FF48B1084B20
:104BB00008491A68013A2046D317BDE8704000F052
:104BC00085B870BD940E002010080020B810002099
:104BD000BC0E00202D4B000038B5EFF311852023CB
:104BE00083F31288BFF36F8F104B114A9C681068D3
:104BF000A04206D1FFF7C8FF85F31188BFF36F8F7E
:104C000038BD00211B7C11600A4AD35C002BF3D015
:104C10002046FFF79BFF0028EED0637BDB0602D126
:104C20002046FFF713FD2046E4E700BF940E002066
:104C3000B40E0020B81000200748084A084908B5FB
:104C4000121A01F09CFC0748074A0849BDE80840D1
:104C5000121A01F094BC00BFC004002070060020AE
:104C600020710000B8040020C0040020187100006A
:104C7000024B1868984208BF00207047A805002022
:104C8000034B1B680BB9FDF797BC0020704700BFB2
:104C9000C00E002030B570B10B4B5B6898420AD053
:104CA000036843B1D3E90421D0E90445121941EB6B
:104CB0000501C3E90421D0E9003213605A600023E2
:104CC000C0E9003330BD00BFA8050020B3F1FF3FAD
:104CD00008BFB2F1FF3FF8B504461D4616465AD04C
:104CE0008160EFF31187202383F31288BFF36F8F66
:104CF000013275F1FF3321DA2C49D1E900206FF040
:104D000001039B1A4FF0FF3262EB00009E1B60EB29
:104D10000500012E70F1000301DA01260020C4E92C
:104D20000460FFF7A5FF224E84467068BCF1000FB7
:104D30000DD1C4E90060046074601CE0FFF7A0FFBF
:104D4000013645F10005361845EBE070E7E7DCE990
:104D50000425D4E90431934271EB050E1CDAD21A12
:104D6000DCF8043065EB0105CCE90425C4E900C397
:104D70001C60CCF80440FFF77BFF844207D10D4B49
:104D80001C6824B901F00CFD2146FDF7E7FB87F311
:104D90001188BFF36F8FF8BD9B1A61EB0501844545
:104DA000C4E90431C5D0DCF800C0BFE72808002002
:104DB000A8050020C00E00202DE9F047EFF3118573
:104DC000202383F31288BFF36F8FDFF8A090DFF802
:104DD000A080C9F80000FFF74BFF00260027D9F894
:104DE0000030D8E900ECD91750B1D0E90442A34211
:104DF00071EB020A1ADAE41A62EB0102C0E904421A
:104E000013EB0E034CEB01010024C8E90031C9F893
:104E1000004001F0C5FC2146FDF7A0FB85F3118899
:104E2000BFF36F8FBDE8F047FFF7D6BE14EB0E025D
:104E30004CEBE473C0E90467C8E90023FFF72AFFDD
:104E400085F31188BFF36F8F83689847EFF311855F
:104E5000202383F31288BFF36F8FD9F800301B1B18
:104E6000C9F80030FFF704FFB9E700BFC00E00200B
:104E70002808002010B5EFF31184202383F3128853
:104E8000BFF36F8FFFF7FCFE054A0346D2E900012E
:104E9000181841EBE37184F31188BFF36F8F10BDD5
:104EA0002808002010B50A4C23681BB10123236099
:104EB000002010BD00F0EAF80028F7D001380628DD
:104EC00003D8044B53F8200010BD034810BD00BFA9
:104ED000C40E00202C6E0000FE8FFFFFBFF34F8F2B
:104EE0000549064BCA6802F4E0621343CB60BFF386
:104EF0004F8F00BFFDE700BF00ED00E00400FA05A2
:104F000010B4094B09490A4C4FF0FE32C3F8002493
:104F10004968C3F80424C3F80824C3F80C24002308
:104F2000C4F8003510BC084700B00250B00500209E
:104F300000A00250D0E90012014BC3E900127047F3
:104F4000B005002010B5044650B1636813F0685FE7
:104F500005D0064A934202D000232360626010BD50
:104F6000034B04485B689847EFE700BF2C5F5CA9E0
:104F7000B0050020486E0000C8B143680D4A934256
:104F800013D013F0685F0ED0012350E8002F1946AC
:104F900040E8001C9CF0000FF7D1012AF5D0BFF3C8
:104FA0005F8F0020704704487047044870476FF4D3
:104FB000E04070472C5F5CA9E98FFFFFEA8FFFFF9D
:104FC00080B14368094A93420AD013F0685F05D064
:104FD000BFF35F8F00230360184670470448704793
:104FE000044870476FF4E040704700BF2C5F5CA935
:104FF000E98FFFFFEA8FFFFF10B5044620B1044B95
:1050000063600022226010BD0248FFF779FFF6E7D7
:105010003A00003A706E000070B5D0E90023174CDA
:10502000174D6360D0E90230C4E90230226048685D
:10503000D1F800C0134BC3E900C0D5F81801D1F86E
:1050400008C0C3F808C010F0685FD1F80CC0096947
:10505000C3F80CC0196110D00B49C5F8BC1100236E
:10506000C5E9453105F58A70C5F8B8319047236820
:1050700005F5DC70BDE87040184770BDCC05002018
:10508000DC0E0020B80500202C5F5CA938B500F0CC
:105090002FF820B1032400F063F8204638BD00F05B
:1050A00031F898B900F0ACF898B90F4DD5F8283917
:1050B0001B0EF02B08D1D5F8242A0C4B9A420AD0AB
:1050C000072400F017F8E6E70624FAE70424204650
:1050D00038BD0024F5E7012000F092F804460028CE
:1050E000F7D1C5F80C0AD8E700B002500000E02064
:1050F0000020704700207047014BC3F8040A704736
:1051000000B0025010B5114800F048F800B110BDD1
:105110000F4800F043F80028F9D10E4C204600F06B
:105120003DF80028F3D10C4B0C481C6000F036F819
:1051300001460028EBD100F02DF8044608B12046C6
:1051400010BD00F03FF82046FAE700BF0C06002033
:105150000806002004060020FC05002000060020B0
:1051600008B5084800F024F8074800F021F807487F
:1051700000F01EF8064800F01BF8BDE8084000F0FB
:105180000BB800BF0C060020080600200406002013
:105190000006002000207047704700BF08B5034B91
:1051A00002681B6810689847002008BDCC050020E5
:1051B00008B5034B02685B6810689847002008BD7B
:1051C000CC05002070B5094C094D2069AB689847A3
:1051D00018B1084B08485B689847084AEB68206993
:1051E00000211160BDE87040184700BFB8050020DD
:1051F000CC050020B0050020946E0000D80E0020E1
:10520000F8B51A4D1A4E0446B26828699047E8B9B5
:10521000184F3B684CB1A3B1012B19D0013B3B6047
:105220002869F36898470020F8BD43B9124A012164
:10523000C2F800151149D1F81029002AFBD1013319
:105240003B60F368286998470020F8BD0C48F8BD1A
:105250000A4AD2F81039002BFBD1074A6FF07E4082
:10526000C2F80035FFF748FF3B68D7E7B8050020D4
:10527000CC050020D80E002000A0025000B0025043
:10528000E98FFFFF2DE9F04F8DB0436802938378DB
:1052900015469A07804640F10D8100240E78002EB5
:1052A00000F00A81252E0BD04B1C03930134029B86
:1052B0004146304698470028C0F2F6800399EDE752
:1052C0004E788B1C252E0393F0D00027B946BB46A1
:1052D000BBF11F0F38D8A6F12003102B0AD8DFE846
:1052E00003F02A0909300909092109090928092DAA
:1052F00009091F00A6F13003092B33D92A2E37D113
:105300001BF0400F55F8043B40F08280002BA7BFF4
:105310004BF0200B9946C3F100094BF0280B01E03C
:105320004BF0010B039B13F8016B0393002ECFD1BD
:1053300030E04BF0020B4BF0040BF3E74BF0080BA3
:10534000F0E74BF0100BEDE7BBF17F0F19D8A6F19A
:105350003003092BD2D81BF0400F03D00A2101FBE8
:105360000737DFE70A2101FB09394BF0200BD9E7AA
:105370002E2E06D11BF0400F40F09E804BF0400BCC
:10538000D0E76C2E31D02BD8682E36D06A2E3CD088
:105390004C2E3AD0002F46F02003B8BF2BF040022D
:1053A000A3F16501BCBF1FFA82FB0027022901D9C6
:1053B000612B2FD1073525F00705DFF8ACA20835A2
:1053C00007271BF0080F66D00AEB070B56465E4511
:1053D00063D1A4EB0A0A06EB0A02A9EB07096FE105
:1053E000742E9FD07A2E9DD0D4E71BF0800F18BF6B
:1053F0004BF4007B4BF0800B94E71BF4807F18BFCD
:105400004BF4007B4BF4807B8CE74BF4207B89E7EB
:105410001F4687E7A6F16301122900F2F080DFE85A
:1054200011F013004F00EE00EE00EE00EE004F0012
:10543000EE00EE00EE00EE00EE00FE00E900EE00F1
:10544000EE001B00EE00AF0055F8043B8DF818305D
:1054500001270DF1180AB4E755F804AB834BBAF1F4
:10546000000F08BF9A461BF0400F14BF39464FF09B
:10547000FF31504601F0E8F90746A2E7029B41469A
:105480002020984700280FDB013EB742F6D34C445A
:10549000A41BB14698E74E46F7E716F8010B029BAE
:1054A00041469847002892DA98F8023043F0040306
:1054B00088F802304FF0FF3420460DB0BDE8F08F81
:1054C0001BF0800F34D01BF4007F2CD0073525F063
:1054D0000705AA4669685AF8080B2BF01005002941
:1054E000ADB237DA404261EB410145F480650DF120
:1054F000180B0A235A4601F0B3F9A0EB0B030193F2
:105500006B0662D5019B25F001019F4289B240F3F1
:10551000A180002E00F0998015F0100240F09C80D0
:10552000BB460D4623E0AA465AF8040BC117D4E740
:10553000AA461BF4807F5AF8041B01D10846F5E700
:105540001BF4007F15BF48B208B241F3C01141F30C
:10555000C031C2E750EA0103C9D11BF0400FC6D0E9
:10556000002FC4D12BF0110295B2BB46019740F237
:10557000064115EA01021CBF0BF1010B00222CE0D1
:105580002BF010021FFA82FB0A231BF0800C49D07B
:105590001BF400711DBF073525F00705AA46AA4672
:1055A0001ABF5AF8080B69685AF8040B50EA01054B
:1055B00045D12BF016051BF0400FADB242D0002FA5
:1055C00040D12BF0170295B2019715F0100248D088
:1055D000019B002E42D103F1010B29075AD4EB079E
:1055E00006D5D9456FDD0199A9EB0B035F18CB46B2
:1055F0005B4649E04BF0100B10237826C5E7782B6B
:1056000004D1C6F1780343F01003BEE7029B414684
:10561000252098470028FFF647AF023447E60823C5
:105620000026B2E7AA461BF480715AF8040BBDD0DD
:105630001BF400711ABFC0B2614680B2B6E72BF00E
:10564000060295B20DF1180B54E725F01105ADB225
:10565000BB468CE70D46B8E73B460D4603F1020B0F
:10566000BBE7DDF804B082E70D71000006710000B1
:10567000CDE904324146029B202098470028FFF6DE
:1056800013AF049B059A01339945F1DCA4EB0B01A0
:10569000CC189B460AB3029B41463020984700280D
:1056A000FFF602AF8EB901342744019B391B9942A2
:1056B00024DC1D465DBB019AA9EB0B09224455462B
:1056C0001446914435E0019F92E70234414630464A
:1056D000029B98470028E7DAE6E640F206410D42D1
:1056E000E2D015F0020F14BF2B20202015F4806F9C
:1056F00004F10104414618BF2D20E9E7029B414611
:1057000030209847002804F10104CEDACCE606AB3D
:10571000013D4146585D029B98470028CADAC3E61E
:10572000029B414620209847002804F10104FFF61F
:10573000BBAEA9EB0403002BF2DCBFE5704730B52C
:1057400087B0002503930A9B00920493022207234B
:1057500001928DF808508DF814309DF8143084684B
:1057600013438DF81430A4680B466946A04707B070
:1057700030BD836800EBC101B3F5004F2CBF51F879
:10578000220031F81200704700EBC1018068B0F5CB
:10579000004F2CBF41F8223021F81230704708B575
:1057A0000122FFF7E6FFD04008BD8368B3F5004F44
:1057B00000EBC10108D34B681AB143F001034B6001
:1057C000704723F00103FAE74B881AB143F0010355
:1057D0004B80704723F00103FAE753000122FFF7E3
:1057E000D3BFB0F5004F34BF04230823481C08334F
:1057F000A0EBD300B0FA80F0C0F11F0070472DE994
:10580000F0410D4686680446FFF7C9FFB6F5004F24
:10581000014601D3012832D03046FFF7E2FF04EB06
:1058200080010E6996B9E368012282401343E36068
:1058300002220D612B4629462046FFF7A5FF0322D1
:1058400029462046BDE8F041FFF79EBF02223146BF
:105850002046FFF78EFF2946034607462046FFF7FE
:1058600093FF0322334629462046FFF78DFF394632
:105870002B462046FFF788FF02223146E1E7BDE8CC
:10588000F081B2F5802F2CBF08230423D21A2DE912
:10589000F0418C18CD1D25F0070524F00704641B8A
:1058A0000026E40805602146AC60EE602046FFF764
:1058B00098FF421D9200013002F107074FEAD70717
:1058C000A2F110023146B8BF324605F1100000F0D7
:1058D000B3FF3A4631462846FFF77FFF334632464C
:1058E00031462846FFF750FFA4EB0708284631460B
:1058F0000122FFF75AFF42463946FFF76EFF3B464B
:10590000324639462846FFF73FFF21462846FFF733
:1059100064FF4346324621462846FFF735FF2146BD
:1059200028460122FFF741FF3946BDE8F041FFF765
:1059300066BF002070470FB407B504A951F8040BE7
:105940000191FAF7C5FD03B05DF804EB04B07047B0
:10595000038B13F0070305D10368002B0CBF002055
:1059600003207047022B05D1408BB0FA80F040092C
:1059700080007047012B05D10368002B0CBF00206D
:10598000052070470020704710B50C4600B111B9D2
:105990006FF0150010BD081D00F093F80028F9D134
:1059A000A368032BF6D9F3E72DE9F0410D4607462E
:1059B0001946281D90461E4600F094F8044638B15A
:1059C0003346424629463846A446BDE8F041604782
:1059D000BDE8F08110B4EFF31182202484F3128823
:1059E000BFF36F8F416110BC0121FAF7A3BD38B539
:1059F0000C46054658B151B10B6843B14B6833B101
:105A00001C22002100F018FF2C61002038BD6FF02F
:105A10001500FBE770B505460E46FFF7B5FF041EFF
:105A200014DBEFF31182202383F31288BFF36F8F0F
:105A30006B8B2C8B4FF6FF718B4204F0070407D160
:105A400082F31188BFF36F8F6FF00A04204670BD98
:105A5000022C0CD101336B8382F31188BFF36F8F5B
:105A60000023224631462846FFF79EFFEEE7062C2C
:105A700014D8DFE804F004131313041A04000023FD
:105A800033606B683BB9C5E90066ACB902212846B2
:105A9000FAF750FDDAE71E606E60F6E782F31188D0
:105AA000BFF36F8F6FF00404D0E782F31188BFF368
:105AB0006F8F6FF08504C9E782F31188BFF36F8F92
:105AC000C4E7034658B1426802F00302012A03D03A
:105AD000032A04D1026812B10020986070476FF069
