:10000000C01E0020190C00009B520000050C0000CF
:10001000050C0000050C0000050C000000000000AD
:10002000000000000000000000000000850D00003E
:10003000050C000000000000210D0000050C000070
:100040000D0F00000D0F00000D0F00000D0F000040
:100050000D0F00000D0F00000D0F00000D0F000030
:100060000D0F00000D0F00000D0F00000D0F000020
:100070000D0F00000D0F00000D0F00000D0F000010
:100080000D0F00000D0F00000D0F00000D0F000000
:100090000D0F00000D0F00000D0F00000D0F0000F0
:1000A0000D0F00000D0F00000D0F00000D0F0000E0
:1000B0000D0F00000D0F00000D0F00000D0F0000D0
:1000C0000D0F00000D0F00000D0F00000D0F0000C0
:1000D0000D0F00000D0F00000D0F00000D0F0000B0
:1000E0000D0F00000D0F00000D0F00000D0F0000A0
:1000F0000D0F00000D0F00000D0F00000D0F000090
:1001000053B94AB9002908BF00281CBF4FF0FF317E
:100110004FF0FF3000F00CB8ADF1080C6DE904CEE3
:1001200000F010F8DDF804E0DDE9022304B07047C8
:10013000704700BF034613F8012B002AFBD1181AA1
:10014000013870472DE9F04786468C460846089EE0
:10015000154674461946002B40F0C2808542B2FA1B
:1001600082F245D94AB1C2F1200300FA02FC2EFA0C
:1001700003F3954043EA0C0C94404FEA154EA8B2A5
:10018000BCFBFEF8230C0EFB18CC08FB00F943EA7D
:100190000C43994528D9EB1808F1FF3704D299454B
:1001A00002D9A8F102072B44A3EB0903A4B2B3FBC5
:1001B000FEFC0EFB1C330CFB00F044EA0344A0429F
:1001C00014D92C190CF1FF3304D2A04202D9ACF19E
:1001D00002032C44241A43EA07401EB1D4400023F2
:1001E00034607360BDE8F0874746DDE76346F1E7BA
:1001F00092BB431B01214FEA154EAFB2B3FBFEFC8D
:10020000200C0EFB1C330CFB07F840EA0343984517
:1002100062D9EB180CF1FF3004D2984502D9ACF149
:1002200002002B44A3EB0803A4B2B3FBFEFC0EFBBD
:100230001C330CFB07F744EA0344A7424ED92C19A0
:100240000CF1FF3304D2A74202D9ACF102032C44D3
:10025000E41B43EA0040C0E7C2F1200320FA03F1A7
:10026000954090402EFA03F303434FEA154EAFB288
:10027000B1FBFEFC0EFB1C10190C0CFB07F841EA4D
:100280000041884504FA02F422D969180CF1FF30C4
:1002900004D2884502D9ACF102002944A1EB08013F
:1002A0009BB2B1FBFEFC0EFB1C110CFB07F743EAF3
:1002B00001439F420ED9EB180CF1FF3104D29F424B
:1002C00002D9ACF102012B44DB1B41EA004192E769
:1002D0006046E3E76146F7E76046A3E76346B7E7B2
:1002E000834206D916B9002108467BE7C6E900E03B
:1002F000F9E7B3FA83F78FB9834201D3724508D87F
:10030000BEEB020460EB030301209C461EB90021F2
:1003100068E73846FAE7C6E9004CF8E7C7F1200C71
:10032000BB4022FA0CF41C432EFA0CF120FA0CF319
:10033000B84001434FEA14490EFA07F5B3FBF9F848
:100340001FFA84FE09FB18300B0C08FB0EFA43EA77
:1003500000439A4502FA07F240D9E31808F1FF304A
:1003600004D29A4502D9A8F102002344A3EB0A0360
:1003700089B2B3FBF9F809FB183308FB0EFE41EA1A
:1003800003418E452CD9611808F1FF3304D28E4504
:1003900002D9A8F10203214443EA0040A0FB0298DD
:1003A000A1EB0E014145CE46434602D306D14D4551
:1003B00004D2B9EB020E68EB04030138002EA6D07C
:1003C000B5EB0E0261EB030101FA0CFC22FA07F314
:1003D0004CEA0303F940C6E9003198E74046C5E717
:1003E0004346D9E737B5184804F067FE00214FF4BB
:1003F000804005F056FD154C204605F036FC28B926
:10040000134804F05AFE002003B030BD114804F038
:1004100054FE04210023104A01930DEB010004F067
:10042000E1FA01A8FFF786FEA56882B26B6C01A90C
:100430002046984700214FF4C03005F032FDAB6AEA
:1004400020469847DFE700BF806600007461000027
:1004500096660000B1660000C9660000014B1B688B
:10046000184700BFC0040020014B1860704700BF50
:10047000C004002030B585B004460D46102200218E
:10048000684605F073FD02238DF802302A46044BBE
:1004900001932146684604F0D1FA05B030BD00BF93
:1004A0005D04000080B505460E461746984603F0E9
:1004B0005FFE034605F0CEFDDFF81890044649F8CC
:1004C0000030424630463946A84754F8090000F04B
:1004D00011FC00BF080000002DE9F047058B044621
:1004E0002807904611D4022905F0070540F0CC807A
:1004F000204604F0EFFD78B10138218B042811D893
:10050000DFE800F0C2106D85950001290CBF45F0B1
:10051000100545F02005258388F31188BFF36F8F00
:10052000BDE8F08701F0070AAA4500F0A580002782
:10053000B9463E46A368002B00F0BC8041F008019C
:10054000218388F31188BFF36F8FA168002900F021
:10055000BA800D68002900F0B680D1F804803346D7
:1005600052462046C047002D76D02B6829461D46AE
:10057000F0E701F007035A1F012A1BD8002221F0DF
:100580000701062B276889B2C4E9002209D13B463E
:1005900003E0628B013262831B68002BF9D141F0CA
:1005A00002012183204604F095FD00287AD041F015
:1005B000200176E0042B0AD121F0070189B22183C2
:1005C000204604F087FD10B141F020012183218BEA
:1005D00001F0070AAA454FD00027B946AAE72369C8
:1005E00021F0070141F00601062DD3F80090218388
:1005F0002DD1B9F1000F3FD041F00801218388F3DC
:100600001188BFF36F8F3A492046C84729E021F08F
:100610000701236941F0040189B2042DD3F8049045
:100620002183E6D000273E464FF0040A82E721F0FE
:100630000701236941F0050189B2052DD3F808901F
:100640002183D6D000273E464FF0050A72E70027E7
:100650003E464FF0060A6DE72B4687E7B9F1000FDB
:10066000D1D1EFF31188202383F31288BFF36F8F6A
:10067000238B23F008032383258BEA062ED525F050
:100680001003238305F007056669218B002EBFF652
:1006900070AF00232768C4E9003321F0070141F05F
:1006A00001012183218B01F0070AAA454FF00009BF
:1006B0007FF440AF002F9CD041F00801218388F3E4
:1006C0001188BFF36F8F002FC8D03D68394633467D
:1006D0005246204604F02AFD2F46F4E7AB067FF58C
:1006E0001BAF25F02003238305F0070500E700BFBB
:1006F00059510000014B036000207047486400001E
:1007000008B5044804F0D9FCBDE80840024804F0EC
:10071000D4BC00BFCE66000004670000014803F0AF
:10072000B9BF00BF4864000038B5044618B90F4B84
:100730000F485B6898476168B1F5683F10D0B1F524
:10074000680F0DD00B4DA9420AD011F468612068E2
:1007500007D00146084805F0E3FA002323606560EE
:1007600038BD142205F002FCF9E700BFD4050020D3
:10077000326700002C5F5CA9580D002008B520B33B
:100780004368B3F5683F10D101220368BFF35B8F64
:1007900053E8001F002903D143E800200028F7D1C7
:1007A000BFF35B8F0DD1002008BD094A93420AD0E8
:1007B00000684FF0FF324FF0FF3303F0FFF80028DE
:1007C000F1D00448F0E70448EEE76FF4E040EBE7CF
:1007D0002C5F5CA9E98FFFFFEA8FFFFF08B5D8B156
:1007E0004368B3F5683F10D100220368BFF35B8F05
:1007F00053E8001F012903D143E800200028F7D166
:10080000BFF35B8F0BD1002008BD074A934208D08D
:10081000006803F04BF9F6E76FF4E040F4E70348B3
:10082000F2E70348F0E700BF2C5F5CA9E98FFFFF08
:10083000EA8FFFFF10B5044618B91D4B1D485B68D1
:1008400098476368B3F5683F2FD0B3F5680F2CD095
:10085000194A934219D1236803BB18484FF0FF325D
:100860004FF0FF33214603F07BF808B923681BB92A
:100870000F4B13485B68984720681422002105F04D
:1008800075FB4FF46863636008E0B3F5683F0DD80B
:100890003A2B03D040F6BA629342DED1206805F0CD
:1008A00089FA636843F03A03636010BD054AF3E7D1
:1008B000D4050020326700002C5F5CA9580D002091
:1008C000586700003A00003A08B506490648402338
:1008D000142205F017FABDE808400449044803F063
:1008E0004BBF00BF58080020580D00205064000086
:1008F0006464000030BFFFF7FDBF00BF2DE9F04189
:100900000B4EDFF8308006EB0807CC1B054632465D
:100910000949204605F01CFBA01942460021083C6D
:1009200005F024FB2C6707F10800BDE8F08100BF4B
:10093000000000000400000004640000074A9368FF
:1009400093F90E10002907DB526993421FBF044A36
:10095000536843F080535360704700BFAC0E0020D3
:1009600000ED00E070B5264B15469A6A12F0100FA4
:100970009A6A14BF1124102412F0080F9A6A18BF43
:100980001224920706460AD5586B9A6A140634D583
:1009900019B19A6A22F080029A62132401E06FF082
:1009A0001500174B9A6A12F0010F9A6A18BF1424A7
:1009B00012F0200F9A6A18BF1524D20602D49B6A3F
:1009C0009B070AD50E4B5B68190506D5314600F02A
:1009D00057FA10B180F309880224094B9A6A9206EB
:1009E00042BF5A6A22F400525A629A6A42F0FF02E7
:1009F0009A6200232B70204670BD6FF01500CCE783
:100A000000ED00E0134B9A6A12F0007F9A6A14BF5F
:100A10001E201D2012F0807F9A6A18BF1F2012F43A
:100A2000002F9A6A18BF212012F4802F9A6A18BFEB
:100A3000222012F4003F9A6A18BF232012F4803F4C
:100A40009A6A6FEA02426FEA12429A6218BF242041
:100A5000704700BF00ED00E010B5194B0246986AE0
:100A60009C6A10F4805F14BF1720162014F4006FE6
:100A70009C6A18BF1820A40509D5986B986A0004D1
:100A800004D51AB19A6A22F400429A6219200C4BDA
:100A90009A6A12F4806F9A6A18BF1A20D2050CD491
:100AA0009B6A13F4005F18BF1C20054A936A43F445
:100AB0007F43936200230B7010BD1B20F5E700BF3E
:100AC00000ED00E0F0B5484B5B688BB00446C3F323
:100AD0000803002585F31188BFF36F8F02F07F4074
:100AE000B0F17F4F11D102F00C0008280DD0100793
:100AF0004CBF0C4601250022033B8DF80720032B39
:100B000005D8DFE803F0246367602C46F3E7002391
:100B10009DF80720CAB902AE04F120072068616879
:100B2000324603C20834BC421646F7D1099A002D5A
:100B300054D0C2F3080121B96FEA52226FEA42226F
:100B4000099202A9184604F09EFB0BB0F0BD264B9B
:100B5000DA6A9107DBD4DA6A002AD8DBDA6A520053
:100B6000D5D55A69A16942F480725A61BFF34F8F9B
:100B7000BFF36F8F5A6931F8021C22F480725A61F8
:100B8000BFF34F8FBFF36F8F4DF6027291420AD0C1
:100B90009A6AD2B24AB10DF1070201212046FFF74D
:100BA000E1FE0346B4E72368B2E79A6A12F47F4F86
:100BB00005D00DF107010120FFF74EFFF1E79B6A19
:100BC000B3F5803FA3D3FFF71DFFEAE70DF107025E
:100BD0000021E3E70DF107010020EDE722F4FF72A9
:100BE00022F00102ACE700BF00ED00E0044B5A69BF
:100BF00042F010025A615A6922F008025A617047A5
:100C000000ED00E0EFF30880EFF3098101B57246D3
:100C1000FFF758FF01BD00BF002080F31488BFF329
:100C20006F8F01F02BFC00200D490860BFF34F8F40
:100C30000C4880F3088800F02BF8202080F31188FE
:100C400009484FF40461401880F30988EFF31480D9
:100C50000221084380F31488BFF36F8F00F0D8F8A7
:100C600094ED00E0C01E0020001100200749D1F8DB
:100C700090200023C2F307221846934200DB7047FE
:100C8000C1F89830C1F8A0000133F6E700ED00E0AC
:100C900008B572B6002383F31388FFF7E7FF144B00
:100CA0004FF0FF32C3F88020C3F88420C3F88820B7
:100CB000C3F88C20C3F89020C3F89420C3F8982080
:100CC000C3F89C20C3F88021C3F88421C3F888218D
:100CD000C3F88C21C3F89021C3F89421C3F898215C
:100CE000C3F89C2162B6BFF34F8FBFF36F8F08BD6F
:100CF00000E100E0084B9B6883420BD1EFF30583D2
:100D000043B1064B5A6842F080525A605A6A22F444
:100D100000425A6203F032BAAC0E002000ED00E04F
:100D200015498A684FF030001044EFF3098C80E8D1
:100D3000F01F202080F31288BFF36F8F0F4F4FF00A
:100D400000664A698A603E604FF07004141920689A
:100D50000B4C2060506F0023536780F3118804B55B
:100D6000104600F0F1F8BDE8044002F1300090E8D0
:100D7000F01F8CF309887047AC0E002004ED00E0F2
:100D8000740D00201EF0040F0CBFEFF30880EFF38A
:100D90000980816911F8021C0229FFD001B5724651
:100DA00004F077FA01BD00BF40B2002807DB044A17
:100DB0004109012300F01F00834042F821307047B1
:100DC00000E100E0054B420900F01F0053F822202B
:100DD000012303FA00F01040704700BF00E100E07B
:100DE00040B20028A8BF00F1604001F10101B8BF86
:100DF000064B4FEA4111ACBF00F5614000F00F0017
:100E0000C9B2B4BF195480F80013704714ED00E064
:100E10000B4A08B50B4B22F07F029A60BFF34F8F4D
:100E2000BFF36F8FD3F8882022F47002C3F88820B4
:100E300002F0D2FC03F0B0FA00F05CF802F010FD12
:100E40000000000000ED00E042F8203C009B42F86A
:100E50001C3C0A49019B42F8183C029B42F8143C96
:100E600021F001014FF0807342F8043C42F8081C65
:100E70000023203A02654367704700BFA5040000C5
:100E8000094A0346906870B113F1160F006E05D041
:100E9000A0F140029A4205D8834203D2814228BF82
:100EA0000020704700207047AC0E002008B51546A2
:100EB000094A0A4B9060026F1A600E4600F044F82F
:100EC0002C4686F309880020054B984720460021D0
:100ED00000220023034C2047AC0E0020740D00209C
:100EE000B1520000A5040000014B10221A617047A6
:100EF00000ED00E0044800232021C2180133302B0C
:100F000082F80013F9D1704700E100E008B5EFF373
:100F10000583064A103B02EBC30152F833004968CF
:100F20008847BDE80840FFF709BD00BF88610000A1
:100F3000024B034A0348012100F076B80000042068
:100F40000000002074640000026E054B403A1A60F5
:100F5000044A4021C3E901121846012100F06EB88D
:100F6000780D002000000B15084AC2F898000B68A5
:100F700023F01F03034343F01003C2F89C308B6837
:100F800043F00103C2F8A030704700BF00ED00E05D
:100F90002DE9F043DFF8608085B00E461F46044619
:100FA0004FF00009B14523DA6068D8B13FB1411E66
:100FB00008421BD11F2819D92368194216D123686A
:100FC000019304F098F9A36803430393D8F8905071
:100FD000C5F30725D0B2013DA84207D801A9FFF704
:100FE000C3FF421C09F101090C34DBE76FF0150265
:100FF000104605B0BDE8F08300ED00E0044B05228B
:10100000C3F89420BFF34F8FBFF36F8F704700BFBB
:1010100000ED00E0BFF35F8F024B0022C3F8942085
:10102000704700BF00ED00E010B5034C01232278AB
:10103000FFF7AEFF207010BDBC10002008B50B4AB2
:1010400000231278FFF7A4FF10F1160F07D0084A0B
:101050000021D2F89030C3F30723984200DB08BD8B
:10106000C2F89800C2F8A0100130F2E7BC100020CE
:1010700000ED00E02DE9F043534B544CD3F8903091
:101080002568C3F307239D4285B000F29A80FFF7DD
:10109000C1FF00200C2685421AD14D4C4D4F2570C2
:1010A0006846FFF727FBDFF82081DFF82C91064622
:1010B0000025AE4213D1237843490020D1F8902077
:1010C000C2F30722934276DBFFF798FF002042E04D
:1010D000616806FB0011FFF747FF0130DBE700986E
:1010E00000EB05114FEA051CCB683B40B3F5000F40
:1010F00048D00AD8B3F5001F30D0B3F5800F36D0F2
:10110000B3F5801F10D00135D3E7B3F1807F42D013
:10111000B3F1007FF7D150F80C3088684A6804F0CA
:10112000EAF840F4802009E050F80C3088684A68FA
:1011300004F0E1F840F0885040F43020CDE901237C
:101140000390D8F890302078C3F30723013B9842EE
:101150002AD96FF0150005B0BDE8F08350F80C30C7
:1011600088684A6804F0C7F840EA0900E6E750F8E2
:101170000C3088684A6804F0BEF840F0E06040F443
:101180000030DBE750F80C3088684A6804F0B3F8A8
:1011900040F08270D2E750F80C3088684A6804F05A
:1011A000AAF840F08870C9E701A9FFF7DDFE2378AF
:1011B00001332370A7E7C1F89830C1F8A0000133CC
:1011C0007CE74FF0FF30C6E700ED00E080640000F0
:1011D000BC1000200000F0FF0000081108B5024B11
:1011E0001B689847002008BD840D0020034B044A6B
:1011F0001860937843F0020393707047840D0020C9
:10120000E404002008B50649064821F00701C1F1B1
:10121000005202F5802203F0F6FE002008BD00BF58
:10122000071F0020880D00200E4A0123C2F8403518
:101230004FF080424FF08051C2F87835D1F830013C
:10124000082808D1D1F83411052904D80648415C92
:1012500009B1C2F838364FF080430122C3F8802527
:101260000020704700E001409467000020B1034B6C
:10127000800143F001031847704700BF406400003D
:10128000F0B44468268867880469C9B9002A07D180
:101290003BB9A380E3800221F0BC406804F027B989
:1012A0002EDBB2422CDA002B2ADBBB4228DA1849AB
:1012B000A280E380595C114461F07F01C9B2EBE781
:1012C000012921D1A588154495FBF6F106FB11559E
:1012D000E18892FBF6F20B441344002D93FBF7F2E6
:1012E00007FB1233AAB2B8BF921999B2B8BF92B233
:1012F000002BBCBFC91989B2054BA280E180D9E798
:101300006FF01500F0BC70476FF05700FAE700BFB0
:101310009A6700002DE9F04F4A4B91B015460646FA
:101320008B4605AA03F1100718685968144603C4D0
:101330000833BB422246F7D118682060042D766836
:101340007CD8414B01AA03F1080C1746186859686C
:10135000144603C4083363452246F7D118689B88B6
:101360002060A3800124A0464FF000094FF0070A37
:101370003A193069B38A8DF83090CDE90A78CDE911
:101380000D288DF83CA09DF83C20816842F00202B7
:101390008DF83C208A680AA994460222E04790B959
:1013A0009DF80430013401330E2C8DF80430DFD168
:1013B0008DF804000122854208DC0E22394606F130
:1013C000100004F0E8F811B0BDE8F08F1BF8003011
:1013D000A3F14101042925D810A901EB430333F8F7
:1013E000A6CC002444F0010E0EF140010DEB010EDD
:1013F00004F001031EF83C1C00EB830302FA03F324
:101400001CF0010F21EA030118BF194304F1010484
:1014100018BFC9B20E2C0EF83C1C4FEA5C0CE1D18F
:101420000130C8E7313BD9B203299BBF10A901EBBA
:1014300043034FF0000C33F82CCCD2E74FF0FF30D1
:10144000C1E700BF106400002464000001490422C9
:10145000FFF760BFA8670000084B70B5C31A0D46C0
:1014600007499B10044659430648402204F0DAF825
:101470002B4601462046BDE870401847A80D0020C5
:10148000B76DDBB6E860000073B50C4C0C4A402326
:10149000041B00930D460B460A49A41061430646FF
:1014A000094804F0EBF8011E05DA30462B4602B07D
:1014B000BDE87040184702B070BD00BFA80D002005
:1014C000E7560000B76DDBB6E860000010B5EFF33B
:1014D0001184202383F31288BFF36F8F074A1368A8
:1014E00023F00201DB07116002D4012004F035FA79
:1014F00084F31188BFF36F8F10BD00BFF80D00207B
:10150000002270B5012104461046FFF769FC0F4820
:1015100001F03EF90E4B984215D101F049F92669C8
:101520000C49304603F025FE00280BDB012535640D
:101530002469084904F11C0003F01BFE002801DBAC
:10154000E564002070BD6FF00400FBE75116000059
:101550000000AD0BD86400001FB500220123CDE9C7
:101560000223094ACDF800D06B46CDF804D004F030
:10157000B3F8002805DB4FF480420023684602F0F0
:1015800019FB05B05DF804FB0557000030B4104BA3
:101590000C2202FB003301460020D3E90E5298636F
:1015A000EFF31180202484F31288BFF36F8F1C6C3B
:1015B00004F0C00444F002041C6480F31188BFF3FB
:1015C0006F8F1DB12B46034830BC184730BC7047A5
:1015D000A80D0020E860000010B4EFF31182202372
:1015E00083F31288BFF36F8F1748016841F002043C
:1015F0000460C80707D482F31188BFF36F8F0120FE
:1016000010BC01F0E7B84FF08041D1F80C04D1F8DC
:101610000C14C907EFD5EFF3118083F31288BFF3E1
:101620006F8F0A490B6C03F0C00343F002030B6495
:1016300080F31188BFF36F8F82F31188BFF36F8F30
:10164000002010BCFFF7A2BFF80D0020A80D00205D
:1016500010B1012804D07047034B1B6C5B0701D10C
:10166000FFF794BF704700BFA80D00202DE9F0419F
:101670003849BFF35B8F0746012251E8003F41E83C
:1016800000200028F9D1BFF35B8F33B932493348CA
:101690004B60CB608A6003F07FFD7B1E012B2BD853
:1016A000012F07D14FF08043D3F81C3403F003031C
:1016B000012B21D004F085FB0546F8B9284B1B7897
:1016C000E3B14FF080430222C3F808230646DFF857
:1016D00094804FF08044D4F81824D4F81834D203FE
:1016E00015D503F00303012B01D0012F0FD155B302
:1016F00086F31188BFF36F8FBDE8F081EFF3118699
:10170000202383F31288BFF36F8F0125DFE7ADB18C
:10171000304603F0E1FDD4F81835002BDBD1D4F8C6
:101720000421002AD7D0C4F80431D4F804310123AD
:10173000C4F81835C8F88031A360CCE70021212017
:1017400004F0AFFBE7E74FF080430222C3F8042325
:10175000D2E700BFA40D0020940D0020C40D00208E
:10176000C010002000E100E008B5074804F07DFA51
:1017700038B10648FFF73AFD0448FEF775FE002031
:1017800008BD6FF01200FBE7246100009117000014
:101790000A2838B5074D044604D1AB680D215B68B3
:1017A00028469847AB6803485B68E1B298472046F3
:1017B00038BD00BF24610000F0B54068057B01F032
:1017C0001F0444EA4514056987B0002D64D0B2F5C2
:1017D000001F00F1100506D12146284604F03DF90E
:1017E000002007B0F0BD01AE0027B2F5800F0197D1
:1017F000776039D1B3F1007F14BF052304238DF83E
:1018000004300023CDE904630393836823FA01F1D4
:1018100011F001011AD1B2F1A07F17D104F01F031A
:10182000620903F5E0732AD0012A3BD11F4A52F81E
:101830002330DB070AD40DF1030632462146284641
:1018400001F0A6FA1A4B98421CD0029603AA214630
:10185000284601F05FF9174B984220D1012221461A
:10186000284601F0F9FABBE7B3F1C06F05D0B3F138
:10187000007F14BF01230223C1E70323BFE74FF01A
:10188000A042D4E73146284601F0E0FA094B9842DD
:10189000DBD06FF00B00A4E76FF08500A1E76FF0DD
:1018A00015009EE751F82330FFDE00BF0003005013
:1018B0000400AD0B0000AD0B38B545682B69B3B122
:1018C0001035284601F0B2FA044680B90146284690
:1018D00001F078FA084B98420BD108492246284675
:1018E00001F050FA224605210620FFF779FA002080
:1018F00038BD6FF00400FBE70000AD0B01190000DC
:10190000420970B5034602D0012A17D070BD0D4EB2
:10191000326951680029F9D003F01F0301250C68D2
:101920009D400029F2D08A682A4002D04B68304698
:1019300098472CB1236821461C46F2E7024EE7E7A0
:101940002346F8E710610000FC6000002DE9F04339
:10195000466840F20635D006337B87B002EA0505BB
:1019600054BFC2F34010032001F01F07B5F5837F79
:10197000144647EA43178DF8030045D00FD8062DCB
:1019800018D007D8B5B1022D40D06FF0150007B0C0
:10199000BDE8F083B5F5807FF7D101250AE040F27C
:1019A0000222954234D0B5F5407F33D0B5F5007FA3
:1019B000EBD102250123220303FA01F12CD5736830
:1019C000C3F80815326982BB07F01F037F0929D0CD
:1019D000012F77D13E4A02EB830284F48033D2F8A0
:1019E0000017C3F30043C4F3404444EA430421F422
:1019F000E16144EA800421F0070144EA05230B4336
:101A0000C2F800370020C2E70725D3E70425D1E755
:101A10000525CFE70325CDE7630344BF7368C3F80B
:101A20000C15CFE74FF0A042D5E710360DF10202BA
:101A30003946304601F0ACF914F4403F80460CD1F1
:101A40003946304604F007F8224B9845DAD19DF824
:101A50000210304601F0F4F9D4E701AB4FF0000971
:101A600003AA39463046CDE90439CDE90199CDF8CC
:101A70000C9001F04FF8174B984286D114F40033C4
:101A800015D09DF803308DF80E3084F48034C4F303
:101A900000444B4603AA394630468DF80C508DF869
:101AA0000D4001F0F1F80B4B9842CDD06DE7CDE938
:101AB000043303AA0DF1030339463046039301F0C2
:101AC00029F8F0E703F5E07352F82330FFDE00BF9A
:101AD000000300500000AD0B02780B69012A08D00A
:101AE000022A08D04AB9064A5A6203F1140002F0E9
:101AF0002DB8044AF8E7044AF6E7044AF4E700BFC1
:101B00000000AD0B0100AE0B0200AE0B0100AD0BEF
:101B10002DE9F04FD0F81090D0F8048085B005463C
:101B20000C461746029309F1040A4FF0FF324FF0BA
:101B3000FF33504602F03EF809F1140B0023002257
:101B4000584602F037F8404601F03CFC7B1E002668
:101B50000393B74201D8002322E0039B217AB342CA
:101B600083BF237D83F00403C3F380030023019329
:101B7000029B0093D4E90023284600F04DF8034669
:101B800070B94FF480420023584602F013F898B120
:101B9000404601F027FC284600F02CF86FF00403C3
:101BA0004046029301F01EFC504601F0CFFF029B1D
:101BB000184605B0BDE8F08FD9F82430034A9342A7
:101BC00004F10C04EAD10136C3E700BF0000AD0BFD
:101BD00008B503464068826900F1080101F0AEFBD8
:101BE000034B984214BF6FF00F00002008BD00BFE8
:101BF0000000AD0B08B543681B68D3F80805D3F89F
:101C00000C1501F099FC034B984214BF6FF00F00C4
:101C1000002008BD0000AD0B2DE9F04186B00C4658
:101C200047689DF834801546002112220DF1060008
:101C30001E4604F09BF9BDF830208DF8052004F015
:101C4000010314F008028DF804300296049519D1AE
:101C5000A10704D4B8F1000F12D19BB9202201A929
:101C6000384601F0DBFB0A4B98420ED00B3398420A
:101C70000CBF6FF00F006FF0040006B0BDE8F081FC
:101C80004022ECE76FF08500F7E70020F5E700BFA2
:101C90000000AD0B036803F01F025B09026004D073
:101CA000012B034818BF002070474FF0A040704739
:101CB000000300502DE9F04FDFF89491DFF894A174
:101CC00085B01546834600EB810140F2FF18594567
:101CD00003D1002005B0BDE8F08FDBF800305E04D2
:101CE000C3F3C322C3F3080400F1AC801B0E19F840
:101CF0000270444508BF4FF0FF34222B00F2A5804C
:101D0000DFE803F012191F22252B22A3A3A3A33B74
:101D100068A3A3A3A3A3A3A3A3A36B818487A3A363
:101D2000A38A9194979A9D00C5F80C45601C5ED1DA
:101D30000BF1040BCBE7C5F81445621CF8D0002664
:101D40005FE0C5F80845F1E7C5F81045F5E7631C05
:101D5000C5F80845ECD0002604E0661CC5F80C4523
:101D6000E6D0012603A80394FFF794FF039B01220A
:101D700002FA03F3C0F80C3508E0C5F80845002F57
:101D8000DBD1631CD4D0002632460627DBF80030B6
:101D9000019303F40040002818BF002203A800921A
:101DA00018BF01260394FFF775FF039C019B009A5F
:101DB00000EB8400C3F3412CD0F800473B0243EA18
:101DC0008C03134304EA0A04234343EA4603C0F89E
:101DD0000037ADE7C5F80C45D1E7C5F86045601C94
:101DE000DBF80030A4D0C3F30043002BB9D003A824
:101DF0000394FFF74FFF039B012606FA03F3C0F895
:101E000008353246C2E7C5F86445E8E7C5F86845D5
:101E1000E5E7C5F86C45E2E7C5F82445621C87D0C4
:101E200000220126B2E7C5F828457FE7C5F830450E
:101E3000F4E7C5F83445F1E7C5F83845EEE7C5F8ED
:101E40003C4573E76FF0150044E76FF0850041E70C
:101E5000FF670000F0F8FCFF2DE9F04104464768F9
:101E60000D4603F0AEFF4FF0200888B9264B1B78D3
:101E700073B16426606803F019FDF0B9012003F026
:101E80005EFD013EF6D10021212004F00AF8F0E7C2
:101E9000EFF31186314688F31288BFF36F8F6068C5
:101EA00003F004FDA8B986F31188BFF36F8FEFE745
:101EB00086F31188BFF36F8FE5E7EFF311863146A4
:101EC00088F31288BFF36F8F606803F0EFFC00287F
:101ED000EED0BB691D706368BA691B680020C3F847
:101EE00044250122C3F84825C3F82001D3F8204136
:101EF000C3F85801D3F858019A6081F31188BFF3F1
:101F00006F8FBDE8F08100BFC0100020F7B5054617
:101F1000002201210220FEF763FF0220FEF744FFAA
:101F20006A6811681369C1F82435137D507D927D6C
:101F300003431343C1F86C356E68D6E9004313F0D0
:101F4000010348D02F6907F1080003F004FD304B6E
:101F500098425AD1387A04F10C0204F5907103F0DA
:101F6000F0FC387A012707FA00F000F0A9FB0823FB
:101F7000C4F80035B369C4F844350023C4F84835C3
:101F8000A760D4F85831002BFBD00021C4F800150D
:101F90006B68DC6801AA204603F05BFC002805DBC7
:101FA000019B226819791868FFF784FE6A68136834
:101FB0000821C3F80015117A51B9D269C3F8342544
:101FC0000122C3F83825C3F81011D3F810111A6094
:101FD000002003B0F0BD0822C4F80025B269C4F89F
:101FE0004425C4F848350123A360D4F82031002BE0
:101FF000FBD00023C4F82031D4F820310123E36062
:102000004FF48073C4F80433BBE76FF00400E0E7DB
:102010000000AD0B70B5012383400E4ABFF35B8F08
:10202000DC4352E8001F01EA040542E80056002E96
:10203000F7D1BFF35B8F4FF4803282400648C0F87F
:102040000823BFF35F8FBFF36F8F0B4214BF0120D4
:10205000002070BD240E00200010014070B40E4915
:10206000D1E90034D01AC31844F1000422F07F46AD
:10207000C1E90034A6F50013B3F5400F09D2074BB0
:102080001B681A0A1B069C19054B42F10005C3E99F
:10209000004570BC02F040BAA8060020280E0020BF
:1020A000B006002011B3BFF35B8F0123104A8340B9
:1020B00052E800CF4CEA030C42E800C10029F7D1F6
:1020C000BFF35B8F0B4A4FF480338340C2F8043375
:1020D000094BBFF35B8F1B68BFF35B8FC340DB070C
:1020E00042BF064B4FF40032C3F80021704700BFD7
:1020F000240E002000100140200E002000E100E02E
:102100000D4B1868010A0006BFF35F8F0B4BD3F825
:102110000435181841F10001B3F5801F0AD2084BAD
:10212000D3E90023904271EB030303D210F18070D6
:1021300041F10001704700BF280E0020001001404F
:10214000B00600202DE9F04F85B016461F469DF8D9
:1021500040A00446FFF75EFF0190FFF7D1FFB042B9
:1021600071EB070354D23E4B301A67EB01019842E2
:1021700071F100014FD23B4B03EB0413D3E902236F
:102180009F4208BF96425ED037494FF4803804F131
:10219000500508FA04F8AD00C1F848832046ADB2F6
:1021A00003F0B5FB26F07F4B05F1804504F5A873DD
:1021B00005F58835DC464FF003090293029A2CF0AE
:1021C0007F4341F82230C1F84483D1F80435274ACF
:1021D0006FF00200C01A604420F07F40904232D974
:1021E000286868B1D1F804350393A3EB0B0020F005
:1021F0007F40B0F5000F26D9204603F088FB039BF3
:10220000BAF1000F07D109EB030C09F10109D5E779
:10221000BAF1000F09D06FF0150520460199FFF7BC
:1022200041FF284605B0BDE8F08F0123104ABFF3F7
:102230005B8FA34052E8000F184342E800010029D9
:10224000F8D1BFF35B8F07490E98230101EB04120D
:10225000C8500F9B5360C2E902670025DDE700BF4D
:10226000010080009806002000100140FDFF7F0063
:10227000200E00207FB51C4C1C4BC4F80833C4F85A
:1022800048331B4B00254FF0FF304FF0FF31C4F8AF
:102290000855C3E902014FF48033C4F80433154BE9
:1022A00002264FF400320121C4F804631120C3F860
:1022B00080212A46FEF794FD1120FEF775FD0E4A97
:1022C0000123A360236013600C4B0D4A0093CDE9FA
:1022D000015500232846FFF735FF3046FFF7C6F9C2
:1022E000284604B070BD00BF0010014003000F007D
:1022F0009806002000E100E0240E00205D20000090
:10230000FFFF7F002DE9F7432F4CD4F804339907E2
:102310000BD5D4F8043143B12C4A0023C4F804315E
:10232000D4F80431136801331360D4F80433DA03AA
:1023300029D5BFF35B8F264B53E8002F22F0010114
:1023400043E800100028F7D1BFF35B8FD30702D416
:10235000D4F84031BBB10025C4F84051D4F8403125
:10236000FFF7CEFEEFF31182202383F31288BFF331
:102370006F8F184BD3E90267B042B94106D282F39E
:102380001188BFF36F8F03B0BDE8F0834FF0FF38C3
:102390004FF0FF39C3E90289D3E900101D604FF403
:1023A0008033C4F84833C4F84051D4F8403182F344
:1023B0001188BFF36F8F0029E5D0009032463B466D
:1023C00028468847DFE700BF00100140280E0020A4
:1023D000200E00209806002030B5431C124C85B01A
:1023E00005D08442A8BF0446012CB8BF0124FFF7E2
:1023F00087FE0E4B0C4DD3E90013401AB0F5000FC9
:1024000010D22218AA4228BF2A4652184FF00000C4
:1024100007490091CDE9010043F10003FFF792FE67
:1024200005B030BD2A46F0E7FFFF7F00A806002078
:102430005D20000008B5FFF763FE024B1B68C01A61
:1024400008BD00BFA80600204FF08053D3F830210C
:10245000082A06D1D3F83431052B02D8024AD05CC1
:1024600070470020704700BF1B680000024AD2F886
:102470000034002BFBD0704700E0014010B54FF056
:102480008053D3F83021082A4ED14FF080420021EA
:10249000C2F80C11C2F81011C2F8381502F540420A
:1024A000D3F80414C2F82015D3F80814C2F8241580
:1024B000D3F80C14C2F82815D3F81014C2F82C1550
:1024C000D3F81414C2F83015D3F81814C2F8341520
:1024D000D3F81C14C2F84015D3F82014C2F84415E0
:1024E000D3F82414C2F84815D3F82814C2F84C15B0
:1024F000D3F82C14C2F85015D3F83014C2F8541580
:10250000D3F83414C2F86015D3F83814C2F864153F
:10251000D3F83C14C2F86815D3F84014C2F86C150F
:10252000D3F84434C2F87035FFF78EFF18B13A4B38
:102530003A4AC3F88C26FFF787FF18B1384BFB22C5
:10254000C3F81825FFF780FF70B14FF080414FF0BE
:102550008053D1F8E42ED3F8583222F00F0203F062
:102560000F031343C1F8E43EFFF76EFF20B12D4B7C
:102570004FF40072C3F840264FF08053D3F8303147
:10258000082B1AD14FF08043D3F80024D20744BF60
:102590006FF00102C3F800244FF08053D3F83431B8
:1025A000052B02D8204AD35C3BB14FF01023D3F85F
:1025B00008224FF08043C3F858254FF01023D3F87A
:1025C0000022002A03DBD3F80432002B22DA174959
:1025D00001234FF01020C1F804351224FFF746FF05
:1025E000C0F80042FFF742FFC0F80442FFF73EFF89
:1025F0000023C1F80435FFF739FFBFF34F8F0C49B3
:102600000C4BCA6802F4E0621343CB60BFF34F8FF8
:1026100000BFFDE710BD00BF00500040488103002F
:1026200000F00040009002401568000000E001400A
:1026300000ED00E00400FA0530B50468CCB1BFF34A
:102640005B8FB4FA84F3C3F11F03DBB201229A401B
:1026500024EA020250E8005FA54204D140E8002CC1
:10266000BCF1000FF6D1BFF35B8FE6D102480B70CF
:1026700030BD0248FCE700BF0000AD0B0200AD0B0F
:1026800010B50368CB40DB0714D401238B400268EC
:10269000BFF35B8F43EA020150E8004F944204D13C
:1026A00040E8001CBCF1000FF6D1BFF35B8FEED108
:1026B000014810BD0148FCE70000AD0B0400AD0B64
:1026C000014BC3F80405704700F00140F7B505461B
:1026D000F8B101281BD104224FF4807301464FF05A
:1026E000804003440244C0F8081300260121116011
:1026F0001E608D421B688DF8071008BF0DF107069C
:1027000042F210744FF0804745B1012D28D003B03C
:10271000F0BD0C224FF482730221E0E7D7F81834A1
:1027200003F480333EB9002BF1D0012003F007F908
:10273000013CF3D1EBE7D7F8182402F00302326032
:10274000002BE4D09DF80700012803D103F0F7F82F
:10275000013CD9D1012DDAD10C4B00225A71D6E7B8
:10276000D7F80C3403F480333EB9002BF4D00120A9
:1027700003F0E5F8013CF3D1EEE7D7F80C2402F0C2
:1027800001023270002BDDD1E6E700BF2C0E0020E5
:10279000044B1A7922B9012218609A8002487047C6
:1027A000024870472C0E00200000AD0B0C00AD0B52
:1027B00008B5074B1B682BB10020FEF703FB08B9D7
:1027C000FEF7F2FA4FF080430022C3F8182508BD47
:1027D0002C0E002010B510B1012843D010BD4FF0D1
:1027E0008043D3F81814D3F81824C80321D502F075
:1027F0000303012B04D013B10020FFF767FF002370
:102800004FF080420220C2F8183508224FF482733C
:1028100003F180430021196002F180421C68012409
:102820001460154A12680AB34FF08043C3F80403DA
:10283000D4E7D3F81424D107E1D5D3F81C249207A8
:10284000DAD40D4A12681AB10222C3F80423C5E78C
:10285000D3F80421002AFBD00022C3F80421D3F8C6
:102860000431BBE700224FF48073D1E71A68002AD5
:10287000FCD019601B68B1E72C0E002010B54FF09A
:102880008043D3F800216AB10022C3F80021D3F8B5
:1028900000210122C3F80823114B587910B95A714D
:1028A0001B6898474FF08043D3F8042172B100228F
:1028B000C3F80421D3F80421D3F81824D3F818243A
:1028C000920704D10122C3F818259A6010BD022294
:1028D000C3F80823024BBDE810401B6801201847CD
:1028E0002C0E0020036803F01F025B09026004D075
:1028F000012B034818BF002070474FF0A0407047DD
:1029000000030050034A430900F01F00D35C184441
:10291000C0B270472168000070B50546FFF7F2FFAE
:102920000C4C08300E4634F81030DA0508D5C3F3E5
:10293000432304EBC302284654F8333052689847C7
:10294000A3682BB1E26831462846BDE870401847BD
:1029500070BD00BF4405002008B5FFF7D3FF034B4F
:10296000083033F81000400B08BD00BF44050020BC
:1029700008B5FFF7C7FF034B083033F81000C0F36A
:10298000400008BD4405002008B5FFF7BBFF034B1E
:10299000083033F81000C0F3401008BD4405002093
:1029A000034611F0010010B5CCB20DD1A207C4F35B
:1029B000400012D5094AD2F820055860C2F8200517
:1029C000003818BF012008E04FF0A041D1F82025C1
:1029D0001A60C1F82025002AE8D010BD000300507D
:1029E00010B5FFF78FFF124A083032F81030D905C2
:1029F0001CD5C3F3432123F4F85322F8103002F11D
:102A00000E04002034F8023F13F4807F03D0C3F398
:102A1000432399420AD001303028F3D1002342F8F1
:102A200031300448BDE81040FFF72ABE10BD00BF9A
:102A300044050020BC050020F0B5054600200446F2
:102A4000012607468C420BD1114BD3F87C2132B1C1
:102A50000022C3F87C21D3F87C3140F00040F0BD67
:102A6000E3B29B0003F580729B0806FA03F31D4254
:102A70000BD002F1804202F5C042D2F800C0BCF196
:102A8000000F02D01760126818430134DAE700BF64
:102A900000600040F7B506460846FFF733FF194FC0
:102AA00000F108050C4637F81530DB0727D530460E
:102AB00002F0ADFF2046FFF767FF40B12046FFF769
:102AC0004BFF316800F5A270002341F8203020460A
:102AD000FFF786FF002301A827F815300194FFF7C0
:102AE00001FF019B00EB8300074BD0F80027134048
:102AF00043F00203C0F80037044803B0F0BD0448B7
:102B0000FBE700BF44050020F0F8FCFF0000AD0B20
:102B10000400AD0B2DE9FF41164680460846FFF73D
:102B2000F1FE0D463168044609B32846FFF720FF41
:102B300018B12846FFF728FF10BB0023CDE900336A
:102B40008DF80E308DF80F300DF10F020B46284630
:102B50000DF10E0102F003FF474A04F1080132F8BB
:102B6000113023F0020343F0010322F8113073689F
:102B700063B328461F785968FFF7FAFE10B1D1B148
:102B80003E4826E03C4A04F1080032F8103023F0B9
:102B90002003DB04DB0C22F8103061B1032FEFD8E7
:102BA0007168496891F800C0D8F80010A7B90CF511
:102BB000A27C41F82C70304A04F1080132F811303F
:102BC00023F01C0343EA870322F81130B3684BBBA0
:102BD0002B4804B0BDE8F08101EB8C0143EA4C3393
:102BE000D1F810E52EF0030EC1F810E5D8F800106A
:102BF00001EB8C0E43F02003DEF8101522F81030A4
:102C000021F44F3121F44071CEF810152902DEF87D
:102C1000108501F47C5141EA074141EA0801CEF8F0
:102C20001015C8E7D3E900672846FFF7D9FE002E44
:102C3000CED0114DD5E90023964203D19F4201D158
:102C4000002209E00F480DF10F01FFF7F5FC0C4BD6
:102C50009842BED19DF80F2045F8326005EBC203C3
:102C600008345F6035F8143043EA422343F480733C
:102C700025F81430ACE700BF440500200400AD0B7C
:102C80000000AD0BBC0500202DE9F0430C4685B0DB
:102C90008046204611461E46FFF734FE054629B3FE
:102CA0002046FFF765FE18B92046FFF76DFE18BBFA
:102CB000314F05F1080937F8193013F01C0F02D015
:102CC0004B78012B18D001238DF80F300023CDE96C
:102CD00000134A1C8B1C20460DF10F0102F03FFE31
:102CE00037F8193043F0030327F81930002E41D08C
:102CF0002046FFF73DFE18B9204805B0BDE8F08337
:102D000096F800C0D8F800301B4F0CF5A2720021D5
:102D100043F8221005F1080237F8121021F02001C3
:102D2000C904C90C27F8121075781DB3D8F8000033
:102D3000B67800EB8C002D04D0F8103523F49913ED
:102D400023F4F853C0F81035230203F47C5305F440
:102D500040353605D0F810E52B4306F4801641EADD
:102D60004C31334341F0200143EA0E0327F812109F
:102D7000C0F810350248C0E7440500200400AD0B40
:102D80000000AD0B014BC3E902127047440500205F
:102D900010B508461446FFF7F7FD50B10846FFF797
:102DA000B1FD054B083033F8103004485B0B23703D
:102DB00010BD0348FCE700BF440500200000AD0B38
:102DC0000400AD0B70B5164D95F8804006462CBB3F
:102DD0002146602205F1100003F0C8F830682E6F1C
:102DE00021468E420ED10023C0F87C31D0F87C31D0
:102DF00040F30730FDF7D8FF01230A4885F88030FB
:102E0000AB6770BDCBB29B0003F580727C2B08BF13
:102E1000845001F1010108BF8358E2E70248F0E75E
:102E2000440500200000AD0B0C00AD0B034B93F8E4
:102E30008000003818BF0120704700BF4405002003
:102E40000148FFF71DBC00BFB80500200148FFF78F
:102E5000F3BB00BFB805002073B503681646D3F86E
:102E60000423002AA8BF4FF000420546A8BFC3F8BC
:102E7000042308460C46FFF787FD00B30846FFF71A
:102E800077FD0146D8B92046FFF766FD04B2A400DD
:102E900004F58072034628688150296882582144CD
:102EA000D1F8102542F00102C1F810252EB1296891
:102EB000012202FA03F3C1F8043302B070BD2046C8
:102EC000FFF720FD0F4B083033F81030C3F38203B7
:102ED000042B12D0052B12D001A80194FFF702FD9C
:102EE000019AD0F81035D34003F00103991C204615
:102EF00002B0BDE8704002F07BBD0321F7E702217C
:102F0000F5E700BF440500202DE9F04F694BDFF8DD
:102F1000A881D3F80403D8F87010C0B289B040F08B
:102F20000040FFF789FD051E2FDAC24600235AF83C
:102F30007C1F06A8CDE90633FFF732FD5F4B0193F6
:102F40000DF118094FF0000B019A12F8013B0192A4
:102F5000DA0803F007031AF8022022FA03F3DA076B
:102F60001CD409F10409BBF1000F14D0D8F870107B
:102F70004FF00040FFF760FDD8F87C1006A8FFF77F
:102F80000FFD0028DAD125F000450124002D79D16C
:102F900009B0BDE8F08F4FF0010BD5E7484B5B441B
:102FA0000293D9F800100029DBD0029B91FAA1F11D
:102FB0001C78B1FA81F141EA44142046FFF7A2FCE3
:102FC0000830059438F81070C808BB0819F80020BC
:102FD000039301F00701012303FA01F122EA010240
:102FE00009F8002005A8FFF77DFC059A039B02F570
:102FF000E072C7F3820650F822205B073746C2F31F
:10300000014224D520463946D6B2FFF785FC05A8F3
:103010000594FFF767FC059B03F5E07350F8233038
:10302000C3F301439E4207D10021204602F0E0FC99
:103030003146204602F0DCFC05A80594FFF752FC5F
:10304000059B012202FA03F3C0F82035A9E7022A02
:103050000CD10321204602F0CBFC06F00503012B26
:10306000EAD139462046FFF757FCE5E70221204622
:10307000039202F0BDFC032EF3D0039A032ADBD1A6
:10308000022EEDE795FAA5F3B3FA83F304FA03F2FF
:103090009B0003F1804303F5C04325EA0205D3F802
:1030A0001005D3F81015C0F30520C1F30141FFF757
:1030B00033FC6BE7006000404405002031680000ED
:1030C0003168000001460148FFF7B6BAC805002084
:1030D00030B500F01F04400911D0012812D10C486E
:1030E00000EB84001B02D0F800570A4C43EA82022E
:1030F0002C4042EA41012143C0F8001730BD4FF097
:10310000A040EDE704F5E074002353F82430FFDE1F
:1031100000030050F0F8FCFFCB7B10B433B9D1E9C9
:1031200000420368C3F80845C3F80C2503688A68A1
:10313000C3F8242503793C225343054AD3582BB1C5
:10314000006810BC40F30730FDF72EBE10BC70477E
:10315000340E002013B53B4B01930023C0F804311B
:10316000D0F80421C0F82431D0F82421C0F81C3153
:10317000D0F81C21C0F80831D0F80821C0F800327E
:103180004B6381F82F300123036291F82D209A427E
:1031900018BF83604B6B8A6A934204460ED24A6A18
:1031A000D35CC0F81C350B6803B340F286238B60F8
:1031B0008B682548C4F8043302B010BD91F82C3058
:1031C00013B10123C361EEE70B6A13F0400F4FF018
:1031D000010316BFC361436181F82D30E3E7204648
:1031E00002F03DFC28B1019B013B0193019B002BA8
:1031F000F5DC91F82F305BB91348019B002BDBDC29
:103200000023C4F8003505231048C4F80035D3E77F
:10321000D4F8C434C4F8C4348BB10D4A0B4813F04D
:10322000010F18BF104613F0020F02F1010218BF80
:10323000104613F0040F074B18BF1846DDE703488C
:10324000DBE700BFA08601000000AD0B0100AD0B65
:103250000000AE0B0200AE0B13B5334B01930023FD
:10326000C0F80431D0F80421C0F82431D0F824216A
:10327000C0F81C31D0F81C21C0F80831D0F8082162
:103280004B6381F82F308B6A012B044617D10B6AF0
:103290005B0614D40223C4F800320123236291F8A0
:1032A0002D20022A18BF23600B688BB140F28623C1
:1032B0008B608B681D48C4F8043302B010BD012335
:1032C000E9E7204602F0CBFB28B1019B013B0193CB
:1032D000019B002BF5DC91F82F305BB91348019B63
:1032E000002BEADC0023C4F8003505231048C4F89D
:1032F0000035E2E7D4F8C434C4F8C4348BB10D4AC5
:103300000B4813F0010F18BF104613F0020F02F123
:10331000010218BF104613F0040F074B18BF1846E0
:10332000DDE70348DBE700BFA08601000000AD0B2E
:103330000100AD0B0000AE0B0200AE0B2DE9F8430F
:1033400090F804901C4E07463C2000FB09F035180D
:103350000C4695F82E1061BBA96032506B6085F861
:103360002D1085F8311085F83010CCB1637B85F8CD
:10337000383094F80E8085F83980B8F1000F0BD101
:103380002068062303224146FFF7A2FE6068062359
:1033900003224146FFF79CFE21463846FFF7BCFE5C
:1033A0003C2303FB09660548012386F82E30BDE85F
:1033B000F8830348FBE700BF340E00200000AD0B8C
:1033C0000C00AD0B036802790521C3F80015044B0E
:1033D0003C2101FB0233022283F82E20704700BFFC
:1033E000340E002003680B4A0179C3F80823D3F890
:1033F000002222F00302C3F800220022C3F80025B5
:10340000054B3C2000FB0133012183F82E1083F88B
:103410003020704786420400340E00202DE9F0472A
:10342000314F0479D0F800903C2303FB04730D4620
:1034300093F82D30012B944604D10B78012B06D143
:103440002A4811E0022B02D10B78012BF8D13C263F
:10345000274BC9F8083306FB047696F830302BB1B9
:10346000B3682448C9F80433BDE8F0878CF004033E
:10347000C3F3800386F83030C6F820C0A846B8E809
:103480000F0006F10C0EAEE80F00D8F80030CEF8B1
:1034900000306B68B362EB6873626B78C9F888358B
:1034A0002B78C4EB041A012B07EB8A0A17D09BB9BF
:1034B000CCF3401C3C2303FB04735146484683F87D
:1034C0002CC0FFF747FE3C235C433A193B59002BC5
:1034D000CAD182F83030C7E74FF0010CEAE7514615
:1034E0004846FFF7B9FEEEE7340E00200500AD0BAD
:1034F000864204000B00AD0B0149024802F047BBB5
:10350000340E00200030004002494FF0402002F00D
:103510003EBB00BF700E0020036803F01F025B0972
:10352000026004D0012B034818BF002070474FF001
:10353000A040704700030050F7B5064602F07EFB3E
:10354000084602F07BFB01A80196FFF7E5FF019B0F
:103550002E4D00EB83000C46D0F80037019440F26A
:103560000D612B400B43C0F8003701A8FFF7D4FFD3
:10357000019B00EB83000127D0F800372B400B4361
:10358000C0F80037042002F0DAF9092501A80194F7
:10359000FFF7C2FF019AD0F81035D340DB0715D4EE
:1035A00001A80196FFF7B8FF019B07FA03F3C0F8E3
:1035B0000C35042002F0C3F9304602F03FFB013D18
:1035C000042002F0BCF915F0FF05DFD101A8019439
:1035D000FFF7A2FF019A01239340C0F80C350420A5
:1035E00002F0ADF9204602F029FB042002F0A7F911
:1035F00001A80194FFF790FF019AD0F81035044814
:10360000D34003F00103C01A03B0F0BDF0F8FCFF93
:103610000100AD0B08B5144BA8220021184602F09A
:10362000A5FC0322026111494261114A8161C26114
:103630004FF480620262002282624262C2620166CC
:103640000C4941661021816603460267C2664267E3
:10365000BFF35F8F084911F8010D98540132102A09
:10366000F9D1BFF35F8F08BD10040020336800005C
:1036700010000020000000204C68000010B4BFF3D0
:103680005F8F0B4A0B490023C85C12F8014D84423E
:1036900009D10133102BF7D10023BFF35F8F23B182
:1036A00010BCFFF7B7BF0123F7E710BC704700BF9E
:1036B0004C6800001004002038B5EFF3118520237A
:1036C00083F31288BFF36F8F064B9C6802F0E0FA19
:1036D00085F31188BFF36F8F2046BDE83840FDF7B2
:1036E00009BB00BFAC0E002038B5094B53F8204091
:1036F000013053F82050A54200D838BD636823B18B
:10370000204602F0C8FA0834F5E723689847FAE73C
:10371000E065000070B52B4B2B4C2C4D012286B080
:1037200003201A70FFF7E0FFFCF7EAFF02F0CFFA80
:103730000420FFF7D9FF2646AE4204F1300410D32F
:1037400000F01CFC204C224EAC4226D300F02AFC98
:10375000FCF748FE1F4A137B23F00103137306B0E6
:1037600070BD54F80C3C059354F8103C049354F885
:10377000143C039354F8183C029354F81C3C0193F6
:1037800054F8203C009354E90A2354E90C0100F05A
:1037900037FA54F8303C5E65CDE7D4E90A23B3F13B
:1037A000FF3F08BFB2F1FF3F05D052EA0301206896
:1037B00003D100F0B7FC3034C6E73146183000F0D2
:1037C00035FEF8E7C0100020086300000863000021
:1037D0009B5E00003807002008B50348034A00211B
:1037E000121A02F070FA08BD98060020C4100020DA
:1037F00070B5002386B00122CDE90423134E144D89
:1038000001930F22CDE902321249142303FB005524
:1038100006EBC01604464FF4C07000FB04110E4BBB
:1038200000954FF4A072304600F0EAF9737B0B4A22
:10383000EE6023F0040373734FF4046304FB03335B
:1038400013442C746B6006B070BD00BFB806002036
:10385000AC0E0020401900208F5D000000110020F8
:10386000BFB50020FFF740FF2C4B83F308882C4D99
:103870002C4E6B692C4F43F400736B610024E023E2
:1038800085F82230EC772C766C76AC7685F8204083
:103890006B6A43F4E0236B6285F82340FDF7A6F9D9
:1038A000FDF722FB4FF0FF33AB62EB62FDF7E2FB6B
:1038B000FDF73EFB1D4BB36040F201129A81C3E954
:1038C0001844DC6602F0D0F90120FFF70DFF02205A
:1038D000174DFFF709FF00F099FB164B7561059333
:1038E000012315490094CDE903434FF480623B4620
:1038F000CDE90144284600F083F96A7B064622F0B0
:10390000040228466A7302F09CFA2046FFF770FF13
:103910003A4631462846FDF7C9FA00BF4019002053
:1039200000ED00E0AC0E002015370000B8070020C5
:10393000380700204D680000C01A002038B5064C3A
:10394000064D0020AC4200D338BD204602F0C0F93D
:103950000028F9DB1C34F5E744060020440600206B
:1039600073B50C46EFF31181202585F31288BFF360
:103970006F8FC5685DB125602B68C36083690133B3
:103980008361002081F31188BFF36F8F11E052EA49
:10399000030603D125606FF00B00F3E7CDE90023A8
:1039A0000246083000F04AFA18B9034B9B685B697D
:1039B000236002B070BD00BFAC0E00202DE9F341C2
:1039C000044617461E46EFF31188202383F312881E
:1039D000BFF36F8FC368334A7BB1806891688842B8
:1039E00019D057EA060318D188F31188BFF36F8FF7
:1039F0006FF00F0002B0BDE8F081916891F90E10F0
:103A000021610133E3609368A36088F31188BFF3F9
:103A10006F8F0020EEE72169F2E791F90E1090F91F
:103A20000E309942A8BF19466FF07E029142B8BF8E
:103A300011468B422DDD02F0B5F90546CDE9007641
:103A400019482246414600F0F9F90028E1D0EFF389
:103A50001186202383F31288BFF36F8FA068D0B143
:103A6000236821699C420AD04BB193F90E309942E8
:103A7000A8BF19466FF07E039942B8BF194602F0FD
:103A800091F940B10848314600F052FA6FF00A004F
:103A9000B0E70025D2E7002DF4D186F31188BFF3FB
:103AA0006F8FF3E7AC0E0020C1100020F8B58368DB
:103AB0000546002B3FD0234A926893423ED1C3680B
:103AC000012B03D9013BC3600020F8BDEFF3118740
:103AD000202383F31288BFF36F8F0169806802F09F
:103AE00061F92C68A54207D10023C5E9023387F3A9
:103AF0001188BFF36F8FE7E7002CF5D0D4E90032CF
:103B000013605A60637B002623F002036373C4E9E9
:103B10000066A66004F1180002F0F5F9AC6094F9B3
:103B20000E302B612046A66702F08BF90648394615
:103B300000F0FEF9C8E76FF01500C6E74FF0FF3060
:103B4000C3E700BFAC0E0020C110002070B5EFF33A
:103B50001186202383F31288BFF36F8F0468A0427D
:103B60001AD0CCB1D4E9003213605A60637B0025CF
:103B700023F002036373C4E90055A56004F1180043
:103B800002F0C1F92046A56702F05BF9314608480A
:103B9000BDE8704000F0CCB9D0E902329A4218BFBB
:103BA0000133836086F31188BFF36F8F70BD00BF50
:103BB000C110002013B5EFF31181202484F3128883
:103BC000BFF36F8F846844B1013C846081F3118836
:103BD000BFF36F8F002002B010BD52EA030406D17C
:103BE00081F31188BFF36F8F6FF00F00F3E7CDE91A
:103BF00000230246014800F021F9ECE7C110002043
:103C00002DE9F043073285B022F007020E461F4629
:103C10001099017300F158037F32C0E9163304464E
:103C2000002322F03F020421836041733F2A0F9852
:103C3000A073C4E90633E37306F14009A2F140081A
:103C400005D883F31188BFF36F8F084602DFB518DC
:103C500029462046FCF752FE07300E9B20F0070055
:103C6000A066C4E9189802930D9B01932D1A0C9B32
:103C700000932A463B4631462046FDF7E5F80023EF
:103C80006365044B9B6803B1DB6EE366284605B0B1
:103C9000BDE8F083AC0E0020094A93686FF00A017A
:103CA0009967084958674B6843F080534B6000237D
:103CB00083F31188BFF36F8F9368986F704700BFCD
:103CC000AC0E002000ED00E070B590F90D20437BB4
:103CD000002A39DBD90637D18269002A34D11D4C3C
:103CE00063F07F032246437352F8183F93422CD16E
:103CF000E169C0E900210860E06111E09942F8D073
:103D00001B68002BF5D090F90E5093F90E60B54268
:103D1000F4D0AE42F2DD5968C0E900310860586065
:103D2000A569954200D005B9E568A3685A7BD2061B
:103D300004D1DA897F2A01D9AA6942B1AB4202D003
:103D4000284600F0D1FA656170BDE169D9E7636189
:103D5000FAE700BFAC0E002038B590F90D20437B88
:103D6000002A014604DA03F07F03437302F02FF8C0
:103D70000D4D2A46AB6852F8184F944200D004B952
:103D8000EC688B4207D05A7BD20604D1DA897F2AAD
:103D900001D9A2692AB1A34202D0204600F0A4FAB8
:103DA00023466B6138BD00BFAC0E002070B590F9A2
:103DB0000D20437B002A014604DA03F07F0343739E
:103DC00002F005F84B7B1C4C63F07F0322464B73DB
:103DD00052F8183FE069934207D1C1E90020016021
:103DE000E16111E09842F8D01B68002BF5D091F901
:103DF0000E5093F90E60B542F4D0AE42F2DD586831
:103E0000C1E9003001605960A569A368954200D0FE
:103E100005B9E5688B4207D05A7BD20604D1DA890E
:103E20007F2A01D9AA692AB1AB4202D0284600F004
:103E30005BFA2B46636170BDAC0E0020F8B5124BE7
:103E40000C461146114A98681060DDE90676EFF3DA
:103E50001182202282F31288BFF36F8F9D6828465B
:103E600001F0C7FFB6F1FF3F08BFB7F1FF3F06D033
:103E700007493A46334605F1180000F0D7FA2046C4
:103E8000BDE8F840FFF708BFAC0E0020CC0E0020C4
:103E90009B5E0000F8B50446EFF31186202383F300
:103EA0001288BFF36F8F437BDA0649B217D182695C
:103EB000AAB903F07F03437301F089FF1B4D437BD5
:103EC000817363F07F032A46437352F8183F93428D
:103ED0002AD1E869C4E900200460EC6116E0A1730E
:103EE000002086F31188BFF36F8FF8BD8342F1D0B5
:103EF0001B68002BEED093F90E70B942F6D08F42BA
:103F0000F4DD5968C4E900310C605C60AC6994422E
:103F100000D004B9EC68AB689C4202D0204600F0A7
:103F2000E3F96C610120DCE7E869E2E7AC0E002010
:103F300049B9EFF3058030B9054B5A699B689A423D
:103F400001D0FFF7A9BE81F31188BFF36F8F7047CF
:103F5000AC0E0020034648B9EFF3058232B9064A99
:103F600051699268914201D0FFF796BE83F31188A0
:103F7000BFF36F8F704700BFAC0E0020EFF31181CD
:103F8000202383F31288BFF36F8F054B9A68D37B8E
:103F9000013BD37381F31188BFF36F8F704700BF6C
:103FA000AC0E002070B5EFF31186202383F3128846
:103FB000BFF36F8F144DAB68DA7B0132DA732A4698
:103FC00052F8184F944200D004B9EC685A7BD206DC
:103FD00004D1DA897F2A01D9A2692AB1A34202D089
:103FE000204600F081F923466B6186F31188BFF308
:103FF0006F8FEFF31180202383F31288BFF36F8F4D
:10400000BDE87040FFF7A6BFAC0E0020024B03F1E5
:104010001802C3E906227047AC0E002070B5EFF31A
:104020001186202383F31288BFF36F8F1B4CA16886
:10403000E0690B68814214BF1A46002249680B6090
:104040005960A368E1692AB9154AC3E900210B60E8
:10405000E3610CE093F90E0092F90E50A84218D0DB
:10406000854216DD5168C3E900210B605360A569E4
:104070000B4B9D4200D005B9E568A3689D4202D074
:10408000284600F031F965613046BDE87040FFF721
:1040900003BE8A42D8D01268D5E700BFAC0E00201C
:1040A000C40E002050EA01032DE9F04105460E46FA
:1040B00004D1FFF7B3FF0020BDE8F081831C71F14C
:1040C000FF3324DB01F040FF4419EFF31188202374
:1040D00083F31288BFF36F8F0F4F104BB8681860CF
:1040E000FFF73AFEB8680E492A463346183000F00A
:1040F0009DF9BA68537B43F0040353734046FFF7BE
:10410000CBFD01F021FF201A20EAE070D4E76FF028
:104110000104241AD9E700BFAC0E0020CC0E002009
:104120009B5E000038B50446183001F0ECFEEFF35A
:104130001185202383F31288BFF36F8F637B5A07A7
:1041400004D485F31188BFF36F8F38BD23F00403C7
:1041500063732046FFF7B8FDEFF30583002BF0D122
:1041600029460248BDE83840FFF7E2BEC1100020F2
:10417000014B9868704700BFAC0E00202DE9F84352
:104180000446EFF31187202383F31288BFF36F8F68
:10419000067B16F001060DD087F31188BFF36F8FF1
:1041A000002383F31188BFF36F8F0423184602DFC7
:1041B000BDE8F883437B1A0704D587F31188BFF362
:1041C0006F8FF5E7D90943F0080250D14273A36815
:1041D00013B1204601F003FE04F1180001F093FE34
:1041E000A56D04F15808A84511D04FF0000975B12C
:1041F000284601F0F4FD05F1180001F084FEC5F831
:1042000078902846FFF760FDA56DA845EFD11C4DBD
:10421000AB689C4204D1EFF30586003E18BF01262F
:10422000D5F81880174A904502D0B8F1000F01D197
:10423000D5F80C80434502D0404600F055F8C5F84B
:10424000148046B1104BAB6040F201129A810022FB
:10425000C3E91822DA66AB689C42AED1EFF305835E
:10426000002BAAD13846BDE8F843FFF715BD03F08F
:104270007F0343F00803437301F0A9FDA7E700BFE4
:10428000AC0E0020C40E0020B8070020044BC01A5A
:10429000044BC0105843044B01221A54704700BF0E
:1042A00038080020ABAAAAAAC1100020C3897F2B1E
:1042B00012D80A4B1B6863B1094B90F90E201B689A
:1042C0009A4209DB437BDB0606D1064BC31A18BFB3
:1042D000012303F0010070470023FAE7D40E002009
:1042E000D00E0020B806002070B50E4B0E4C1E7C80
:1042F00006EB460304EBC3040546204601F003FE2B
:104300000A4B002228469A55FFF7D0FF48B1084BC8
:1043100008491A68013A2046D317BDE8704000F0FA
:1043200085B870BDAC0E002038080020C1100020F8
:10433000D40E00208D42000038B5EFF31185202304
:1043400083F31288BFF36F8F104B114A9C6810687B
:10435000A04206D1FFF7C8FF85F31188BFF36F8F26
:1043600038BD00211B7C11600A4AD35C002BF3D0BE
:104370002046FFF79BFF0028EED0637BDB0602D1CF
:104380002046FFF713FD2046E4E700BFAC0E0020F7
:10439000CC0E0020C11000200748084A084908B583
:1043A000121A01F092FC0748074A0849BDE8084084
:1043B000121A01F08ABC00BFC0040020940600203D
:1043C0006C680000B8040020C0040020646800008D
:1043D000024B1868984208BF00207047CC050020A7
:1043E000034B1B680BB9FEF725B80020704700BFD0
:1043F000D80E002030B570B10B4B5B6898420AD0E4
:10440000036843B1D3E90421D0E90445121941EB13
:104410000501C3E90421D0E9003213605A6000238A
:10442000C0E9003330BD00BFCC050020B3F1FF3F31
:1044300008BFB2F1FF3FF8B504461D4616465AD0F4
:104440008160EFF31187202383F31288BFF36F8F0E
:10445000013275F1FF3321DA2C49D1E900206FF0E8
:1044600001039B1A4FF0FF3262EB00009E1B60EBD2
:104470000500012E70F1000301DA01260020C4E9D5
:104480000460FFF7A5FF224E84467068BCF1000F60
:104490000DD1C4E90060046074601CE0FFF7A0FF68
:1044A000013645F10005361845EBE070E7E7DCE939
:1044B0000425D4E90431934271EB050E1CDAD21ABB
:1044C000DCF8043065EB0105CCE90425C4E900C340
:1044D0001C60CCF80440FFF77BFF844207D10D4BF2
:1044E0001C6824B901F0F6FC2146FDF775FF87F33F
:1044F0001188BFF36F8FF8BD9B1A61EB05018445EE
:10450000C4E90431C5D0DCF800C0BFE75008002082
:10451000CC050020D80E00202DE9F047EFF31185DF
:10452000202383F31288BFF36F8FDFF8A090DFF8AA
:10453000A080C9F80000FFF74BFF00260027D9F83C
:104540000030D8E900ECD91750B1D0E90442A342B9
:1045500071EB020A1ADAE41A62EB0102C0E90442C2
:1045600013EB0E034CEB01010024C8E90031C9F83C
:10457000004001F0AFFC2146FDF72EFF85F31188C6
:10458000BFF36F8FBDE8F047FFF7D6BE14EB0E0206
:104590004CEBE473C0E90467C8E90023FFF72AFF86
:1045A00085F31188BFF36F8F83689847EFF3118508
:1045B000202383F31288BFF36F8FD9F800301B1BC1
:1045C000C9F80030FFF704FFB9E700BFD80E00209C
:1045D0005008002010B5EFF31184202383F31288D4
:1045E000BFF36F8FFFF7FCFE054A0346D2E90001D7
:1045F000181841EBE37184F31188BFF36F8F10BD7E
:104600005008002010B50A4C23681BB10123236019
:10461000002010BD00F0EAF80028F7D00138062885
:1046200003D8044B53F8200010BD034810BD00BF51
:10463000DC0E0020F8650000FE8FFFFFBFF34F8FF8
:104640000549064BCA6802F4E0621343CB60BFF32E
:104650004F8F00BFFDE700BF00ED00E00400FA054A
:1046600010B4094B09490A4C4FF0FE32C3F800243C
:104670004968C3F80424C3F80824C3F80C240023B1
:10468000C4F8003510BC084700B00250D405002023
:1046900000A00250D0E90012014BC3E9001270479C
:1046A000D405002010B5044650B1636813F0685F6C
:1046B00005D0064A934202D000232360626010BDF9
:1046C000034B04485B689847EFE700BF2C5F5CA989
:1046D000D405002014660000C8B143680D4A934217
:1046E00013D013F0685F0ED0012350E8002F194655
:1046F00040E8001C9CF0000FF7D1012AF5D0BFF371
:104700005F8F0020704704487047044870476FF47B
:10471000E04070472C5F5CA9E98FFFFFEA8FFFFF45
:1047200080B14368094A93420AD013F0685F05D00C
:10473000BFF35F8F0023036018467047044870473B
:10474000044870476FF4E040704700BF2C5F5CA9DD
:10475000E98FFFFFEA8FFFFF10B5044620B1044B3D
:1047600063600022226010BD0248FFF779FFF6E780
:104770003A00003A3C66000070B5D0E90023174CBF
:10478000174D6360D0E90230C4E902302260486806
:10479000D1F800C0134BC3E900C0D5F81801D1F817
:1047A00008C0C3F808C010F0685FD1F80CC00969F0
:1047B000C3F80CC0196110D00B49C5F8BC11002317
:1047C000C5E9453105F58A70C5F8B83190472368C9
:1047D00005F5DC70BDE87040184770BDF00500209D
:1047E000F40E0020DC0500202C5F5CA938B500F039
:1047F0002FF820B1032400F063F8204638BD00F004
:1048000031F898B900F0ACF898B90F4DD5F82839BF
:104810001B0EF02B08D1D5F8242A0C4B9A420AD053
:10482000072400F017F8E6E70624FAE704242046F8
:1048300038BD0024F5E7012000F092F80446002876
:10484000F7D1C5F80C0AD8E700B002500000E0200C
:104850000020704700207047014BC3F8040A7047DE
:1048600000B0025010B5114800F048F800B110BD7A
:104870000F4800F043F80028F9D10E4C204600F014
:104880003DF80028F3D10C4B0C481C6000F036F8C2
:1048900001460028EBD100F02DF8044608B120466F
:1048A00010BD00F03FF82046FAE700BF30060020B8
:1048B0002C060020280600202006002024060020C8
:1048C00008B5084800F024F8074800F021F8074828
:1048D00000F01EF8064800F01BF8BDE8084000F0A4
:1048E0000BB800BF300600202C0600202806002050
:1048F0002406002000207047704700BF08B5034B16
:1049000002681B6810689847002008BDF005002069
:1049100008B5034B02685B6810689847002008BD23
:10492000F005002070B5094C094D2069AB68984727
:1049300018B1084B08485B689847084AEB6820693B
:1049400000211160BDE87040184700BFDC05002061
:10495000F0050020D405002060660000F00E002065
:10496000F8B51A4D1A4E0446B26828699047E8B95E
:10497000184F3B684CB1A3B1012B19D0013B3B60F0
:104980002869F36898470020F8BD43B9124A01210D
:10499000C2F800151149D1F81029002AFBD10133C2
:1049A0003B60F368286998470020F8BD0C48F8BDC3
:1049B0000A4AD2F81039002BFBD1074A6FF07E402B
:1049C000C2F80035FFF748FF3B68D7E7DC05002059
:1049D000F0050020F00E002000A0025000B00250B0
:1049E000E98FFFFF0CB430B589B005460C461C2298
:1049F000002101A801F0BAFA02238DF806300E4B0F
:104A00000293059523462CB1B4F1004F28BF4FF017
:104A10000043013B1D440DAA0C99069501A8009284
:104A200000F00CF814B1059B00221A7009B0BDE823
:104A3000304002B0704700BF436000002DE9F04FE6
:104A40008DB043680293837815469A07804640F1FB
:104A50000D8100240E78002E00F00A81252E0BD047
:104A60004B1C03930134029B414630469847002873
:104A7000C0F2F6800399EDE74E788B1C252E039348
:104A8000F0D00027B946BB46BBF11F0F38D8A6F1BE
:104A90002003102B0AD8DFE803F02A09093009099E
:104AA000092109090928092D09091F00A6F1300368
:104AB000092B33D92A2E37D11BF0400F55F8043B70
:104AC00040F08280002BA7BF4BF0200B9946C3F12A
:104AD00000094BF0280B01E04BF0010B039B13F88E
:104AE000016B0393002ECFD130E04BF0020B4BF063
:104AF000040BF3E74BF0080BF0E74BF0100BEDE77E
:104B0000BBF17F0F19D8A6F13003092BD2D81BF0C7
:104B1000400F03D00A2101FB0737DFE70A2101FB21
:104B200009394BF0200BD9E72E2E06D11BF0400F90
:104B300040F09E804BF0400BD0E76C2E31D02BD84C
:104B4000682E36D06A2E3CD04C2E3AD0002F46F03C
:104B50002003B8BF2BF04002A3F16501BCBF1FFAD0
:104B600082FB0027022901D9612B2FD1073525F0BF
:104B70000705DFF8ACA2083507271BF0080F66D041
:104B80000AEB070B56465E4563D1A4EB0A0A06EB17
:104B90000A02A9EB07096FE1742E9FD07A2E9DD0EF
:104BA000D4E71BF0800F18BF4BF4007B4BF0800B59
:104BB00094E71BF4807F18BF4BF4007B4BF4807BA1
:104BC0008CE74BF4207B89E71F4687E7A6F163015A
:104BD000122900F2F080DFE811F013004F00EE0020
:104BE000EE00EE00EE004F00EE00EE00EE00EE00F4
:104BF000EE00FE00E900EE00EE001B00EE00AF004C
:104C000055F8043B8DF8183001270DF1180AB4E768
:104C100055F804AB834BBAF1000F08BF9A461BF05E
:104C2000400F14BF39464FF0FF31504601F0A6F94E
:104C30000746A2E7029B41462020984700280FDB49
:104C4000013EB742F6D34C44A41BB14698E74E460A
:104C5000F7E716F8010B029B41469847002892DAC5
:104C600098F8023043F0040388F802304FF0FF3424
:104C700020460DB0BDE8F08F1BF0800F34D01BF440
:104C8000007F2CD0073525F00705AA4669685AF839
:104C9000080B2BF010050029ADB237DA404261EB6A
:104CA000410145F480650DF1180B0A235A4601F0C5
:104CB00071F9A0EB0B0301936B0662D5019B25F004
:104CC00001019F4289B240F3A180002E00F099803B
:104CD00015F0100240F09C80BB460D4623E0AA462A
:104CE0005AF8040BC117D4E7AA461BF4807F5AF880
:104CF000041B01D10846F5E71BF4007F15BF48B23D
:104D000008B241F3C01141F3C031C2E750EA0103D8
:104D1000C9D11BF0400FC6D0002FC4D12BF0110217
:104D200095B2BB46019740F2064115EA01021CBF4D
:104D30000BF1010B00222CE02BF010021FFA82FB7A
:104D40000A231BF0800C49D01BF400711DBF0735EE
:104D500025F00705AA46AA461ABF5AF8080B696843
:104D60005AF8040B50EA010545D12BF016051BF04B
:104D7000400FADB242D0002F40D12BF0170295B2B8
:104D8000019715F0100248D0019B002E42D103F18B
:104D9000010B29075AD4EB0706D5D9456FDD0199D8
:104DA000A9EB0B035F18CB465B4649E04BF0100BB9
:104DB00010237826C5E7782B04D1C6F1780343F099
:104DC0001003BEE7029B4146252098470028FFF6C6
:104DD00047AF023447E608230026B2E7AA461BF491
:104DE00080715AF8040BBDD01BF400711ABFC0B219
:104DF000614680B2B6E72BF0060295B20DF1180BB2
:104E000054E725F01105ADB2BB468CE70D46B8E777
:104E10003B460D4603F1020BBBE7DDF804B082E729
:104E20005968000052680000CDE904324146029BF7
:104E3000202098470028FFF613AF049B059A013302
:104E40009945F1DCA4EB0B01CC189B460AB3029BFD
:104E50004146302098470028FFF602AF8EB9013452
:104E60002744019B391B994224DC1D465DBB019AF6
:104E7000A9EB0B09224455461446914435E0019FA5
:104E800092E7023441463046029B98470028E7DA11
:104E9000E6E640F206410D42E2D015F0020F14BFE3
:104EA0002B20202015F4806F04F10104414618BF27
:104EB0002D20E9E7029B414630209847002804F165
:104EC0000104CEDACCE606AB013D4146585D029BBB
:104ED00098470028CADAC3E6029B4146202098473B
:104EE000002804F10104FFF6BBAEA9EB0403002B7C
:104EF000F2DCBFE57047836800EBC101B3F5004FFA
:104F00002CBF51F8220031F81200704700EBC101AC
:104F10008068B0F5004F2CBF41F8223021F81230E4
:104F2000704708B50122FFF7E6FFD04008BD83684F
:104F3000B3F5004F00EBC10108D34B681AB143F041
:104F400001034B60704723F00103FAE74B881AB165
:104F500043F001034B80704723F00103FAE753004D
:104F60000122FFF7D3BFB0F5004F34BF042308235D
:104F7000481C0833A0EBD300B0FA80F0C0F11F004A
:104F800070472DE9F0410D4686680446FFF7C9FFDA
:104F9000B6F5004F014601D3012832D03046FFF765
:104FA000E2FF04EB80010E6996B9E36801228240BA
:104FB0001343E36002220D612B4629462046FFF78A
:104FC000A5FF032229462046BDE8F041FFF79EBF1A
:104FD000022231462046FFF78EFF29460346074648
:104FE0002046FFF793FF0322334629462046FFF76A
:104FF0008DFF39462B462046FFF788FF02223146B7
:10500000E1E7BDE8F081B2F5802F2CBF082304232F
:10501000D21A2DE9F0418C18CD1D25F0070524F09A
:105020000704641B0026E40805602146AC60EE60BE
:105030002046FFF798FF421D9200013002F107075A
:105040004FEAD707A2F110023146B8BF324605F148
:10505000100000F08BFF3A4631462846FFF77FFFED
:105060003346324631462846FFF750FFA4EB070887
:10507000284631460122FFF75AFF42463946FFF7DC
:105080006EFF3B46324639462846FFF73FFF214632
:105090002846FFF764FF4346324621462846FFF77D
:1050A00035FF214628460122FFF741FF3946BDE87A
:1050B000F041FFF766BF002070470FB407B504A9A1
:1050C00051F8040B0191FBF7D5F903B05DF804EB3F
:1050D00004B07047038B13F0070305D10368002B5E
:1050E0000CBF002003207047022B05D1408BB0FA83
:1050F00080F0400980007047012B05D10368002B28
:105100000CBF0020052070470020704710B50C46EA
:1051100000B111B96FF0150010BD081D00F093F833
:105120000028F9D1A368032BF6D9F3E72DE9F04164
:105130000D4607461946281D90461E4600F094F875
:10514000044638B13346424629463846A446BDE8AF
:10515000F0416047BDE8F08110B4EFF311822024E4
:1051600084F31288BFF36F8F416110BC0121FBF7FC
:10517000B3B938B50C46054658B151B10B6843B1C7
:105180004B6833B11C22002100F0F0FE2C6100209E
:1051900038BD6FF01500FBE770B505460E46FFF70A
:1051A000B5FF041E14DBEFF31182202383F3128872
:1051B000BFF36F8F6B8B2C8B4FF6FF718B4204F01C
:1051C000070407D182F31188BFF36F8F6FF00A04D1
:1051D000204670BD022C0CD101336B8382F3118801
:1051E000BFF36F8F0023224631462846FFF79EFF0C
:1051F000EEE7062C14D8DFE804F004131313041AA6
:105200000400002333606B683BB9C5E90066ACB9A4
:1052100002212846FBF760F9DAE71E606E60F6E7C8
:1052200082F31188BFF36F8F6FF00404D0E782F32D
:105230001188BFF36F8F6FF08504C9E782F311887F
:10524000BFF36F8FC4E7034658B1426802F0030210
:10525000012A03D0032A04D1026812B10020986009
:1052600070476FF0150070474268816002F00302DA
:10527000032A4FF0000203460CBF006810465A6034
:1052800070477047FEE7012801D1EFF30583FEF771
:1052900013BA01460068FFF7F6BF08B5FBF72AFB13
:1052A000BDE80840FBF74ABB00210120FFF7EBBF38
:1052B00061B662B680F31188BFF36F8F704772B624
:1052C000002383F31188BFF36F8FBFF34F8F30BF7D
:1052D00062B6BFF36F8F704772B6002383F31188F5
:1052E000BFF36F8FBFF34F8F20BF80F31188BFF3E1
:1052F0006F8F62B67047202809D9B0F1004F08D8E7
:105300000138B0FA80F0C0F11F004000704708205B
:1053100070473E20704708B5FBF760FF002008BDCE
:10532000036998880880DB88138000207047036930
:1053300041689A88013292B29A800888904204D8D3
:10534000DA88002001329880DA804A88D888904232
:1053500024BF0022DA807047436803F1100253F83B
:10536000040B41F8040B9342F9D1002070471FB59C
:105370000346CDE90112022200689B888DF80C20BB
:105380009DF80C20816842F002028DF80C208C6898
:10539000012201A9A04704B010BD37B57C23044603
:1053A0008DF80510022201A910308DF80430FFF7A6
:1053B000DEFF0546208B40F2E7314FF47A7200237E
:1053C00001EBC0300021FAF79BFE00F06AFD284691
:1053D00003B030BD2DE9F3410D4609784668072931
:1053E0002DD841F008032B721B314068C9B2FFF77A
:1053F000D4FFE0B1002427464FF0010869688DF81A
:1054000007702144042211F8013B33B19DF80700D5
:1054100008FA02F303438DF80730013AF3D2012270
:105420000DF1070106F11000FFF7A1FF18B90020E8
:1054300002B0BDE8F0810534282CDFD1F8E76FF029
:105440001500F5E72DE9F843436800260546884630
:105450001746344603F11009B7420EDD18F806105E
:1054600001F0F803082B0BD101F007016868233124
:10547000FFF793FF044668B900242046BDE8F8838F
:105480007C290AD0FE2908D03A4641464846FFF713
:105490006EFFEFE72846FFF74AFF0136DCE738B535
:1054A00045682D212846FFF778FF0446288B40F2F7
:1054B000E7314FF47A72002301EBC0300021FAF794
:1054C0001FFE00F0EEFC204638BD10B502694368AF
:1054D000012111700446186900F0C7FB20B1204675
:1054E000FFF7DDFF002010BD6FF01200FBE737B5BE
:1054F000FE2304468DF80510022201A910308DF814
:105500000430FFF734FF0546608B40F2E7314FF47B
:105510007A72002301EBC0300021FAF7F1FD00F0B0
:10552000C0FC284603B030BD002914BF0C2108215F
:105530000AB141F002010BB141F001014068FFF7EF
:10554000D6BF02690121937811705278FFF7ECBF42
:1055500002690021937811705278FFF7E5BF0A467F
:1055600001698B784A700978FFF7DEBF0B46016945
:105570004A788B700978FFF7D7BF0020704700206A
:1055800070470020704700207047002070470020BF
:105590007047002070471FB50346CDE90112022273
:1055A00000689B888DF80C209DF80C20816842F0E3
:1055B00002028DF80C208C68012201A9A04704B0DA
:1055C00010BD10B5446810340422EF212046FFF7C7
:1055D000E2FF30B920460422BDE810408121FFF7E8
:1055E000DABF10BD10B50369446801221A70206942
:1055F00000F03BFB50B10422212104F11000FFF721
:10560000CAFF002818BF6FF0040010BD6FF0120031
:10561000FBE70369C9B20C2201FB0233186C00F0EE
:105620000700704770B5C9B20369EFF311852024F4
:1056300084F31288BFF36F8F0C2606FB0134246CB1
:1056400014F0C00408D0A24206D085F31188BFF33D
:105650006F8F4FF0FF3070BD06FB013301221A64DB
:1056600085F31188BFF36F8F436803EBC1035B6859
:1056700098470020EFE78022FFF7D4BFF8B5069FD8
:105680000469C9B2EFF31186202585F31288BFF3B0
:105690006F8F0C2505FB0144256C05F0070CBCF150
:1056A000010F0CD1276486F31188BFF36F8FC4E913
:1056B0000E23436853F8313098470020F8BD05F0B9
:1056C000C005AF4286F31188BFF36F8F0CBF6FF038
:1056D00077004FF0FF30F1E713B580240094FFF717
:1056E000CDFF02B010BD10B40069CBB21C2403FB87
:1056F0000400002110BC10470020FDF76BB800200B
:1057000000F02BB91046FEF721BA43685B68D3F866
:1057100010350B600020704743685B6802EA0100A7
:1057200021EA0201C3F80805C3F80C1500207047F0
:1057300043685B680020C3F80815704743685B68DE
:105740000020C3F80C15704743685A68D2F8043536
:1057500021EA03000B40C2F80805C2F80C3500200E
:10576000704710B503695868F8B1884219D19C6830
:1057700008685860A14200D19860002008602AB1F2
:105780005A680A609A68596002B99960002010E06E
:10579000814206D10868206098688142EDD19C6002
:1057A000EBE7044600680028F2D1002AE8D16FF048
:1057B000150010BD13B5002101AA044600F049F8F8
:1057C000002805DB019B226819791868FCF772FA3A
:1057D00002B010BD10B50446002201210420FBF7E1
:1057E000FFFA6368D869FFF7E5FF002804DB20466D
:1057F000BDE81040FCF7ECB910BD10B5044600221E
:1058000001210320FBF7ECFA6368D869FFF7D2FFA8
:10581000002804DB2046BDE81040FCF7D9B910BDD4
:10582000CA074368006905D4C1F34202012A04D0C3
:10583000022A0AD06FF0150070471B684FF0CC7237
:10584000C3F824250160002070471B684FF0CD622B
:10585000F6E730B543681360057A446804EBC50485
:10586000A34202D36FF0010030BD5C798C4201D0BD
:105870000833F0E70020F7E743681B68D3F880049B
:10588000C3F88004704742681368D3F8100150B120
:10589000D269002012780A70C3F81001D3F81021E1
:1058A00001221A6070474FF0FF30704702680346CC
:1058B000D2F8580140B95B68DB0706D4D2F8200162
:1058C000003818BF012070470120704743681B68EB
:1058D000D3F80423D20517D5D3F82021A2B1EFF3D2
:1058E0001182202181F31288BFF36F8FD3F820112A
:1058F00031B10021C3F82011D3F820110121D96062
:1059000082F31188BFF36F8FD3F85831704700F1DD
:1059100050039B009BB203F1804303F588330022C0
:105920001A601B687047FEF76DBE08B5FAF7F6FE01
:10593000FAF7CAFFBDE80840FEF764BE004700F072
:105940008FB9C00000F1804000F5F830C0F81015A4
:10595000C0F814257047FDF7B5BBFCF7B7BEF7B527
:10596000019001A8DDE9084716461D46FCF7BAFF7D
:10597000019BB6F1000C18BF4FF0010C00EB830047
:105980000B1E18BF0123002D43EA4C0314BF4FF038
:105990000C0C4FF0000C002C43EA0C0314BF4FF426
:1059A000E06C4FF0000C002F43EA0C03D0F8002706
:1059B00014BF4FF4403C4FF0000C43EA0C0322EAC2
:1059C000030301B109780EB13678760019430DB1A1
:1059D0002D78AD0031430CB12478240229430FB156
:1059E0003F783F040C433C43C0F8004703B0F0BD90
:1059F0001FB50DF10F03019300238DF80F100093D5
:105A00001A461946FFF7ABFF05B05DF804FB38B541
:105A1000054608460C46FCF7B7FFB0B10846FCF750
:105A2000A7FF90B90846FCF797FF2A680123834037
:105A3000C2F808332A6803B202EB8303D3F81025B7
:105A400022F00302C3F8102538BD20460021BDE82E
:105A50003840FFF7CDBFFDF71DB8FFF7D8BF30B511
:105A6000D0F804312BB10023C0F80431D0F8043150
:105A7000012391F82F2022B30022C0F82421D0F86E
:105A80002441C0F81C21D0F81C41C0F80821D0F8EE
:105A90000821002B79D0002281F82D2091F82F20A9
:105AA000002A37D14D6B8C6AA5421FBF0523C0F871
:105AB0000025C0F80035134683F0010381F82F302C
:105AC00028E0D0F8244114B1C0F824210EE0D0F829
:105AD0001C216AB3C0F81C41D0F81C214A6B01326A
