:100000008027002041230000197A00002D230000E2
:100010002D2300002D2300002D23000000000000F0
:10002000000000000000000000000000AD240000FF
:100030002D23000000000000492400002D230000B3
:100040003526000035260000352600003526000044
:100050003526000035260000352600003526000034
:100060003526000035260000352600003526000024
:100070003526000035260000352600003526000014
:100080003526000035260000352600003526000004
:1000900035260000352600003526000035260000F4
:1000A00035260000352600003526000035260000E4
:1000B00035260000352600003526000035260000D4
:1000C00035260000352600003526000035260000C4
:1000D00035260000352600003526000035260000B4
:1000E00035260000352600003526000035260000A4
:1000F0003526000035260000352600003526000094
:1001000053B94AB9002908BF00281CBF4FF0FF317E
:100110004FF0FF3000F00CB8ADF1080C6DE904CEE3
:1001200000F010F8DDF804E0DDE9022304B07047C8
:10013000704700BF034613F8012B002AFBD1181AA1
:10014000013870472DE9F04786468C460846089EE0
:10015000154674461946002B40F0C2808542B2FA1B
:1001600082F245D94AB1C2F1200300FA02FC2EFA0C
:1001700003F3954043EA0C0C94404FEA154EA8B2A5
:10018000BCFBFEF8230C0EFB18CC08FB00F943EA7D
:100190000C43994528D9EB1808F1FF3704D299454B
:1001A00002D9A8F102072B44A3EB0903A4B2B3FBC5
:1001B000FEFC0EFB1C330CFB00F044EA0344A0429F
:1001C00014D92C190CF1FF3304D2A04202D9ACF19E
:1001D00002032C44241A43EA07401EB1D4400023F2
:1001E00034607360BDE8F0874746DDE76346F1E7BA
:1001F00092BB431B01214FEA154EAFB2B3FBFEFC8D
:10020000200C0EFB1C330CFB07F840EA0343984517
:1002100062D9EB180CF1FF3004D2984502D9ACF149
:1002200002002B44A3EB0803A4B2B3FBFEFC0EFBBD
:100230001C330CFB07F744EA0344A7424ED92C19A0
:100240000CF1FF3304D2A74202D9ACF102032C44D3
:10025000E41B43EA0040C0E7C2F1200320FA03F1A7
:10026000954090402EFA03F303434FEA154EAFB288
:10027000B1FBFEFC0EFB1C10190C0CFB07F841EA4D
:100280000041884504FA02F422D969180CF1FF30C4
:1002900004D2884502D9ACF102002944A1EB08013F
:1002A0009BB2B1FBFEFC0EFB1C110CFB07F743EAF3
:1002B00001439F420ED9EB180CF1FF3104D29F424B
:1002C00002D9ACF102012B44DB1B41EA004192E769
:1002D0006046E3E76146F7E76046A3E76346B7E7B2
:1002E000834206D916B9002108467BE7C6E900E03B
:1002F000F9E7B3FA83F78FB9834201D3724508D87F
:10030000BEEB020460EB030301209C461EB90021F2
:1003100068E73846FAE7C6E9004CF8E7C7F1200C71
:10032000BB4022FA0CF41C432EFA0CF120FA0CF319
:10033000B84001434FEA14490EFA07F5B3FBF9F848
:100340001FFA84FE09FB18300B0C08FB0EFA43EA77
:1003500000439A4502FA07F240D9E31808F1FF304A
:1003600004D29A4502D9A8F102002344A3EB0A0360
:1003700089B2B3FBF9F809FB183308FB0EFE41EA1A
:1003800003418E452CD9611808F1FF3304D28E4504
:1003900002D9A8F10203214443EA0040A0FB0298DD
:1003A000A1EB0E014145CE46434602D306D14D4551
:1003B00004D2B9EB020E68EB04030138002EA6D07C
:1003C000B5EB0E0261EB030101FA0CFC22FA07F314
:1003D0004CEA0303F940C6E9003198E74046C5E717
:1003E0004346D9E72DE9F04387B070486F4E07F0D8
:1003F000D7FE0446002800F0D2804FF47A6006F061
:10040000E9FC6FF01D03CDE90433694A6948032113
:1004100007F02CFA04AA0121304606F0CDFC024672
:1004200018B16549634806F0C2FC1E23CDE90433C8
:10043000624A6048032107F019FA04AA5B480221C6
:1004400006F0BAFC024618B15B495A4806F0AFFC08
:10045000564D5B4F574C4FF000094FF00508B368FD
:100460003F21DB6828469847024618B139462046A6
:1004700006F09DFCB36802AA1B690D212846984727
:10048000024618B14F49204606F091FCDDE90232E0
:100490000321009220464C4A07F0FBF940F6B930A0
:1004A00006F098FCB8F10108D9D1484BCDF810807E
:1004B00004AA11212846059306F07EFC024618B1D5
:1004C0003D49204606F073FC4FF00508B3683F2114
:1004D000DB6828469847024618B13946204606F0A0
:1004E00066FCB36802AA1B690D212846984702469C
:1004F00018B13449204606F05AFCDDE902320321E6
:1005000000922046324A07F0C4F940F6B93006F0AE
:1005100061FCB8F10108D9D14FF2244304AA11219A
:100520002846CDF81080059306F046FC024618B127
:100530002149204606F03BFC42F2293006F04AFCF5
:10054000B9F1000F15D1234A0321204607F08EF997
:10055000012304AA0A212846CDE9043306F02CFC25
:10056000024618B11449204606F021FC4FF001095B
:1005700073E7194A0321204607F078F9002304AAFB
:100580000A212846CDE9043306F016FC024618B1CC
:100590000949204606F00BFC4FF000095DE70F48C3
:1005A00006F05CF9204607B0BDE8F0835C870000E8
:1005B0001E8D0000D8890000368D00004A8D000095
:1005C000628D00007A8D0000908D000020A1070050
:1005D000C48D0000F88D0000F58D00000C8D00002A
:1005E0002DE9F04F91B08407009302F004030293C9
:1005F000C2F3C20303F10103DDF8688003920546EC
:100600000E46059340F0BA81041D30B1072909D880
:100610006FF01B0011B0BDE8F08F01F00706344405
:10062000C6F10806009B4FF00009591E4FF0040A5E
:100630004FF0FF330193CDF810904F46CB46534611
:100640000DB1009A22600598002800F3E8809848D0
:10065000009A824203D397488242C0F0E080039A16
:10066000A4EB050E92074FEA9E0000F103810F2FC5
:1006700000F2B180002D00F0058107F140020DEB82
:10068000020C019A0CF8200C0CF8102C0498013084
:100690000490E7E07A285DD84B280ED8472859D82F
:1006A00029282DD8252852D054D820287AD023386C
:1006B000D0F1000B4BEB000B74E04C382E2849D8DE
:1006C000DFE800F0704848484848484848484848EB
:1006D0004B484848484848484859484B4B5959594D
:1006E000704B6D487048184B184848827F4B4848FB
:1006F0004B487F0000204FF0000B4FF0040A38E019
:100700002A38C0B2012202FA00F010EA0E0F49D1D5
:1007100010F0625C2FD110EA020B43D06046013C1E
:100720005444B4FBFAF40AFB04F4002D61D0A3EBAB
:10073000050CA444B4453FF66BAF002868D1042BE8
:1007400047D158F8043B2360043404232AE0019A7B
:10075000013A01924FF0000B24E011F8010C6C28D3
:1007600034D111F8023C00206C2B8346C5D14FF0E8
:10077000080A5346D3E708F1070828F007080734AA
:10078000F8E802AB24F0070435B106982044B042E3
:100790003FF63EAFC4E900AB08344FF0000B4FF01A
:1007A000080A534611F8010F002878D0BBF1000F5A
:1007B0007FF470AF2528F5D1019B013301934FF0F1
:1007C000010B4FF0040AECE7584694E700208346FB
:1007D000A5E7082B02D06FF015001BE708F107080A
:1007E00028F00708F8E80223C4E9002308340823A6
:1007F000D8E768B9042B02D108F10408A4E7082B54
:10080000E9D108F1070828F0070808F10808EDE722
:10081000059A013A059258F8042B009210E7039AC2
:10082000900720D5A4EB050E4FEA9E004FF0010C77
:10083000BEF5007FCFD20F2FCDD8F5B107F1400222
:100840000DEB020EC0B2019A0EF8200C0EF8102C1F
:10085000BCF1000F3FF41AAF60F07F000EF8200CDF
:1008600009F101090137C5F10802043406924FF677
:10087000DA7E97E74FF0000CDAE7BCF1000F01D009
:100880000136EFE7029802360028EBD10098CDE957
:100890000631FFF74FFCDDE906310644E2E7631B52
:1008A000B3F5806F97D23DB9A6F10804E018B1E620
:1008B0005C860000C8970000029A28609B082B7095
:1008C0009DF81030C2B1EB7085F80290B9F1000FBD
:1008D00005D008A80022C5F1010C97420ED1C5F140
:1008E00001030DF120084FF0000A01930DF1300BC8
:1008F000574512D1601B8DE66B70E5E710F8013BA0
:10090000190608D50CEB040EB64503F07F033FF63D
:100910007FAE04F8013B0132DFE7B9F1000F03D0ED
:1009200098F90020002A17DB029BD3B11AF80B209C
:1009300004F8012B0022019B18191044B0423FF625
:1009400067AE98F8000004F8010B00990392204666
:1009500007F0F8FD039A14440AF1010A08F10108AE
:10096000C6E798F8002055F822300093029B45F81E
:1009700022300098FFF7DEFB421CDCE76FF00D0031
:1009800048E600BF2DE9F04F97B000AF90F802A005
:10099000D7F880B03B62CBF3C0030446FA62BB6178
:1009A000894641B9457800780AEB800020444D45DE
:1009B00017D8A0EB0409E378FB61BAF1000F02D06D
:1009C0001BF0010F16D1FB6953BBFB6A1BB13A6ADE
:1009D0004946204698474D4628465C37BD46BDE807
:1009E000F08F461C3046FFF7A5FB0130304409F17B
:1009F0000109DCE7237862687A62FA6A9900796112
:100A000004EB8301002A40F000814D460E4601EBC5
:100A10000A094FF000084E454CD101EB0A0610E0E0
:100A20001BF0020FD1D023789A007A6162687A6253
:100A3000FA6A04EB8301002A77D14D4601EB0A06DE
:100A400090461BF0050F0CBF02230123FB62FB69DC
:100A500006EB430A0BF00203BB625645BCD016F806
:100A6000021B16F8013C54F82390994B994502D388
:100A7000984B994536D3BB69002B40D0786A06F075
:100A8000CAFA00283BD0E9468AB06A46924B5361C5
:100A90007B6AC2E906314FF4007313848F4B42F82E
:100AA000103F8F4800234FF4125100F023FD023D08
:100AB000CD46D2E716F8013BF96254F82300FFF760
:100AC00039FBD7F88430F96A01304BB1D7F8883058
:100AD00098453EBFD7F8843023F8180008F1010884
:100AE000054498E7BB6923B1786A06F094FA0028B8
:100AF000C9D11BF0010F05D1FB6AED1AADE7BB6A46
:100B0000002BAAD04846FFF715FBD7F8843053B125
:100B1000D7F8883098453FBFD7F88420431C22F887
:100B2000183008F10108054497E7BAF1000F72D0B8
:100B30001BF0040672D0D046002607F1480052464A
:100B40003B61B96207F0FEFCB96A3B6901EB0A023E
:100B5000BA62FA69F9695200FA60BA6A02EB4102B4
:100B60003A610BF00202BA603A69B96A8A4257D117
:100B700062787A621BF0020F32440CBF4FEA5801D0
:100B800000211BF0010FD2B240F09F801BF0040F38
:100B900014BF40460020BB616270A070E1703A6AE9
:100BA0007969FB6A20469847051EFFF615AFBB69B9
:100BB00023707B6A6370FB69E37041463A6AFB6AA3
:100BC00084F802A007F148009847B0F10008C0F28D
:100BD000BB807B693A6AA9EB0A01C91AFB68C91A8A
:100BE000D7E90A0398470028C0F2B080A84408EB70
:100BF00000054FF0000B07F1380AB34572D300210E
:100C00003A6AFB6A08469847E6E656464FF00008FF
:100C100007F1380093E75646D04697E7B04695E788
:100C2000BA6A12F8021BBA6212F8015C284A54F838
:100C30002500904202D3274A90421ED3BA6932B1AE
:100C4000786A7B6006F0E7F97B6800288CD1BA6887
:100C500002BB08F1280207F1300C08F101009444AE
:100C600007F1580252FA80F008F102080CF8101C43
:100C70005FFA88F800F8105C76E7BA693AB1786AEA
:100C80007B6006F0C8F97B6800287FF46DAF1BF02D
:100C9000010F09D006F1280207F13000711C161867
:100CA00006F8205CCEB25FE71BF0040F3FF45CAFA8
:100CB00008F1280207F1300008F1010102EB0008F9
:100CC00008F8105C5FFA81F84EE7002063E700BF88
:100CD0005C860000C8970000138E0000040000012D
:100CE000A08900001BF80A3087F8373054F82390A9
:100CF000D7F884302BB3D7F888309B4521D2D7F86A
:100D0000843033F81B803A6AFB6A012107F137000F
:100D1000984700281ADB0544B8F1000F06D1484671
:100D2000FFF708FA00F101081FFA88F83A6AFB6A2F
:100D3000414648469847002808DB05440BF1010B63
:100D40005BE74FF00008DEE7454645E6054643E62B
:100D5000014B1860704700BFC004002080B50546F5
:100D60000E461746984605F095F8034607F06CFCCA
:100D7000DFF81890044649F80030424630463946BC
:100D8000A84754F8090001F049FB00BF0800000023
:100D90002DE9F047058B04462807904611D4022917
:100DA00005F0070540F0CC80204606F0C9FB78B17D
:100DB0000138218B042811D8DFE800F0C2106D85BE
:100DC000950001290CBF45F0100545F0200525834D
:100DD00088F31188BFF36F8FBDE8F08701F0070A31
:100DE000AA4500F0A5800027B9463E46A368002B1F
:100DF00000F0BC8041F00801218388F31188BFF323
:100E00006F8FA168002900F0BA800D68002900F0FA
:100E1000B680D1F80480334652462046C047002DA4
:100E200076D02B6829461D46F0E701F007035A1FCC
:100E3000012A1BD8002221F00701062B276889B25E
:100E4000C4E9002209D13B4603E0628B0132628390
:100E50001B68002BF9D141F002012183204606F0E6
:100E60006FFB00287AD041F0200176E0042B0AD1F4
:100E700021F0070189B22183204606F061FB10B101
:100E800041F020012183218B01F0070AAA454FD0B0
:100E90000027B946AAE7236921F0070141F00601BE
:100EA000062DD3F8009021832DD1B9F1000F3FD04A
:100EB00041F00801218388F31188BFF36F8F3A490D
:100EC0002046C84729E021F00701236941F00401C9
:100ED00089B2042DD3F804902183E6D000273E4642
:100EE0004FF0040A82E721F00701236941F0050170
:100EF00089B2052DD3F808902183D6D000273E462D
:100F00004FF0050A72E700273E464FF0060A6DE7EC
:100F10002B4687E7B9F1000FD1D1EFF311882023D9
:100F200083F31288BFF36F8F238B23F0080323838F
:100F3000258BEA062ED525F01003238305F007053F
:100F40006669218B002EBFF670AF00232768C4E9C5
:100F5000003321F0070141F001012183218B01F0D1
:100F6000070AAA454FF000097FF440AF002F9CD03C
:100F700041F00801218388F31188BFF36F8F002FA0
:100F8000C8D03D68394633465246204606F004FB39
:100F90002F46F4E7AB067FF51BAF25F02003238334
:100FA00005F0070500E700BFC57500002DE9F04713
:100FB000DFF85880044607464FF0010914B9384657
:100FC000BDE8F08794FAA4F5B5FA85F509FA05F3BA
:100FD0002E0108EB05156FEA030A24EA03042B7BB4
:100FE000002BEBD058F806301B694BB9464404225D
:100FF00073682846196807EA0A0700F067FADDE710
:10100000284698470028D9D1F0E700BF108A000091
:1010100030B51049104889B0002207F06BFA0F4D27
:101020000F4900220023CDE9062300240E23CDE939
:101030000334CDE901440B4B00944FF44072284631
:1010400004F090FC0849284607F065F9204609B0ED
:1010500030BD00BF6D100000780B0020F0060020AE
:101060008016002071130000C78E0000014804F0B4
:10107000D3BB00BFDC0600202DE9F04780461F48A7
:101080000F4606F06DFB0646002830D000252846A6
:10109000BDE8F087237B6BB12368DB680BB120468A
:1010A000984723681B69D3B96368042219682046EE
:1010B00000F00CFA013610344C45EBD3B8F1000FB8
:1010C000E5D0002DE2D02846FFF770FF0546002F3F
:1010D000F7D000214FF4A47007F0B3F9F1E72046F0
:1010E00098470028E0D00AFA06F31D43E2E7044CD3
:1010F000DFF8109005464FF0010ADDE7800D002073
:10110000108A0000308A0000014B53F8200070471D
:101110004C8A000008B5034608462BB1044A136008
:1011200000F07EFC002008BD6FF01500FBE700BF5B
:10113000C404002010B5044C237813B9034804F00C
:101140006BFB0123237010BD60160020DC0600201D
:1011500010B504460B4806F003FB5CB1BFF35B8F90
:10116000094B53E8001F013943E80012002AF8D167
:10117000BFF35B8F054807F0C9F90548BDE810408B
:1011800004F04ABB780D00207C0D0020780B002075
:10119000DC0600200020064BBFF35B8F014653E8BE
:1011A000000F43E80012002AF9D1BFF35B8F7047AC
:1011B000780D002070B5FFF7EDFF084C084E05468E
:1011C000B44200D370BD63685B792BB123685B6860
:1011D00013B12946204698471034F1E7108A0000E1
:1011E000308A000010B5044C0449204606F041F84E
:1011F000034B1C6010BD00BF50060020388A000061
:10120000700D0020084A094808B500231370084AE9
:101210001360084A4FF400411360FFF77BFFBDE8FD
:101220000840FFF7DFBF00BF611600205D770000B8
:10123000780D00207C0D002001460022014800238B
:1012400006F038B850060020014806F0D1B800BFBB
:1012500050060020024B0146186806F01DB900BF79
:10126000700D0020014806F052B900BF5006002062
:1012700070B5284B187800284BD0FFF7E5FF0546DE
:1012800090B1BFF35B8F244B53E8001F013943E853
:101290000012002AF8D1BFF35B8F204C204EB442DD
:1012A0002DD32846FFF7D6FF1E4B1F4C1B68002B83
:1012B00019DD07F01DF94FF47A72A0FB020302FB5F
:1012C0000131C30BD4E9002043EA41439B1A4FEAA2
:1012D000D13140F2E93261EB0001934271F100013A
:1012E00001D3FFF767FFD4E9003213F57A7342F1B7
:1012F0000002C4E90032BDE87040FFF7B3BF636885
:101300005B7923B1236829461B682046984710342F
:10131000C5E770BD601600207C0D0020108A00001B
:10132000308A0000780D0020700B002070B50D4D44
:10133000297861B90120FFF79FFE0B4C0B4EB44298
:1013400006D3FFF795FF0028FBD101232B7070BD5A
:1013500063685B791BB1236820469B68984710340B
:10136000EDE700BF61160020108A0000308A0000FF
:1013700000212DE9F0470846FFF77EFE044658B3EA
:1013800040F267684FF0000907F05EF91B4B1C4AFA
:101390001B58136033B11B4B1B68092B02DD1A4825
:1013A00004F03AFA194FDFF860A0002544B1204656
:1013B000FFF7FCFD044618B94FF0FF384FF0FF3936
:1013C000FFF756FF064628B9B5B942464B46504688
:1013D00004F056FA3546E9E74FF0FF384FF0FF3991
:1013E000D2E72B689B691BB100221146284698471B
:1013F0001035BD42F5D3E8E7054DFAE708000000D7
:10140000740D00207C0D0020DC060020308A0000D6
:10141000108A000013B5184806F0A2F9174B1B7884
:1014200073B1EFF31184202383F31288BFF36F8F1E
:10143000FFF71EFF84F31188BFF36F8F02B010BD5A
:101440000F4B1B68002BF9D050B900220023CDE9C7
:1014500000230C484FF40042002304F0D5FFEDE7D1
:101460000928EBD1074807F051F8074802B0BDE85A
:10147000104004F0D1B900BF7C0D0020611600209F
:10148000740D0020780B0020DC06002010B5064B00
:101490001B68044698472146A060044805F089FF70
:1014A000BDE81040FFF7B6BFC4040020500600207E
:1014B000044A054B9B1AB1EBD30F34BF52F83100ED
:1014C00000207047A0890000108A0000084BC31A52
:1014D00010B41B1144680133237143689A71436847
:1014E0001960436801225A7110BCFFF723BE00BF88
:1014F000108A00002DE9F04F8FB004AFC1F34A28E5
:10150000B8600D4691467B600C0DB8F1000F63D0BA
:10151000002607F114034FF0040B4FF00A0AC7F836
:101520000C80C7E907667E620193CDF808B0CDF85C
:1015300000A007F11C03F96832464846FFF722FA7B
:10154000B0F5006F03461CD36C468AB0D9F804107E
:1015500004AB2648C3E9050140F2FF71D9611A4680
:101560004FF400711984224B42F8103F2148334652
:101570004FF41251FFF7BEFFA5462C37BD46BDE81C
:10158000F08FC0F30A0804F11700184420F0070098
:1015900080083B60FFF750FE68F35325044690B186
:1015A0003B68154AC7E9083600F1100107F114033A
:1015B000F961CDE900A3CDF808B0F96807F11C0383
:1015C0004846FFF7DFF968F353257B68B9682A4678
:1015D000204606F0FBF8D0E704F1170020F00700E2
:1015E0008008FFF729FE0446EDE700BFDC8E00000F
:1015F00004000001C0890000A17700002DE9F04F30
:1016000087B0DDE91279DDE9105A0446039193466B
:101610009846BFB1CDF800903B46524610210020BD
:10162000CDF81490FEF7DCFFB0F5006F06460AD344
:10163000184A194840F2FF73022107B0BDE8F04F85
:1016400006F01DB93E4605F11700304420F00700B2
:1016500004F007048008FFF7EFFD0BF0070BE40030
:1016600044EA8B1444EA462444EA0554054640B152
:101670003FB1CDF800903B46524631461030FEF760
:10168000AFFF039943462246284607B0BDE8F04F16
:1016900006F09CB81B8F0000C0890000406820B194
:1016A000034BC01A40F3CF0070474FF0FF30704734
:1016B000A08900000EB403B503AB014653F8042B18
:1016C0000448019301F03CF902B05DF804EB03B06B
:1016D000704700BFE1780000CA0605D48B064CBFF6
:1016E00002490349FFF7E6BF704700BF548F00006F
:1016F000538F00002DE9F04F89B09B46149B069351
:101700009DF84CA0159B0593169B179E04930446C9
:101710000D469046BAF1000F00F09D8006F48073EC
:10172000079306F03BF806F00209024600283ED077
:1017300091492046FFF7BEFF0746B9F1000F08D0D8
:1017400016F0440F35D18D492A462046FFF7B2FFE7
:10175000074406F0010353B1894B8A4953F82A2004
:10176000894B2046002A08BF1A46FFF7A3FF06F45C
:101770008073002B49D006F00803002B63D1B8F129
:10178000000F66D0814942462046FFF793FF054689
:10179000069B3D44002B6DD1049B002B73D1F307B6
:1017A00000F1E48031462046FFF796FFD8E0074677
:1017B000C3E7774B18680028CAD0764B4FF47A7984
:1017C0001B68B5FBF3F54FF46163B5FBF0F100FB6B
:1017D000115509FB05F54FF03C0CB1FBF3F203FB8F
:1017E0001211B5FBF0FEB1FBFCF300FB1E550CFB28
:1017F000131109FB05F50091B5FBF0F56649CDE93C
:1018000001E52046FFF756FFA2E706F00803EBB11B
:10181000624B634953F82A202046FFF74BFF0546E9
:10182000B8F1000F05D0594942462046FFF742FF64
:101830000544BBF1000FABD05A495A462046FFF78A
:1018400039FF0544A4E74FF0000BE1E706F0080577
:10185000E6E745469CE7BBF1010F069B06D1002B4E
:1018600064D1049B002B7BD000250CE0002BF8D02A
:101870004D485CE04D48069B4D49224605F09AFBD9
:10188000049B002B68D0DFF82C81DFF82C91049F9B
:101890003146102F204628BF1027FFF71DFF4FF0BD
:1018A000000B5D4545DC059B49461A782046FFF74D
:1018B00001FF4FF0010B1BF0070F03D141462046FB
:1018C000FFF7F8FE5F453BD9059B494613F80B200F
:1018D0002046FFF7EFFE0BF1010BBBF1100FEAD131
:1018E000364920464FF0000BFFF7E4FE5A46059BB1
:1018F0009A5CA2F120015F2928BF2E2230492046A0
:10190000FFF7D8FE0BF1010BBBF1100F1DD01BF040
:10191000070F03D141462046FFF7CCFE5F455A46EC
:10192000E5D841462046FFF7C5FEEBE71F48554680
:10193000A1E741462046FFF7BDFE0BF1010BB0E7E2
:1019400020492046FFF7B6FEC5E7059B3B440593BB
:10195000049BDB1B04939AD1BAF1000F7FF41FAFF5
:10196000204609B0BDE8F04F05F0ADBF064A054975
:101970002046FFF79FFE15E75B8F00005F8F00009A
:101980005C8A0000AA950000568F0000848F00003A
:10199000880D0020840D0020688F0000708A0000F0
:1019A000888F00008E8F000017790000E17800001A
:1019B000412900009B8F0000938F00009D8F000045
:1019C0009F8F0000998F000073B542F20F738B4216
:1019D00028BF0B4605680F4A04460521684604F0F7
:1019E0005DFF63680C495B6806460B22284605F0DC
:1019F0005CFF63683246694628465B6805F055FF20
:101A0000636806495B681B22284605F04EFF02B05A
:101A100070BD00BF76910000BE8F0000A28F000055
:101A2000074A00210123904206D8064A01B9012342
:101A30001360054B1860704740085B000121F2E716
:101A400040420F00840D0020880D0020014B012230
:101A50001A70704762160020014B00201960704711
:101A6000A00D00200148FFF7AFBF00BFA08A000013
:101A700010B5064B18680C46FFF746FB2146034697
:101A8000BDE8104002480F22184700BFA00D0020FB
:101A9000A08A0000F8B5094D094B0A4ED5E9004768
:101AA00001221A700CB92C60F8BD214630463A4626
:101AB00000F01EF8241A0644F4E700BF940D00203D
:101AC000631600206416002010B9074B1870704789
:101AD000064B1B781BB141F2883006F05CBBA4209A
:101AE000002106F0AEBC00BF621600206316002085
:101AF0002DE9F047DFF878901E4F80460E4604240B
:101B000099F80050A5B906F039FB324682464146A5
:101B1000284603F065FB0546504606F037FBE5B165
:101B200001233B7099F8003073B93046BDE8F08767
:101B300032464146002003F053FB0546EFE72046BE
:101B4000FFF7C2FF651E2C46002003F08DFB002826
:101B5000EBD03B78002BF2D1E7E73B78002BE4D0C9
:101B6000013C2046FFF7B0FF3B78002BC8D1DCE7F3
:101B70006316002062160020F8B5074F0D46044694
:101B80004618B44201D12846F8BD14F8011BBB68C1
:101B900001485B689847F4E720870000014B036029
:101BA00000207047E48A000008B5044805F05AFA9E
:101BB000BDE80840024805F055BA00BF1490000087
:101BC0004A900000014804F0A1BC00BFE48A000074
:101BD00038B5044618B90F4B0F485B6898476168E1
:101BE000B1F5683F10D0B1F5680F0DD00B4DA9428B
:101BF0000AD011F46861206807D00146084806F051
:101C000027FB00232360656038BD142206F0A8FC82
:101C1000F9E700BFE0050020789000002C5F5CA988
:101C2000C812002008B520B34368B3F5683F10D14F
:101C300001220368BFF35B8F53E8001F002903D123
:101C400043E800200028F7D1BFF35B8F0DD10020BF
:101C500008BD094A93420AD000684FF0FF324FF0A6
:101C6000FF3303F011FD0028F1D00448F0E70448E9
:101C7000EEE76FF4E040EBE72C5F5CA9E98FFFFF34
:101C8000EA8FFFFF08B5D8B14368B3F5683F10D1BC
:101C900000220368BFF35B8F53E8001F012903D1C3
:101CA00043E800200028F7D1BFF35B8F0BD1002061
:101CB00008BD074A934208D0006803F05DFDF6E7CF
:101CC0006FF4E040F4E70348F2E70348F0E700BFB1
:101CD0002C5F5CA9E98FFFFFEA8FFFFF10B5044678
:101CE00018B91D4B1D485B6898476368B3F5683F9A
:101CF0002FD0B3F5680F2CD0194A934219D123681D
:101D000003BB18484FF0FF324FF0FF33214603F07A
:101D10008DFC08B923681BB90F4B13485B689847C3
:101D200020681422002106F01BFC4FF468636360F6
:101D300008E0B3F5683F0DD83A2B03D040F6BA62FD
:101D40009342DED1206806F0CDFA636843F03A038F
:101D5000636010BD054AF3E7E005002078900000BD
:101D60002C5F5CA9C81200209E9000003A00003A47
:101D700008B5064906484023142206F05BFABDE880
:101D800008400449044804F033BC00BFC80D0020DB
:101D9000C8120020EC8A0000008B00002DE9F047FB
:101DA000064600AF0C46002936D0E9468AB0D1E994
:101DB0000012A3686D462148A8464FF0050AC5E900
:101DC0000501C5E9072348F810AF1D484246002326
:101DD0004FF42151FFF78EFBCD46D4E9031263691E
:101DE000AD461848C5F810A0C5E90501C5E90723A7
:101DF0001348002342464FF42151FFF77BFBCD46A9
:101E0000E369114A0E48012105F039FDA3690F4A23
:101E10000B48012105F033FD012E07D1EFF30583B7
:101E20000B4A0748103B314605F029FD2146304654
:101E300003F04AFABD46BDE8F08700BFCB90000032
:101E4000F0890000FA90000029910000389100000C
:101E50006691000030BFFFF7FDBF00BF2DE9F041E4
:101E60000B4EDFF8308006EB0807CC1B05463246E8
:101E70000949204606F066FBA01942460021083CAD
:101E800006F06EFB2C6707F10800BDE8F08100BF8B
:101E90000000000004000000308A0000074A936838
:101EA00093F90E10002907DB526993421FBF044AC1
:101EB000536843F080535360704700BF48140020BC
:101EC00000ED00E070B5294C06460D46284829492A
:101ED00005F0A9FDA36AD9043CD52548264905F09B
:101EE000A2FD1720A36A1A0504D52148234905F04D
:101EF0009AFD18201D4CA36A9B0512D51C48204949
:101F000005F091FDA36BA26A100409D51D4A18487B
:101F1000012105F0B4FC1EB1A36A23F40043A362BF
:101F20001920124CA36A590504D51148164905F029
:101F30007AFD1A20A36ADA050ED50D48134905F07B
:101F400072FD1B20094A936A43F47F439362002386
:101F50002B7070BD1620C5E7A36A9B04F2D5044818
:101F60000B4905F060FD1C20ECE700BF00ED00E030
:101F7000F0890000799100008F910000A09100008D
:101F8000B3910000CC910000E1910000FC910000B1
:101F90001492000010B5204C2049214805F043FD63
:101FA000A36A990136D51E481E4905F03CFD1E2046
:101FB000A36ADA0104D51A481B4905F034FD1F2035
:101FC000154CA36A1B0304D51548184905F02BFDD1
:101FD0002120A36A590304D51148154905F023FDB2
:101FE00022200D4CA36A9A0304D50D48114905F02F
:101FF0001AFD2320A36ADB0304D509480E4905F026
:1020000012FD2420044A936A6FEA03436FEA1343E4
:10201000936210BD1D20CBE700ED00E0439200006D
:10202000F08900005B9200006E9200008892000030
:10203000A6920000CB920000E59200002DE9F84343
:10204000364D8046894636483649174605F0EBFC42
:10205000AB6ADE0627D53449314805F0E4FC11248B
:10206000AB6A1D0704D531492D4805F0DCFC12246C
:102070002A4DAB6A980718D52D49294805F0D3FC9D
:102080006E6BAB6A190646D52A4A254833460121AC
:1020900005F0F5FBB9F1000F03D0AB6A23F0800324
:1020A000AB62132403E01024DAE76FF015061B4D32
:1020B000AB6ADA0704D52049194805F0B4FC1424AA
:1020C000AB6A9B0604D51D49154805F0ACFC1524E8
:1020D000124B9A6AD50602D49A6A90070AD55B68B1
:1020E000190507D54146304600F05EFA10B180F37D
:1020F00009880224094B9A6A920642BF5A6A22F45E
:1021000000525A629A6A42F0FF029A6200233B70C0
:102110002046BDE8F8836FF01506C2E700ED00E049
:10212000F08900001093000026930000A0910000A9
:1021300059930000719300008793000014920000EF
:102140002DE9F041664B8AB0D3F8048000AF044615
:10215000C8F30805002686F31188BFF36F8F02F0DD
:102160007F43B3F17F4F07D102F00C03082B12D14C
:102170005C495D4805F057FC002634460023FB719E
:10218000EB1E092B00F28A80DFE803F00A80837CD3
:1021900088888888888610074CBF0C460126EDE7A2
:1021A000524951484E4D05F03EFC0023FB71EB6A4D
:1021B0009A0705D54E494C4805F035FC002332E01E
:1021C000EB6A002B01DA4B49F5E7EB6A5B00F5D5CA
:1021D0004949454805F027FC6B69A26943F48073BF
:1021E0006B61BFF34F8FBFF36F8F6B6932F8022CB7
:1021F00023F480736B61BFF34F8FBFF36F8F4DF686
:1022000002739A4208D0AB6ADBB273B3FA1D0121A4
:102210002046FFF713FF37E02368384A3248012190
:1022200005F02DFB2368FA79DAB907F1080504F106
:10223000200C206861682A4603C2083464451546AC
:10224000F7D17A6A002E45D0C2F3080121B96FEAAE
:1022500052226FEA42227A6207F108011846FFF71C
:102260009DFD2837BD46BDE8F081AB6A13F47F4F72
:1022700004D0F91D0120FFF725FE05E0AB6AB3F598
:10228000803F9BD3FFF786FE0346CCE7FA1D002173
:10229000BEE7F91D0020EEE719498CE7194A1A4BF1
:1022A00018F4F87FE8468AB018BF13466A46174903
:1022B000C2E905134FF400731384103D144BD5612C
:1022C00042F8103F084800234FF41151FFF712F96C
:1022D000C54673E722F4FF7222F00102BBE700BF9C
:1022E00000ED00E0D4930000F0890000FF930000AF
:1022F0001694000037940000459400006494000098
:1023000080940000BB930000A6930000A4940000FA
:1023100004000001044B5A6942F010025A615A69E4
:1023200022F008025A61704700ED00E0EFF30880E8
:10233000EFF3098101B57246FFF702FF01BD00BF4F
:10234000002080F31488BFF36F8F01F04DFE002052
:102350000D490860BFF34F8F0C4880F3088800F0E8
:102360002BF8202080F3118809484FF404614018AD
:1023700080F30988EFF314800221084380F3148866
:10238000BFF36F8F00F0D8F894ED00E080270020B5
:10239000C01900200749D1F890200023C2F307227A
:1023A0001846934200DB7047C1F89830C1F8A0008E
:1023B0000133F6E700ED00E008B572B6002383F3C1
:1023C0001388FFF7E7FF144B4FF0FF32C3F880206C
:1023D000C3F88420C3F88820C3F88C20C3F8902069
:1023E000C3F89420C3F89820C3F89C20C3F8802138
:1023F000C3F88421C3F88821C3F88C21C3F8902145
:10240000C3F89421C3F89821C3F89C2162B6BFF3A6
:102410004F8FBFF36F8F08BD00E100E0084B9B6852
:1024200083420BD1EFF3058343B1064B5A6842F068
:1024300080525A605A6A22F400425A6203F030BD58
:102440004814002000ED00E015498A684FF0300084
:102450001044EFF3098C80E8F01F202080F31288ED
:10246000BFF36F8F0F4F4FF000664A698A603E607E
:102470004FF07004141920680B4C2060506F00233B
:10248000536780F3118804B5104600F0F1F8BDE8F9
:10249000044002F1300090E8F01F8CF30988704787
:1024A0004814002004ED00E0E41200201EF0040FA8
:1024B0000CBFEFF30880EFF30980816911F8021C6B
:1024C0000229FFD001B5724605F0A2FA01BD00BF96
:1024D00040B2002807DB044A4109012300F01F0035
:1024E000834042F82130704700E100E0054B42098B
:1024F00000F01F0053F82220012303FA00F01040DF
:10250000704700BF00E100E040B20028A8BF00F122
:10251000604001F10101B8BF064B4FEA4111ACBF69
:1025200000F5614000F00F00C9B2B4BF195480F843
:102530000013704714ED00E00B4A08B50B4B22F076
:102540007F029A60BFF34F8FBFF36F8FD3F888205D
:1025500022F47002C3F8882002F0A2FF03F0AEFD5F
:1025600000F05CF802F0E0FF0000000000ED00E089
:1025700042F8203C009B42F81C3C0A49019B42F86F
:10258000183C029B42F8143C21F001014FF080738B
:1025900042F8043C42F8081C0023203A02654367D5
:1025A000704700BF5D0D0000094A0346906870B196
:1025B00013F1160F006E05D0A0F140029A4205D823
:1025C000834203D2814228BF002070470020704719
:1025D0004814002008B51546094A0A4B9060026F5E
:1025E0001A600E4600F044F82C4686F30988002055
:1025F000054B98472046002100220023034C20472A
:1026000048140020E4120020377A00005D0D00001D
:10261000014B10221A61704700ED00E004480023CE
:102620002021C2180133302B82F80013F9D17047F2
:1026300000E100E008B5EFF30583064A103B02EB2A
:10264000C30152F8330049688847BDE80840FFF7E6
:1026500025BC00BF84870000024B034A03480121C8
:1026600000F08AB80000042000000020108B000059
:10267000026E054B403A1A60044A4021C3E9011238
:102680001846012100F082B8E812002000000B1566
:1026900008B503461048D0F89020C2F30722013A4B
:1026A000934207D90D480E4A012105F0E8F86FF072
:1026B000150008BDC0F898300A6822F01F021A43BE
:1026C00042F01002C0F89C208A6842F00102C0F873
:1026D000A0201846EDE700BF00ED00E0E88900000B
:1026E000BB940000F0B50E4685B01F460446002599
:1026F000B5420DDA606810B397B1431E18420AD094
:10270000104A11482B46012105F0B9F86FF0150267
:10271000104605B0F0BD1F28F2D921680B42EFD159
:102720002368019305F0AAF9A36801A90343D0B275
:102730000393FFF7ADFF10F1160FE7D0421C0135F0
:102740000C34D5E7E1940000E8890000044B052231
:10275000C3F89420BFF34F8FBFF36F8F704700BF54
:1027600000ED00E0BFF35F8F024B0022C3F894201E
:10277000704700BF00ED00E010B5034C0123227844
:10278000FFF7B0FF207010BD7516002008B50B4A8A
:1027900000231278FFF7A6FF10F1160F07D0084AA2
:1027A0000021D2F89030C3F30723984200DB08BD24
:1027B000C2F89800C2F8A0100130F2E775160020A8
:1027C00000ED00E02DE9F04357485849D0F890302B
:1027D0000D68C3F307239D4285B000F2A180FFF787
:1027E000C1FF49680022954201F10C011AD1504CF9
:1027F000504F25706846FFF7D1F9DFF83C81DFF8CC
:102800003C9106460025AE421FD123784649002060
:10281000D1F89020C2F3072293427BDBFFF796FFAB
:1028200000204CE0C0F8982051F80C3C23F01F0326
:10283000134343F01003C0F89C3051F8043C43F0BC
:102840000103C0F8A0300132CDE7009800EB05117C
:102850004FEA051CCB683B40B3F5000F44D00AD8C3
:10286000B3F5001F2ED0B3F5800F34D0B3F5801F21
:1028700010D00135C7E7B3F1807F3ED0B3F1007FC0
:10288000F7D150F80C3088684A6805F0F7F840F442
:10289000802009E050F80C3088684A6805F0EEF8AE
:1028A00040F0885040F43020039001A92078CDE911
:1028B0000123FFF7EDFE002828DA6FF0150005B0C0
:1028C000BDE8F08350F80C3088684A6805F0D6F807
:1028D00040EA0800E8E750F80C3088684A6805F0DC
:1028E000CDF840EA0900DFE750F80C3088684A6804
:1028F00005F0C4F840F08270D6E750F80C308868D4
:102900004A6805F0BBF840F08870CDE723780133C2
:102910002370AEE7C1F89830C1F8A000013377E723
:102920004FF0FF30CBE700BF00ED00E01C8B000054
:10293000751600200000F0FF0000081100000207DB
:10294000F0B587B007460E461446002110226846AF
:102950001D4605F005FE02238DF802302A46054B80
:10296000019321466846CDE9047603F0C3FF07B022
:10297000F0BD00BF9D7A000008B5024B1B68984768
:10298000002008BDF4120020034B044A186093781D
:1029900043F0020393707047F4120020F00400200B
:1029A00008B50649064821F00701C1F1005202F5B9
:1029B000802204F0A7FA002008BD00BFC72700202E
:1029C000F81200200E4A0123C2F840354FF0804231
:1029D0004FF08051C2F87835D1F83001082808D17D
:1029E000D1F83411052904D80648415C09B1C2F870
:1029F00038364FF080430122C3F88025002070470D
:102A000000E001401395000020B1034B800143F02A
:102A100001031847704700BF308A0000084B70B5AB
:102A2000C31A0D4607499B100446594306484022E5
:102A300005F048F82B4601462046BDE8704018478F
:102A400018130020B76DDBB6E486000073B50C4C9C
:102A50000C4A4023041B00930D460B460A49A41060
:102A600061430646094805F058F8011E05DA30466C
:102A70002B4602B0BDE87040184702B070BD00BFE1
:102A800018130020837B0000B76DDBB6E4860000DE
:102A900010B5EFF31184202383F31288BFF36F8FF7
:102AA000074A136823F00201DB07116002D40120FA
:102AB00005F0E1F984F31188BFF36F8F10BD00BFFB
:102AC00068130020002270B5012104461046FFF76C
:102AD0001BFD0F4801F012FC0E4B984215D101F07E
:102AE0001DFC26690C49304604F079FD00280BDBFB
:102AF000012535642469084904F11C0004F06FFDC8
:102B0000002801DBE564002070BD6FF00400FBE7E6
:102B1000152C00000000AD0B408B00001FB50022FB
:102B20000123CDE90223094ACDF800D06B46CDF848
:102B300004D005F01FF8002805DB4FF48042002385
:102B4000684602F09DFE05B05DF804FBA17B000025
:102B500030B4104B0C2202FB003301460020D3E9B5
:102B60000E529863EFF31180202484F31288BFF390
:102B70006F8F1C6C04F0C00444F002041C6480F3EA
:102B80001188BFF36F8F1DB12B46034830BC184727
:102B900030BC704718130020E486000010B4EFF337
:102BA0001182202383F31288BFF36F8F17480168C7
:102BB00041F002040460C80707D482F31188BFF310
:102BC0006F8F012010BC01F0BBBB4FF08041D1F8EA
:102BD0000C04D1F80C14C907EFD5EFF3118083F37F
:102BE0001288BFF36F8F0A490B6C03F0C00343F0E8
:102BF00002030B6480F31188BFF36F8F82F3118897
:102C0000BFF36F8F002010BCFFF7A2BF6813002036
:102C10001813002010B1012804D07047034B1B6C1F
:102C20005B0701D1FFF794BF704700BF1813002066
:102C3000024AC3B21C2003FB002070471813002077
:102C40002DE9F0413849BFF35B8F0746012251E877
:102C5000003F41E800200028F9D1BFF35B8F33B972
:102C6000324933484B60CB608A6004F0CBFC7B1E5A
:102C7000012B2BD8012F07D14FF08043D3F81C3400
:102C800003F00303012B21D005F03FFB0546F8B903
:102C9000284B1B78E3B14FF080430222C3F808238E
:102CA0000646DFF894804FF08044D4F81824D4F816
:102CB0001834D20315D503F00303012B01D0012FE3
:102CC0000FD155B386F31188BFF36F8FBDE8F08144
:102CD000EFF31186202383F31288BFF36F8F012552
:102CE000DFE7ADB1304604F0BAFED4F81835002B5A
:102CF000DBD1D4F80421002AD7D0C4F80431D4F8A9
:102D000004310123C4F81835C8F88031A360CCE73A
:102D10000021212005F095FBE7E74FF080430222D8
:102D2000C3F80423D2E700BF1413002004130020CB
:102D3000341300207816002000E100E008B50748B1
:102D400005F02EFA38B10648FFF71EFE0448FDF7DD
:102D5000FFFF002008BD6FF01200FBE72087000096
:102D6000652D00000A2838B5074D044604D1AB682C
:102D70000D215B6828469847AB6803485B68E1B261
:102D80009847204638BD00BF20870000F0B5406856
:102D9000057B01F01F0444EA4514056987B0002D46
:102DA00064D0B2F5001F00F1100506D12146284677
:102DB00005F0E1F8002007B0F0BD01AE0027B2F544
:102DC000800F0197776039D1B3F1007F14BF0523DD
:102DD00004238DF804300023CDE904630393836852
:102DE00023FA01F111F001011AD1B2F1A07F17D13C
:102DF00004F01F03620903F5E0732AD0012A3BD1D6
:102E00001F4A52F82330DB070AD40DF1030632467D
:102E10002146284601F072FD1A4B98421CD00296BA
:102E200003AA2146284601F02BFC174B984220D1DB
:102E300001222146284601F0C5FDBBE7B3F1C06F72
:102E400005D0B3F1007F14BF01230223C1E70323A0
:102E5000BFE74FF0A042D4E73146284601F0ACFD71
:102E6000094B9842DBD06FF00B00A4E76FF08500B0
:102E7000A1E76FF015009EE751F82330FFDE00BF99
:102E8000000300500400AD0B0000AD0B38B54568E1
:102E90002B69B3B11035284601F07EFD044680B998
:102EA0000146284601F044FD084B98420BD10849E1
:102EB0002246284601F01CFD224605210620FFF788
:102EC00023FB002038BD6FF00400FBE70000AD0BD2
:102ED000D52E0000420970B5034602D0012A17D052
:102EE00070BD0D4E326951680029F9D003F01F03FF
:102EF00001250C689D400029F2D08A682A4002D042
:102F00004B68304698472CB1236821461C46F2E7AF
:102F1000024EE7E72346F8E70C870000F88600003A
:102F20002DE9F043466840F20635D006337B87B082
:102F300002EA050554BFC2F34010032001F01F0749
:102F4000B5F5837F144647EA43178DF8030045D053
:102F50000FD8062D18D007D8B5B1022D40D06FF08C
:102F6000150007B0BDE8F083B5F5807FF7D10125E6
:102F70000AE040F20222954234D0B5F5407F33D0CA
:102F8000B5F5007FEBD102250123220303FA01F1FD
:102F90002CD57368C3F80815326982BB07F01F038C
:102FA0007F0929D0012F77D13E4A02EB830284F4B6
:102FB0008033D2F80017C3F30043C4F3404444EA1B
:102FC000430421F4E16144EA800421F0070144EA6A
:102FD00005230B43C2F800370020C2E70725D3E7DB
:102FE0000425D1E70525CFE70325CDE7630344BFDB
:102FF0007368C3F80C15CFE74FF0A042D5E7103641
:103000000DF102023946304601F078FC14F4403FDD
:1030100080460CD13946304604F0ABFF224B984530
:10302000DAD19DF80210304601F0C0FCD4E701ABC4
:103030004FF0000903AA39463046CDE90439CDE9FD
:103040000199CDF80C9001F01BFB174B984286D1EB
:1030500014F4003315D09DF803308DF80E3084F44D
:103060008034C4F300444B4603AA394630468DF8F9
:103070000C508DF80D4001F0BDFB0B4B9842CDD0AC
:103080006DE7CDE9043303AA0DF103033946304659
:10309000039301F0F5FAF0E703F5E07352F82330FB
:1030A000FFDE00BF000300500000AD0B02780B698B
:1030B000012A08D0022A08D04AB9064A5A6203F106
:1030C000140002F0A9BB044AF8E7044AF6E7044AF0
:1030D000F4E700BF0000AD0B0100AE0B0200AE0B29
:1030E0000100AD0B2DE9F04FD0F81090D0F804801E
:1030F00085B005460C461746029309F1040A4FF0C5
:10310000FF324FF0FF33504602F0BAFB09F1140BC7
:1031100000230022584602F0B3FB404601F008FFAE
:103120007B1E00260393B74201D8002322E0039BB5
:10313000217AB34283BF237D83F00403C3F380036A
:1031400000230193029B0093D4E90023284600F05A
:103150008FF8034670B94FF480420023584602F0BE
:103160008FFB98B1404601F0F3FE284600F06EF860
:103170006FF004034046029301F0EAFE504602F06D
:103180004BFB029B184605B0BDE8F08FD9F8243000
:10319000034A934204F10C04EAD10136C3E700BFAD
:1031A0000000AD0B98B5044640682346826900AF25
:1031B00000F1080101F078FE0E4B984217D0236809
:1031C0006C4688B06A460C49C2E905134FF4007397
:1031D00093830A4B42F8103F094800234FF4E25111
:1031E000FEF788F96FF00F00A546BD4698BD002098
:1031F000FBE700BF0000AD0B8D9500000300000150
:10320000B889000008B5CA07436800690AD4C1F349
:103210004202012A09D0022A0FD00A4A0A48012193
:1032200004F024FB6FF0150006E01B684FF0CC7231
:10323000C3F824250160002008BD1B684FF0CD6253
:10324000F6E700BFAD950000B889000008B54368F7
:103250001B68D3F80805D3F80C1501F023FF034BC6
:10326000984214BF6FF00F00002008BD0000AD0BA6
:103270002DE9F04186B00C4647689DF8348015462C
:10328000002112220DF106001E4605F069F9BDF875
:1032900030208DF8052004F0010314F008028DF8A9
:1032A00004300296049509D0124A1348012104F013
:1032B000DDFA6FF0850006B0BDE8F081A10705D406
:1032C000B8F1000F11D1002BF3D1202201A938460B
:1032D00001F05AFE094B984209D00B3398420CBFBB
:1032E0006FF00F006FF00400E5E74022EEE70020EA
:1032F000E1E700BFBF950000B88900000000AD0BFA
:10330000036803F01F025B09026004D0012B03482D
:1033100018BF002070474FF0A040704700030050D6
:103320002DE9F04FDFF89491DFF894A185B01546B0
:10333000834600EB810140F2FF18594503D100207C
:1033400005B0BDE8F08FDBF800305E04C3F3C322A4
:10335000C3F3080400F1AC801B0E19F80270444559
:1033600008BF4FF0FF34222B00F2A580DFE803F006
:1033700012191F22252B22A3A3A3A33B68A3A3A357
:10338000A3A3A3A3A3A36B818487A3A3A38A9194DC
:10339000979A9D00C5F80C45601C5ED10BF1040B9B
:1033A000CBE7C5F81445621CF8D000265FE0C5F8ED
:1033B0000845F1E7C5F81045F5E7631CC5F8084571
:1033C000ECD0002604E0661CC5F80C45E6D00126CA
:1033D00003A80394FFF794FF039B012202FA03F36F
:1033E000C0F80C3508E0C5F80845002FDBD1631C98
:1033F000D4D0002632460627DBF80030019303F4D0
:103400000040002818BF002203A8009218BF012620
:103410000394FFF775FF039C019B009A00EB840067
:10342000C3F3412CD0F800473B0243EA8C0313431B
:1034300004EA0A04234343EA4603C0F80037ADE731
:10344000C5F80C45D1E7C5F86045601CDBF80030D5
:10345000A4D0C3F30043002BB9D003A80394FFF713
:103460004FFF039B012606FA03F3C0F808353246E6
:10347000C2E7C5F86445E8E7C5F86845E5E7C5F87B
:103480006C45E2E7C5F82445621C87D0002201267E
:10349000B2E7C5F828457FE7C5F83045F4E7C5F839
:1034A0003445F1E7C5F83845EEE7C5F83C4573E724
:1034B0006FF0150044E76FF0850041E7E5950000E7
:1034C000F0F8FCFF30B50D2903692DD11989184D8D
:1034D0000023536021FA03F0C40706D55068C3F1F6
:1034E000040445FA04F4204450600133042BF1D164
:1034F000002313600125181D21FA00F0C00742BF08
:10350000106805FA03F4001903F1010348BF1060C5
:10351000082BF0D1CB0405D513685B4213605368C8
:103520005B425360002030BD6FF08500FBE700BFB9
:1035300040420F002DE9F04F8BB0436805691868D1
:103540009B8800AF002208290C46397207F1080653
:10355000BA8114BF022101213A7607F10C02C7E9B2
:1035600007213E61072201267E6187F8242097F813
:103570002420816842F0020287F824208E6802220B
:1035800007F11001B0477860002855D1BB893A7B1C
:10359000023C5BBA062C05D8DFE804F053555759B6
:1035A0005B5D5F002B80E84688B06C462646DFF8FE
:1035B000BCB02F4BDFF8BC90C4F814B04FF4007AC5
:1035C000A361A4F81CA046F8109F2B882A492B4819
:1035D0003246FDF78FFFC546A546294BC4F814B007
:1035E000A361A4F81CA0C4F810906B88224923485A
:1035F0003246FDF77FFFC546A546224BC4F814B0FE
:10360000A361A4F81CA0C4F81090AB881A491B4809
:103610003246FDF76FFFC546A5461B4BC4F814B0F4
:10362000A361A4F81CA0C4F81090AB7B1749134801
:103630003246FDF75FFFC54678682C37BD46BDE8CA
:10364000F08F6B80AFE7AB80ADE7EB80ABE72B8112
:10365000A9E76B81A7E7AB81A5E7032A01D8AA7385
:10366000A1E76FF004037B60E6E700BFAA950000C6
:10367000ED95000003000001C01C2000E08900005F
:10368000F6950000FE95000006960000C01C100094
:103690007FB500228DF801208DF802208A1E466831
:1036A00003698DF8001004460D46062A05D8DFE8A8
:1036B00002F040424460606046001B888DF8023092
:1036C0001A0A8DF801202C4A2C48032104F0CEF868
:1036D00001212046FFF72EFF02212046FFF72AFF97
:1036E00003212046FFF726FF08212046FFF722FF8F
:1036F000082D3068B388CDF804D00CBF0222032215
:10370000022602928DF80C609DF80C2081683243ED
:103710008DF80C208D68012201A9A847054690B1BB
:10372000174A03460321154804F0A9F8284604B0B7
:1037300070BD5B88C2E79B88C0E7DB88BEE79B7BE8
:103740008DF80130BFE70F4A0C48032104F08EF8D2
:1037500001212046FFF7EEFE31462046FFF7EAFE44
:1037600003212046FFF7E6FE08212046FFF7E2FE90
:10377000DCE76FF00C05D9E713960000E089000044
:103780001E9600003B9600000D2938B504461846E9
:1037900001D03F2911D1013A102A0ED8DFE802F0FA
:1037A000252E0D0D370D0D0D0D100D0D1A0D0D0DD6
:1037B000090003682169002B35D06FF0150038BD72
:1037C00022690168138811B94168002963D043F464
:1037D000807308E022690168138811B941680029E3
:1037E00055D043F0080313803FE004F07AFAB0F5B7
:1037F000604F2569E1D0A880032125E004F071FA2B
:10380000B0F5604F2569D8D0688002211CE00368BC
:10381000216913B3012B2AD14268204B9A42CCD1A3
:103820004FF400731CE042681C4882420AD01C4BD3
:103830009A420ED01B4B9A420DD04FF224439A422B
:10384000BBD103238B7308212046BDE83840FFF726
:103850001FBF0123F6E70223F4E74368002BACD136
:103860000A8822F4C06213430B800121ECE7032B8A
:1038700005D14368002BA0D14FF48063F0E7062BFD
:103880009BD14368002B98D14FF4C063E8E723F045
:1038900008039BB2A7E723F48073FAE720A107008F
:1038A00090D0030048E80100014B01221A607047E4
:1038B00000C000400C2903690BD15B6A0649074828
:1038C0004B4393FBF0F100FB113311605360002078
:1038D00070476FF08500704790D0030040420F00A2
:1038E000044B00690022C3F80021D3F8003101F035
:1038F00093BF00BF00C000407FB50569AB6A63B3EA
:103900003F2901D00C292BD105F110064FF0FF32D1
:103910004FF0FF33304601F0B7FE134B0193A86A16
:103920000323002469460394029303F06BFE4FF0D7
:10393000FF324FF0FF33284601F0A2FFA86A03F0E0
:10394000B8FE0A4BD3F808256A6201225A60304655
:1039500001F012FF204604B070BD6FF00A00FAE7D4
:103960006FF08500F7E700BFA938000000C00040F5
:1039700010B504690020FFF75BF9A0624FF0FF3239
:103980000021204604F0B5FC04F1100004F0AAFC6C
:10399000002201210C20FEF7B7FD0C20FEF798FD58
:1039A000024B0122C3F80423002010BD00C00040D8
:1039B0002DE9F041044647680D4604F0A6FC4FF09F
:1039C000200888B9264B1B7873B16426606804F020
:1039D000F7F9F0B9012004F040FA013EF6D10021D8
:1039E000212004F02EFDF0E7EFF31186314688F335
:1039F0001288BFF36F8F606804F0E2F9A8B986F30C
:103A00001188BFF36F8FEFE786F31188BFF36F8FD5
:103A1000E5E7EFF31186314688F31288BFF36F8F25
:103A2000606804F0CDF90028EED0BB691D706368B2
:103A3000BA691B680020C3F844250122C3F8482551
:103A4000C3F82001D3F82041C3F85801D3F8580136
:103A50009A6081F31188BFF36F8FBDE8F08100BFDA
:103A600078160020F7B50546002201210220FEF756
:103A70004BFD0220FEF72CFD6A6811681369C1F83E
:103A80002435137D507D927D03431343C1F86C357B
:103A90006E68D6E9004313F0010350D02F6907F197
:103AA000080004F0E6F9334B984208D03248334A14
:103AB000012103F0DBFE6FF0040003B0F0BD387AA3
:103AC00004F10C0204F5907104F0C9F9387A012769
:103AD00007FA00F000F0AAFB0823C4F80035B36928
:103AE000C4F844350023C4F84835A760D4F85831E9
:103AF000002BFBD00021C4F800156B68DC6801AA1C
:103B0000204604F0DBF8002805DB019B22681979C8
:103B10001868FFF705FC6A6813680821C3F80015E8
:103B2000117A51B9D269C3F834250122C3F8382576
:103B3000C3F81011D3F810111A600020BDE7082255
:103B4000C4F80025B269C4F84425C4F848350123F7
:103B5000A360D4F82031002BFBD00023C4F820311F
:103B6000D4F820310123E3604FF48073C4F80433A8
:103B7000BCE700BF0000AD0B088A00007096000093
:103B800070B5012383400E4ABFF35B8FDC4352E8DC
:103B9000001F01EA040542E80056002EF7D1BFF3EA
:103BA0005B8F4FF4803282400648C0F80823BFF391
:103BB0005F8FBFF36F8F0B4214BF0120002070BDD9
:103BC000C01300200010014070B40E49D1E9003448
:103BD000D01AC31844F1000422F07F46C1E9003432
:103BE000A6F50013B3F5400F09D2074B1B681A0A5C
:103BF0001B069C19054B42F10005C3E9004570BC4A
:103C000002F01CBBC00B0020C4130020C80B002016
:103C100011B3BFF35B8F0123104A834052E800CFFA
:103C20004CEA030C42E800C10029F7D1BFF35B8FD7
:103C30000B4A4FF480338340C2F80433094BBFF37F
:103C40005B8F1B68BFF35B8FC340DB0742BF064B34
:103C50004FF40032C3F80021704700BFC0130020AA
:103C600000100140BC13002000E100E00D4B18687B
:103C7000010A0006BFF35F8F0B4BD3F80435181809
:103C800041F10001B3F5801F0AD2084BD3E90023AC
:103C9000904271EB030303D210F1807041F10001F7
:103CA000704700BFC413002000100140C80B002063
:103CB0002DE9F04F85B016461F469DF840A00446FA
:103CC000FFF75EFF0190FFF7D1FFB04271EB0703F2
:103CD00054D23E4B301A67EB0101984271F100015A
:103CE0004FD23B4B03EB0413D3E902239F4208BF9F
:103CF00096425ED037494FF4803804F1500508FAF7
:103D000004F8AD00C1F848832046ADB204F089F84C
:103D100026F07F4B05F1804504F5A87305F588353D
:103D2000DC464FF003090293029A2CF07F4341F8DE
:103D30002230C1F84483D1F80435274A6FF00200DD
:103D4000C01A604420F07F40904232D9286868B1A0
:103D5000D1F804350393A3EB0B0020F07F40B0F5BE
:103D6000000F26D9204604F05CF8039BBAF1000F3F
:103D700007D109EB030C09F10109D5E7BAF1000FEE
:103D800009D06FF0150520460199FFF741FF28463D
:103D900005B0BDE8F08F0123104ABFF35B8FA3404D
:103DA00052E8000F184342E800010029F8D1BFF3A0
:103DB0005B8F07490E98230101EB0412C8500F9B3B
:103DC0005360C2E902670025DDE700BF0100800003
:103DD000B00B002000100140FDFF7F00BC1300204D
:103DE0007FB51C4C1C4BC4F80833C4F848331B4B3C
:103DF00000254FF0FF304FF0FF31C4F80855C3E9FC
:103E000002014FF48033C4F80433154B02264FF4FB
:103E100000320121C4F804631120C3F880212A462E
:103E2000FEF772FB1120FEF753FB0E4A0123A3603D
:103E3000236013600C4B0D4A0093CDE9015500231C
:103E40002846FFF735FF3046FEF7FAFE284604B055
:103E500070BD00BF0010014003000F00B00B002038
:103E600000E100E0C0130020C93B0000FFFF7F001D
:103E70002DE9F7432F4CD4F8043399070BD5D4F828
:103E8000043143B12C4A0023C4F80431D4F804317E
:103E9000136801331360D4F80433DA0329D5BFF370
:103EA0005B8F264B53E8002F22F0010143E80010FE
:103EB0000028F7D1BFF35B8FD30702D4D4F8403189
:103EC000BBB10025C4F84051D4F84031FFF7CEFE15
:103ED000EFF31182202383F31288BFF36F8F184B07
:103EE000D3E90267B042B94106D282F31188BFF329
:103EF0006F8F03B0BDE8F0834FF0FF384FF0FF390C
:103F0000C3E90289D3E900101D604FF48033C4F87F
:103F10004833C4F84051D4F8403182F31188BFF3DC
:103F20006F8F0029E5D0009032463B4628468847EF
:103F3000DFE700BF00100140C4130020BC130020C5
:103F4000B00B002030B5431C124C85B005D0844224
:103F5000A8BF0446012CB8BF0124FFF787FE0E4B13
:103F60000C4DD3E90013401AB0F5000F10D22218FF
:103F7000AA4228BF2A4652184FF000000749009174
:103F8000CDE9010043F10003FFF792FE05B030BD1B
:103F90002A46F0E7FFFF7F00C00B0020C93B00006E
:103FA00008B5FFF763FE024B1B68C01A08BD00BFCF
:103FB000C00B00204FF08053D3F83021082A06D1DF
:103FC000D3F83431052B02D8024AD05C7047002068
:103FD000704700BFB3960000024AD2F80034002BAD
:103FE000FBD0704700E0014010B54FF08053D3F88C
:103FF0003021082A4ED14FF080420021C2F80C1126
:10400000C2F81011C2F8381502F54042D3F8041472
:10401000C2F82015D3F80814C2F82415D3F80C14EC
:10402000C2F82815D3F81014C2F82C15D3F81414BC
:10403000C2F83015D3F81814C2F83415D3F81C148C
:10404000C2F84015D3F82014C2F84415D3F824144C
:10405000C2F84815D3F82814C2F84C15D3F82C141C
:10406000C2F85015D3F83014C2F85415D3F83414EC
:10407000C2F86015D3F83814C2F86415D3F83C14AC
:10408000C2F86815D3F84014C2F86C15D3F844345C
:10409000C2F87035FFF78EFF18B13A4B3A4AC3F8B1
:1040A0008C26FFF787FF18B1384BFB22C3F8182581
:1040B000FFF780FF70B14FF080414FF08053D1F88F
:1040C000E42ED3F8583222F00F0203F00F0313430B
:1040D000C1F8E43EFFF76EFF20B12D4B4FF40072A4
:1040E000C3F840264FF08053D3F83031082B1AD153
:1040F0004FF08043D3F80024D20744BF6FF0010291
:10410000C3F800244FF08053D3F83431052B02D884
:10411000204AD35C3BB14FF01023D3F808224FF074
:104120008043C3F858254FF01023D3F80022002A0B
:1041300003DBD3F80432002B22DA174901234FF0B6
:104140001020C1F804351224FFF746FFC0F80042E2
:10415000FFF742FFC0F80442FFF73EFF0023C1F81B
:104160000435FFF739FFBFF34F8F0C490C4BCA687A
:1041700002F4E0621343CB60BFF34F8F00BFFDE753
:1041800010BD00BF005000404881030000F0004017
:1041900000900240AD96000000E0014000ED00E01C
:1041A0000400FA0530B50468CCB1BFF35B8FB4FAF4
:1041B00084F3C3F11F03DBB201229A4024EA020216
:1041C00050E8005FA54204D140E8002CBCF1000F8C
:1041D000F6D1BFF35B8FE6D102480B7030BD0248C9
:1041E000FCE700BF0000AD0B0200AD0B10B503688B
:1041F000CB40DB0714D401238B400268BFF35B8FF5
:1042000043EA020150E8004F944204D140E8001C08
:10421000BCF1000FF6D1BFF35B8FEED1014810BDAA
:104220000148FCE70000AD0B0400AD0B014BC3F8E7
:104230000405704700F00140F7B50546F8B10128C4
:104240001BD104224FF4807301464FF08040034499
:104250000244C0F808130026012111601E608D423F
:104260001B688DF8071008BF0DF1070642F21074A5
:104270004FF0804745B1012D28D003B0F0BD0C228E
:104280004FF482730221E0E7D7F8183403F4803347
:104290003EB9002BF1D0012003F0DFFD013CF3D14A
:1042A000EBE7D7F8182402F003023260002BE4D0C9
:1042B0009DF80700012803D103F0CFFD013CD9D1BF
:1042C000012DDAD10C4B00225A71D6E7D7F80C3405
:1042D00003F480333EB9002BF4D0012003F0BDFD80
:1042E000013CF3D1EEE7D7F80C2402F00102327062
:1042F000002BDDD1E6E700BFC8130020044B1A797C
:1043000022B9012218609A8002487047024870471B
:10431000C81300200000AD0B0C00AD0B08B5074B17
:104320001B682BB10020FEF7E1F808B9FEF7D0F8C2
:104330004FF080430022C3F8182508BDC8130020A1
:1043400010B510B1012843D010BD4FF08043D3F811
:104350001814D3F81824C80321D502F00303012B45
:1043600004D013B10020FFF767FF00234FF0804215
:104370000220C2F8183508224FF4827303F18043FB
:104380000021196002F180421C6801241460154A62
:1043900012680AB34FF08043C3F80403D4E7D3F89C
:1043A0001424D107E1D5D3F81C249207DAD40D4A9E
:1043B00012681AB10222C3F80423C5E7D3F8042116
:1043C000002AFBD00022C3F80421D3F80431BBE754
:1043D00000224FF48073D1E71A68002AFCD01960DC
:1043E0001B68B1E7C813002010B54FF08043D3F825
:1043F00000216AB10022C3F80021D3F80021012274
:10440000C3F80823114B587910B95A711B689847A3
:104410004FF08043D3F8042172B10022C3F8042185
:10442000D3F80421D3F81824D3F81824920704D120
:104430000122C3F818259A6010BD0222C3F8082390
:10444000024BBDE810401B6801201847C81300202C
:10445000036803F01F025B09026004D0012B0348CC
:1044600018BF002070474FF0A04070470003005075
:10447000034A430900F01F00D35C1844C0B27047E0
:10448000B996000070B50546FFF7F2FF0C4C0830F6
:104490000E4634F81030DA0508D5C3F3432304EB95
:1044A000C302284654F8333052689847A3682BB1AA
:1044B000E26831462846BDE87040184770BD00BF2D
:1044C0005005002008B5FFF7D3FF034B083033F841
:1044D0001000400B08BD00BF5005002008B5FFF7D5
:1044E000C7FF034B083033F81000C0F3400008BD8D
:1044F0005005002008B5FFF7BBFF034B083033F829
:104500001000C0F3401008BD50050020034611F014
:10451000010010B5CCB20DD1A207C4F3400012D5F2
:10452000094AD2F820055860C2F82005003818BFA3
:10453000012008E04FF0A041D1F820251A60C1F811
:104540002025002AE8D010BD0003005010B5FFF769
:104550008FFF124A083032F81030D9051CD5C3F34A
:10456000432123F4F85322F8103002F10E04002006
:1045700034F8023F13F4807F03D0C3F343239942FE
:104580000AD001303028F3D1002342F831300448FA
:10459000BDE81040FFF72ABE10BD00BF5005002047
:1045A000C8050020F0B50546002004460126074650
:1045B0008C420BD1114BD3F87C2132B10022C3F8CD
:1045C0007C21D3F87C3140F00040F0BDE3B29B0089
:1045D00003F580729B0806FA03F31D420BD002F12B
:1045E000804202F5C042D2F800C0BCF1000F02D0F8
:1045F0001760126818430134DAE700BF006000401A
:10460000F7B506460846FFF733FF194F00F10805D6
:104610000C4637F81530DB0727D5304603F085FC0C
:104620002046FFF767FF40B12046FFF74BFF316898
:1046300000F5A270002341F820302046FFF786FFE6
:10464000002301A827F815300194FFF701FF019B13
:1046500000EB8300074BD0F80027134043F0020320
:10466000C0F80037044803B0F0BD0448FBE700BFC2
:1046700050050020F0F8FCFF0000AD0B0400AD0B6E
:104680002DE9FF41164680460846FFF7F1FE0D462C
:104690003168044609B32846FFF720FF18B12846C1
:1046A000FFF728FF10BB0023CDE900338DF80E3053
:1046B0008DF80F300DF10F020B4628460DF10E015B
:1046C00003F0DBFB474A04F1080132F8113023F014
:1046D000020343F0010322F81130736863B32846E4
:1046E0001F785968FFF7FAFE10B1D1B13E4826E0B5
:1046F0003C4A04F1080032F8103023F02003DB04B8
:10470000DB0C22F8103061B1032FEFD871684968D3
:1047100091F800C0D8F80010A7B90CF5A27C41F8B8
:104720002C70304A04F1080132F8113023F01C03D8
:1047300043EA870322F81130B3684BBB2B4804B01F
:10474000BDE8F08101EB8C0143EA4C33D1F810E570
:104750002EF0030EC1F810E5D8F8001001EB8C0E16
:1047600043F02003DEF8101522F8103021F44F3109
:1047700021F44071CEF810152902DEF8108501F4FD
:104780007C5141EA074141EA0801CEF81015C8E71B
:10479000D3E900672846FFF7D9FE002ECED0114D91
:1047A000D5E90023964203D19F4201D1002209E0BE
:1047B0000F480DF10F01FFF7F5FC0C4B9842BED1ED
:1047C0009DF80F2045F8326005EBC20308345F60A6
:1047D00035F8143043EA422343F4807325F814304B
:1047E000ACE700BF500500200400AD0B0000AD0B8E
:1047F000C80500202DE9F0430C4685B080462046D0
:1048000011461E46FFF734FE054629B32046FFF742
:1048100065FE18B92046FFF76DFE18BB314F05F154
:10482000080937F8193013F01C0F02D04B78012B10
:1048300018D001238DF80F300023CDE900134A1C56
:104840008B1C20460DF10F0103F017FB37F81930D0
:1048500043F0030327F81930002E41D02046FFF71C
:104860003DFE18B9204805B0BDE8F08396F800C0B9
:10487000D8F800301B4F0CF5A272002143F822102B
:1048800005F1080237F8121021F02001C904C90C03
:1048900027F8121075781DB3D8F80000B67800EB31
:1048A0008C002D04D0F8103523F4991323F4F85319
:1048B000C0F81035230203F47C5305F44035360567
:1048C000D0F810E52B4306F4801641EA4C3133430F
:1048D00041F0200143EA0E0327F81210C0F810350A
:1048E0000248C0E7500500200400AD0B0000AD0BEE
:1048F000014BC3E9021270475005002010B508466D
:104900001446FFF7F7FD50B10846FFF7B1FD054B20
:10491000083033F8103004485B0B237010BD034897
:10492000FCE700BF500500200000AD0B0400AD0BFC
:1049300070B5164D95F8804006462CBB2146602286
:1049400005F1100003F00CFE30682E6F21468E42F8
:104950000ED10023C0F87C31D0F87C3140F3073011
:10496000FDF7B6FD01230A4885F88030AB6770BDBE
:10497000CBB29B0003F580727C2B08BF845001F101
:10498000010108BF8358E2E70248F0E75005002024
:104990000000AD0B0C00AD0B034B93F8800000380A
:1049A00018BF0120704700BF500500200148FFF7E5
:1049B0001DBC00BFC40500200148FFF7F3BB00BFCA
:1049C000C405002073B503681646D3F80423002AF3
:1049D000A8BF4FF000420546A8BFC3F8042308460D
:1049E0000C46FFF787FD00B30846FFF777FD014649
:1049F000D8B92046FFF766FD04B2A40004F5807222
:104A0000034628688150296882582144D1F810252E
:104A100042F00102C1F810252EB12968012202FAE4
:104A200003F3C1F8043302B070BD2046FFF720FD48
:104A30000F4B083033F81030C3F38203042B12D02D
:104A4000052B12D001A80194FFF702FD019AD0F8BE
:104A50001035D34003F00103991C204602B0BDE895
:104A6000704003F053BA0321F7E70221F5E700BFD6
:104A7000500500202DE9F04F694BDFF8A881D3F8ED
:104A80000403D8F87010C0B289B040F00040FFF7BE
:104A900089FD051E2FDAC24600235AF87C1F06A89E
:104AA000CDE90633FFF732FD5F4B01930DF1180995
:104AB0004FF0000B019A12F8013B0192DA0803F063
:104AC00007031AF8022022FA03F3DA071CD409F1CB
:104AD0000409BBF1000F14D0D8F870104FF000405B
:104AE000FFF760FDD8F87C1006A8FFF70FFD00283F
:104AF000DAD125F000450124002D79D109B0BDE8B7
:104B0000F08F4FF0010BD5E7484B5B440293D9F887
:104B100000100029DBD0029B91FAA1F11C78B1FAB8
:104B200081F141EA44142046FFF7A2FC08300594C5
:104B300038F81070C808BB0819F80020039301F07A
:104B40000701012303FA01F122EA010209F800201A
:104B500005A8FFF77DFC059A039B02F5E072C7F3F9
:104B6000820650F822205B073746C2F3014224D563
:104B700020463946D6B2FFF785FC05A80594FFF715
:104B800067FC059B03F5E07350F82330C3F3014342
:104B90009E4207D10021204603F0B8F93146204655
:104BA00003F0B4F905A80594FFF752FC059B012218
:104BB00002FA03F3C0F82035A9E7022A0CD1032139
:104BC000204603F0A3F906F00503012BEAD139468C
:104BD0002046FFF757FCE5E702212046039203F049
:104BE00095F9032EF3D0039A032ADBD1022EEDE7C9
:104BF00095FAA5F3B3FA83F304FA03F29B0003F1E9
:104C0000804303F5C04325EA0205D3F81005D3F825
:104C10001015C0F30520C1F30141FFF733FC6BE72A
:104C20000060004050050020C9960000C9960000B1
:104C300001460148FFF7B6BAD405002030B500F0B0
:104C40001F04400911D0012812D10C4800EB840048
:104C50001B02D0F800570A4C43EA82022C4042EA79
:104C600041012143C0F8001730BD4FF0A040EDE7EF
:104C700004F5E074002353F82430FFDE00030050F5
:104C8000F0F8FCFFCB7B10B433B9D1E900420368E4
:104C9000C3F80845C3F80C2503688A68C3F82425BF
:104CA00003793C225343054AD3582BB1006810BC0A
:104CB00040F30730FDF70CBC10BC7047D013002048
:104CC00013B53B4B01930023C0F80431D0F8042105
:104CD000C0F82431D0F82421C0F81C31D0F81C21B0
:104CE000C0F80831D0F80821C0F800324B6381F8D1
:104CF0002F300123036291F82D209A4218BF836060
:104D00004B6B8A6A934204460ED24A6AD35CC0F85F
:104D10001C350B6803B340F286238B608B682548F3
:104D2000C4F8043302B010BD91F82C3013B1012344
:104D3000C361EEE70B6A13F0400F4FF0010316BF9B
:104D4000C361436181F82D30E3E7204603F015F994
:104D500028B1019B013B0193019B002BF5DC91F8ED
:104D60002F305BB91348019B002BDBDC0023C4F818
:104D7000003505231048C4F80035D3E7D4F8C4340F
:104D8000C4F8C4348BB10D4A0B4813F0010F18BF9F
:104D9000104613F0020F02F1010218BF104613F083
:104DA000040F074B18BF1846DDE70348DBE700BFD9
:104DB000A08601000000AD0B0100AD0B0000AE0BA2
:104DC0000200AE0B13B5334B01930023C0F804313E
:104DD000D0F80421C0F82431D0F82421C0F81C31C7
:104DE000D0F81C21C0F80831D0F808214B6381F8B5
:104DF0002F308B6A012B044617D10B6A5B0614D443
:104E00000223C4F800320123236291F82D20022AE4
:104E100018BF23600B688BB140F286238B608B68D0
:104E20001D48C4F8043302B010BD0123E9E7204651
:104E300003F0A3F828B1019B013B0193019B002BD8
:104E4000F5DC91F82F305BB91348019B002BEADCAD
:104E50000023C4F8003505231048C4F80035E2E704
:104E6000D4F8C434C4F8C4348BB10D4A0B4813F0E1
:104E7000010F18BF104613F0020F02F1010218BF14
:104E8000104613F0040F074B18BF1846DDE7034820
:104E9000DBE700BFA08601000000AD0B0100AD0BF9
:104EA0000000AE0B0200AE0B2DE9F84390F8049021
:104EB0001C4E07463C2000FB09F035180C4695F8BF
:104EC0002E1061BBA96032506B6085F82D1085F8FB
:104ED000311085F83010CCB1637B85F8383094F808
:104EE0000E8085F83980B8F1000F0BD120680623B9
:104EF00003224146FFF7A2FE6068062303224146D3
:104F0000FFF79CFE21463846FFF7BCFE3C2303FB1F
:104F100009660548012386F82E30BDE8F88303486A
:104F2000FBE700BFD01300200000AD0B0C00AD0B61
:104F3000036802790521C3F80015044B3C2101FBED
:104F40000233022283F82E20704700BFD0130020C6
:104F500003680B4A0179C3F80823D3F8002222F032
:104F60000302C3F800220022C3F80025054B3C20B1
:104F700000FB0133012183F82E1083F830207047A5
:104F800086420400D01300202DE9F047314F047908
:104F9000D0F800903C2303FB04730D4693F82D30AA
:104FA000012B944604D10B78012B06D12A4811E03D
:104FB000022B02D10B78012BF8D13C26274BC9F8E4
:104FC000083306FB047696F830302BB1B3682448DA
:104FD000C9F80433BDE8F0878CF00403C3F3800301
:104FE00086F83030C6F820C0A846B8E80F0006F1B1
:104FF0000C0EAEE80F00D8F80030CEF800306B6829
:10500000B362EB6873626B78C9F888352B78C4EBB0
:10501000041A012B07EB8A0A17D09BB9CCF3401C6A
:105020003C2303FB04735146484683F82CC0FFF72A
:1050300047FE3C235C433A193B59002BCAD182F806
:105040003030C7E74FF0010CEAE751464846FFF71A
:10505000B9FEEEE7D01300200500AD0B8642040038
:105060000B00AD0B0149024803F01FB8D01300201C
:105070000030004002494FF0402003F016B800BF56
:105080000C140020036803F01F025B09026004D0C7
:10509000012B034818BF002070474FF0A040704715
:1050A00000030050F7B5064603F056F8084603F033
:1050B00053F801A80196FFF7E5FF019B2E4D00EB89
:1050C00083000C46D0F80037019440F20D612B406C
:1050D0000B43C0F8003701A8FFF7D4FF019B00EB9A
:1050E00083000127D0F800372B400B43C0F800376E
:1050F000042002F0B2FE092501A80194FFF7C2FFC7
:10510000019AD0F81035D340DB0715D401A80196D9
:10511000FFF7B8FF019B07FA03F3C0F80C35042032
:1051200002F09BFE304603F017F8013D042002F028
:1051300094FE15F0FF05DFD101A80194FFF7A2FF4F
:10514000019A01239340C0F80C35042002F085FE3B
:10515000204603F001F8042002F07FFE01A801942C
:10516000FFF790FF019AD0F810350448D34003F0C0
:105170000103C01A03B0F0BDF0F8FCFF0100AD0B55
:1051800008B5124BA8220021184603F0E9F90322C2
:1051900002610F4942610F4A8161C2614FF480622E
:1051A0000262002282624262C26201660A4941666C
:1051B00010218166094902670346C266426711F8F9
:1051C000010D98540132102AF9D108BD10040020B5
:1051D000CB9600001000002000000020E4960000A4
:1051E0002DE9F84FDFF87C80182606FB008E00FBC7
:1051F00006664644DEF82440DEF828C07368A445FD
:1052000007468946154603EB040022D8DEF820B095
:10521000ABEB040A0AF1FF339A4203D803F092F988
:105220002C440FE063449A4219D852462C4403F0B0
:1052300089F9B4EB0B0405D07068224609EB0A012A
:1052400003F080F9182303FB078301205C62BDE8AB
:10525000F88F0CF1FF3CACEB040C9445DED200203F
:10526000F5E700BF10040020034B182202FB0033B7
:105270009A6A586A801A70471004002010B4084ACD
:1052800008490023C85C12F8014D844204D101335F
:10529000102BF7D110BC704710BCFFF771BF00BFD7
:1052A000E49600001004002010B50446FCF73EF818
:1052B0000348044A012102F0D9FA204602F07BFF9C
:1052C000F0890000E59600002DE9F843044600AFA0
:1052D0000D46EFF31188202383F31288BFF36F8FFD
:1052E0000428294A98BF294B9668117C94BF53F82B
:1052F0002030274BE9468AB06A462648C2E9073182
:1053000040F201339384244BC2E9050442F8103F74
:10531000224800234FF43151FCF7ECF8CD4645B15B
:10532000EB69C3F3080323B11D4A1C48012102F0B5
:105330009DFA2EB1304602F0F1FF08B1037803B9AF
:105340001848E9468AB06A46174BD061C2E905366B
:1053500040F201331384154B42F8103F00230F48ED
:105360004FF41151FCF7C6F82946CD462046FFF709
:105370009BFF88F31188BFF36F8F3046FDF74EF81F
:10538000BD46BDE8F88300BF48140020588C0000DB
:10539000F49600000A97000005000001F089000063
:1053A00032970000029700005397000004000001AC
:1053B00038B5094B53F82040013053F82050A5422E
:1053C00000D838BD636823B1204602F0FCFE0834E3
:1053D000F5E723689847FAE76C8C000070B52B4B13
:1053E0002B4C2C4D012286B003201A70FFF7E0FFF2
:1053F000FCF7DAFB02F003FF0420FFF7D9FF264693
:10540000AE4204F1300410D300F04AFC204C224E8E
:10541000AC4226D300F058FCFAF7E4FF1F4A137B96
:1054200023F00103137306B070BD54F80C3C0593D0
:1054300054F8103C049354F8143C039354F8183C6B
:10544000029354F81C3C019354F8203C009354E917
:105450000A2354E90C0100F039FA54F8303C5E6537
:10546000CDE7D4E90A23B3F1FF3F08BFB2F1FF3F14
:1054700005D052EA0301206803D100F0E5FC303486
:10548000C6E73146183000F063FEF8E778160020D2
:1054900004890000048900000F840000500C0020E3
:1054A00008B50348034A0021121A02F0A4FE08BD01
:1054B000F00600207C16002070B5002386B0012283
:1054C000CDE90423134E144D01930F22CDE902328E
:1054D0001249142303FB005506EBC01604464FF493
:1054E000C07000FB04110E4B00954FF4A0723046C3
:1054F00000F0ECF9737B0B4AEE6023F00403737346
:105500004FF4046304FB033313442C746B6006B044
:1055100070BD00BFD00B00204814002000220020E6
:10552000BF820000C0190020BFB50020FFF740FF78
:105530002D4B83F308882D4D2D4E6B692D4F43F471
:1055400000736B610024E02385F82230EC772C7621
:105550006C76AC7685F820406B6A43F4E0236B628E
:1055600085F82340FCF7D6FEFDF752F84FF0FF33E5
:10557000AB62EB62FDF726F9FDF76EF8FBF742FE32
:105580001D4BB36040F201129A81C3E91844DC66F6
:1055900002F005FE0120FFF70BFF0220174DFFF779
:1055A00007FF00F0C5FB164B7561059301231549F4
:1055B0000094CDE903434FF480623B46CDE90144BA
:1055C000284600F083F96A7B064622F0040228464A
:1055D0006A7302F0DFFE2046FFF76EFF3A4631465F
:1055E0002846FCF7F7FF00BF0022002000ED00E096
:1055F00048140020DD530000D00C0020500C002087
:105600000E8E00008023002038B5064C064D002089
:10561000AC4200D338BD204602F0F2FD0028F9DB91
:105620001C34F5E78C0600208C06002073B50C4670
:10563000EFF31181202585F31288BFF36F8FC568C2
:105640005DB125602B68C3608369013383610020ED
:1056500081F31188BFF36F8F11E052EA030603D183
:1056600025606FF00B00F3E7CDE900230246083018
:1056700000F076FA18B9034B9B685B69236002B0AF
:1056800070BD00BF481400202DE9F34104461746C1
:105690001E46EFF31188202383F31288BFF36F8F28
:1056A000C368334A7BB180689168884219D057EA51
:1056B000060318D188F31188BFF36F8F6FF00F00C6
:1056C00002B0BDE8F081916891F90E1021610133BB
:1056D000E3609368A36088F31188BFF36F8F0020A5
:1056E000EEE72169F2E791F90E1090F90E30994238
:1056F000A8BF19466FF07E029142B8BF11468B4297
:105700002DDD02F0E7FD0546CDE900761948224679
:10571000414600F025FA0028E1D0EFF3118620235E
:1057200083F31288BFF36F8FA068D0B1236821691B
:105730009C420AD04BB193F90E309942A8BF19464A
:105740006FF07E039942B8BF194602F0C3FD40B125
:105750000848314600F07EFA6FF00A00B0E70025F5
:10576000D2E7002DF4D186F31188BFF36F8FF3E7F2
:105770004814002079160020F8B583680546002BF0
:105780003FD0234A926893423ED1C368012B03D98C
:10579000013BC3600020F8BDEFF31187202383F3A2
:1057A0001288BFF36F8F0169806802F093FD2C6847
:1057B000AC4207D10023C5E9023387F31188BFF358
:1057C0006F8FE7E7002CF5D0D4E9003213605A6000
:1057D000637B002623F002036373C4E90066A660BE
:1057E00004F1180002F05FFEAC6094F90E302B61FA
:1057F0002046A66702F0CEFD0648394600F02AFA98
:10580000C8E76FF01500C6E74FF0FF30C3E700BFF1
:10581000481400207916002070B5EFF3118620237C
:1058200083F31288BFF36F8F0468A0421AD0CCB103
:10583000D4E9003213605A60637B002523F0020331
:105840006373C4E90055A56004F1180002F02BFE53
:105850002046A56702F09EFD31460848BDE870402D
:1058600000F0F8B9D0E902329A4218BF01338360E0
:1058700086F31188BFF36F8F70BD00BF79160020CB
:1058800013B5EFF31181202484F31288BFF36F8FD7
:10589000846844B1013C846081F31188BFF36F8F49
:1058A000002002B010BD52EA030406D181F3118832
:1058B000BFF36F8F6FF00F00F3E7CDE900230246CF
:1058C000014800F04DF9ECE7791600202DE9F0438E
:1058D000073285B022F007020E461F461099017369
:1058E00000F158037F32C0E916330446002322F04A
:1058F0003F020421836041733F2A0F98A073C4E9DB
:105900000633E37306F14009A2F1400805D883F39A
:105910001188BFF36F8F084602DFB518294620466D
:10592000FCF79CFA07300E9B20F00700A066C4E944
:10593000189802930D9B01932D1A0C9B00932A46F5
:105940003B4631462046FCF713FE00236365044BBB
:105950009B6803B1DB6EE366284605B0BDE8F083C3
:1059600048140020F0B587B000250595109D0495DA
:105970000F9D03950E9D0295DDE912760D9D019513
:105980000C9D00950446FFF7A1FFB6F1FF3F08BF4D
:10599000B7F1FF3F05D056EA070305D1204600F0D6
:1059A00053FA204607B0F0BD03493A46334604F1A6
:1059B000180000F0CDFBF4E70F840000094A93685B
:1059C0006FF00A019967084958674B6843F08053A4
:1059D0004B60002383F31188BFF36F8F9368986F38
:1059E000704700BF4814002000ED00E070B590F94A
:1059F0000D20437B002A39DBD90637D18269002A82
:105A000034D11D4C63F07F032246437352F8183F94
:105A100093422CD1E169C0E900210860E06111E006
:105A20009942F8D01B68002BF5D090F90E5093F9ED
:105A30000E60B542F4D0AE42F2DD5968C0E90031E3
:105A400008605860A569954200D005B9E568A3686B
:105A50005A7BD20604D1DA897F2A01D9AA6942B1D8
:105A6000AB4202D0284600F0D1FA656170BDE16911
:105A7000D9E76361FAE700BF4814002038B590F910
:105A80000D20437B002A014604DA03F07F034373B1
:105A900002F046FC0D4D2A46AB6852F8184F94426E
:105AA00000D004B9EC688B4207D05A7BD20604D1EF
:105AB000DA897F2A01D9A2692AB1A34202D02046FD
:105AC00000F0A4FA23466B6138BD00BF48140020E3
:105AD00070B590F90D20437B002A014604DA03F0EB
