:1000000080540020A9EA0000A5A8010095EA00009C
:1000100095EA000095EA000095EA00000000000063
:1000200000000000000000000000000015EC0000CF
:1000300095EA000000000000B1EB000095EA000026
:10004000C9ED00009FCF0100C9ED0000C9ED00001F
:10005000C9ED0000C9ED0000C9ED0000C9ED0000C8
:1000600055CF0100C9ED0000C9ED000089CF0100A6
:10007000C9ED0000C9ED0000C9ED0000C9ED0000A8
:10008000C9ED0000C9ED0000C9ED0000C9ED000098
:10009000C9ED0000C9ED0000C9ED0000C9ED000088
:1000A000C9ED0000C9ED0000C9ED0000C9ED000078
:1000B000C9ED0000C9ED0000C9ED0000C9ED000068
:1000C000C9ED0000C9ED0000C9ED0000C9ED000058
:1000D000C9ED0000C9ED0000C9ED0000C9ED000048
:1000E000C9ED0000C9ED0000C9ED0000C9ED000038
:1000F000C9ED0000C9ED0000C9ED0000C9ED000028
:10010000064B074A5B7802604FF41C728280C37111
:100110000822002382710372704700BFD80D0020AF
:10012000A5DB0000064B074A9B7802604FF49072F3
:100130008280C3710822FF2382710372704700BF5F
:10014000D80D00201BD70000F8B5C41D002824F0EE
:100150000704054614BF2046002000F029FB071EB7
:1001600002DA6FF00B00F8BD0DB9FC42F9D4284E4D
:10017000B1797079337AF279033103300BF054F9A5
:100180000028EEDB317873783C440334002D1944A9
:1001900024F0030400FB01F114BF2046002000F00E
:1001A00093FC20440DB90028DBDBB2780346B2B1E2
:1001B000F17BF37811441944FF29D2DC0330002D80
:1001C00020F0030414BF204600207289C9B200F059
:1001D000EBFC031EC5DB23440DB9002BC1DB317BD7
:1001E00081B1B27872B10733002D23F0070414BF38
:1001F0002046002003F0A4FE031EB2DB23440DB909
:10020000002BAEDB002D0CBF18460020ABE700BF73
:10021000D80D00201FB572B6184B9D6AE5B9BFF323
:100220004F8F1749174BCA6802F4E0621343CB6043
:10023000BFF34F8F00BFFDE7B2FBF6F2DCB2013334
:10024000002AF9D104F110036B4403F80C2C0A22A4
:1002500034B901A8A847E2E7024600230A26EDE7E1
:10026000631E04AEDCB256FA83F3B0FBF2F602FB77
:100270001600303003F80C0C3046E9E7D80D0020AA
:1002800000ED00E00400FA0507B50C4B1A7A8DF872
:100290000120DA798DF8002068469A795B79ADF80B
:1002A0000420ADF8023002F0E5FA18B1DB2103209A
:1002B000FFF7B0FF03B05DF804FB00BFD80D0020CE
:1002C00038B5054670B309F0FDFE10B94FF0FF30A8
:1002D00038BD07F05BF9B0F5FA7FF7D8144C154834
:1002E000A562002500F0DEF926222946204684F882
:1002F0002C500AF07BFA01236370A3701B236371F7
:1003000040F21B33E380022323721F2363810823FF
:100310002373EFF3108472B600F01CFD2CB962B6A3
:100320002046D5E76FF01500D2E72846D0E700BF9A
:10033000D80D00208902000010B500283CD1214CC6
:1003400094F82C30032B34D059B1002A37D002391D
:10035000052931D8DFE801F003142230252813786D
:1003600063700020FFF7F0FE0028B7BF01230223CF
:1003700084F82C306FF00B00A8BF84F82C3010BD2F
:100380009378E3B1D378D3B113781A2B17D9537874
:100390001A2B14D91368C4F80530E2E71378A37058
:1003A000DFE713886381DCE71388FF2B07D823730B
:1003B000D7E74FF0FF30E2E76FF02C00DFE76FF098
:1003C0001500DCE7D80D0020F8B50D46064630B321
:1003D00029B311F0070422D1124F97F82C30012BCA
:1003E00002D16FF00B00F8BD032B02D14FF0FF30AC
:1003F000F9E700F08FF80028F8D02846FFF7A4FEB0
:100400000028EEDB0DF005FC3046214602F0B8FA7C
:10041000FFF73AFF032387F82C302046E3E76FF01D
:100420001500E0E7D80D002010B5074C94F82C30EB
:10043000032B03D102F0BCFA03F09CF80BF0EAF8AE
:10044000002084F82C0010BDD80D002050B1074BBF
:1004500003F1140253F8041B40F8041B9342F9D132
:10046000002070476FF01500704700BF74EF010067
:1004700010B5074B93F82C403CB902F04BFA012021
:10048000044900F08DF9204610BD4FF0FF30FBE726
:10049000D80D00202501000010B5074B93F82C4023
:1004A0003CB902F04BFA2046044900F079F92046A5
:1004B00010BD4FF0FF30FBE7D80D00200101000018
:1004C00010B5054B93F82C401CB90CF014F82046DD
:1004D00010BD4FF0FF30FBE7D80D002010B5054BE5
:1004E00093F82C401CB90CF009F8204610BD4FF0D1
:1004F000FF30FBE7D80D0020024B02681A60002095
:10050000704700BF080E0020014B1B68184700BF52
:10051000080E0020024B1868003818BF01207047F1
:10052000080E00202DE9F743294E0446071D2848F0
:10053000376003F037F80228054607D124492046E2
:100540000AF0F3FA284603B0BDE8F083042838D156
:100550003378072B18D13E2000F050F878B9F378A3
:10056000327901A943EA02236846ADF800300AF067
:1005700053FD0028DBD053210820FFF74BFE052058
:1005800000F07CF80028EAD0314620460AF032FB21
:10059000B0F5817F01D37221EEE70028C7D094F82F
:1005A000008094F80290404600F028F80028BED061
:1005B000B8F13E0FC6D1484600F060F80028C1D11E
:1005C000B5E70828BED1024920460AF0DDFAB9E7AE
:1005D0000C0E0020074B4FF0FF3141F6FF72C3E9CC
:1005E000001205490022C1E900221F21C3E90212BD
:1005F000704700BFC0040020500E00203F280CD8D8
:1006000001380B4BC0F3421200F01F0053F82230A8
:1006100023FA00F000F001007047FF2806D04038B0
:10062000C0F34212034B00F01F00EFE701207047B8
:10063000C0040020500E00200146074B00684968A6
:100640001A4603C240F48C221A6041F0107242F440
:10065000FF625A60704700BFC00400200246024B90
:100660000068516803C37047500E00200246024BD9
:100670000068516803C37047C8040020FD281ABFF2
:1006800000F1FF30C0B23F20054B420903EB82036B
:1006900000F01F009B6823FA00F000F00100704793
:1006A000C0040020014B1860704700BF580E0020A6
:1006B00010B5FFF78FFF0BF0ADFB034B1B68044633
:1006C00003B19847204610BD580E00200B880288C1
:1006D000F0B5C3F30E049EB204F11403C57CC35AF3
:1006E00002352A442B4497B213FA82F3013B428825
:1006F000B3FBF7F313FB07439BB29A42044A93BF41
:1007000022EA0603324013439BB20B80F0BD00BFC8
:100710000080FFFF4A1E062A08B50346084604D893
:100720004FF4D1711520FFF775FD094A914202D9A6
:1007300040F2A311F6E711B903B1196008BD2BB15E
:100740001B680022C3E901211A1D1A600430F5E775
:10075000FAFFFF7F10B5114B00EB41041A78638953
:10076000B3FBF2F303FB0223013A1A44B2F5706FB4
:10077000027928BF00231A448378B2FBF3F01944AE
:1007800003FB1020091AB1FBF3F003FB1013134411
:100790006FEA43436FEA5343638110BD5C0E002050
:1007A000024B03EB80035960704700BF5C0E0020D2
:1007B0002DE9F04F10F0070A85B0054604D040F24D
:1007C00061111720FFF726FD554F07F10C06B146C2
:1007D0000446B0464FF0010B57F8043B8DF80BA0D0
:1007E0003BB101A898479DF80A30082B01D9E821B0
:1007F000E7E79DF80B1081BB05B13160B94506F103
:100800000406E9D12DB3DFF81CE100238EF8003097
:100810001E46022258F82200013A60B190F804A066
:100820008178BAF1FF0F66D14FF000078E42077151
:100830003CBFCEB20123511CECD10BB18EF800604D
:10084000022640F6FF6A58F82670002F65D1013E57
:10085000F9D2601B05B0BDE8F08F9DF80AC0BCF16D
:10086000020FE64601F1050238BF4FF0020E0EF10D
:10087000FF3004EB42040444CEF100002040BDF8F8
:1008800008406444013CCCF1000C04EA0C04B4F5CB
:10089000803F4FEA420301D3F82192E775B1C31AB2
:1008A000336099701C8083F803B09DF80C201A7196
:1008B000019A1A814FEA124CA3F806C004FB010406
:1008C0009CE758F82C90B9F1000F06D099F804B0C5
:1008D000D34504BF99F802904F440CF1FF3CBCF1A2
:1008E000000FEEDA3944FF29A0D90BB18EF8006071
:1008F00040F2271165E794460027F0E707EB410334
:100900003846A3F80AA0FFF725FF09F10109BB78D3
:100910005FFA89F18B42F1D899E74FF00009F6E7C9
:10092000600E00205C0E0020F8B54FF6FF730380C8
:10093000184B03EB810305461869B8B18678037933
:10094000B3FBF6F206FB1233DBB219460A1D00EBCD
:100950004202B2F902705488002F09DB0131B1FB69
:10096000F6F206FB1211C9B28B42EFD10020F8BD9E
:10097000FF29FBD0C4F30E03C4782B8024B94FF4B5
:10098000D5711720FFF746FC5380BDE8F8400AF008
:100990002ABD00BF5C0E00201D4B03EB810370B528
:1009A0001C69054644B3030404D54FF4DC711720D9
:1009B000FFF730FC014620460AF0F7FCFF2801460D
:1009C00004D02046BDE870400AF00DBDA078B5FB0C
:1009D000F0F300FB1353DBB219460A1D04EB420689
:1009E000B6F90260002E09DB0131B1FBF0F200FB29
:1009F0001211C9B28B42F0D1002070BDFF29FBD08B
:100A00008B4204EB42021CBF0023E3705580D8E701
:100A10005C0E0020094B03EB810310B51C690146F5
:100A200020460AF0C2FCFF28014604D02046BDE85B
:100A300010400AF0D8BC002010BD00BF5C0E0020A2
:100A4000F8B5104B03EB810307461C6901462046AD
:100A50000AF0ABFCFF28054611D0E688238953EA4B
:100A6000064606D0014620460AF0BDFC014638463F
:100A7000B04720462946FFF76DFE0020F8BD05204F
:100A8000FCE700BF5C0E002038B50E4B827903EB0B
:100A900082030446186908B9052038BD8278E179D7
:100AA0009142F9D24B1CE37100EB41035D89B3F92C
:100AB0000A30002BF3DBA5800AF095FC20600020B3
:100AC000EBE700BF5C0E002070B5044610F0030099
:100AD0000E4603D04F211820FFF79CFBFFF71AFEAC
:100AE000054624B1034831460460FFF713FE28464B
:100AF00070BD00BF780E00202DE9F14FDFF870B017
:100B00009DF828A09DF82C901E46DBF80030074683
:100B10000D4690461BB961211820FFF77BFB52461A
:100B2000092140460AF0D1FA4A4684B209213046EA
:100B30000AF0CBFA14FA80F1DBF800000AF00AFCA4
:100B4000386018B9286001B0BDE8F08F04442C600B
:100B500038685346414609220AF070FA28684B4625
:100B60000922314601B0BDE8F04F0AF067BA00BF74
:100B7000780E002070B50E4604460AF0B9FA054614
:100B800030460AF0B5FA044B2A1821461868BDE829
:100B900070400AF003BC00BF780E0020014B1868BB
:100BA0000AF0CCBB780E00201F2AF8B50446134685
:100BB0000ED89200033222F00303B3F5803F2DD20A
:100BC000184DACB1A00710D05F210920FFF722FB20
:100BD000FF2B4FEA420204D9FF339A42A8BF1A46BC
:100BE000E8E77C2AB8BF7C22E4E729706C602B819F
:100BF00022F0030201EB81031204D80001276B6885
:100C0000120C0025EEB28E4200D3F8BD14B12618A6
:100C10001F705E60104401352833F3E74FF0FF305A
:100C2000F3E700BF7C0E002038B5144A14785368EF
:100C30000021C8B2844203D8AB210920FFF7EAFAA9
:100C40001846013105782833002DF2D0002181703B
:100C500001241289447044688161C161920800F1E5
:100C60002001051D21F8022B994245F8044B14443C
:100C7000F8D100234361037038BD00BF7C0E002013
:100C80002DE9F8434B7880460C4602F0040602F04A
:100C9000FB07D3B1DFB12E4BD4F804901D89B7BB4D
:100CA00001236370AD08A761E76104F120034A46A0
:100CB000211D04F1280023F8025B984241F8042B1F
:100CC0002A44F8D10023636101E0002FE3D0FF2321
:100CD000A370002E18BF0226A3191B7D032B03D17E
:100CE000022F1CBF0136F6B2A31901221A7506F1B4
:100CF0000C0204EB8606002324F812307268A370FD
:100D0000C8F80020A8F804304046BDE8F883002168
:100D100014226170A01809F069FDB5F5FF7F0FD2AC
:100D20006B08ED1AADB209EB0502C4F804902584F6
:100D3000A2606384C4F80C90A5842261E384C6E7B2
:100D4000B5F5EE6F4FF0FF03EBD940F27265EAE7BD
:100D50007C0E0020134B012200214FF0FF309A60DF
:100D6000C3F80012C3F80803C3F80015C3F804253C
:100D70009A60C3F80803C3F80015C3F804250A49AC
:100D80000A4A03F580334FF40040C3F80825C1F840
:100D90008000BFF34F8FBFF36F8FC1F88001C3F89E
:100DA0000825704700F0004000E100E00000F63F39
:100DB0000A46192302F8033B0448C368C1F803300C
:100DC0000369536043699360704700BF880E002039
:100DD000024B5A8C02435A845B6A1847880E0020E3
:100DE000014B00215B6A1847880E002010B5154C96
:100DF00005F060FC04F0FCFF208DFFF7F1FF237E7F
:100E000063B12246104952F80C3BE36063685360BB
:100E100004F11900A36893600CF0DFF80B4B228DEE
:100E200093E8030003F016F9236B188803F03CF8ED
:100E3000A36B94F8341094F835009847002384F895
:100E40003C3010BD880E0020B10D0000B40E002013
:100E5000034B93F83C300BB1FFF7C8BF704700BF9E
:100E6000880E002070B51E4C256B636C236495F8CA
:100E70008C30064694F848000BB10430C0B295F8A7
:100E800069102EB9FF2803D195F868308B4201D044
:100E900005F0ACFA95F88C30E3B1E06C05F0AAFCF3
:100EA000012384F86830D5F8E8302366E16CD5F882
:100EB000EC30206C636604F051FF16B9304605F043
:100EC000D9FC95F86810002005F01EFD022384F877
:100ED0003C3070BD206C05F08DFC04F089FFECE720
:100EE000880E002008B5094B93F83C20022A04D054
:100EF00040F23E212720FFF78DF9DA7A42F0010215
:100F0000DA72BDE80840FFF771BF00BF880E00200D
:100F100010B50E4C626F137803F00303032B04D15A
:100F2000D378022B01D1002010BDA06F0AF069F91F
:100F30000028F9D1636F1B7803F00303032BF2D071
:100F400001F02CFE80F00100C0B2EDE7880E002019
:100F50002DE9F743434C94F83C30256B012B0646B2
:100F60000F465FFA83F804D040F291412720FFF743
:100F700051F995F87C303BB1002185F87C100420B4
:100F8000FFF726FF85F87E80616F0B7803F003037F
:100F9000032B05D195F8823013B90220FFF718FF13
:100FA000626F137803F00303032B02D0537823BB43
:100FB000012385F8823095F88C30C3B1236BD5F8C6
:100FC000E82093F8690022664FF00108D5F8EC207C
:100FD000626684F868800AF01FFB94F84890224902
:100FE00000220346009240464A4604F071FE36B1A4
:100FF00003B0BDE8F043FFF7F9BE0223D9E7002FA5
:10100000F6D0E36F304698470028F1D094F834309A
:10101000002BEDD194F88030DD06C3F3001001D52C
:10102000FFF776FF636CD4F884201B78C3F30013BA
:101030002AB9B4F8882013B1B2FA82F35B09628C42
:10104000910709D5636FDB78022BD1D1002003B063
:10105000BDE8F043FFF706BF002AC9D10343F5D12D
:10106000C6E700BF880E0020D80E002010B5064B42
:1010700093F83C2002F0FF0422B91C7602F0E2FF54
:10108000204610BD0C24FBE7880E00200A4B0B4ABB
:1010900070B506460D461A60FFF7E8FF18B1DE216D
:1010A0002720FFF7B7F8064C012104F18A000BF066
:1010B0008EFE6664E56470BD0805002078180000A7
:1010C000880E0020024B012283F8AC20704700BF3D
:1010D000880E0020F0B57D4C85B002AE86E8030096
:1010E00094F83C100A9F01F0FF0511B90AB103B151
:1010F00027B94FF4B6712720FFF78CF896E8030064
:1011000004F12C0C8CE8030084F8AC5084F83450C3
:1011100084F8AD5084F8355084F8AE5084F8AF5060
:1011200065842585256BE3676262A76305F09CF9FA
:1011300004F05EFE95F96C0005F024FA686A05F08B
:101140004BFBE86905F024FA95F89C0005F046FA97
:10115000236B93F89F310BB105F074F995F8692072
:101160009D21012005F092FA594B186805F03AFBD1
:101170002B69A367574A6B69C4F8B03005F58071D5
:1011800005F1F00353F8040B42F8040B8B42F9D13C
:10119000D5F80021C4F869205A684F4B5A60236B78
:1011A00093F88620A2F12501012993F868100E46D4
:1011B00003D993F8870025285FD193F846322BB1E5
:1011C000012E03D0012B14BF0226012605F13007A2
:1011D000314638460BF03EFF31460BF055FCAB8FE5
:1011E00095F86910834228BF0346384684F8B43026
:1011F0000BF020FF95F8691095F88C70B5F84460F5
:10120000042908BF03210BF03FFC0FB9043080B262
:10121000B04228BF304695F88C30C6B284F8B5602D
:1012200084F84860A3B1D5F8E83095F869002366E2
:101230000127D5F8EC30636684F868700AF0ECF9A1
:1012400000220346009223493246384604F040FD0E
:101250000120FFF707FE002323606360A360B5F859
:10126000803063802B88238095F89C3023712B6F0E
:101270000BB101221A6005B0F0BD203A012A0CD84A
:10128000232893F826210AD012F0010319D19207DE
:101290009CD5012918BF022698E723280DD193F881
:1012A000262193F86130134013F001020BD19B0704
:1012B0008CD5012908BF0E46ECE7032908BF042698
:1012C00084E71E4682E7164680E700BF880E0020AE
:1012D00008050020D80E0020F10E002008B50C4BA8
:1012E00093F83C201AB9BDE80840FFF77FBD93F89A
:1012F0003C20022A04D04FF408712720FEF78AFF11
:101300001B6BD3F8B801BDE8084005F085BA00BFF3
:10131000880E0020014B1876704700BF880E002011
:10132000014B93F8AE007047880E0020024B188DD9
:10133000C0F3C020704700BF880E0020014B93F817
:10134000AD007047880E00202DE9F3411E4D820745
:101350002C6B06460F4622D5D5F8843023B940F2CF
:1013600082412720FEF756FFB5F88820296C1846E1
:10137000033291F8018009F0A5FA0DF1020201A9EA
:101380002864D5F8B00009F0CFFF019809F0B6FF46
:10139000012238604146D5F8B00009F07CFFF30720
:1013A0000ED5D4E93A32013342F10002C4E93A32AF
:1013B00094F88430012B0CBF0023012384F884307F
:1013C00002B0BDE8F08100BF880E00202DE9F04F8B
:1013D000AB4C002387B0CDE9043394F83C30276B45
:1013E000022B81468A4604D040F205512720FEF7A1
:1013F00011FF238D590606D44020FFF7F1FC238D01
:1014000043F04003238597F88C30B9F1000F00F0CA
:101410002781A3B104F004FD88B9236C5A7872B116
:101420001B7897F88420C3F3C0039A4207D10123A5
:1014300084F83530FFF7DAFC07B0BDE8F08F236C95
:101440005978A4F8881009B3D4F8B00009F0FAFE6E
:10145000C4F88400238D97F8832043F40073238518
:10146000236C1B78C3F380039A4200F0BA80256B8B
:1014700095F88230002B3DD0022B11D1A06F04A92A
:1014800009F081FE28B940F2F931AFE7C4F88410C1
:10149000E0E7D5E93832013342F10002C5E93832DC
:1014A00095F87E30002185F8821023B185F87E10F2
:1014B0001020FFF78DFC95F87D309BB1002685F854
:1014C0007D6001F055FB10B94FF482618EE7314623
:1014D0000820FFF77DFCD5E93832013342F10002E4
:1014E000C5E9383295F88330012B0CBF0023012366
:1014F00085F88330238D43F4006323854FF0000B80
:10150000216C97F884200D78C5F3C0039A4240F00F
:10151000998005F00305032D266B64D0002D6DD155
:1015200096F88430013B18BF012386F88430236C81
:101530005B7833B1D6E93A32013342F10002C6E9B1
:101540003A3297F88B309BB1D7F8E03097F86800C3
:1015500023660026D7F8E430636684F868600AF0F2
:101560005BF8484900960346FB22304604F0B0FB86
:10157000BAF1000F40F08880628C94F8AD30120709
:1015800003D5626FD278022A7ED0012B7CD8E36F1C
:1015900001209847002877D094F83480B8F1000FE4
:1015A00072D1266B94F8483096F88C208DF80D8017
:1015B000002A40F0B480FF2B96F8681003D196F80B
:1015C00069308B4202D0FF2004F010FF96F8823081
:1015D000032B00F23B81DFE813F0A500D6002001C9
:1015E0003101CB468CE7238D012043F4805386F8EC
:1015F0007C0023850025FFF7EBFB91E74D78002D5C
:101600008ED0238D96F88C5043F48053238504F0BC
:10161000A3FE042894F8B53006D1002D14BF1B2278
:101620001F22934228BF1346226C52789A420BD84D
:10163000D4F88450002D84D094F8AC3073B12020BD
:10164000FFF7CEFB00257CE794F83430012043F00F
:10165000100384F8343006F015F9F3E74D465FE7E0
:101660000BB104F019FC94F8AD30013384F8AD30BF
:10167000238D002543F480632385AB4661E700BFDB
:10168000880E0020D80E002005F05EF94FF0010A08
:101690001DB105A90220FFF757FEBBF1000F0DD0C9
:1016A000B4F80720B4F805301343B7F8802013438B
:1016B0001EBFB4F809300133A4F80930B9F1000FA6
:1016C00000F0CC80B4F805300133A4F805300023D5
:1016D00084F8AD30644802F0D5FB049830B109F0CD
:1016E0000DFE216B0022027201F0A0FF059B33B1B9
:1016F000216B00221A720C22059801F065FFBAF1E5
:10170000000F7FF497AE238D1B063FF595AE80202A
:10171000FFF766FB238D43F0800323858CE60433BB
:10172000DBB248E794F8B430ADF80E304F48A6F875
:10173000583001F00DFA50B1616F4FF48070FFF72F
:1017400047FB012386F87D3084F8AF301DE0A06FA1
:101750000DF10D020DF10E0109F0F2FC606790B180
:1017600096F8C7307BB99DF80D302BB90380837094
:10177000606F01210BF02BFBBDF80E10606F0BF0BA
:10178000D5FB0123E0E73A4B636796F88330626F3D
:10179000DB0003F00801137803F0F3030B4396F822
:1017A0008410890001F004010B4323F0100313702F
:1017B000FFF7AEFB0028606F037818BF4FF01008EA
:1017C00048EA030880F8008096F88B30002B40D060
:1017D0004378002B3DD0E06C05F00CF8002384F832
:1017E0006830D6F8E0302366616FD6F8E430E06CFC
:1017F000636604F0B3FA96F86910012005F084F8E6
:10180000626F1188A4F8801091781A4A012384F835
:10181000AE30917084F83C303AE7B6F85830A06F9B
:10182000ADF80E300DF10D020DF10E0109F088FC3E
:1018300060670028A5D140F2DE21D7E50B4801F012
:1018400087F900289DD14FF43A71CFE540F2F62197
:10185000CCE504F0CFFF04F0CBFACCE7B4F80730C6
:101860000133A4F8073035E7B40E0020FC0E002049
:10187000120F0020080F0020E50E0000CD1300001D
:10188000510F0000510E00000B2808B504D94FF489
:1018900073710620FEF7BEFC014B33F8100008BD43
:1018A0000CE201002DE9F04F8BB00446154602937F
:1018B000894690F869B00AF068FE064694F8A001DF
:1018C000FFF7E2FF94F887300393064485F00103A5
:1018D000B6B2059385BB94F8E431032B2CD1039B5E
:1018E0000D2B29D1B4F844324B4525D1D4F8EC3135
:1018F000C4F8D831A369B4F8BC21C4F8DC31B4F819
:1019000032321344C4F8E031204604F00DF9D4E932
:101910009223A262B4F84622A285D4F85022226211
:1019200041F64B529342A3618CBF0023012384F8FC
:101930006E30022384F8E431B4F83072B4F8808059
:10194000A9EB07073FB204F50073A9EB0808002FC5
:1019500004930FFA88F86EDAD4E986234746C4E97F
:101960008A2301230493CC4B1B7803F0FF05002B43
:1019700054D005F0FFFD054600284FD0B4F8D03113
:10198000012B6DD994F8E431022B69D094F8FA5107
:10199000002D65D194F8A001FFF776FF94F8E431AB
:1019A00000F5C866012BB6B2D9B24CD194F88A3092
:1019B000D4F828A0032B40D1D4F8DC51554431464B
:1019C000D4F8DC0105F09AFDD4F8D831C4F8D80178
:1019D000A0EB030AD4F8E0313146284603FB0AFAAB
:1019E00005F08CFDD4F8E851C4F8E801451B3146F8
:1019F000A06905F083FDAA44B4F8BC51D4F8E031E5
:101A00004544ED1BDB432B44D4F8EC51451B05FB4F
:101A100003A50123C4F8EC0184F8FA3194F8E43109
:101A2000DFF874A2032B00F28E81DFE813F01B00B5
:101A300016016B003701029B94E728460BF04CF827
:101A400000EB0A05BBE7A069314605F057FDB4F885
:101A5000BC51D4F8EC314544ED1BC31A5D43D8E7C3
:101A60000025DBE7012100200BF036F88046A06A54
:101A70003146404405F042FD3146C4F8E801A06912
:101A800005F03CFD07A9C4F8EC0108A804F064FFC8
:101A9000079B0093D4E98A01DDE9082308F0F6F9F1
:101AA0008346204609F0DCFDD4F83432A66A94F867
:101AB00069001E4405F096F8D4F8E811A6F19407E1
:101AC0007F1A00F523404FF47A734744A130B0FBEE
:101AD000F3F0A38DA7EB0B0730313F1A03EB410165
:101AE00094F8690009F0A8FDD4F83432FB1A2230CA
:101AF000B3F5917FCAF8040058D240F2CD413020AE
:101B0000FEF788FBA36AD4F8DC013146184405F0DF
:101B1000F5FC3146C4F8E801A06905F0EFFCC4F813
:101B2000EC01204609F09CFDB4F8BC31A66AD4F85B
:101B3000DC71002B40F08D80029B002B00F089802F
:101B400094F8690005F04EF83E44D4F8E871943EEC
:101B5000D4E98623F61BD4F8207280463E4494F8DC
:101B60006900B61A05F03EF84FF47A7300F2E737D1
:101B700008F52340B7FBF3F73744A130B0FBF3F08F
:101B8000D4F8E811D4F8D831D4F8E021303102FB90
:101B90000311A38D3F1A03EB410194F8690009F08A
:101BA0004BFD0123CAF8040084F8E431A6696FF400
:101BB000F4731E44D4F8EC31F61ADAF804309E427D
:101BC00028BF1E46D4E98A327F1BDF1942F100028A
:101BD0004FF00008C4E98472C4F8B86184F8008248
:101BE00004F130000BF024FAB4F8A811A4F83092F4
:101BF000D4E98423A1EB09090FFA89F9C145C4E9A5
:101C00008A23C8BF022384F80882C8BF84F8083238
:101C1000039B06440D2BC4F80462029B00F09680DF
:101C2000002B40F0948094F8E431002B00F0AD805C
:101C3000A169D4F8EC3104F50070C91A0AF0F3FE7A
:101C400080B2002800F0A180149B03B1188001200D
:101C5000ABE0D4F8E801374492E7D4F8EC21A3696B
:101C6000D4F8E001D4F8D8119B1A5F43B4F8BC3122
:101C70009844C3439844D4F8E831303301FB00332F
:101C8000A18D94F8690002FB083301EB430109F0D0
:101C9000D3FCCAF8040089E7400F0020A369D4F8F8
:101CA000EC219B1A5F4394F88630252B03D094F8DF
:101CB0008730252B0AD1B4F84432A9EB03031A0468
:101CC00004D494F84732002B18BF9B46049B63B39F
:101CD000B4F8BC314BBBD4E98623D4E988018242F5
:101CE0008B4102D340F2215109E794F8690004F0D6
:101CF00079FFD4F820220646D4E98601A2F19403A4
:101D00001B1A3B4494F86900049304F06BFF049B96
:101D100000F2E7374FF47A7206F52340B7FBF2F78B
:101D20001F44A130B0FBF2F03F1AB4F8BC11D4F854
:101D3000EC314144594330314900584609F07CFCAC
:101D40001B4B586032E740F23951D8E6EBB1B4F89A
:101D5000D01121B3B4F8D22194F8D431A4F8D2210F
:101D600002FB0333994202F101000EDD94F80832C0
:101D70005BB1002384F80832A4F8D20101F0D8FC4A
:101D800000F00700013084F8D40194F8FB0104F559
:101D9000007107F055F920B940F28251AFE60A46CA
:101DA000DAE7059B84F8F83100200BB0BDE8F08F2E
:101DB000400F00202DE9F04104460D46164690F8EC
:101DC000F03003F0FF071BB10C273846BDE8F08167
:101DD0000146454806F0E8FF20288046F4D0582206
:101DE000394604F1C80008F001FD84F8C880C4F841
:101DF000CC50FF2384F8F03035B101F0B1FC00F095
:101E00000700013085F8D40102234FF00008A4F840
:101E1000003184F8F88005F0C3FB00F19E052046F0
:101E20000BF061FDADB2014670B30AF0AEFB00F5F8
:101E3000CD6189B2304605F061FB3044C4F8FC0046
:101E40000CF000F8281841F10001C4E9420101201A
:101E500084F8D000A4F826800BF003FEE53E361A85
:101E6000C4F8D4604FF0FF326FF00043C4E944235C
:101E700094F8C80004F1F80107F0E2F848BB40F21A
:101E8000C1113020FEF7C6F920460BF050FCDFF8F8
:101E90005C80E530C4F8FC00B8F8080048B1E08C7C
:101EA00038B101F05DFCB8F80830B0FBF3F202FB8A
:101EB000130005440BF0C6FF2D1841F10001C4E9E1
:101EC0004251002ECED0751941F10001C4E94451B0
:101ED000CEE7D4E942230021C4E93823C4E93A23F8
:101EE00020460BF01DFD70E707B90000400F0020F1
:101EF000F0B5002385B0CDE9003301238DF806301D
:101F00006846FEF7C1FD70B11B4E0123B372002776
:101F1000CDE9027702A8FEF7B7FD0546A8B1002378
:101F2000B37205B0F0BD009809F0A6FDE8E790F89F
:101F3000FB0107F069FE94F8FB0184F8E45106F018
:101F400067FF202384F8FB31E2E7029B002BE1D0FE
:101F500093F8FB21202ADDD018884FF6FF739842B2
:101F6000DDD02946FEF756FD04460028DFD140F2B9
:101F70002B113020FEF74EF9400F0020054B0022B8
:101F80000121DA7219709A7242F210721A81FFF707
:101F9000AFBF00BF400F0020014BD872704700BF99
:101FA000400F002008B504F0DDF9044BDA688242E6
:101FB0002ABF987A002080F0010008BD400F002061
:101FC0002DE9F7430446062900F2C480DFE801F05A
:101FD000047A67777E83BD00D0E98623D0E9880143
:101FE00082428B4149D294F8FA31002B45D094F8C3
:101FF000E431032B41D194F869900AF0C6FA064601
:1020000094F8A001FFF740FCD4E98623D4F82072AD
:10201000D4F8B851804606444846BF1A04F0DAFDA9
:102020002D1A484604F0DEFD00F523404FF47A7384
:10203000A130B0FBF3F02B1AA3F17402B6B2520830
:10204000D43B08F5C8689D3273431FFA88F8B3FB88
:10205000F8F360335908A2EB53039F4202D30A44BA
:10206000974201D905F08CFAA069314605F046FA8D
:102070000023C4F8EC0184F8FA31384B9B7A03F062
:10208000FF0263B9B4F8AC11009201232046FFF7B8
:1020900009FC38B140F2CB613020FEF7BBF80423D5
:1020A00084F8E43104F058FB06F022FDB4F88020F7
:1020B000A4F8F6210023A4F8323284F8F93103B0F1
:1020C000BDE8F083032380F8E431F8E70BF00AFE63
:1020D000C4E98801F3E78569D0F8EC31DFF87C804A
:1020E0009D4288BFED1A98F80B3098BF00251BB9A8
:1020F000036B9D4228BF1D4604F13000D4F8B8712F
:102100000AF096FF0744022007F002FCED1B25EAC7
:10211000E575854228BF05460221284607F04CFC9C
:1021200000B92F4440F2D312394620460AF0CAFFC4
:10213000D4F8B831C8F80C00A069184407F0AAFB1D
:102140000028BCD140F27931A6E703B0BDE8F043E6
:1021500009F086BA40F27D719EE700BF400F002073
:102160002DE9F84306460C4615467ABB04F0FAF80A
:10217000D4E94289074684F8D05084F8F050012110
:10218000D4F8CC0000F04AFFD4F8CC00C0E986892E
:1021900094F8C83080F8FB31C0E98A89C0F83472FD
:1021A00009F063FB20B140F20B713020FEF732F8EA
:1021B00004F0D2FA06F09CFC074994F8C8003246B5
:1021C00005F050FB28B94FF4F261EEE740F2A77139
:1021D000EBE7BDE8F88300BF89B60000014B18812A
:1021E000704700BF400F0020F0B5070CA7F5AA42CA
:1021F000144B543A012A03EA90231FD927F40040D4
:1022000042F6AA22801A18BF012000221621164683
:102210001F2487EA060562EA0505013510D0DD03B3
:10222000ADB245EA5606E503ADB2013945EA5202C0
:102230004FEA53034FEA5404EBD1F0BD0020E4E72A
:102240000020FAE7E0FF3F0010B501210020FEF773
:10225000E1FB044670B90121FEF79EFB044620B95C
:1022600040F24A313920FDF7D5FF034B93F90410B2
:102270000BF025FA204610BD500F002008B50AF0DB
:1022800085FB00F0D7FD00F0C3FB0AF07EFE00F0F6
:1022900065FF01F067FE00F079FF084B1B224FF449
:1022A000A4711A805980064B06499A800022196051
:1022B000DA825A821A835A7408BD00BF500F002078
:1022C0007C13002003021B00044B41F64C52C3E96F
:1022D00002221B221A74FFF7D1BF00BF7C1300201B
:1022E0002DE9FF41354DAB68044640F8303F09F019
:1022F000FAFB064600F07CFB2B7C84F83830304B30
:10230000668710F0200F1B681DBFAA886988A4F893
:102310005A101B2208BFA4F85A20A4F85C201BB155
:1023200094F96C1020889847AE7CEF7CB5F8148047
:1023300041F64C53A36116B900F060FB064687BB1B
:1023400000F05CFB074676B368B303A920468DF81E
:102350000C608DF80D70ADF80E800AF0B9FB01230A
:102360006A88E385AB886978019103332978009105
:1023700003329BB292B204F1140104F11000FEF793
:10238000BBFB236913B940F2E75114E0636913B949
:102390004FF4BD610FE0002004B0BDE8F0810920DA
:1023A000FAE7002ED1D120880021FEF749FB002852
:1023B000F5D040F2CA513920FDF72CFF7C130020E4
:1023C0000C050020F7B505460E460BF0ABF90028CA
:1023D00073D028460BF087FA40B1B6F80130013BC4
:1023E0007F2B03D91224204603B0F0BD28460BF002
:1023F0007EFA08B90C24F6E7284609F029FC0028E3
:10240000F8D128460BF04CF904460028F2D12846B2
:1024100002F05AFA0028E5D0B6F80170F17842F2DD
:10242000107328465F430BF04BFA28460BF053FA23
:10243000014658B93A462846FFF7BCFC0446002836
:10244000D1D041F6E1113920FDF7E4FE21460DF12E
:102450000600FEF769FA064668B3214600F0DEFD85
:10246000BDF806303380284631460BF04AFA28463C
:102470000BF043FA98B928460BF041FA0146304672
:10248000FFF72EFF04460028ADD13A4631462846D4
:10249000FFF790FC044620B141F60421D3E7012167
:1024A000EDE7074B9B68002B9DD0024606F58D712A
:1024B0003046984797E70D2495E7422493E700BFFD
:1024C000500F0020034B5A8802801B788370002035
:1024D000704700BF7C13002037B583781A2B054660
:1024E00009D8042B05D9012202FA03F3134A134237
:1024F00005D112241AE0292B01D03B2BF9D12888D1
:10250000B0F5706FF5D269460AF080FA88B9019B80
:1025100093F8182102F0FF046AB9AA7883F8192108
:10252000FF2283F8182168460AF00AFD204603B00E
:1025300030BD0224FAE70C24F8E700BF200038047D
:1025400038B504784278857804F0010352EA030133
:1025500004F0020401D1112038BDBCB9002DFAD01D
:10256000002B08BF144601E000242546204609F050
:10257000AEFB0028EFD0284609F0A9FB0028EAD0DE
:10258000054B00209C74DD749882E5E7002BEBD1AD
:1025900014461D46EAE700BF7C13002013B50088EF
:1025A00069460AF033FA18B10224204602B010BD81
:1025B000019A92F8E431DBB292F8A820002AF3D114
:1025C00013F0FB0FF0D0019890F82A310BB13A24A8
:1025D000EBE790F8D23003F0FF04002BF7D190F82E
:1025E000C9309B0706D1FF2380F82A3168460AF0DC
:1025F000A7FCDAE70249CA300AF0EFFCD5E700BFD2
:1026000091D50000F0B50778EF2F85B004460D4650
:1026100003D91225284605B0F0BDB0F80130ADF859
:102620000C309DF90C209DF80C30002AF1DB9DF850
:102630000D209107EDD1DA063FD49E0603F0030288
:1026400038D5002AE5D11807E3D46378190711D4E7
:102650002179E278E07942EA0122617942EA014295
:10266000A17941EA0021207A41EA00418A42D0D88A
:102670001F2ACED9627A013A062ACAD8A27A032A38
:10268000C7D813F0040102D1023A012A03D8E27A32
:10269000012ABED811B9A27C032ABAD813F01001BE
:1026A000227D19D0012AB4D1227E012AB1D8B1B934
:1026B0001125AFE7032AC6D1ABE713F0600FA8D10D
:1026C00003F00F0203F00703052BBED0931E012B6E
:1026D000BBD9002A9DD1B8E7022AE5D199E7DA07EC
:1026E0001FD46378227D03F0180108291ED1022A25
:1026F000DED11B0709D4E279A37943EA0223227AC7
:1027000043EA0243B3F5804FD2D8BFB20121384625
:10271000FEF780F9064678B109F09AFAB8B10C25AF
:1027200078E700F027F90028DBD1C1E7022AE0D0E2
:10273000227F002ADDD0BBE701213846FEF72CF9C5
:10274000064650B3164B93F904100AF0B8FF304612
:102750000BF0BEF821462870E07430460BF003F809
:10276000E37E0546002B3FF455AF00287FF452AFBF
:10277000316B02466846FEF783FA306B2A46012128
:1027800008F09AFE316B68460422FEF779FA306B46
:102790002A46294608F090FE3CE707253AE700BFA5
:1027A000500F002070B50579042D8AB003465CD81F
:1027B0004488B4F5804F58D82D48465D2844002100
:1027C0004279857AC07BADF8001042F0100242EAEF
:1027D000460242EA850242EAC00202F01F028DF878
:1027E0000020BDF80020ADF809201A888DF80B20D4
:1027F0008DF80E40120A240A8DF80D108DF8101075
:102800008DF80C208DF80F405A7B8DF811205A79E5
:102810008DF812209A79D3F807008DF81320B3F8B9
:102820000B209B7B8DF81A307F238DF81B30012302
:102830008DF8081005908DF81D10ADF818208DF852
:102840001C308DF81E3002A88DF81F108DF8201056
:102850008DF823108DF824108DF821108DF822109A
:102860006946FFF7CFFE0AB070BD1220FBE700BF3C
:1028700024E201000278034672B1427862B14288D4
:102880001A2A09D982881A2A06D9044A00681060CF
:102890009B88938000207047122070477C13002093
:1028A000024B02689A600020704700BF7C13002032
:1028B0000378A3F10A02112A9DBF024A0020137473
:1028C000122070477C13002008B501F0E5FFFFF7E8
:1028D00055FBBDE80840014801F0C8BF5C0F00206F
:1028E00010B50B4C012384F8023101F0DDFF0BF031
:1028F00078F90AF049F804F203112046FEF7C6FB06
:10290000002008F078FDBDE8104000F043BE00BF95
:102910005C0F002010B5064C064904F5027009F062
:10292000F9FD04F503700449BDE8104009F0F2BD5B
:102930005C0F0020100500201805002010B5094C80
:10294000094904F5027009F0E5FD04F50370074933
:1029500009F0E0FD04F504700549BDE8104009F0F8
:10296000D9BD00BF5C0F00202805002030050020E5
:1029700020050020014B93F8020170475C0F0020F6
:1029800010B5074C00F0E2FDD4F8080209F0BAFDDA
:10299000FFF79AFC00F0FCFE012384F8143210BD0E
:1029A0005C0F0020014B93F8140270475C0F00206D
:1029B00010B5074CD4F80C0209F0A4FDD4F81002AD
:1029C00009F0A0FDFFF75AFC002384F8143210BD73
:1029D0005C0F0020C2080549012300F0070003FA3C
:1029E00000F08B5C18438854704700BFD00400206F
:1029F000014BD3E900017047D0040020034B186855
:102A0000C0F30020400040F001007047D0040020D7
:102A100008B504F0BBFD084A002332F823108142B8
:102A200005D302EB83039B78044A137008BD01337E
:102A30000C2BF2D10023F7E738E2010071110020DE
:102A400010B544682388A4F8683194F8683084F895
:102A50006711012B06D0022B04D040F22231062050
:102A6000FDF7D8FB84F86A3194F86930012B01D066
:102A7000022BF2D184F86B31044904F5AF700AF0EF
:102A8000ACFA002384F8243110BD00BF8FC50000CC
:102A9000406808490388A0F85A3190F8603080F8FF
:102AA0005C3190F8613080F85D3100F251100AF02D
:102AB0008EBA00BFA5C50000044B002283F8222077
:102AC0004FF6FF729A84DA841A85704772110020DB
:102AD000054B9A8C824201BF002283F822204FF6D8
:102AE000FF729A84704700BF72110020014BD88496
:102AF000704700BF72110020094A0346908C4FF6C0
:102B0000FF71884206D192F82210012905D01A607F
:102B1000012070470020186070470020704700BFF8
:102B200072110020064B93F82220012A1FBF0120BA
:102B3000DA8C83F822009A8408BF0020704700BF17
:102B400072110020014B1885704700BF72110020E0
:102B5000064B0246198D988C884205D193F82200C5
:102B600018B11360012070470020704772110020D7
:102B7000094B998C1A8D914201D0002070474FF675
:102B8000FF729A8493F82220002AF6D0002283F85C
:102B900022200120704700BF72110020054B998C44
:102BA0001A8D914203BF93F82200B0FA80F04009D9
:102BB000012070477211002050B90A4A13460120C3
:102BC00003F8010B0868C2F801008A889A807047F0
:102BD000012805D1034B0A689A608A88D8719A81C6
:102BE000704700BF9C11002048B90A4B187880B18B
:102BF000D3F80120B3F805300A608B8070470128B4
:102C000006D1044BD87920B19A680A609B89F4E711
:102C1000002070479C11002020B9054B187800F067
:102C20000100704701280ABF014B0020D879F6E760
:102C30009C110020F7B500228B888DF80600ADF8B6
:102C4000043008680C4B8DF80720019D1C78014664
:102C500003F5AC73D0B2844201D8082009E0D3E96F
:102C60000076AE4208BF8F4203F1080302F1010271
:102C7000F0D103B0F0BD00BFB011002030B5094B5A
:102C800001465C78002203F58173D0B2844201D8FA
:102C9000082005E013F8015B8D4202F10102F4D136
:102CA00030BD00BFB0110020F0B5254D95F898411A
:102CB00089B0224605F29911684607F003FE2146C5
:102CC000684609F082FE0446B8B300EB4001C9B281
:102CD00002A8FDF719FC601E95F8A161C0B201249D
:102CE00095F8982105E0731CB3FBF2F102FB113358
:102CF000DEB206F120030DEB030111F8203C002B9E
:102D0000F1D100EB400220326A4406EB46032B442B
:102D100012F8187C83F8A27112F8177C12F8162C9E
:102D200083F8A37183F8A42101F8204C0138AB1972
:102D3000C0B2FF2883F89941D2D109B0F0BD00BFDD
:102D4000B011002070B5064688B00C46002A4FD05E
:102D50002A4A92F8A131D01890F8991121B94FF46C
:102D600080712820FDF756FA03EB4301114401332B
:102D700091F8A251E57091F8A35191F8A4116171F5
:102D80000021257180F8991192F89811B3FBF1F0A8
:102D900001FB103382F8A13192F8C23123B91849EE
:102DA00002F5DD700AF016F9657905F03F0545F08A
:102DB000400565710D220021684607F017FDE37894
:102DC0008DF80F3023798DF80E3004AA042369465C
:102DD00030468DF80D5007F0ABFA9DF81F30237088
:102DE0009DF81E3063709DF81D30A37008B070BD53
:102DF00003216018FDF788FBD6E700BFB011002063
:102E0000A92C0000044B5A78824286BF1B1893F805
:102E10004A010020704700BFB0110020044B5A78CF
:102E2000824286BF1B1893F842010020704700BF02
:102E3000B0110020064B00224FF461711A8083F814
:102E4000C32183F8C421A3F8C61183F8C2217047B7
:102E5000B0110020014B83F8C4017047B01100206D
:102E6000014BB3F8C6017047B011002030B50A4BD2
:102E70005C7884420ED9184490F802012B3003EBA1
:102E8000C004A5790D7053F830001060A3889380BA
:102E9000012030BD0020FCE7B011002002460748A9
:102EA00010B590F8C34124B1417821B1023002F04D
:102EB00085FE204610BD0C46FBE700BFB011002088
:102EC0002DE9F74F2F4C9A46637883428046894616
:102ED00056D9231893F8425185F00105F9B193F8BA
:102EE0004A31E3B945F002070135BAF1000F18D1B4
:102EF000FA070AD5062101FB084104EB08105246E7
:102F000001F585718230FFF71DFFBB0734D504EB57
:102F10000810524649460230FFF714FF2CE02F46B6
:102F2000E3E794F8A1614FF0010B002DE0D0A31965
:102F3000019393F8991199B90092DAB100F0F8FB76
:102F400006EB46012144019B81F8A2014FEA102CB7
:102F5000009A81F8A3C1000C81F8A40183F899B10B
:102F600094F898310136B6FBF3F103FB1166F6B223
:102F7000013DDAE747F00407384603B0BDE8F08FBB
:102F80000027F9E7B0110020074B5A78824209D98F
:102F90001A1892F842212AB9062202FB003000F5E5
:102FA0008570704700207047B0110020064B5A789A
:102FB000824281BF1B1893F83A01B0FA80F04009B1
:102FC00098BF0020704700BFB011002030B500242A
:102FD000A0F84040B0F8444042F210754C43B4FBB6
:102FE000F2F4A0F84440541E05FB0343B3FBF2F394
:102FF000A0F84230084BB3FBF2F30133A0F848309D
:10300000838F05FB0344436BB4FBF2F459438463A1
:10301000B1FBF2F2426330BD005A620270B5044661
:103020000D4651BB4FF41C7207F0E0FB012384F8FE
:103030008E306FF0360384F8D930042384F8DA3008
:103040006FF03B0384F8DB306F2384F8DC306FF0E3
:103050003C0384F8DD30062384F8DF302B2384F82A
:10306000D830FE2384F80E317F2384F88530202366
:1030700084F8DE5084F8FB3170BD012922D1002391
:10308000A0F8BC3180F8B331144B82691344B3FB10
:10309000F2F3C0F8B03040F6B833A0F8B4301146BF
:1030A000438C7830FFF792FF07F05AFA30B1E069AD
:1030B000FFF79AF810B984F89F51DDE7002384F8F0
:1030C0009F31D9E70229D7D1B0F85232D0F84C223B
:1030D0008169BDE870407830FFF778BF7FC3C901D0
:1030E000034B80F86C101B680BB1008818477047C1
:1030F00038050020074B93F900301844142804DCED
:1031000010F17F0F03DB40B27047142070476FF05F
:103110007E0070477813002007B57F230DF107006C
:103120008DF8073003F0E4FB9DF9073068B10A4AD7
:103130005078404243FA80F0142808DC10F17F0FE9
:1031400007DB40B203B05DF804FB1846FAE7142031
:10315000F8E76FF07E00F5E778130020024B0022BD
:103160001A705A70704700BF78130020054BFF2279
:103170001A70054A016811600179117100221A70F4
:10318000704700BF7A130020D804002007B5064B13
:10319000186800901B798DF804306846FFF7E6FF49
:1031A00003B05DF804FB00BF89EF010003464078DF
:1031B00098B1DB783C2B05D8084AD35C1B1A5842DF
:1031C0005841704703F11602D2B2032A04D8034AC9
:1031D000134413F8AD3CF1E70120704768E20100A9
:1031E0003C2908B5C17003D80B4B5B5C437008BD2C
:1031F00001F11603DBB2032B04D8074B194411F875
:10320000AD3CF3E7FF2904D040F257412A20FDF7F7
:1032100001F80123EAE700BF68E201002DE9F0436D
:1032200085B0894602A91446984609F0EFFB054689
:10323000002839D1039E34B9012486F88D402046F8
:1032400005B0BDE8F08337692146384607F017FF1F
:10325000014658B3174B5B88A34229D301AA3846CD
:1032600008F046F896F88D300198002B0CBF4946BF
:10327000022109F0ACFD019822464146033007F0D7
:1032800021FB2146384607F03FFF044618B97D214F
:103290002B20FCF7BFFF02A809F052FE039BA3F806
:1032A000AA5186F88D50CAE70124C8E70446C6E74C
:1032B0002C46C4E77C130020024B987DC04300F0ED
:1032C000010070477C13002083230B70014B1B7897
:1032D000CB707047981300207FB503888B80002344
:1032E0004B724669054630460C4607F0F3FF01462F
:1032F00020B94FF482711020FCF78CFF01AA3046F0
:1033000007F0F6FFE08010B940F20911F3E70198E9
:1033100009F065FD012801D0022807D1207230464E
:1033200007F0EEFF28B94FF49171E4E740F219116C
:10333000E1E7E288FB2A02D940F22B11DBE72068A3
:1033400010B94FF49671D6E70199033107F0BAFA34
:10335000304607F03DFF10B94FF49871CBE70B4BA7
:10336000DA7D82B11A8B2888013A02A91A8309F002
:103370004DFB10B14FF49D71BDE7039AB2F89E303A
:103380000133A2F89E3004B070BD00BF7C13002052
:103390002DE9F743564F80460D4600262B694BB169
:1033A0001B7A1BB97E211020FCF734FF2C6994B9DD
:1033B00000206DE06C68237A012BF9D0EFF31083C5
:1033C00072B66A6812686A6003B962B62C61237AC1
:1033D0000BB9A421E7E794F808905FFA89F905236F
:1033E000237209F1FF330B2B6CD8DFE803F068067A
:1033F0001B31656B3A6B6B6B6B54636813B940F2AE
:10340000B111D0E72046414698470420EFF31083DE
:1034100072B6227A052AD1B260D126722E61A3B982
:1034200062B612E0636813B94FF4DD71BBE7414641
:10343000204698470346C3F30723012BADF8040049
:10344000C0B243D0022BE1D12E610028A6D01FE0EC
:10345000636813B94FF4E171A5E72046984700204F
:10346000D4E763680BB9B3219DE70B2288F80020ED
:1034700019881869A8F803100122002488F802208E
:1034800088F8052088F8064007F0A2FE2C61042089
:1034900003B0BDE8F083FB7D0BB13B8BABB1606843
:1034A00010B940F2F9117EE7124B41461B6898476C
:1034B00000232B610220EBE740F2032173E740F287
:1034C000062170E740F209216DE7184684F808905C
:1034D0000028DDD1002B7FF461AF69E711B940F21C
:1034E0002A2160E7002B7FF459AF62B656E700BF90
:1034F0007C1300203C05002070B5134C1426231DBE
:1035000032460021184607F071F90346012525745B
:1035100000210433324604F11800C4E9013307F0F6
:1035200065F984F8245004F11C03C4E90633002330
:10353000E362236384F83430C4F83530C4F839309A
:1035400084F83D3070BD00BF9813002010B5084CC2
:103550002378FF2B04D040F243111020FCF75AFED1
:1035600006F02EFF2070BDE81040FFF7C5BF00BF7A
:10357000DD04002010B5034C207806F03DFFFF234A
:10358000237010BDDD040020014B187806F044BF05
:10359000DD040020014B024A1A6070473C05002000
:1035A000D932000010B506490446FFF7F1FE28B9EC
:1035B00020460449BDE81040FFF7EABE10BD00BF39
:1035C000B01300209C13002010B51346027A22B1DC
:1035D00040F2A1211020FCF71DFE0A46BDE8104074
:1035E0000146014809F0D3BC9C130020044890F820
:1035F00034301BB903492C3009F0E6BC704700BFDA
:103600009813002081CF00000346064890F83E2022
:103610003AB190F83D2022B900F8353B024909F053
:10362000D3BC704798130020C932000010B50A4679
:10363000037A23B140F2A9211020FCF7EBFD0146EB
:10364000BDE810400148072309F0A1BCB0130020D9
:103650001346027A0AB1037270470A4601460148CE
:1036600009F095BC9C1300201B234FF01B12838490
:10367000038482618382C260038539B94FF4A473E5
:10368000034AC3844384C261C3820261704700BF9E
:10369000480148010346F0B4B3F85420B3F8484059
:1036A000B3F84460DF8FB3F84250944228BF144609
:1036B0000846B3F84C20B3F85610DC878A4228BF7E
:1036C0000A46B3F84610A3F84220914238BF11468B
:1036D000A64238BF2646A742A3F84460A3F8461086
:1036E0001FD1AA1A18BF0122B3F84A50B3F85040AC
:1036F000B3F852709E8FB3F84010A54228BF2546FC
:10370000B3F84E409D87BC4228BF3C46AE42A3F86A
:10371000404002D1A14200D12AB1F0BC034909F0D6
:103720005CBC0122E0E7F0BC704700BFE1CF0000C5
:10373000094AD2E90003434083EAB01181EA4321F8
:103740004FEAF3435360054B116058434FEAF06072
:1037500000EB8000704700BFD8130020BB79379E74
:10376000094AD2E90003434083EAB01181EA4321C8
:103770004FEAF3435360054B116058434FEAF06042
:1037800000EB8000704700BFE0040020BB79379E4B
:1037900010B50A4C09480821FCF7B6FED4E900230D
:1037A0001343F7D0064CFFF7DBFF2060FFF7D8FF8D
:1037B000236860600343F6D010BD00BFE004002022
:1037C000D8130020174B184A9A60184A5A60184AB2
:1037D0001A60184A9A62184ADA62184ADA60184A75
:1037E0009A61184A1A63184A1A62184ADA64184A1F
:1037F0009A64184A5A62184B184A9A60184A5A62D0
:10380000184ADA62184A1A61184A5A61184A9A61C3
:10381000184A1A63184A9A64184ADA64184A9A636A
:10382000704700BF4005002051D2000087D2000041
:10383000FFD20000C7D300001BD40000853B00006E
:1038400031D40000E13D0000693C00000DD50000CE
:1038500029D50000B93C00004406002073D20000C6
:10386000D1D4000053D40000F7D3000077D4000077
:10387000093C0000AFD5000057D5000049D5000035
:10388000B7D40000054B064A9A65064A1A66064BED
:10389000064A9A65064ADA65704700BF400500206F
:1038A000EFC6000085C700004406002029C60000BE
:1038B00069C90000252A70B505460C4618D8012AAA
:1038C00019D9023A232A16D8DFE802F01A1525245E
:1038D00024331535152439444815154D24246767BC
:1038E0006D74151515151515151515151580899077
:1038F000FF2A00F0828040F223415120FCF78AFC2D
:1039000002784368012A02D193F8103101E093F85C
:103910001931237170BD4168204601F5E37109F04A
:10392000C7FA6B682046D3F80411BDE8704009F06F
:10393000C1BA4368E8E7BDE8704000F01BBA0E2347
:103940000B7159234B7100238B71B723CB7110235B
:103950000B72DFE7436893F80A31DAE7BDE870409D
:10396000084600F0F7B90378466873B996F8103145
:103970005BB196F80D11204609F0D0FA96F80C11BB
:103980002046BDE8704009F0CDBA96F80B112046EC
:1039900009F0C4FA96F80A11F2E741682046BDE83A
:1039A000704009F00BBC436893F82621227193F80C
:1039B000273109E0436893F82421012AF4D093F8D1
:1039C00064200A7193F865306371A3E7104B1B689C
:1039D000002B9FD002462320BDE8704018470C4BB7
:1039E0001B68002B96D002462420F5E7084B1B6885
:1039F000002B8FD002462520EEE74368204693F83F
:103A00003F22D3F84012BDE8704009F0ECB900BF86
:103A1000480700203C2803D8064B53F82000704785
:103A200000F11603DBB2032B01D8AD38F4E7002018
:103A3000704700BF400500203C2803D8064B53F8D0
:103A40002000704700F11603DBB2032B01D8AD381C
:103A5000F4E70020704700BF44060020F7B5456832
:103A60002E6904464FF6FF770DF102010DF10102B8
:103A70003046ADF8027007F063FB01A9304607F04D
:103A800082FB40B1019807F039FC616800220272A4
:103A9000FFF7CCFDE8E7044905F1A00003B0BDE85D
:103AA000F04009F094BA00BFEDD10000F0B5044633
:103AB00085B00D46FF2600F8896C10F88A3CF3B1FA
:103AC000184F3B781BB148211F20FCF7A3FB0C21AA
:103AD000381DFCF719FD3E70002304F8893C2A4686
:103AE000072302F8033BD4F80930C5F80330D4F8B3
:103AF0000D305360D4F81130936005B0F0BD01A8CB
:103B00000C21FCF701FDA4F51673039AC3F80421F8
:103B100001AB03CB44F8920C44F88E1C04F88A6C79
:103B2000DAE700BFE013002010B5054C23782BB96D
:103B30000C21201DFCF7E8FCFF23237010BD00BF03
:103B4000E0130020024690F8CE31BBB990F8CF3197
:103B500003F0FF010BB100207047094B18780028D3
:103B6000F9D01970D968C2F80411043303CBC2F834
:103B7000C601C2F8CA11FF2382F8CE310120704776
:103B8000E013002070B5426892F8873004460D4675
:103B90003BB1132B05D0113B0B2B94BF0820012008
:103BA00070BD92F8C83013B9204609F0C3FA6168B5
:103BB000284601F5DF7109F071F92846666809F0B9
:103BC00074F96168C6F800010B88A1F861322846D3
:103BD00001F2632109F05AF96168284601F26B216C
:103BE00009F059F96368002583F8CE5160680549EA
:103BF00000F5167009F0E8F96368152283F887204C
:103C00002846CDE7AD3A000038B5436893F88720E1
:103C10001C2A044604D04FF4DE711F20FCF7FAFA88
:103C200093F8C8101D88002283F8C72003F5C970D7
:103C300069B10B4983F8C820A3F89C5183F89B21F4
:103C400009F0C2F96368002283F8872038BD012299
:103C500083F89B11A3F89C51024983F89E21EFE75A
:103C6000B3D30000A5D30000436870B59C6F14F077
:103C700001001AD14E680E4A8D680E49A3F8C4009F
:103C80003240C3F8D820C2F3076242F0080283F83A
:103C9000DB2093F8C6202940013244F00104C3F828
:103CA000DC1083F8C6209C6770BD0120FCE700BFD4
:103CB0002FC904F76FDB000610B5406890F8863016
:103CC000042B2BD14A68174B8C681340C0F8D830AE
:103CD000154AC3F3076343F00803224080F8DB3042
:103CE0000023C0F8DC2080F8C23080F8863090F8DD
:103CF000742102F0FF049AB90388A0F8763180F8A5
:103D000075414B68C0F878318B68C0F87C31074941
:103D100000F5B67009F058F9204610BD0124FBE704
:103D20001C46F9E72FC904F76FDB000695D40000A5
:103D3000406890F8743153B90388A0F876311A239B
:103D400080F87531024900F5B67009F03DB9704749
:103D500095D4000010B50446FEF74AFE034A044B12
:103D600002400B406260A36010BD00BF2FC904F782
:103D70006FDB000637B50C464568FEF739FE084A8A
:103D8000084B0A4095F8D8100192034000930B406D
:103D90008DF800306B4603CB6060A16003B030BD8E
:103DA0006FDB00062FC904F7DB0410B5144604D5F9
:103DB000037D13B10023436310BD436B01334363A1
:103DC00009F0D6FBD0E90D239A42F5D300234363D3
:103DD00002492046BDE8104009F0FFB8FFD40000BA
:103DE00038B5446894F88630012B0D4602D0A36F95
:103DF000980743D494F8C930990719D4284609F094
:103E00005BF884F8D300B5F80530A4F8D430B5F8E1
:103E10000730A4F8D63094F8C93043F0020284F891
:103E2000C920DA0710D5164904F1CA0009F0D5F8FF
:103E300094F8C930DB0716D4A36F13F0020208D040
:103E400055214020FCF7E6F994F82A31002BEAD1FD
:103E5000EEE743F00203A36794F8C630A4F8C42049
:103E6000013384F8C63094F88630012B4FF00000FF
:103E700003D184F8860084F8C20038BD0120FCE735
:103E800091D5000070B545680446FFF745F9054B2C
:103E900085F885001B6801461BB12046BDE87040CF
:103EA000184770BD50070020024B1B6803B118472C
:103EB000704700BF4C070020F0B5204E0546307813
:103EC0000024147080B1431E7768DBB2181B0128F0
:103ED0000BDC07EBC40057F834604068884208BF29
:103EE000AE4212D114700120F0BD1819461007EB34
:103EF000C60E57F836C0DEF80460AC45C0F3470084
:103F00008E412CBF03460446E0E7B54271EB00004A
:103F100002D214700020E7E707EBC30057F83340E4
:103F20004068884208BFAC4201D11370DBE7A5426C
:103F3000814128BF01331370ECE700BF001400205B
:103F400010F0070208B503D063214820FCF762F99E
:103F500018B1034B197258601A70C80008BD00BF31
:103F600000140020014B00221A707047001400203A
:103F7000014B187A704700BF001400202DE9D3438D
:103F800009F03EFB0DF1070207460E46FFF794FFCE
:103F900098B9114C2278237A93420ED06168134667
:103FA0006FF0604E9DF80700984209D301EBC00303
:103FB000C3E9007601322270012002B0BDE8D0834F
:103FC00003EB0E0001EBC000D0E90089013BC0E922
:103FD0000289DBB2E6E700BF0014002037B509F024
:103FE0000FFB0DF10702FFF767FF0446A0B10C4A73
:103FF0009DF8070013785568013BDBB213701A1A5D
:10400000D2B2411CD200834238BF002205EBC1016D
:1040100005EBC00006F0A4FB204603B030BD00BF96
:10402000001400200A46822302F8033B0448036878
:10403000C1F803304368536083689360704700BFE2
:104040000914002002481622002106F0CFBB00BF51
:104050000914002082B002AB03E903000B48437D42
:1040600093B1530610D50A880280D1F82022B1F806
:1040700080304260D1F824220549826043800222C8
:104080000C3002B0FFF7E4BA02B070470914002008
:104090002540000038B5074D044600F1510128685D
:1040A00008F00BFE94F850102868BDE8384008F07E
:1040B00012BE00BF20140020F8B504460E466588E5
:1040C000407F15F00401134618BF04F15F0132462A
:1040D000FEF7F6FEC20705460BD5012384F85030E3
:1040E000607FFEF751FF0368C4F851308388A4F85D
:1040F0005530AB070CD5094E0127306884F85E7047
:1041000004F15F0108F0E0FD3068394608F0ECFD8D
:1041100085F00400C0F38000F8BD00BF201400202B
:1041200038B5C38D0E4D0133C385AB7C04462BB12E
:1041300002F0D0FB01F074FD0023AB7400232B715F
:1041400094F871302BB101212046BDE8384007F0CA
:1041500040BD637C13B1E28D9A42F4D20021F3E7B3
:104160002014002010B5094C2379012B02D02379AB
:10417000022B05D1A37C1BB102F0ACFB01F050FD7A
:10418000E069BDE81040FFF7CBBF00BF201400205E
:1041900070B5294C2379012B07D02379022B04D049
:1041A00040F627412D20FCF735F8A0B90125A37C66
:1041B0001BB102F08FFB01F033FD002D3AD0E06916
:1041C00007F07FFC002830D002F074FA236ABDE8C3
:1041D00070409B6818472168E26911F8095B02F199
:1041E0005103E80992F8502008F0D1FB0028DDD0F7
:1041F0002068002108F09DFD0028D7D02379E069D0
:10420000012B05D02379022B02D04FF44061C9E77E
:104210002379226A03F180435269013B05F00F01C3
:1042200052F8233098470546C1E7E069BDE8704081
:10423000FFF776BF70BD00BF20140020074A034679
:10424000D06903B909B9FFF76BBF1379126A03F19B
:1042500080431269033B52F8233018472014002092
:104260002DE9F043032985B0054690467BD090F8B0
:1042700070300529DBB202D14288D60760D5002B09
:104280005ED10127DFF8E89099F81260B6B108F026
:10429000B3FB082888F8000014D002AA0DF107012A
:1042A000FEF7E4FD20B940F678612D20FBF7B2FF60
:1042B0009DF8070002A909F0AFF9064698F800300A
:1042C000082B08D1D9F8001011F8030BC0F38010A7
:1042D00009F0A2F90646D9F8001095F8572011F810
:1042E000030B05F15803C0F3801008F050FBD9F818
:1042F0000010044611F8030BC0F3801008F072FBA5
:104300008146FEF753FE014640B1B9F1080F1BD0BC
:104310004846FEF777FD80F00101C9B298F8000029
:10432000082815D094B96B7F1C1A604260416B88D5
:104330005A0706D421B996B9EB7C93B1BB4210D091
:10434000002005B0BDE8F0830021E7E70120EEE79B
:1043500014B181F00104E4B204F00100E7E7304653
:10436000EFE70120EDE743889B07E9D5022789E7BE
:10437000201400202DE9F04F85B008230DF107022D
:10438000052104468DF80730FFF76AFF064620B97D
:104390000026304605B0BDE8F08F744F3968FA7CCE
:1043A00011F8030B07F11403C0F3801008F0EFFAC3
:1043B00080460028ECD13B68216A184691F88E208F
:1043C00010F8035B02EA551202F0010281F88E2018
:1043D000D3F80320C1F803208288A1F807201946EA
:1043E000226A11F81F0BC0F38010907009798DF8C4
:1043F0000C10D3F80F10D3F81F00D161597D029033
:10440000187D090441EA0021D87C01435162B3F8C8
:10441000191082F86E8040F2E24909FB01F19161C6
:104420009D7DC5EB451105EB810505EB85056D000F
:104430009585B3F8171009FB01F19162B3F81B10D1
:104440001184B3F81D10518493F8243003F01F0138
:104450005B0982F89A1082F8A031256A94F912B0AB
:1044600002A905F18E0008F080FB40F20113A5F8C7
:1044700068304FF0FF0A85F86AA0414605F1300028
:10448000FFF7F2F859462846FEF72AFE236A84F819
:104490007B801A88A4F87C2084F899A04FF6FF72DC
:1044A000A4F89A209A69B2FBF9F2A4F892201A8C27
:1044B000A4F894205A8CA4F8962093F8A02184F8AC
:1044C0009820227F9DF8070004F186015AB394F8E2
:1044D0005020012A27D194F8562002F0C002402A29
:1044E00021D1D4F85120C4F88620B4F855208A8010
:1044F0009A7884F87F20082803F1030504F18002EC
:10450000D3F8033004F18C0127D0C4F88C30AB8889
:104510008B8004F17F01FEF7A9FC40B940F686319B
:104520002D20FBF777FE0022C4F88620DFE794F801
:104530007F3043F0020384F87F3004F172000C49AD
:1045400008F042FD0B4B206A1B6800223A71002BD9
:104550003FF41FAF214698471BE7C4F88030AB8873
:1045600093800023C4F88C308B80E6E72014002071
:1045700045D6000058070020032973B5044604D02F
:10458000052952D0012002B070BD08230DF10702A9
:104590008DF80730FFF764FE0028F3D0237C284D08
:1045A00003B39DF8070094F8BE30DBB9237884F894
:1045B000BF30082804F1C10228D004F1C001FEF781
:1045C00055FC20B940F6EE612D20FBF723FE94F850
:1045D000C03043F0020384F8C0301A4904F1B60039
:1045E00008F0F2FC2B68062204265A701E70204642
:1045F000FFF750FD94F84020E16B286808F08AFB33
:1046000028682E7102F0F6F80020BCE728680346FF
:1046100013F8031BC1F3801184F8C010D0F8031005
:10462000C4F8C1109B889380D7E7074B1B6823B160
:10463000984780F00100C0B2A5E71846A3E700BF85
:10464000201400202DD6000054070020F8B50446A1
:104650000F4619B300F12805284609F0DBF9A0B987
:1046600063881A072ED5284609F0EBF90646284636
:1046700009F0D0F9301AC0B209F0F3F9444A93684E
:1046800003442846936009F0A1F9284609F0A3F9EC
:1046900001F0A4FF2179252001F0A8FE3C4D94F8FB
:1046A0005E2028680023037043706388103B0D2B45
:1046B0005ED8DFE803F0595D550C5D405D5D5D5DE2
:1046C0005D5D5D402046BDE8F840FFF729BD06234B
:1046D0004370202303702046FFF7DCFC638823F03F
:1046E00008039BB2152B05D094F83820616B28681D
:1046F00008F001FB286802F07DF8032321792B7173
:10470000002001F071FF064607B9E86063881B07C7
:1047100004D509F0A3F90644C4F8D8606388103BB7
:104720000D2B30D8DFE803F0322F29292F292F2F26
:104730002F2F2F2F2F290C2343702123037042B1D9
:1047400004F15F0108F0C0FA0121286808F0CCFAF2
:10475000C1E704F1580108F0B7FA94F85710F4E7EC
:10476000062303704370B6E7022303700623F9E7BC
:1047700040F20E612D20FBF74DFD21790120BDE8AF
:10478000F84002F0C1B840F69541F3E7F8BD00BF2C
:104790002014002038B54388102B044604D1BDE80E
:1047A00038400121FFF752BF0B4DAB7C23B101F024
:1047B0001DFA402002F082F8286802F01BF8608899
:1047C00010F0040002D1217902F09EF8002002F0DE
:1047D00051F801232B7138BD20140020024B012118
:1047E000D869FFF733BF00BF2014002010B5134C69
:1047F000A37C1BB102F06EF801F012FAE06907F039
:1048000060F970B12379E069012B0FD12379226A15
:1048100003F18043D268013BBDE8104052F82330D9
:104820001847E069BDE81040FFF77ABC2379022BF6
:10483000ECD040F62A312D20FBF7ECFC20140020B0
:1048400010B50948037903F0FF0453B91822214633
:10485000043005F0CBFF02F03DF801F0E1F920460D
:1048600010BD0C24FBE700BF2014002010B5094C3C
:10487000002323712060FFF7E3FF20B140F2EA211B
:104880002D20FBF7C7FC236A13B940F2ED21F7E7AF
:1048900010BD00BF20140020014B024A1A6270476D
:1048A00020140020804B0000034B044A1A60044B84
:1048B000044A1A60704700BF540700207543000087
:1048C00058070020612100002DE9F041067DB31E4C
:1048D000DBB2012B04468CBF4FF000084FF00108FB
:1048E0007EB3B71E18BF0127012B36D800F158013F
:1048F00090F8570008F076F8082805462DD0FEF706
:104900008DFA58BB657784F81C8084F85070FEF7E8
:10491000A7FA054609F096FA174BA5FB03351B18B5
:1049200045EB01050022C4E9123584F85E201146EA
:104930002046FFF7C1FB70B940F275412D20FBF70F
:1049400069FC3746082504F151010020FEF74CF9B7
:104950000028D7D10020BDE8F0810825022EF2D032
:10496000E37E002BF6D0D4F81530C4F85130B4F8FB
:104970001930A4F85530C5E740420F00F0B5464E57
:10498000327985B0044602F0FF0312B90278FF2A9B
:1049900004D140F691112D20FBF73CFC3382B3602B
:1049A0007371B37180F871303C4B00933C4B0193B1
:1049B0003C4B0293336A68465B68039301F012FF35
:1049C00001F052FD01F086FF01F02AF9364801F0AE
:1049D000DFFD04F12805354801F0FEFE284608F009
:1049E000F5FF284608F0F7FF01F0F8FD21792520B2
:1049F00001F0FCFC94F9120001F0C4FD04F1340153
:104A0000206B06F076FD04F13C010746206B06F0B2
:104A100097FD054617B194F82430C3B90DB194F849
:104A20002550237F13B963885B0709D5D4E9121297
:104A30006FF000439A4208BFB1F1FF3F09D185B939
:104A400030680330FEF72AFAB07405B0F0BD0125D6
:104A5000E7E709F0F7F9D4E91223904271EB030379
:104A6000EDD3012205EA02012046FFF725FB68B1DC
:104A7000FEF7F6F9054609F0E5F90D4BA5FB033500
:104A80001B1845EB0105C4E91235D9E7002DD7D035
:104A900040F6C6117FE700BF20140020ED4700005C
:104AA000914100003D420000D6BE898E555555000B
:104AB00040420F00F7B50446FFF760FF0021204693
:104AC000FFF7C4FDA36E0BB101221A606388DB07F8
:104AD00021D50023114E256ACDE90033FF23F3745D
:104AE00005F10A076846FBF7CFFFA0B9009CA54275
:104AF000F8D06A7A607A3B4604F10A0107F047FF72
:104B00000028EFD0A378F374D4F803007061044B4D
:104B1000B4F807209A8003B0F0BD00BF2014002035
:104B200034140020024BD8611B6A1B68184700BF71
:104B30002014002043881B0710B5044611D5036AD2
:104B40000A493C2280F87B201B88A0F87C30FF2398
:104B500080F899304FF6FF73A0F89A30723008F061
:104B600033FAFF2384F8713010BD00BF45D6000032
:104B700079450000954700009DD6000097D60000BB
:104B8000B54A000065410000DD4700007C4B000095
:104B9000744B0000704B00000138022808B503D99F
:104BA000C3212F20FBF736FB13290A4B05D8112907
:104BB0000CD8102907D0D121F3E71529FBD103EB3D
:104BC0004003D88801E033F8100008BD03EB400330
:104BD0009889FAE7AAE20100F8B52F4B1A88402815
:104BE00042EA00021A8005D104219868BDE8F84025
:104BF000FDF7E6B9802801D10521F6E700F00302B0
:104C0000032A04D14FF41F613120FBF703FB10F09E
:104C1000020418BFD960C50705D5CA781961062AEC
:104C20000DD00B2A18D02CB1DA68D278052A1FD003
:104C30000B2A2AD0820644BF08221A75F8BD9A684A
:104C400092F887101829EED1002600270121C2E929
:104C5000386782F88B10E6E79A6892F88710122975
:104C600001BF002182F88B10012182F8C810DAE719
:104C70009A6892F887101629DCD100240025C2E931
:104C80003A45012182F88C10D4E79A6892F887108F
:104C90001129CFD10021F5E74414002013B50446B3
:104CA00001A8FDF729FF20B940F2EE713120FBF792
:104CB000B1FA22220021019805F098FD0198032104
:104CC00008F085F80198037823F01003037021465B
:104CD000FEF786FA019906482246FEF7EBFDFDF73E
:104CE00021FF10B94FF4FF61E0E702B010BD00BF33
:104CF0004814002070B5274CA36893F8466293F8D7
:104D00004752002E3FD193F86810002D3DD193F803
:104D1000692083F8681083F86920FF2283F86A20ED
:104D20001D4B1B680BB1A0689847A36893F824310A
:104D3000012B02D056EA050303D018480021FDF7E5
:104D40007FFEA068303008F073F90546A06800F2D5
:104D50003511FEF79FFCA0680621FDF731F9A06828
:104D6000303008F065F98542044610D202F09AFD11
:104D70000146601B322838BF322004F01DFEB0FA15
:104D800080F0400970BD3146BFE72A46C1E70120E7
:104D9000F8E700BF441400206007002048140020FA
:104DA000002908BF1F21172810B503460BD80D286E
:104DB0000DD90E3809280AD8DFE800F00B090909D7
:104DC0000B090B09110BA0F12303022B23D900209F
:104DD00010BDBDE810400021184608F046BE114C39
:104DE000A36893F88620212A09D1201DFDF728FE0B
:104DF000A368002283F8862083F8C220E7E72E2AE2
:104E0000E5D193F88730A3F12002062AF0D92E2BA2
:104E1000EED02A21E9E7044B1B68002BD7D0BDE870
:104E200010401847441400205C070020114B0979FA
:104E30000246986890F88630212B11D02E2B0FD087
:104E4000282B0FD0042B0FD00F2B0FD01D2B0FD0E2
:104E500090F88730232B14BFFE201720FFF7A0BF48
:104E60001620FBE72320F9E70E20F7E71220F5E7ED
:104E70001420F3E74414002008B50C4B9B6893F80A
:104E80000E21FE2A04D040F2FD713120FBF7C2F959
:104E900083F80E0111B9A3F8C41008BD0022A3F8CD
:104EA000BE20012283F8C220F7E700BF441400208F
:104EB0000C4A117D91B938B99068B0F85810828FBA
:104EC00091420BD8FDF76EB813881B0708D593687D
:104ED00093F88800073818BF0120704700207047FA
:104EE000012070474414002010B5154BDB68197978
:104EF000436893F88620092A09D193F809218A4248
:104F000005D1002283F8862083F8C22010BD9A6F55
:104F100012F0080406D022F00802BDE810409A679B
:104F200008F012B9FF2905D1332283F8862083F8CF
:104F30003C42EBE740F2F4413120FBF76BF900BF54
:104F40004414002010B50B794268172B92F8862084
:104F500004460CD80D2B0CD9A3F10E01092908D851
:104F6000DFE801F009070707090709071009232BE4
:104F700026D0002010BD22460121BDE81040184671
:104F800008F073BD212A01D02E2AF2D1204608F064
:104F9000C8F8636893F88720222AEAD093F8D920CA
:104FA00022F0010283F8D920626892F8D93023F008
:104FB000080382F8D9301A212046FDF741FDD8E7D1
:104FC000282AD6D1024B1B68002BD2D09847D0E7B5
:104FD00064070020F7B57E4C0546002840F0AC8001
:104FE00023881F0727D5A36893F80E21FE2A04D132
:104FF00040F266513120FBF70DF9FE2283F80E21B5
:1050000093F887201A2A07D183F8C700201D08F0DB
:105010009BF8A36883F88750A36893F88620202A1A
:1050200032D0332A3ED093F88820072A02BF0222CA
:10503000627583F80E212388DE073CD42388580745
:1050400000F1A880990713D5E368DE780D2E00F0F3
:10505000A980112E00F0A880072E00F0A78030460E
:10506000FEF7EAFC0346002800F0A2805948984762
:105070002388DA0660D5A36893F887200A2A5BD1D3
:105080000B2283F8872057E093F88720A2F12001B4
:10509000062901D92E2A03D12E2283F88620C2E7C1
:1050A0002122FAE7012283F83D22002283F886209C
:1050B00083F8C220B7E7A368276993F88730113BCC
:1050C0000B2B0BD8FB78023BDBB2092B7CD80122DF
:1050D00002FA03F340F23332134275D03846FEF73A
:1050E00065F820B939463B4808F056F847E0FE78A5
:1050F000012E01D9162E0FD1A36893F8860008F06F
:1051000038F848B1A36893F88620202A04D0212AD1
:105110000ED12E2283F88620112E35D026D8072EC8
:1051200034D00D2E34D03046FEF774FC034621E017
:10513000162E0CBF20250225237D1B0713D5A3683F
:1051400093F88730113B0B2B40D9002601A903208F
:105150000196FCF7F9F8019B2BB11E720C22A16895
:105160000198FEF731FA284603B0F0BD142EDAD1CB
:10517000194B1B68002BB5D02169164898470028A9
:105180003FF45CAF0546D7E7144BF5E7144BF3E764
:10519000144BF1E7A26892F88820062A04BF012286
:1051A00062754FE7104B61E7104B5FE7104B5DE70F
:1051B000FF2E06D1A268332182F8861082F83C02C5
:1051C00056E740F25A5115E70825B5E70825CAE722
:1051D00044140020481400206C07002077DB0000F6
:1051E000454F00002D4E000007DB000025DB0000CE
:1051F000E94E00002DE9F041A44CB4F800800E46C1
:10520000A16818F4007F0ABFB1F8B820002301326A
:1052100001F1780507461ABFA1F8B83081F8B73117
:10522000A1F8B820284608F095FC28B1434601F5BE
:1052300096722846FEF7B8FD238803F4C06333B1A5
:10524000A06890F88A30002B4AD0032B4ED0A1687A
:10525000238891F88A20012A04D11D0544BF022227
:1052600081F88A20002F40F0AC8058065DBFB1F86D
:10527000D021013292B23A46A1F8D02103F00A02BD
:105280000A2A0DD1E268D278022A09D123F0080354
:1052900030462380FFF79EFE08230643F6B22380A4
:1052A0003046FFF797FEA36893F80E210643FE2AC7
:1052B000F6B24ED1002E4CD193F88820063A012A3E
:1052C00047D993F81831B3B1A36893F81921A3F81B
:1052D000BC6083F8102101210220FFF7CDFD38E0EA
:1052E000012180F88A10FCF76BFEB0E7022380F8FA
:1052F0008A300121F7E7A06890F88730A3F1100504
:10530000EDB20C2D11D8113B0B2B00F25181DFE8CF
:1053100013F007014F014F014F010A0112014F0124
:105320004F014F014F014F013D01836FD90702D556
:1053300031460920D1E79A0740F19A8031460C2086
:10534000FFF79AFDA26892F8C93043F0010382F892
:10535000C930A568B5F8B03195F8B4810133A5F826
:10536000B031B8F1000F00F0E181FBF7DFFF10B1C1
:105370000023A5F8B031A16891F88A80B8F1010F37
:1053800040F20A8291F88830072B40F0E781B1F8AB
:10539000B830022B40F20082B1F8BA500135ADB2FC
:1053A000B1F880302B44A1F8A83191F8B531002B29
:1053B00000F0F6810123A268B2F880100B44A2F835
:1053C000AC312288A36855065BBFB3F8BC21B3F8A3
:1053D000AE1100225218A3F8BC2193F818312BB952
:1053E000A36893F88830063B012B07D8A368B3F86D
:1053F000BC20B3F8AE110A44A3F8BC20A36893F80C
:10540000C20030B1B3F8BE20B3F8AE110A44A3F81D
:10541000BE2093F9C6100029C1BFB3F8C420B3F869
:10542000AE515219A3F8C42093F8A9205AB9002FFD
:1054300040F04B82627D022A40F0008293F81021F6
:10544000062A18BF1622A36893F8A8302BB9A368C0
:105450000F4883F8A920FEF701FBA06808F0CAFBFB
:10546000A368002283F8B321BDE8F041FDF780BBBB
:10547000590702D5314613202FE71A070AD590F8AD
:10548000083180F810313146072026E74414002007
:105490004814002013F0300F3CD090F81B31002B43
:1054A00040F01982A36893F81A31E3B1A06890F82C
:1054B0008730252B00F58D7100F2462228D090F818
:1054C0008630A3F1250CDCF1000343EB0C0307F05D
:1054D000B3FDA268936F23F0200343F0100393679A
:1054E000002382F81A31A068836FDA0640F1F38155
:1054F00000F23511FEF7CEF8A368B3F85220A3F8F6
:105500001021B3F85620A3F8122100211520E4E65B
:105510000123DCE75B0640F1DE8100212420DCE68C
:1055200000210B20D9E6FEF70DFB00283FF411AF58
:1055300000210420D1E690F83832012B08D1002157
:105540000520FFF799FCA368002283F8382200E7C2
:10555000A36893F83832022BD8B27FF4FAAEA3686E
:1055600093F8C85006221DB183F810210021E8E706
:10557000B048032107F0F7FDA36893F8D83013F083
:10558000040F294614BF11200D20DAE70021062060
:10559000A3E693F82421022A02D1002117209CE6D9
:1055A00093F82421012A03D193F82531002BF4D05C
:1055B000A36893F886206AB993F88720103A0C2ADA
:1055C00040F2998193F8B620002A00F094810121DD
:1055D000122082E6092A40F08A8193F8092183F893
:1055E0001021012150E7A36893F82A319BB1A368E9
:1055F00093F8C93013F003050DD101210C20FFF7FA
:105600003BFCA36893F8C92042F0010283F8C9204B
:1056100083F82A519BE7A36893F81A3153B3A36820
:1056200093F81B3133BBA06890F88730252B00F529
:105630008D7100F246221BD090F88630A3F1250C24
:10564000DCF1000343EB0C0307F0F6FCA368002237
:1056500083F81A2101211420FFF70EFCA368B3F888
:105660005220A3F81021B3F85620A3F8122170E6B7
:105670000123E9E7A36893F82421012A4CD193F888
:105680002531002B48D1A16891F88730A3F1200281
:10569000062A41D92E2B3FD091F86850012D06D013
:1056A000022D04D040F222310620FAF7B3FD91F822
:1056B0006900012801D00228F4D1022D91F8262199
:1056C0000AD0012A14BF002201223AB90A3B042B56
:1056D00012D90121162000E6022AF3E7022891F8E8
:1056E000272117D0012A14BF00220122002AEDD061
:1056F00050480021FDF7A4F9A36893F88620002AFA
:105700007FF427AE93F83C32002B3FF422AE012108
:10571000FF20E2E5022AE6E7474B1B68002BEBD0AF
:1057200044489847FE28E7D00121D6E5FBF7F8FD6D
:1057300008B1A5F8B081FBF701FE00283FF41BAECD
:1057400095F8B7310133DBB2022B85F8B73182BF50
:105750000023A5F8B03185F8B7310CE691F8B630E2
:105760001BB191F886300F2B16D1B1F8BA50B1F8B1
:10577000B83001F17800ED1A033D08F0EBF968B19B
:10578000D1F8B030D1F8AC20033B9B1A9D42A8BFA2
:105790001D46012D3FF703AE012501E62B46F5E737
:1057A000012D7FF607AE91F8873013B10B2B7FF4F4
:1057B00001AE91F88630002B7FF4FCAD91F8883073
:1057C000002B7FF4F7ADB8F1020F7FF4F3AD91F841
:1057D000B731002B7FF4EEAD0869B1F82E8005F0EB
:1057E00009FD00283FF4E6ADA26892F80E31FE2BC9
:1057F0007FF4E0ADB2F8AA31012B7FF6DBADB2F851
:10580000B011138C9942BFF4D5AD5B1A9BB2013D28
:10581000ADB2B5FBF8F59D4228BF1D4618FB05F358
:10582000003D03F1010318BF01259BB282F8B2517C
:10583000C1E500BF4814002068070020012A09D1F3
:1058400093F88920002A7FF4FEADA0680021FCF7C0
:10585000B7FB05E65EB1F00635D4310735D4B206A4
:1058600035D4B30735D140F6721131201DE738B178
:10587000B3F8BE00B3F8C020904201D32222E2E583
:10588000002905DDB3F8C410B3F8C0209142F5D269
:10589000B3F8BC10B3F8BA2091420BD2A36893F8C6
:1058A0008A10B3F8B82051B1B3F8BA309342CCD8CB
:1058B0000822C8E593F81831002BDFD1EEE7052A5E
:1058C000C3D93E22BFE51E22BDE53D22BBE5232212
:1058D000B9E52A22B7E5A36893F88720222A3FF486
:1058E00058AE312A7FF464AE00211120F5E40C2D6E
:1058F0003FF602AF2DE50C2D7FF62BAD93F82B3143
:10590000002B3FF470AE01210E20FFF7B5FAA3681B
:10591000002283F82B211AE673B5674D0024012677
:105920002E71A8602C802C756C75FF2380F8B33124
:10593000AB681888FDF7DAF8AB681888FDF702F94C
:10594000AB68B3F8AA21EAB193F80E21FE2A19D167
:1059500093F81831B3B1AB6893F88820063AB24295
:1059600010D993F81921A3F8BC4083F81021022024
:105970003146FFF781FAAB68022083F8B241FFF7A6
:105980008DF904E0AB6893F80E01FE28F7D1AC68FE
:10599000B4F8AE11B4F8B021E38D013989B2B1FB8E
:1059A000F3F31344A4F8B031B4F8B8300B44A4F8BE
:1059B000B83004F1780008F0CDF820B1D4F8AC305C
:1059C0000B44C4F8AC30B4F8AA31012B9CBF0133AE
:1059D000A4F8AA31002609B184F8B76194F8873099
:1059E00084F8B261A3F10A02012A1FD8B4F880300A
:1059F000B4F844229B1A190432D404F2462104F16B
:105A00008E0007F0B2F8AB6883F88760FF2283F856
:105A1000C320A968B1F8AE2101F1780007F0EBF8D6
:105A2000A0B340F6FD013120FAF7F4FB252B17D186
:105A3000B4F84422B4F880309B1A1A0410D484F8C5
:105A40008760FFF757F9AB68014630B983F8240146
:105A500002B0BDE87040FFF7CDBB83F82461D8E702
:105A600094F8863003F0FD03252BD2D1B4F88030B2
:105A7000B4F844229B1A1B04CBD4002384F886304C
:105A8000FFF738F901460028C3D1E1E70B4B0C4979
:105A9000009303C90B4B0C4AFBF71CFBAB6893F854
:105AA0008730113B0B2B04D802B0BDE87040FBF7E8
:105AB00009BB02B070BD00BF44140020F5510000C6
:105AC00048140020B14E0000D94B000038B5044600
:105AD000084694F8383213B10C25284638BD94F89E
