:10000000801F0020550D0000EF550000410D00003D
:10001000410D0000410D0000410D000000000000F6
:10002000000000000000000000000000090F0000B8
:10003000410D000000000000D50E0000410D000041
:10004000951000009510000095100000951000001C
:10005000951000009510000095100000951000000C
:1000600095100000951000009510000095100000FC
:1000700095100000951000009510000095100000EC
:1000800095100000951000009510000095100000DC
:1000900095100000951000009510000095100000CC
:1000A00095100000951000009510000095100000BC
:1000B00095100000951000009510000095100000AC
:1000C000951000009510000095100000951000009C
:1000D000951000009510000095100000951000008C
:1000E000951000009510000095100000951000007C
:1000F000951000009510000095100000951000006C
:1001000053B94AB9002908BF00281CBF4FF0FF317E
:100110004FF0FF3000F00CB8ADF1080C6DE904CEE3
:1001200000F008F8DDF804E0DDE9022304B07047D0
:10013000704700BF2DE9F04786468C460846089E6A
:10014000154674461946002B40F0C2808542B2FA2B
:1001500082F245D94AB1C2F1200300FA02FC2EFA1C
:1001600003F3954043EA0C0C94404FEA154EA8B2B5
:10017000BCFBFEF8230C0EFB18CC08FB00F943EA8D
:100180000C43994528D9EB1808F1FF3704D299455B
:1001900002D9A8F102072B44A3EB0903A4B2B3FBD5
:1001A000FEFC0EFB1C330CFB00F044EA0344A042AF
:1001B00014D92C190CF1FF3304D2A04202D9ACF1AE
:1001C00002032C44241A43EA07401EB1D440002302
:1001D00034607360BDE8F0874746DDE76346F1E7CA
:1001E00092BB431B01214FEA154EAFB2B3FBFEFC9D
:1001F000200C0EFB1C330CFB07F840EA0343984528
:1002000062D9EB180CF1FF3004D2984502D9ACF159
:1002100002002B44A3EB0803A4B2B3FBFEFC0EFBCD
:100220001C330CFB07F744EA0344A7424ED92C19B0
:100230000CF1FF3304D2A74202D9ACF102032C44E3
:10024000E41B43EA0040C0E7C2F1200320FA03F1B7
:10025000954090402EFA03F303434FEA154EAFB298
:10026000B1FBFEFC0EFB1C10190C0CFB07F841EA5D
:100270000041884504FA02F422D969180CF1FF30D4
:1002800004D2884502D9ACF102002944A1EB08014F
:100290009BB2B1FBFEFC0EFB1C110CFB07F743EA03
:1002A00001439F420ED9EB180CF1FF3104D29F425B
:1002B00002D9ACF102012B44DB1B41EA004192E779
:1002C0006046E3E76146F7E76046A3E76346B7E7C2
:1002D000834206D916B9002108467BE7C6E900E04B
:1002E000F9E7B3FA83F78FB9834201D3724508D88F
:1002F000BEEB020460EB030301209C461EB9002103
:1003000068E73846FAE7C6E9004CF8E7C7F1200C81
:10031000BB4022FA0CF41C432EFA0CF120FA0CF329
:10032000B84001434FEA14490EFA07F5B3FBF9F858
:100330001FFA84FE09FB18300B0C08FB0EFA43EA87
:1003400000439A4502FA07F240D9E31808F1FF305A
:1003500004D29A4502D9A8F102002344A3EB0A0370
:1003600089B2B3FBF9F809FB183308FB0EFE41EA2A
:1003700003418E452CD9611808F1FF3304D28E4514
:1003800002D9A8F10203214443EA0040A0FB0298ED
:10039000A1EB0E014145CE46434602D306D14D4561
:1003A00004D2B9EB020E68EB04030138002EA6D08C
:1003B000B5EB0E0261EB030101FA0CFC22FA07F324
:1003C0004CEA0303F940C6E9003198E74046C5E727
:1003D0004346D9E710B50B78022B02D0052B24D069
:1003E00010BD1D4805F013F81C491D4805F00FF815
:1003F000302200211B4806F037F91A491A4805F047
:1004000006F830221549174806F036F915491748FD
:1004100004F0FDFF00211148302206F025F9BDE867
:1004200010400E49124804F0F2BF124804F0EFFFEA
:1004300011480A4983683022DC684FF0FF33A04737
:1004400010F1580F04D10D48BDE8104004F0DFBF93
:100450008630C5D10A48F7E7686C00004C110020CF
:10046000736C00001C1100207E6C0000896C000081
:10047000956C0000A16C000044680000B06C0000A6
:10048000D06C0000034B53F8203001221979186812
:1004900004F0BBBEC0040020034B53F82030002200
:1004A0001979186804F0B1BEC004002070B52B485B
:1004B00004F0ADFF2A4805F0DEFE10B9294804F02B
:1004C000A6FF274CA3681B685BBB274804F09FFF6F
:1004D000264804F09CFF264804F099FFA3682549AC
:1004E000DC681F484FF0FF333022A04710F1580F4F
:1004F00022D1214804F08BFF2048214C214D224E6F
:1005000004F085FF2146284606F0D2F8C0B100204D
:10051000FFF7B8FF2C2004F088FE212004F085FEB0
:10052000F0E71A4900222046984710F1580FCCD026
:100530008630CDD11648C9E78630DDD11548D9E7D8
:100540002146304606F0B4F808B10120E0E7FFF795
:10055000A3FF0120FFF7A0FFDCE700BFF16C000064
:1005600044680000016D0000156D00005E6D000024
:100570005A6D00004C110020B06C0000686D000046
:100580001C1100207C6D0000816D0000D50300006F
:10059000376D0000D06C0000014B1B68184700BF8E
:1005A000D0040020014B1860704700BFD004002029
:1005B00030B585B004460D4610220021684606F08D
:1005C00053F802238DF802302A46044B019321464A
:1005D000684604F0BDFB05B030BD00BF99050000C2
:1005E00080B505460E461746984603F031FF034690
:1005F00006F0CCF8DFF81890044649F8003042467F
:1006000030463946A84754F8090000F011FC00BFF5
:10061000080000002DE9F047058B044628079046A6
:1006200011D4022905F0070540F0CC80204604F0E3
:10063000FBFE78B10138218B042811D8DFE800F0E7
:10064000C2106D85950001290CBF45F0100545F0DD
:100650002005258388F31188BFF36F8FBDE8F087ED
:1006600001F0070AAA4500F0A5800027B9463E46DA
:10067000A368002B00F0BC8041F00801218388F3BF
:100680001188BFF36F8FA168002900F0BA800D6850
:10069000002900F0B680D1F8048033465246204647
:1006A000C047002D76D02B6829461D46F0E701F0A3
:1006B00007035A1F012A1BD8002221F00701062B2D
:1006C000276889B2C4E9002209D13B4603E0628B66
:1006D000013262831B68002BF9D141F002012183B2
:1006E000204604F0A1FE00287AD041F0200176E0F7
:1006F000042B0AD121F0070189B22183204604F09E
:1007000093FE10B141F020012183218B01F0070AF3
:10071000AA454FD00027B946AAE7236921F007016F
:1007200041F00601062DD3F8009021832DD1B9F1B7
:10073000000F3FD041F00801218388F31188BFF3F7
:100740006F8F3A492046C84729E021F00701236905
:1007500041F0040189B2042DD3F804902183E6D03E
:1007600000273E464FF0040A82E721F00701236983
:1007700041F0050189B2052DD3F808902183D6D028
:1007800000273E464FF0050A72E700273E464FF02D
:10079000060A6DE72B4687E7B9F1000FD1D1EFF3D9
:1007A0001188202383F31288BFF36F8F238B23F0EC
:1007B00008032383258BEA062ED525F01003238317
:1007C00005F007056669218B002EBFF670AF002388
:1007D0002768C4E9003321F0070141F001012183BA
:1007E000218B01F0070AAA454FF000097FF440AFC2
:1007F000002F9CD041F00801218388F31188BFF3BA
:100800006F8F002FC8D03D68394633465246204688
:1008100004F036FE2F46F4E7AB067FF51BAF25F05C
:100820002003238305F0070500E700BFAD54000057
:10083000014B036000207047186A000008B50448A7
:1008400004F0E5FDBDE80840024804F0E0BD00BF4B
:10085000866D0000BB6D0000014804F0D1B800BFF8
:10086000186A000038B5044618B90F4B0F485B688A
:1008700098476168B1F5683F10D0B1F5680F0DD0A9
:100880000B4DA9420AD011F46861206807D00146D7
:10089000084805F04BFD00232360656038BD142235
:1008A00005F0E2FEF9E700BFCC050020E96D00008D
:1008B0002C5F5CA9080E002008B520B34368B3F58F
:1008C000683F10D101220368BFF35B8F53E8001F1C
:1008D000002903D143E800200028F7D1BFF35B8F44
:1008E0000DD1002008BD094A93420AD000684FF09C
:1008F000FF324FF0FF3303F0BFF90028F1D0044876
:10090000F0E70448EEE76FF4E040EBE72C5F5CA90A
:10091000E98FFFFFEA8FFFFF08B5D8B14368B3F551
:10092000683F10D100220368BFF35B8F53E8001FBC
:10093000012903D143E800200028F7D1BFF35B8FE2
:100940000BD1002008BD074A934208D0006803F08D
:100950000BFAF6E76FF4E040F4E70348F2E70348E8
:10096000F0E700BF2C5F5CA9E98FFFFFEA8FFFFF74
:1009700010B5044618B91D4B1D485B68984763685D
:10098000B3F5683F2FD0B3F5680F2CD0194A9342C6
:1009900019D1236803BB18484FF0FF324FF0FF33E3
:1009A000214603F03BF908B923681BB90F4B1348E4
:1009B0005B68984720681422002105F055FE4FF42B
:1009C0006863636008E0B3F5683F0DD83A2B03D045
:1009D00040F6BA629342DED1206805F0DFFC63681E
:1009E00043F03A03636010BD054AF3E7CC050020ED
:1009F000E96D00002C5F5CA9080E00200F6E00005E
:100A00003A00003A08B5064906484023142205F08A
:100A10007FFCBDE808400449044804F063B800BF07
:100A200008090020080E0020206A0000346A000037
:100A300030BFFFF7FDBF00BF2DE9F0410B4EDFF8DF
:100A4000308006EB0807CC1B054632460949204694
:100A500005F0E2FDA01942460021083C05F004FE25
:100A60002C6707F10800BDE8F08100BF000000001E
:100A700004000000EC690000074A936893F90E1027
:100A8000002907DB526993421FBF044A536843F0B1
:100A900080535360704700BF140F002000ED00E04A
:100AA00070B5264B15469A6A12F0100F9A6A14BF59
:100AB0001124102412F0080F9A6A18BF122492070A
:100AC00006460AD5586B9A6A140634D519B19A6A43
:100AD00022F080029A62132401E06FF01500174B98
:100AE0009A6A12F0010F9A6A18BF142412F0200FAC
:100AF0009A6A18BF1524D20602D49B6A9B070AD5AE
:100B00000E4B5B68190506D5314600F079FA10B135
:100B100080F309880224094B9A6A920642BF5A6AF6
:100B200022F400525A629A6A42F0FF029A6200234B
:100B30002B70204670BD6FF01500CCE700ED00E093
:100B4000134B9A6A12F0007F9A6A14BF1E201D2070
:100B500012F0807F9A6A18BF1F2012F4002F9A6A41
:100B600018BF212012F4802F9A6A18BF222012F495
:100B7000003F9A6A18BF232012F4803F9A6A6FEAF6
:100B800002426FEA12429A6218BF2420704700BFE7
:100B900000ED00E010B5194B0246986A9C6A10F40B
:100BA000805F14BF1720162014F4006F9C6A18BFD2
:100BB0001820A40509D5986B986A000404D51AB1C9
:100BC0009A6A22F400429A6219200C4B9A6A12F433
:100BD000806F9A6A18BF1A20D2050CD49B6A13F44E
:100BE000005F18BF1C20054A936A43F47F43936259
:100BF00000230B7010BD1B20F5E700BF00ED00E0E7
:100C0000F0B5484B5B688BB00446C3F3080300257E
:100C100085F31188BFF36F8F02F07F40B0F17F4FF3
:100C200011D102F00C0008280DD010074CBF0C4663
:100C300001250022033B8DF80720032B05D8DFE8B0
:100C400003F0246367602C46F3E700239DF8072038
:100C5000CAB902AE04F1200720686168324603C2B7
:100C60000834BC421646F7D1099A002D54D0C2F37D
:100C7000080121B96FEA52226FEA4222099202A9C1
:100C8000184604F0AAFC0BB0F0BD264BDA6A9107B7
:100C9000DBD4DA6A002AD8DBDA6A5200D5D55A6981
:100CA000A16942F480725A61BFF34F8FBFF36F8F17
:100CB0005A6931F8021C22F480725A61BFF34F8FD7
:100CC000BFF36F8F4DF6027291420AD09A6AD2B288
:100CD0004AB10DF1070201212046FFF7E1FE03466C
:100CE000B4E72368B2E79A6A12F47F4F05D00DF19A
:100CF00007010120FFF74EFFF1E79B6AB3F5803F44
:100D0000A3D3FFF71DFFEAE70DF107020021E3E798
:100D10000DF107010020EDE722F4FF7222F001023D
:100D2000ACE700BF00ED00E0044B5A6942F010024E
:100D30005A615A6922F008025A61704700ED00E0DA
:100D4000EFF30880EFF3098101B57246FFF758FF12
:100D500001BD00BF002080F31488BFF36F8F01F046
:100D6000ADFC00200D490860BFF34F8F0C4880F3A5
:100D7000088800F02BF8202080F3118809484FF4F0
:100D80000461401880F30988EFF3148002210843BE
:100D900080F31488BFF36F8F00F0FAF894ED00E051
:100DA000801F0020C01100200749D1F890200023A7
:100DB000C2F307221846934200DB7047C1F898300F
:100DC000C1F8A0000133F6E700ED00E008B572B607
:100DD000002383F31388FFF7E7FF144B4FF0FF3234
:100DE000C3F88020C3F88420C3F88820C3F88C207F
:100DF000C3F89020C3F89420C3F89820C3F89C202F
:100E0000C3F88021C3F88421C3F88821C3F88C215A
:100E1000C3F89021C3F89421C3F89821C3F89C210A
:100E200062B6BFF34F8FBFF36F8F08BD00E100E0E4
:100E3000084B9B6883420BD1EFF3058343B1064B0C
:100E40005A6842F080525A605A6A22F400425A624A
:100E500005F07DBB140F002000ED00E0094A936807
:100E60006FF00A019967084958674B6843F080534F
:100E70004B60002383F31188BFF36F8F9368986FE3
:100E8000704700BF140F002000ED00E010B50446CD
:100E9000EFF31183202383F31288BFF36F8F0A4B84
:100EA00058699860094B4FF000625A60084B026F16
:100EB0001A600022436F426783F31188BFF36F8F7C
:100EC00000F006F9204610BD140F002000ED00E0F0
:100ED000240E00200B498A684FF030001044EFF3D5
:100EE000098C80E8F01F74467046FFF7CFFFA646D6
:100EF00004498A6802F1300090E8F01F8CF30988F9
:100F000070470000140F00201EF0040F0CBFEFF319
:100F10000880EFF30980816911F8021C0229FFD0D3
:100F200001B504F060FB01BD40B2002807DB044AB4
:100F30004109012300F01F00834042F8213070472F
:100F400000E100E0054B420900F01F0053F82220A9
:100F5000012303FA00F01040704700BF00E100E0F9
:100F600040B20028A8BF00F1604001F10101B8BF04
:100F7000064B4FEA4111ACBF00F5614000F00F0095
:100F8000C9B2B4BF195480F80013704714ED00E0E3
:100F90000B4A08B50B4B22F07F029A60BFF34F8FCC
:100FA000BFF36F8FD3F8882022F47002C3F8882033
:100FB00002F070FD03F0D8FA00F060F802F0AEFD28
:100FC0000000000000ED00E042F8203C009B42F8E9
:100FD0001C3C0A49019B42F8183C029B42F8143C15
:100FE00021F001014FF0807342F8043C42F8081CE4
:100FF0000023203A02654367704700BFE105000007
:10100000094A0346906870B113F1160F006E05D0BF
:10101000A0F140029A4205D8834203D2814228BF00
:101020000020704700207047140F002008B51546B7
:101030000B4A0C4B9060026F1A600E4600F048F8A5
:101040002C4686F309884FF00000074B984720464E
:101050004FF000014FF000024FF00003034C204717
:10106000140F0020240E002005560000E1050000AA
:10107000014B10221A61704700ED00E00448002384
:101080002021C2180133302B82F80013F9D17047A8
:1010900000E100E008B5EFF30583064A103B02EBE0
:1010A000C30152F8330049688847BDE80840FFF79C
:1010B000E3BC00BF6C680000024B034A03480121F7
:1010C00000F076B80000042000000020446A000010
:1010D000026E054B403A1A60044A4021C3E90112EE
:1010E0001846012100F06EB8280E002000000B15F4
:1010F000084AC2F898000B6823F01F03034343F02B
:101100001003C2F89C308B6843F00103C2F8A03092
:10111000704700BF00ED00E02DE9F043DFF860808C
:1011200085B00E461F4604464FF00009B14523DA4C
:101130006068D8B13FB1411E08421BD11F2819D9A0
:101140002368194216D12368019304F07EFAA3683C
:1011500003430393D8F89050C5F30725D0B2013D5F
:10116000A84207D801A9FFF7C3FF421C09F10109F2
:101170000C34DBE76FF01502104605B0BDE8F083D4
:1011800000ED00E0044B0522C3F89420BFF34F8F1D
:10119000BFF36F8F704700BF00ED00E0BFF35F8FBC
:1011A000024B0022C3F89420704700BF00ED00E01E
:1011B00010B5034C01232278FFF7AEFF207010BD5D
:1011C0007C11002008B50B4A00231278FFF7A4FF1A
:1011D00010F1160F07D0084A0021D2F89030C3F35F
:1011E0000723984200DB08BDC2F89800C2F8A0109F
:1011F0000130F2E77C11002000ED00E02DE9F04322
:10120000534B544CD3F890302568C3F307239D42C9
:1012100085B000F29A80FFF7C1FF00200C268542BE
:101220001AD14D4C4D4F25706846FFF701FBDFF892
:101230002081DFF82C9106460025AE4213D1237899
:1012400043490020D1F89020C2F30722934276DB75
:10125000FFF798FF002042E0616806FB0011FFF7EE
:1012600047FF0130DBE7009800EB05114FEA051C52
:10127000CB683B40B3F5000F48D00AD8B3F5001F48
:1012800030D0B3F5800F36D0B3F5801F10D00135C4
:10129000D3E7B3F1807F42D0B3F1007FF7D150F8AC
:1012A0000C3088684A6804F0D0F940F4802009E0E6
:1012B00050F80C3088684A6804F0C7F940F088504C
:1012C00040F43020CDE901230390D8F89030207805
:1012D000C3F30723013B98422AD96FF0150005B0EC
:1012E000BDE8F08350F80C3088684A6804F0ADF926
:1012F00040EA0900E6E750F80C3088684A6804F0D4
:10130000A4F940F0E06040F40030DBE750F80C3026
:1013100088684A6804F099F940F08270D2E750F882
:101320000C3088684A6804F090F940F08870C9E78A
:1013300001A9FFF7DDFE237801332370A7E7C1F889
:101340009830C1F8A00001337CE74FF0FF30C6E7CA
:1013500000ED00E0506A00007C1100200000F0FF6A
:101360000000081108B5024B1B689847002008BD13
:10137000340E0020034B044A1860937843F00203B4
:1013800093707047340E0020F404002008B506491D
:10139000064821F00701C1F1005202F5802203F056
:1013A000DCFF002008BD00BFC71F0020380E002052
:1013B0000E4A0123C2F840354FF080424FF0805171
:1013C000C2F87835D1F83001082808D1D1F83411A5
:1013D000052904D80648415C09B1C2F838364FF0F7
:1013E00080430122C3F880250020704700E00140BF
:1013F0004B6E000020B1034B800143F001031847FE
:10140000704700BFF0690000084B70B5C31A0D4665
:1014100007499B10044659430648402204F033F91B
:101420002B4601462046BDE870401847580E002064
:10143000B76DDBB60868000073B50C4C0C4A40234E
:10144000041B00930D460B460A49A410614306464F
:10145000094804F044F9011E05DA30462B4602B073
:10146000BDE87040184702B070BD00BF580E0020A4
:1014700049570000B76DDBB60868000010B5EFF300
:101480001184202383F31288BFF36F8F074A1368F8
:1014900023F00201DB07116002D4012004F0B8FD43
:1014A00084F31188BFF36F8F10BD00BFA80E00201A
:1014B000002270B5012104461046FFF751FD0F4888
:1014C00001F086FA0E4B984215D101F091FA266987
:1014D0000C49304603F0F7FF00280BDB012535648B
:1014E0002469084904F11C0003F0EDFF002801DB2A
:1014F000E564002070BD6FF00400FBE701160000FA
:101500000000AD0B706A00001FB500220123CDE979
:101510000223094ACDF800D06B46CDF804D004F080
:101520000CF9002805DB4FF480420023684602F0E6
:101530007BFC05B05DF804FB6757000030B4104B2E
:101540000C2202FB003301460020D3E90E529863BF
:10155000EFF31180202484F31288BFF36F8F1C6C8B
:1015600004F0C00444F002041C6480F31188BFF34B
:101570006F8F1DB12B46034830BC184730BC7047F5
:10158000580E00200868000010B4EFF311822023E9
:1015900083F31288BFF36F8F1748016841F002048C
:1015A0000460C80707D482F31188BFF36F8F01204E
:1015B00010BC01F02FBA4FF08041D1F80C04D1F8E3
:1015C0000C14C907EFD5EFF3118083F31288BFF332
:1015D0006F8F0A490B6C03F0C00343F002030B64E6
:1015E00080F31188BFF36F8F82F31188BFF36F8F81
:1015F000002010BCFFF7A2BFA80E0020580E00204C
:1016000010B1012804D07047034B1B6C5B0701D15C
:10161000FFF794BF704700BF580E00202DE9F0413E
:101620003849BFF35B8F0746012251E8003F41E88C
:1016300000200028F9D1BFF35B8F33B9324933481A
:101640004B60CB608A6003F051FF7B1E012B2BD8CF
:10165000012F07D14FF08043D3F81C3403F003036C
:10166000012B21D004F0A1FE0546F8B9284B1B78C8
:10167000E3B14FF080430222C3F808230646DFF8A7
:1016800094804FF08044D4F81824D4F81834D2034E
:1016900015D503F00303012B01D0012F0FD155B352
:1016A00086F31188BFF36F8FBDE8F081EFF31186E9
:1016B000202383F31288BFF36F8F0125DFE7ADB1DD
:1016C000304603F0B3FFD4F81835002BDBD1D4F843
:1016D0000421002AD7D0C4F80431D4F804310123FE
:1016E000C4F81835C8F88031A360CCE70021212068
:1016F00002F090FEE7E74FF080430222C3F8042394
:10170000D2E700BF540E0020440E0020740E0020CB
:101710008C11002000E100E008B5074804F0ABFDA3
:1017200038B10648FFF726FE0448FEF73BFF0020CD
:1017300008BD6FF01200FBE744680000411700008D
:101740000A2838B5074D044604D1AB680D21DB6982
:1017500028469847AB680348DB69E1B298472046C2
:1017600038BD00BF44680000F0B54068057B01F05B
:101770001F0444EA4514056987B0002D64D0B2F512
:10178000001F00F1100506D12146284604F0C0FCD8
:10179000002007B0F0BD01AE0027B2F5800F019721
:1017A000776039D1B3F1007F14BF052304238DF88E
:1017B00004300023CDE904630393836823FA01F125
:1017C00011F001011AD1B2F1A07F17D104F01F036B
:1017D000620903F5E0732AD0012A3BD11F4A52F86F
:1017E0002330DB070AD40DF1030632462146284692
:1017F00001F0EEFB1A4B98421CD0029603AA214638
:10180000284601F0A7FA174B984220D10122214621
:10181000284601F041FCBBE7B3F1C06F05D0B3F13E
:10182000007F14BF01230223C1E70323BFE74FF06A
:10183000A042D4E73146284601F028FC094B9842E3
:10184000DBD06FF00B00A4E76FF08500A1E76FF02D
:1018500015009EE751F82330FFDE00BF0003005063
:101860000400AD0B0000AD0B38B545682B69B3B172
:101870001035284601F0FAFB044680B90146284697
:1018800001F0C0FB084B98420BD10849224628467C
:1018900001F098FB224605210620FFF761FB00209E
:1018A00038BD6FF00400FBE70000AD0BB11800007D
:1018B000420970B5034602D0012A17D070BD0D4E03
:1018C000326951680029F9D003F01F0301250C6823
:1018D0009D400029F2D08A682A4002D04B683046E9
:1018E00098472CB1236821461C46F2E7024EE7E7F1
:1018F0002346F8E7306800001C6800002DE9F0433B
:10190000466840F20635D006337B87B002EA05050B
:1019100054BFC2F34010032001F01F07B5F5837FC9
:10192000144647EA43178DF8030045D00FD8062D1B
:1019300018D007D8B5B1022D40D06FF0150007B010
:10194000BDE8F083B5F5807FF7D101250AE040F2CC
:101950000222954234D0B5F5407F33D0B5F5007FF3
:10196000EBD102250123220303FA01F12CD5736880
:10197000C3F80815326982BB07F01F037F0929D01D
:10198000012F77D13E4A02EB830284F48033D2F8F0
:101990000017C3F30043C4F3404444EA430421F472
:1019A000E16144EA800421F0070144EA05230B4386
:1019B000C2F800370020C2E70725D3E70425D1E7A6
:1019C0000525CFE70325CDE7630344BF7368C3F85C
:1019D0000C15CFE74FF0A042D5E710360DF102020B
:1019E0003946304601F0F4FA14F4403F80460CD1F9
:1019F0003946304604F08AFB224B9845DAD19DF8EF
:101A00000210304601F03CFBD4E701AB4FF0000977
:101A100003AA39463046CDE90439CDE90199CDF81C
:101A20000C9001F097F9174B984286D114F40033CB
:101A300015D09DF803308DF80E3084F48034C4F353
:101A400000444B4603AA394630468DF80C508DF8B9
:101A50000D4001F039FA0B4B9842CDD06DE7CDE93E
:101A6000043303AA0DF1030339463046039301F012
:101A700071F9F0E703F5E07352F82330FFDE00BFA1
:101A8000000300500000AD0B02780B69012A08D05A
:101A9000022A08D04AB9064A5A6203F1140002F039
:101AA0009FB9044AF8E7044AF6E7044AF4E700BF9E
:101AB0000000AD0B0100AE0B0200AE0B0100AD0B40
:101AC0002DE9F04FD0F81090D0F8048085B005468D
:101AD0000C461746029309F1040A4FF0FF324FF00B
:101AE000FF33504602F0A0F909F1140B0023002245
:101AF000584602F099F9404601F084FD7B1E00260D
:101B00000393B74201D8002322E0039B217AB3421A
:101B100083BF237D83F00403C3F380030023019379
:101B2000029B0093D4E90023284600F04DF80346B9
:101B300070B94FF480420023584602F075F998B10D
:101B4000404601F06FFD284600F02CF86FF00403CA
:101B50004046029301F066FD504602F041F9029BB7
:101B6000184605B0BDE8F08FD9F82430034A9342F7
:101B700004F10C04EAD10136C3E700BF0000AD0B4D
:101B800008B503464068826900F1080101F0F6FCDF
:101B9000034B984214BF6FF00F00002008BD00BF38
:101BA0000000AD0B08B543681B68D3F80805D3F8EF
:101BB0000C1501F03DFE034B984214BF6FF00F006F
:101BC000002008BD0000AD0B2DE9F04186B00C46A9
:101BD00047689DF834801546002112220DF1060059
:101BE0001E4604F041FDBDF830208DF8052004F0BC
:101BF000010314F008028DF804300296049519D1FF
:101C0000A10704D4B8F1000F12D19BB9202201A979
:101C1000384601F023FD0A4B98420ED00B33984210
:101C20000CBF6FF00F006FF0040006B0BDE8F0814C
:101C30004022ECE76FF08500F7E70020F5E700BFF2
:101C40000000AD0B036803F01F025B09026004D0C3
:101C5000012B034818BF002070474FF0A040704789
:101C6000000300502DE9F04FDFF89491DFF894A1C4
:101C700085B01546834600EB810140F2FF185945B7
:101C800003D1002005B0BDE8F08FDBF800305E0422
:101C9000C3F3C322C3F3080400F1AC801B0E19F890
:101CA0000270444508BF4FF0FF34222B00F2A5809C
:101CB000DFE803F012191F22252B22A3A3A3A33BC5
:101CC00068A3A3A3A3A3A3A3A3A36B818487A3A3B4
:101CD000A38A9194979A9D00C5F80C45601C5ED12B
:101CE0000BF1040BCBE7C5F81445621CF8D00026B5
:101CF0005FE0C5F80845F1E7C5F81045F5E7631C56
:101D0000C5F80845ECD0002604E0661CC5F80C4573
:101D1000E6D0012603A80394FFF794FF039B01225A
:101D200002FA03F3C0F80C3508E0C5F80845002FA7
:101D3000DBD1631CD4D0002632460627DBF8003006
:101D4000019303F40040002818BF002203A800926A
:101D500018BF01260394FFF775FF039C019B009AAF
:101D600000EB8400C3F3412CD0F800473B0243EA68
:101D70008C03134304EA0A04234343EA4603C0F8EE
:101D80000037ADE7C5F80C45D1E7C5F86045601CE4
:101D9000DBF80030A4D0C3F30043002BB9D003A874
:101DA0000394FFF74FFF039B012606FA03F3C0F8E5
:101DB00008353246C2E7C5F86445E8E7C5F8684526
:101DC000E5E7C5F86C45E2E7C5F82445621C87D015
:101DD00000220126B2E7C5F828457FE7C5F830455F
:101DE000F4E7C5F83445F1E7C5F83845EEE7C5F83E
:101DF0003C4573E76FF0150044E76FF0850041E75D
:101E0000896E0000F0F8FCFFF7B5054600220121BD
:101E10000220FFF7A5F80220FFF786F86A6811682C
:101E20001369C1F82435137D507D927D034313431C
:101E3000C1F86C352C692368ABB16B683B4A1B68F1
:101E40003B49C3F8042320680022083004F0BCFB9F
:101E50002368DD63206837490022683004F0B4FB52
:101E60002368C3F89C506E68D6E9004313F0010361
:101E70003ED02F6907F10C0004F0C8F82E4B9842B1
:101E800050D1387B04F10C0204F5907104F0B4F8E1
:101E9000387B012707FA00F000F032FD0823C4F870
:101EA0000035B36AC4F844350023C4F84835A76048
:101EB000D4F85831002BFBD00021C4F800156C6811
:101EC000E66801AA304603F0DFFC002805DB019B31
:101ED000326819791868FFF7C5FE63685B075FBF52
:101EE0006B681B680822C3F80025002003B0F0BD12
:101EF0000822C4F80025B26AC4F84425C4F848355D
:101F00000123A360D4F82031002BFBD00023C4F8B8
:101F10002031D4F820310123E3604FF48073C4F8FA
:101F20000433C5E76FF00400E0E700BF14020A00C5
:101F3000275B0000BF5F00000000AD0B2DE9F843F8
:101F400004464668884604F030FA6368A8B92E4A09
:101F5000127892B11F684FF020096425606803F081
:101F60008FFD00283ED1012004F044F8013DF5D159
:101F70000021212002F04EFAEFE721691F684FF09F
:101F80002009EFF3118589F31288BFF36F8F606822
:101F900003F076FD08B30B6853B1D3F8A4203AB12F
:101FA000D3F8B420002A03DAD7F84C25C3F8B420BC
:101FB00073685B0744BF4FF48003C7F80433B36A08
:101FC00083F80080B16A0122204603F069FD85F3A1
:101FD0001188BFF36F8FBDE8F88385F31188BFF3D5
:101FE0006F8FCEE7EFF311810D4689F31288BFF3AF
:101FF0006F8F606803F044FD0028D9D181F3118808
:10200000BFF36F8FB4E700BF8C110020F7B5064611
:1020100005691C46EFF31187202383F31288BFF371
:102020006F8F2B68D3F8A4C0BCF1000F07D087F3E3
:102030001188BFF36F8F6FF00F0003B0F0BDC3F8CE
:10204000A4202B68C3F8A01001F06043B3F1005F37
:102050002B6814D1C3F8A8102B68C3F8AC2029460C
:10206000304603F03FFD87F31188BFF36F8F73682D
:102070001B7D012B01D1631C06D10020DDE7C3F8D5
:10208000B0C003F0DEFCEAE70B480C4A2D6824EAF6
:10209000E4744FF4004600210023C4FB0601FEF760
:1020A0002FF8683502460B4600200021CDE90001DB
:1020B000284602F023FCE0E73F420F0040420F00B9
:1020C0002DE9F74FD0F804A0D0F810B0DAF800509E
:1020D000DBF8004017469AF8082081468846002A17
:1020E00040F0AB8094F86120002A40F0A98094F879
:1020F000622002F0FF01002A40F0A280581C4CD060
:10210000042B4ADD50484FF4004C052293FBF2F6B5
:102110004E4A0023C6FB0C01FDF7F2FF0023C4E981
:102120001601C4E91087C4E9123363652365DAF840
:102130000420510751D594F86060002E4DD0BE4266
:1021400028BF3E46DAF824103246404604F064FACE
:10215000BF1B4FF000032DD194F86020921BD2B228
:1021600084F86020DAF824000BF1080B811904F0E0
:1021700061FABFF35B8F5BE8003F43F004034BE879
:102180000032002AF7D1BFF35B8F45F30735002DEE
:1021900006DA002003B0BDE8F08F00200146BDE75D
:1021A0006B092B4905F01F0501224033AA4041F875
:1021B0002320EEE7D4E916210A430DD0C5F80831F3
:1021C000D5F80831D4E9162300200021CDE900011B
:1021D00004F1080002F092FBB0440023C5F83485F6
:1021E000C5F83875C5F81031D5F81021C5F84C314F
:1021F000D5F84C31012384F86130DAF804305A07FD
:1022000018D5EFF31181202383F31288BFF36F8F6A
:10221000D9F81020936843F0020090609B0701BF3B
:10222000D9F804301B680822C3F8002581F311880F
:10223000BFF36F8F01232B60ABE76FF08500A9E739
:102240006FF00F00A6E700BF3F420F0040420F00B3
:1022500000E100E070B5012383400E4ABFF35B8FBD
:10226000DC4352E8001F01EA040542E80056002E54
:10227000F7D1BFF35B8F4FF4803282400648C0F83D
:102280000823BFF35F8FBFF36F8F0B4214BF012092
:10229000002070BDC80E00200010014070B40E492F
:1022A000D1E90034D01AC31844F1000422F07F466B
:1022B000C1E90034A6F50013B3F5400F09D2074B6E
:1022C0001B681A0A1B069C19054B42F10005C3E95D
:1022D000004570BC02F022BA58070020CC0E002046
:1022E0006007002011B3BFF35B8F0123104A8340C6
:1022F00052E800CF4CEA030C42E800C10029F7D1B4
:10230000BFF35B8F0B4A4FF480338340C2F8043332
:10231000094BBFF35B8F1B68BFF35B8FC340DB07C9
:1023200042BF064B4FF40032C3F80021704700BF94
:10233000C80E002000100140C40E002000E100E0A3
:102340000D4B1868010A0006BFF35F8F0B4BD3F8E3
:102350000435181841F10001B3F5801F0AD2084B6B
:10236000D3E90023904271EB030303D210F1807094
:1023700041F10001704700BFCC0E00200010014069
:10238000600700202DE9F04F85B016461F469DF8E6
:1023900040A00446FFF75EFF0190FFF7D1FFB04277
:1023A00071EB070354D23E4B301A67EB01019842A0
:1023B00071F100014FD23B4B03EB0413D3E902232D
:1023C0009F4208BF96425ED037494FF4803804F1EF
:1023D000500508FA04F8AD00C1F848832046ADB2B4
:1023E00003F0F0FD26F07F4B05F1804504F5A8735E
:1023F00005F58835DC464FF003090293029A2CF06C
:102400007F4341F82230C1F84483D1F80435274A8C
:102410006FF00200C01A604420F07F40904232D931
:10242000286868B1D1F804350393A3EB0B0020F0C2
:102430007F40B0F5000F26D9204603F0C3FD039B73
:10244000BAF1000F07D109EB030C09F10109D5E737
:10245000BAF1000F09D06FF0150520460199FFF77A
:1024600041FF284605B0BDE8F08F0123104ABFF3B5
:102470005B8FA34052E8000F184342E80001002997
:10248000F8D1BFF35B8F07490E98230101EB0412CB
:10249000C8500F9B5360C2E902670025DDE700BF0B
:1024A000010080004807002000100140FDFF7F0070
:1024B000C40E00207FB51C4C1C4BC4F80833C4F874
:1024C00048331B4B00254FF0FF304FF0FF31C4F86D
:1024D0000855C3E902014FF48033C4F80433154BA7
:1024E00002264FF400320121C4F804631120C3F81E
:1024F00080212A46FEF734FD1120FEF715FD0E4A15
:102500000123A360236013600C4B0D4A0093CDE9B7
:10251000015500232846FFF735FF3046FFF77EF8C8
:10252000284604B070BD00BF0010014003000F003A
:102530004807002000E100E0C80E00209D220000B6
:10254000FFFF7F002DE9F7432F4CD4F804339907A0
:102550000BD5D4F8043143B12C4A0023C4F804311C
:10256000D4F80431136801331360D4F80433DA0368
:1025700029D5BFF35B8F264B53E8002F22F00101D2
:1025800043E800100028F7D1BFF35B8FD30702D4D4
:10259000D4F84031BBB10025C4F84051D4F84031E3
:1025A000FFF7CEFEEFF31182202383F31288BFF3EF
:1025B0006F8F184BD3E90267B042B94106D282F35C
:1025C0001188BFF36F8F03B0BDE8F0834FF0FF3881
:1025D0004FF0FF39C3E90289D3E900101D604FF4C1
:1025E0008033C4F84833C4F84051D4F8403182F302
:1025F0001188BFF36F8F0029E5D0009032463B462B
:1026000028468847DFE700BF00100140CC0E0020BD
:10261000C40E00204807002030B5431C124C85B082
:1026200005D08442A8BF0446012CB8BF0124FFF79F
:1026300087FE0E4B0C4DD3E90013401AB0F5000F86
:1026400010D22218AA4228BF2A4652184FF0000082
:1026500007490091CDE9010043F10003FFF792FE25
:1026600005B030BD2A46F0E7FFFF7F005807002085
:102670009D22000008B5FFF763FE024B1B68C01ADD
:1026800008BD00BF580700204FF08053D3F8302119
:10269000082A06D1D3F83431052B02D8024AD05C7F
:1026A00070470020704700BFA56E0000024AD2F8B4
:1026B0000034002BFBD0704700E0014010B54FF014
:1026C0008053D3F83021082A4ED14FF080420021A8
:1026D000C2F80C11C2F81011C2F8381502F54042C8
:1026E000D3F80414C2F82015D3F80814C2F824153E
:1026F000D3F80C14C2F82815D3F81014C2F82C150E
:10270000D3F81414C2F83015D3F81814C2F83415DD
:10271000D3F81C14C2F84015D3F82014C2F844159D
:10272000D3F82414C2F84815D3F82814C2F84C156D
:10273000D3F82C14C2F85015D3F83014C2F854153D
:10274000D3F83414C2F86015D3F83814C2F86415FD
:10275000D3F83C14C2F86815D3F84014C2F86C15CD
:10276000D3F84434C2F87035FFF78EFF18B13A4BF6
:102770003A4AC3F88C26FFF787FF18B1384BFB2283
:10278000C3F81825FFF780FF70B14FF080414FF07C
:102790008053D1F8E42ED3F8583222F00F0203F020
:1027A0000F031343C1F8E43EFFF76EFF20B12D4B3A
:1027B0004FF40072C3F840264FF08053D3F8303105
:1027C000082B1AD14FF08043D3F80024D20744BF1E
:1027D0006FF00102C3F800244FF08053D3F8343176
:1027E000052B02D8204AD35C3BB14FF01023D3F81D
:1027F00008224FF08043C3F858254FF01023D3F838
:102800000022002A03DBD3F80432002B22DA174916
:1028100001234FF01020C1F804351224FFF746FFC2
:10282000C0F80042FFF742FFC0F80442FFF73EFF46
:102830000023C1F80435FFF739FFBFF34F8F0C4970
:102840000C4BCA6802F4E0621343CB60BFF34F8FB6
:1028500000BFFDE710BD00BF0050004048810300ED
:1028600000F00040009002409F6E000000E0014038
:1028700000ED00E00400FA0530B50468CCB1BFF308
:102880005B8FB4FA84F3C3F11F03DBB201229A40D9
:1028900024EA020250E8005FA54204D140E8002C7F
:1028A000BCF1000FF6D1BFF35B8FE6D102480B708D
:1028B00030BD0248FCE700BF0000AD0B0200AD0BCD
:1028C00010B50368CB40DB0714D401238B400268AA
:1028D000BFF35B8F43EA020150E8004F944204D1FA
:1028E00040E8001CBCF1000FF6D1BFF35B8FEED1C6
:1028F000014810BD0148FCE70000AD0B0400AD0B22
:10290000014BC3F80405704700F00140F7B50446D9
:1029100018B1012823D003B0F0BD4FF0804302224C
:10292000C3F808230122DA60C3F80401D3F80431A4
:10293000064601238DF8073042F210754FF08047AC
:10294000D4B1012CE7D1D7F80C3403F48033AEBBFB
:1029500083B3012003F04EFB013DF4D12AE04FF098
:1029600080430022C3F808035860C3F80021D3F85D
:1029700000310DF10706DCE7D7F8183403F4803393
:102980003EB9002BC7D0012003F034FB013DF3D149
:10299000C1E7D7F8182402F003023260002BBAD046
:1029A0009DF80700012803D103F024FB013DC7D1A6
:1029B000012CB0D1054B00225A71ACE7D7F80C249A
:1029C00002F001023270002BEAD1F3E7D00E0020B2
:1029D000044B1A7922B9012218609A800248704784
:1029E00002487047D00E00200000AD0B0C00AD0B6C
:1029F00008B5074B1B682BB10020FEF7A3FA08B9F6
:102A0000FEF792FA4FF080430022C3F8182508BD64
:102A1000D00E002010B510B1012843D010BD4FF0EA
:102A20008043D3F81814D3F81824C80321D502F032
:102A30000303012B04D013B10020FFF767FF00232D
:102A40004FF080420220C2F8183508224FF48273FA
:102A500003F180430021196002F180421C680124C7
:102A60001460154A12680AB34FF08043C3F8040398
:102A7000D4E7D3F81424D107E1D5D3F81C24920766
:102A8000DAD40D4A12681AB10222C3F80423C5E74A
:102A9000D3F80421002AFBD00022C3F80421D3F884
:102AA0000431BBE700224FF48073D1E71A68002A93
:102AB000FCD019601B68B1E7D00E002010B54FF0B4
:102AC0008043D3F800216AB10022C3F80021D3F873
:102AD00000210122C3F80823114B587910B95A710B
:102AE0001B6898474FF08043D3F8042172B100224D
:102AF000C3F80421D3F80421D3F81824D3F81824F8
:102B0000920704D10122C3F818259A6010BD022251
:102B1000C3F80823024BBDE810401B68012018478A
:102B2000D00E0020036803F01F025B09026004D08E
:102B3000012B034818BF002070474FF0A04070479A
:102B400000030050034A430900F01F00D35C1844FF
:102B5000C0B27047AB6E000070B50546FFF7F2FFDC
:102B60000C4C08300E4634F81030DA0508D5C3F3A3
:102B7000432304EBC302284654F833305268984785
:102B8000A3682BB1E26831462846BDE8704018477B
:102B900070BD00BF3C05002008B5FFF7D3FF034B15
:102BA000083033F81000400B08BD00BF3C05002082
:102BB00008B5FFF7C7FF034B083033F81000C0F328
:102BC000400008BD3C05002008B5FFF7BBFF034BE4
:102BD000083033F81000C0F3401008BD3C05002059
:102BE000034611F0010010B5CCB20DD1A207C4F319
:102BF000400012D5094AD2F820055860C2F82005D5
:102C0000003818BF012008E04FF0A041D1F820257E
:102C10001A60C1F82025002AE8D010BD000300503A
:102C200010B5FFF78FFF124A083032F81030D9057F
:102C30001CD5C3F3432123F4F85322F8103002F1DA
:102C40000E04002034F8023F13F4807F03D0C3F356
:102C5000432399420AD001303028F3D1002342F8AF
:102C600031300448BDE81040FFF72ABE10BD00BF58
:102C70003C050020B4050020F0B5054600200446C0
:102C8000012607468C420BD1114BD3F87C2132B17F
:102C90000022C3F87C21D3F87C3140F00040F0BD25
:102CA000E3B29B0003F580729B0806FA03F31D4212
:102CB0000BD002F1804202F5C042D2F800C0BCF154
:102CC000000F02D01760126818430134DAE700BF22
:102CD00000600040F7B506460846FFF733FF194F7E
:102CE00000F108050C4637F81530DB0727D53046CC
:102CF00003F0E8F92046FFF767FF40B12046FFF7F1
:102D00004BFF316800F5A270002341F820302046C7
:102D1000FFF786FF002301A827F815300194FFF77D
:102D200001FF019B00EB8300074BD0F80027134005
:102D300043F00203C0F80037044803B0F0BD044874
:102D4000FBE700BF3C050020F0F8FCFF0000AD0BE6
:102D50000400AD0B2DE9FF41164680460846FFF7FB
:102D6000F1FE0D463168044609B32846FFF720FFFF
:102D700018B12846FFF728FF10BB0023CDE9003328
:102D80008DF80E308DF80F300DF10F020B462846EE
:102D90000DF10E0103F03EF9474A04F1080132F843
:102DA000113023F0020343F0010322F8113073685D
:102DB00063B328461F785968FFF7FAFE10B1D1B106
:102DC0003E4826E03C4A04F1080032F8103023F077
:102DD0002003DB04DB0C22F8103061B1032FEFD8A5
:102DE0007168496891F800C0D8F80010A7B90CF5CF
:102DF000A27C41F82C70304A04F1080132F81130FD
:102E000023F01C0343EA870322F81130B3684BBB5D
:102E10002B4804B0BDE8F08101EB8C0143EA4C3350
:102E2000D1F810E52EF0030EC1F810E5D8F8001027
:102E300001EB8C0E43F02003DEF8101522F8103061
:102E400021F44F3121F44071CEF810152902DEF83B
:102E5000108501F47C5141EA074141EA0801CEF8AE
:102E60001015C8E7D3E900672846FFF7D9FE002E02
:102E7000CED0114DD5E90023964203D19F4201D116
:102E8000002209E00F480DF10F01FFF7F5FC0C4B94
:102E90009842BED19DF80F2045F8326005EBC20381
:102EA00008345F6035F8143043EA422343F48073FA
:102EB00025F81430ACE700BF3C0500200400AD0B42
:102EC0000000AD0BB40500202DE9F0430C4685B0A1
:102ED0008046204611461E46FFF734FE054629B3BC
:102EE0002046FFF765FE18B92046FFF76DFE18BBB8
:102EF000314F05F1080937F8193013F01C0F02D0D3
:102F00004B78012B18D001238DF80F300023CDE929
:102F100000134A1C8B1C20460DF10F0103F07AF8B8
:102F200037F8193043F0030327F81930002E41D049
:102F30002046FFF73DFE18B9204805B0BDE8F083F4
:102F400096F800C0D8F800301B4F0CF5A272002193
:102F500043F8221005F1080237F8121021F0200181
:102F6000C904C90C27F8121075781DB3D8F80000F1
:102F7000B67800EB8C002D04D0F8103523F49913AB
:102F800023F4F853C0F81035230203F47C5305F4FE
:102F900040353605D0F810E52B4306F4801641EA9B
:102FA0004C31334341F0200143EA0E0327F812105D
:102FB000C0F810350248C0E73C0500200400AD0B06
:102FC0000000AD0B014BC3E9021270473C05002025
:102FD00010B508461446FFF7F7FD50B10846FFF755
:102FE000B1FD054B083033F8103004485B0B2370FB
:102FF00010BD0348FCE700BF3C0500200000AD0BFE
:103000000400AD0B70B5164D95F8804006462CBBFC
:103010002146602205F1100003F026FB30682E6F78
:1030200021468E420ED10023C0F87C31D0F87C318D
:1030300040F30730FDF778FF01230A4885F8803018
:10304000AB6770BDCBB29B0003F580727C2B08BFD1
:10305000845001F1010108BF8358E2E70248F0E71C
:103060003C0500200000AD0B0C00AD0B034B93F8AA
:103070008000003818BF0120704700BF3C050020C9
:103080000148FFF71DBC00BFB00500200148FFF755
:10309000F3BB00BFB005002073B503681646D3F834
:1030A0000423002AA8BF4FF000420546A8BFC3F87A
:1030B000042308460C46FFF787FD00B30846FFF7D8
:1030C00077FD0146D8B92046FFF766FD04B2A4009B
:1030D00004F580720346286881502968825821448B
:1030E000D1F8102542F00102C1F810252EB129684F
:1030F000012202FA03F3C1F8043302B070BD204686
:10310000FFF720FD0F4B083033F81030C3F3820374
:10311000042B12D0052B12D001A80194FFF702FD59
:10312000019AD0F81035D34003F00103991C2046D2
:1031300002B0BDE8704002F0B6BF0321F7E70221FC
:10314000F5E700BF3C0500202DE9F04F694BDFF8A3
:10315000A881D3F80403D8F87010C0B289B040F049
:103160000040FFF789FD051E2FDAC24600235AF8FA
:103170007C1F06A8CDE90633FFF732FD5F4B0193B4
:103180000DF118094FF0000B019A12F8013B019262
:10319000DA0803F007031AF8022022FA03F3DA0729
:1031A0001CD409F10409BBF1000F14D0D8F8701039
:1031B0004FF00040FFF760FDD8F87C1006A8FFF73D
:1031C0000FFD0028DAD125F000450124002D79D12A
:1031D00009B0BDE8F08F4FF0010BD5E7484B5B44D9
:1031E0000293D9F800100029DBD0029B91FAA1F1DB
:1031F0001C78B1FA81F141EA44142046FFF7A2FCA1
:103200000830059438F81070C808BB0819F8002079
:10321000039301F00701012303FA01F122EA0102FD
:1032200009F8002005A8FFF77DFC059A039B02F52D
:10323000E072C7F3820650F822205B073746C2F3DC
:10324000014224D520463946D6B2FFF785FC05A8B1
:103250000594FFF767FC059B03F5E07350F82330F6
:10326000C3F301439E4207D10021204602F01BFF19
:103270003146204602F017FF05A80594FFF752FCDF
:10328000059B012202FA03F3C0F82035A9E7022AC0
:103290000CD10321204602F006FF06F00503012BA6
:1032A000EAD139462046FFF757FCE5E702212046E0
:1032B000039202F0F8FE032EF3D0039A032ADBD127
:1032C000022EEDE795FAA5F3B3FA83F304FA03F2BD
:1032D0009B0003F1804303F5C04325EA0205D3F8C0
:1032E0001005D3F81015C0F30520C1F30141FFF715
:1032F00033FC6BE7006000403C050020BB6E000023
:10330000BB6E000001460148FFF7B6BAC0050020B9
:1033100030B500F01F04400911D0012812D10C482B
:1033200000EB84001B02D0F800570A4C43EA8202EB
:103330002C4042EA41012143C0F8001730BD4FF054
:10334000A040EDE704F5E074002353F82430FFDEDD
:1033500000030050F0F8FCFFCB7B10B433B9D1E987
:1033600000420368C3F80845C3F80C2503688A685F
:10337000C3F8242503793C225343054AD3582BB183
:10338000006810BC40F30730FDF7CEBD10BC70479D
:10339000D80E002013B53B4B01930023C0F8043135
:1033A000D0F80421C0F82431D0F82421C0F81C3111
:1033B000D0F81C21C0F80831D0F80821C0F800323C
:1033C0004B6381F82F300123036291F82D209A423C
:1033D00018BF83604B6B8A6A934204460ED24A6AD6
:1033E000D35CC0F81C350B6803B340F286238B60B6
:1033F0008B682548C4F8043302B010BD91F82C3016
:1034000013B10123C361EEE70B6A13F0400F4FF0D5
:10341000010316BFC361436181F82D30E3E7204605
:1034200002F078FE28B1019B013B0193019B002B28
:10343000F5DC91F82F305BB91348019B002BDBDCE6
:103440000023C4F8003505231048C4F80035D3E73D
:10345000D4F8C434C4F8C4348BB10D4A0B4813F00B
:10346000010F18BF104613F0020F02F1010218BF3E
:10347000104613F0040F074B18BF1846DDE703484A
:10348000DBE700BFA08601000000AD0B0100AD0B23
:103490000000AE0B0200AE0B13B5334B01930023BB
:1034A000C0F80431D0F80421C0F82431D0F8242128
:1034B000C0F81C31D0F81C21C0F80831D0F8082120
:1034C0004B6381F82F308B6A012B044617D10B6AAE
:1034D0005B0614D40223C4F800320123236291F85E
:1034E0002D20022A18BF23600B688BB140F286237F
:1034F0008B608B681D48C4F8043302B010BD0123F3
:10350000E9E7204602F006FE28B1019B013B01934A
:10351000019B002BF5DC91F82F305BB91348019B20
:10352000002BEADC0023C4F8003505231048C4F85A
:103530000035E2E7D4F8C434C4F8C4348BB10D4A82
:103540000B4813F0010F18BF104613F0020F02F1E1
:10355000010218BF104613F0040F074B18BF18469E
:10356000DDE70348DBE700BFA08601000000AD0BEC
:103570000100AD0B0000AE0B0200AE0B2DE9F843CD
:1035800090F804901C4E07463C2000FB09F03518CB
:103590000C4695F82E1061BBA96032506B6085F81F
:1035A0002D1085F8311085F83010CCB1637B85F88B
:1035B000383094F80E8085F83980B8F1000F0BD1BF
:1035C0002068062303224146FFF7A2FE6068062317
:1035D00003224146FFF79CFE21463846FFF7BCFE1A
:1035E0003C2303FB09660548012386F82E30BDE81D
:1035F000F8830348FBE700BFD80E00200000AD0BA6
:103600000C00AD0B036802790521C3F80015044BCB
:103610003C2101FB0233022283F82E20704700BFB9
:10362000D80E002003680B4A0179C3F80823D3F8A9
:10363000002222F00302C3F800220022C3F8002572
:10364000054B3C2000FB0133012183F82E1083F849
:103650003020704786420400D80E00202DE9F04744
:10366000314F0479D0F800903C2303FB04730D46DE
:1036700093F82D30012B944604D10B78012B06D101
:103680002A4811E0022B02D10B78012BF8D13C26FD
:10369000274BC9F8083306FB047696F830302BB177
:1036A000B3682448C9F80433BDE8F0878CF00403FC
:1036B000C3F3800386F83030C6F820C0A846B8E8C7
:1036C0000F0006F10C0EAEE80F00D8F80030CEF86F
:1036D00000306B68B362EB6873626B78C9F8883549
:1036E0002B78C4EB041A012B07EB8A0A17D09BB97D
:1036F000CCF3401C3C2303FB04735146484683F83B
:103700002CC0FFF747FE3C235C433A193B59002B82
:10371000CAD182F83030C7E74FF0010CEAE75146D2
:103720004846FFF7B9FEEEE7D80E00200500AD0BC6
:10373000864204000B00AD0BF0B5324C324887B026
:10374000214602F0E7FC002859D194F82F70FFB908
:10375000227B931E012B1BD8606AA369984217D164
:10376000E36963626369A362236A274884F82D7062
:10377000C3F34013032A84F82C3004D107B0BDE80A
:10378000F040FFF707BE07B0BDE8F040FFF784BE8A
:103790001E4E0FCE01AD0FC533682B6047B31A4ADA
:1037A000D2F8C434C2F8C43413F0020106D00123A5
:1037B0008DF80030002384F8303007E013F0040265
:1037C00009D002238DF8003084F83010D4E900319C
:1037D0006846984713E013F0010305D003238DF8E2
:1037E000003084F83020F1E704228DF80020E2E771
:1037F000236A8DF800705B0784F83070E6D507B057
:10380000F0BD00BFD80E002000300040E40E0020C4
:10381000036803F01F025B09026004D0012B034818
:1038200018BF002070474FF0A040704700030050C1
:10383000F7B5064602F006FD084602F003FD01A8B2
:103840000196FFF7E5FF019B2E4D00EB83000C4630
:10385000D0F80037019440F20D612B400B43C0F8C3
:10386000003701A8FFF7D4FF019B00EB830001277D
:10387000D0F800372B400B43C0F80037042002F08B
:10388000B9FB092501A80194FFF7C2FF019AD0F8FE
:103890001035D340DB0715D401A80196FFF7B8FF18
:1038A000019B07FA03F3C0F80C35042002F0A2FBD9
:1038B000304602F0C7FC013D042002F09BFB15F0EE
:1038C000FF05DFD101A80194FFF7A2FF019A0123B0
:1038D0009340C0F80C35042002F08CFB204602F027
:1038E000B1FC042002F086FB01A80194FFF790FFD1
:1038F000019AD0F810350448D34003F00103C01AF0
:1039000003B0F0BDF0F8FCFF0100AD0B08B5144B9F
:10391000A8220021184602F0A7FE032202611149E5
:103920004261114A8161C2614FF4806202620022E9
:1039300082624262C26201660C4941661021816660
:1039400003460267C2664267BFF35F8F084911F8FA
:10395000010D98540132102AF9D1BFF35F8F08BDD1
:1039600010040020BD6E00001000002000000020A8
:10397000D66E000038B5EFF31185202383F312884B
:10398000BFF36F8F064B9C6802F088FC85F31188AB
:10399000BFF36F8F2046BDE83840FDF749BA00BF3E
:1039A000140F002038B5094B53F82040013053F86C
:1039B0002050A54200D838BD636823B1204602F0EC
:1039C00070FC0834F5E723689847FAE7C86B0000F5
:1039D00070B52B4B2B4C2C4D012286B003201A7056
:1039E000FFF7E0FFFCF72AFF02F077FC0420FFF767
:1039F000D9FF2646AE4204F1300410D300F04CFC4F
:103A0000204C224EAC4226D300F05AFCFCF74EFD6F
:103A10001F4A137B23F00103137306B070BD54F8E3
:103A20000C3C059354F8103C049354F8143C039355
:103A300054F8183C029354F81C3C019354F8203C71
:103A4000009354E90A2354E90C0100F013FA54F8E6
:103A5000303C5E65CDE7D4E90A23B3F1FF3F08BFF0
:103A6000B2F1FF3F05D052EA0301206803D102F012
:103A7000A2FC3034C6E73146183000F0D5FDF8E737
:103A80008C110020EC690000EC690000E564000086
:103A9000E807002008B50348034A0021121A02F083
:103AA00018FC08BD880600209011002070B5002386
:103AB00086B00122CDE90423134E144D01930F2249
:103AC000CDE902321249142303FB005506EBC01660
:103AD00004464FF4C07000FB04110E4B00954FF4E8
:103AE000A072304600F0C6F9737B0B4AEE6023F0FB
:103AF000040373734FF4046304FB033313442C7403
:103B00006B6006B070BD00BF68070020140F002076
:103B1000001A002077630000C0110020BFB500200C
:103B2000FFF740FF2C4B83F308882C4D2C4E6B691C
:103B30002C4F43F400736B610024E02385F822309E
:103B4000EC772C766C76AC7685F820406B6A43F483
:103B5000E0236B6285F82340FDF7E6F8FDF788FA6D
:103B60004FF0FF33AB62EB62FDF748FBFDF7A4FAC1
:103B70001D4BB36040F201129A81C3E91844DC6620
:103B800002F078FB0120FFF70DFF0220174DFFF731
:103B900009FF00F0B5FB164B75610593012315492C
:103BA0000094CDE903434FF480623B46CDE90144E4
:103BB000284600F05FF96A7B064622F00402284698
:103BC0006A7302F034FC2046FFF770FF3A46314634
:103BD0002846FDF72BFA00BF001A002000ED00E098
:103BE000140F0020D139000068080020E8070020E9
:103BF000D76E0000801B002038B5064C064D002013
:103C0000AC4200D338BD204602F068FB0028F9DB47
:103C10001C34F5E7360600203606002073B50C4646
:103C2000EFF31181202585F31288BFF36F8FC568EC
:103C30005DB125602B68C360836901338361002017
:103C400081F31188BFF36F8F11E052EA030603D1AD
:103C500025606FF00B00F3E7CDE900230246083042
:103C600000F066FA18B9034B9B685B69236002B0E9
:103C700070BD00BF140F00202DE9F3410446174624
:103C80001E46EFF31188202383F31288BFF36F8F52
:103C9000C368334A7BB180689168884219D057EA7B
:103CA000060318D188F31188BFF36F8F6FF00F00F0
:103CB00002B0BDE8F081916891F90E1021610133E5
:103CC000E3609368A36088F31188BFF36F8F0020CF
:103CD000EEE72169F2E791F90E1090F90E30994262
:103CE000A8BF19466FF07E029142B8BF11468B42C1
:103CF0002DDD02F04BFB0546CDE900761948224642
:103D0000414600F015FA0028E1D0EFF31186202398
:103D100083F31288BFF36F8FA068D0B12368216945
:103D20009C420AD04BB193F90E309942A8BF194674
:103D30006FF07E039942B8BF194602F027FB40B1ED
:103D40000848314600F064FA6FF00A00B0E7002539
:103D5000D2E7002DF4D186F31188BFF36F8FF3E71C
:103D6000140F00208D11002038B58368044663B31A
:103D7000194A926893422BD1C368012B03D9013BA6
:103D8000C360002038BDEFF31185202383F3128830
:103D9000BFF36F8F0169806802F0F8FA204602F0E5
:103DA000BBFBA06058B190F90E202261002282670F
:103DB00002F03DFB0948294600F02AFAE1E7E060FD
:103DC00085F31188BFF36F8FDBE76FF01500D9E73C
:103DD0004FF0FF30D6E700BF140F00208D110020F8
:103DE00038B50446EFF31185202383F31288BFF31F
:103DF0006F8F02F091FB48B10022826702F017FB3F
:103E000029460848BDE8384000F002BAD4E9023239
:103E10009A4218BF0133A36085F31188BFF36F8FF7
:103E200038BD00BF8D11002013B5EFF311812024A0
:103E300084F31288BFF36F8F846844B1013C8460BF
:103E400081F31188BFF36F8F002002B010BD52EADA
:103E5000030406D181F31188BFF36F8F6FF00F0059
:103E6000F3E7CDE900230246014800F061F9ECE7F1
:103E70008D1100202DE9F043073285B022F00702B2
:103E80000E461F461099017300F158037F32C0E9B6
:103E900016330446002322F03F020421836041735D
:103EA0003F2A0F98A073C4E90633E37306F1400973
:103EB000A2F1400805D883F31188BFF36F8F08463D
:103EC00002DFB51829462046FCF7B6FD07300E9BE9
:103ED00020F00700A066C4E9189802930D9B019397
:103EE0002D1A0C9B00932A463B4631462046FDF78F
:103EF0006BF800236365044B9B6803B1DB6EE366DC
:103F0000284605B0BDE8F083140F002038B50D4DEC
:103F10002B4653F8184F9C4200D004B9EC68AB68AC
:103F200038B95A7BD20604D1A26912B9DA897F2A3C
:103F300005D89C4202D0204600F0BEFA23466B61B1
:103F400038BD00BF140F002008B590F90D20437B49
:103F5000002A014604DA03F07F03437302F02DFACE
:103F6000044B9868431A58425841BDE80840FFF78F
:103F7000CDBF00BF140F002070B490F90D30427B0C
:103F8000002B29DBD30627D183692BBB134962F0B1
:103F90007F0242730A4652F8184F944218BF2346D4
:103FA000CC6923B9C0E900242060C8610CE090F915
:103FB0000E5093F90E60B5420AD0AE4208DD5A6841
:103FC000C0E900321060586070BC0020FFF79EBF4F
:103FD0009C42E7D01B68E4E770BC7047140F0020D8
:103FE0002DE9F041002A427B0E460CBF102108212A
:103FF000114204460FD141EA0203D20918D143739A
:1040000008291BD00120FFF781FFBFF35F8F637B7F
:1040100023F060036373274B9B68A34243D1EFF304
:104020000583002B3FD13046BDE8F041FCF716BFB9
:1040300003F07F03437302F0C0F9E1E7A36813B113
:10404000204602F0C2F904F1180002F0A2FAA56DB0
:1040500004F15807AF4211D04FF0000875B128465F
:1040600002F0B3F905F1180002F093FAC5F8788070
:104070002846FFF781FFA56DAF42EFD10D4DAB682C
:104080009C42BFD1EFF30583002BBBD00120FFF78B
:104090003DFF094BAB6040F201129A810022C3E957
:1040A0001822DA66B1E786F31188BFF36F8FBDE897
:1040B000F08100BF140F00206808002070B590F94F
:1040C0000D20437B002A014604DA03F07F0343738B
:1040D00002F073F94B7B154A63F07F0310464B7374
:1040E00050F8183FD469834208BF002323B9C1E9BF
:1040F00000042160D1610CE091F90E5093F90E603B
:10410000B5420ED0AE420CDD5868C1E90030016006
:1041100059609068431A5842BDE870405841FFF713
:10412000F5BE9C42E3D01B68E0E700BF140F0020FF
:10413000F8B5124B0C461146114A98681060DDE93B
:104140000676EFF31182202282F31288BFF36F8F7D
:104150009D68284602F043F9B6F1FF3F08BFB7F16A
:10416000FF3F06D007493A46334605F1180000F0F4
:104170005BFA2046BDE8F840FCF770BE140F002043
:10418000340F0020E5640000F8B50446EFF3118613
:10419000202383F31288BFF36F8F437BDA0649B283
:1041A00019D18569BDB903F07F03437302F005F9A6
:1041B000437B164A817363F07F034373134653F8BE
:1041C000180F984218BF0546D0695DB9C4E90030A0
:1041D0000460D46111E0A173002086F31188BFF35D
:1041E0006F8FF8BD95F90E70B9420BD08F4209DD83
:1041F0006B68C4E900531C606C600120FFF786FE09
:104200000120EAE7A842E1D02D68DEE7140F002084
:1042100049B9EFF3058030B9054B5A699B689A425A
:1042200001D0FCF71BBE81F31188BFF36F8F70477D
:10423000140F002010B5EFF31184202282F31288AE
:10424000BFF36F8F427B510704D484F31188BFF30F
:104250006F8F10BD22F004024273FFF78DFE2146DE
:104260000248BDE81040FFF7D3BF00BF8D1100200A
:10427000034648B9EFF3058232B9064A516992689C
:10428000914201D0FCF7EABD83F31188BFF36F8F31
:10429000704700BF140F0020EFF31181202383F338
:1042A0001288BFF36F8F054B9A68D37B013BD373A2
:1042B00081F31188BFF36F8F704700BF140F002088
:1042C00038B5EFF31185202484F31288BFF36F8F84
:1042D0000A4B9A68D37B0133D3730020FFF716FE95
:1042E00085F31188BFF36F8FEFF3118084F3128889
:1042F000BFF36F8FBDE83840FFF7BABF140F00203F
:10430000024B03F11802C3E906227047140F002084
:10431000F8B5EFF31185202383F31288BFF36F8F75
:1043200019498868437B03F07F03437302F045F823
:104330008B685A7B084662F07F025A7350F8182F38
:10434000CC69824208BF002222B9C3E9000423607D
:10435000CB610CE093F90E6092F90E70BE420ED064
:10436000B7420CDD5168C3E900210B6053600120A6
:10437000FFF7CCFD2846BDE8F840FCF76FBDA24230
:10438000E3D01268E0E700BF140F002050EA0103F9
:104390002DE9F04105460E4603D1FFF7B9FF002095
:1043A0002BE0831C71F1FF3329DB02F007F92C1895
:1043B000EFF31188202383F31288BFF36F8F124F1E
:1043C000124BB8681860FFF7BFFDB86810492A465D
:1043D0003346183000F028F9BA68537B43F01003D5
:1043E00053734046FCF73AFD02F0E8F8201A63EBFD
:1043F0000303012873F10003D1DBBDE8F0816FF006
:104400000104241AD4E700BF140F0020340F002049
:10441000E5640000B1F1FF3F08BFB0F1FF3F08B510
:1044200006D10A4B986802F011F84FF0FF3008BD32
:10443000FFF7ACFF4FF47A7147F6FF730022C0FB21
:104440000132D80B40EA4240F1E700BF140F0020D0
:10445000014B9868704700BF140F0020044BC01A2E
:10446000044BC0105843044B01221A54704700BF3C
:10447000E8080020ABAAAAAA8D110020C3897F2BCF
:1044800012D80A4B1B6863B1094B90F90E201B68C8
:104490009A4209DB437BDB0606D1064BC31A18BFE1
:1044A000012303F0010070470023FAE73C0F0020CE
:1044B000380F00206807002070B50E4B0E4C1E7C94
:1044C00006EB460304EBC3040546204602F061F800
:1044D0000A4B002228469A55FFF7D0FF48B1084BF7
:1044E00008491A68013A2046D317BDE8704000F029
:1044F0009BB870BD140F0020E80800208D1100202B
:104500003C0F00205D44000038B5EFF311852023F7
:1045100083F31288BFF36F8F104B114A9C681068A9
:10452000A04206D1FFF7C8FF85F31188BFF36F8F54
:1045300038BD00211B7C11600A4AD35C002BF3D0EC
:104540002046FFF79BFF0028EED0637BDB0602D1FD
:104550002046FFF7B3FD2046E4E700BF140F00201C
:10456000340F00208D11002008B50648064A07497F
:10457000121A01F0B0FEBDE80840054A0549064898
:1045800001F0A9BEC004002088060020F46E0000DF
:1045900000000000EC6E0000C0040020034B1B680C
:1045A0000BB9FEF767B80020704700BF400F00202E
:1045B00030B570B10B4B5B6898420AD0036843B1C9
:1045C000D3E90421D0E90445121941EB0501C3E9FF
:1045D0000421D0E9003213605A600023C0E900339F
:1045E00030BD00BFC405002010B50E4B1C689C42B6
:1045F00004D1FFF7D3FF6FF0004010BDFFF7CEFFEF
:10460000002CF8D0D4E904321B1A62EBE072B3F14B
:10461000004F72F10001EEDA002AACBF184600200C
:10462000EBE700BFC4050020B3F1FF3F08BFB2F1C4
:10463000FF3FF8B504461D4616465ED08160EFF395
:104640001187202383F31288BFF36F8F013275F136
:10465000FF3324DA2E49D1E900206FF001039B1AC1
:104660004FF0FF3262EB00009E1B60EB0500012E55
:1046700070F1000301DA01260020C4E90460254E30
:10468000D6F800C07568B44508BF4FF0000CBCF107
:10469000000F0DD1C4E900652C6074601CE0FFF7C9
:1046A0007DFF013645F10005361845EBE070E4E783
:1046B000DCE90420D4E90431934271EB000E1DDAE9
:1046C000D21ADCF8043060EB0100CCE90420C4E924
:1046D00000C31C60CCF804403368B34209D09C424C
:1046E00007D10D4B1C6824B9FFF77EFF2146FDF76B
:1046F00093FF87F31188BFF36F8FF8BD9B1A61EBAF
:104700000001AC45C4E90431C4D0DCF800C0BEE708
:1047100000090020C4050020400F00202DE9F84FBB
:10472000EFF3118C202383F31288BFF36F8FDFF830
:10473000B0A0DFF8B0902C4FC9F80000DAF8000004
:104740000024504508BF00200025D7E90021D9F8F2
:104750000030E04678B3D0E9046C4FEAE37EB34220
:104760007EEB0C0B05DAF61A6CEB0E04C0E9046460
:1047700021E0B21841EBE671C0E90445C7E9002128
:10478000FFF716FF88F31188BFF36F8F8368984790
:10479000EFF31188202383F31288BFF36F8FD9F8CA
:1047A0000030DAF800009B1B5045C446C9F80030C1
:1047B000CBD1D7E900219A1841EBE3730024C7E974
:1047C0000023C9F80040FFF70FFF2146FDF724FF43
:1047D00088F31188BFF36F8FBDE8F84FFFF794BEE1
:1047E000C4050020400F00200009002010B5EFF3A1
:1047F0001184202383F31288BFF36F8FFFF7CEFE5F
:10480000054A0346D2E90001181841EBE37184F32D
:104810001188BFF36F8F10BD00090020F8B5044662
:10482000EFF31187202383F31288BFF36F8F0268A1
:1048300022B187F31188BFF36F8FF8BDD0E90A3634
:10484000581C46F10001022871F1000127D3012B09
:1048500076F10001BCBF012316465D1E46F1FF360E
:1048600001F0B0FE013041F10001401946EB0101B9
:10487000012871F1000139DB01F0A4FE013041F1A2
:1048800000016FF00102401946EB0103121A4FF0CC
:10489000FF3161EB030318492046FFF7C5FE236B88
:1048A00001332363236A6BB187F31188BFF36F8FE2
:1048B000236A20469847EFF31187202383F3128859
:1048C000BFF36F8F54F8185FA542B2D0002DB0D05F
:1048D000284601F0D5FD0023AB6787F31188BFF3AD
:1048E0006F8F2846BDE8F84001F0A1BD6FF00102CE
:1048F0004FF0FF33CFE700BF1D4800002DE9F04126
:1049000005461C4690461F46EFF31186202383F38D
:104910001288BFF36F8FB4F1FF3F08BFB2F1FF3FC2
:1049200005D186F31188BFF36F8FBDE8F081531C6A
:1049300074F1FF3309DB012A74F10003BCBF0122CB
:10494000002412F1FF3844F1FF37284601F021FE20
:10495000DDE906010023C5E90A012B63034942464C
:104960003B462846FFF760FEDBE700BF1D4800001E
:1049700010B50A4C23681BB101232360002010BD31
:1049800000F0EAF80028F7D00138062803D8044BD5
:1049900053F8200010BD034810BD00BF440F002095
:1049A000E06B0000FE8FFFFFBFF34F8F0549064B02
:1049B000CA6802F4E0621343CB60BFF34F8F00BFBD
:1049C000FDE700BF00ED00E00400FA0510B4094B5C
:1049D00009490A4C4FF0FE32C3F800244968C3F875
:1049E0000424C3F80824C3F80C240023C4F80035B9
:1049F00010BC084700B00250CC05002000A00250B7
:104A0000D0E90012014BC3E900127047CC05002029
:104A100010B5044650B1636813F0685F05D0064ACC
:104A2000934202D000232360626010BD034B044810
:104A30005B689847EFE700BF2C5F5CA9CC050020BE
:104A4000FC6B0000C8B143680D4A934213D013F0C9
:104A5000685F0ED0012350E8002F194640E8001C83
:104A60009CF0000FF7D1012AF5D0BFF35F8F002033
:104A7000704704487047044870476FF4E04070473F
:104A80002C5F5CA9E98FFFFFEA8FFFFF80B14368CD
:104A9000094A93420AD013F0685F05D0BFF35F8FD5
:104AA0000023036018467047044870470448704765
:104AB0006FF4E040704700BF2C5F5CA9E98FFFFFF7
:104AC000EA8FFFFF10B5044620B1044B636000225B
:104AD000226010BD0248FFF779FFF6E73A00003A7E
:104AE000246C000070B5D0E90023174C174D6360AB
:104AF000D0E90230C4E9023022604868D1F800C031
:104B0000134BC3E900C0D5F81801D1F808C0C3F8A9
:104B100008C010F0685FD1F80CC00969C3F80CC078
:104B2000196110D00B49C5F8BC110023C5E9453106
:104B300005F58A70C5F8B8319047236805F5DC7033
:104B4000BDE87040184770BDE80500205C0F0020EC
:104B5000D40500202C5F5CA938B500F02FF820B1F7
:104B6000032400F063F8204638BD00F031F898B90E
:104B700000F0ACF898B90F4DD5F828391B0EF02B82
:104B800008D1D5F8242A0C4B9A420AD0072400F009
:104B900017F8E6E70624FAE70424204638BD002487
:104BA000F5E7012000F092F804460028F7D1C5F897
:104BB0000C0AD8E700B002500000E0200020704747
:104BC00000207047014BC3F8040A704700B0025040
:104BD00010B5114800F048F800B110BD0F4800F0C2
:104BE00043F80028F9D10E4C204600F03DF800288B
:104BF000F3D10C4B0C481C6000F036F8014600283D
:104C0000EBD100F02DF8044608B1204610BD00F0AD
:104C10003FF82046FAE700BF2806002024060020BF
:104C200020060020180600201C06002008B50848B1
:104C300000F024F8074800F021F8074800F01EF8BB
:104C4000064800F01BF8BDE8084000F00BB800BFB4
:104C50002806002024060020200600201C06002034
:104C600000207047704700BF08B5034B02681B68FF
:104C700010689847002008BDE805002008B5034BE0
:104C800002685B6810689847002008BDE8050020AE
:104C900070B5094C094D2069AB68984718B1084BAD
:104CA00008485B689847084AEB6820690021116052
:104CB000BDE87040184700BFD4050020E80500207B
:104CC000CC050020486C0000580F0020F8B51A4DA4
:104CD0001A4E0446B26828699047E8B9184F3B68F5
:104CE0004CB1A3B1012B19D0013B3B602869F3689B
:104CF00098470020F8BD43B9124A0121C2F80015B7
:104D00001149D1F81029002AFBD101333B60F36827
:104D1000286998470020F8BD0C48F8BD0A4AD2F827
:104D20001039002BFBD1074A6FF07E40C2F80035E6
:104D3000FFF748FF3B68D7E7D4050020E8050020CF
:104D4000580F002000A0025000B00250E98FFFFF72
:104D50002DE9F04F8DB043680293837815469A078A
:104D6000804640F10D8100240E78002E00F00A816B
:104D7000252E0BD04B1C03930134029B4146304639
:104D800098470028C0F2F6800399EDE74E788B1C17
:104D9000252E0393F0D00027B946BB46BBF11F0F69
:104DA00038D8A6F12003102B0AD8DFE803F02A092F
:104DB00009300909092109090928092D09091F00D4
:104DC000A6F13003092B33D92A2E37D11BF0400F1F
:104DD00055F8043B40F08280002BA7BF4BF0200B1E
:104DE0009946C3F100094BF0280B01E04BF0010B91
:104DF000039B13F8016B0393002ECFD130E04BF0EF
:104E0000020B4BF0040BF3E74BF0080BF0E74BF011
:104E1000100BEDE7BBF17F0F19D8A6F13003092B7A
:104E2000D2D81BF0400F03D00A2101FB0737DFE780
:104E30000A2101FB09394BF0200BD9E72E2E06D1B0
:104E40001BF0400F40F09E804BF0400BD0E76C2EE3
:104E500031D02BD8682E36D06A2E3CD04C2E3AD08A
:104E6000002F46F02003B8BF2BF04002A3F16501EC
:104E7000BCBF1FFA82FB0027022901D9612B2FD169
:104E8000073525F00705DFF8ACA2083507271BF02A
:104E9000080F66D00AEB070B56465E4563D1A4EBBC
:104EA0000A0A06EB0A02A9EB07096FE1742E9FD0EC
:104EB0007A2E9DD0D4E71BF0800F18BF4BF4007BF7
:104EC0004BF0800B94E71BF4807F18BF4BF4007B02
:104ED0004BF4807B8CE74BF4207B89E71F4687E708
:104EE000A6F16301122900F2F080DFE811F013004F
:104EF0004F00EE00EE00EE00EE004F00EE00EE0080
:104F0000EE00EE00EE00FE00E900EE00EE001B00F9
:104F1000EE00AF0055F8043B8DF8183001270DF175
:104F2000180AB4E755F804AB834BBAF1000F08BF79
:104F30009A461BF0400F14BF39464FF0FF315046E0
:104F400001F0AAFB0746A2E7029B414620209847B2
:104F500000280FDB013EB742F6D34C44A41BB146F8
:104F600098E74E46F7E716F8010B029B4146984733
:104F7000002892DA98F8023043F0040388F80230EF
:104F80004FF0FF3420460DB0BDE8F08F1BF0800FCE
:104F900034D01BF4007F2CD0073525F00705AA4636
:104FA00069685AF8080B2BF010050029ADB237DA02
:104FB000404261EB410145F480650DF1180B0A2375
:104FC0005A4601F08BFBA0EB0B0301936B0662D5F5
:104FD000019B25F001019F4289B240F3A180002E80
:104FE00000F0998015F0100240F09C80BB460D4601
:104FF00023E0AA465AF8040BC117D4E7AA461BF4CB
:10500000807F5AF8041B01D10846F5E71BF4007FA6
:1050100015BF48B208B241F3C01141F3C031C2E735
:1050200050EA0103C9D11BF0400FC6D0002FC4D1F4
:105030002BF0110295B2BB46019740F2064115EAEA
:1050400001021CBF0BF1010B00222CE02BF010021F
:105050001FFA82FB0A231BF0800C49D01BF400715D
:105060001DBF073525F00705AA46AA461ABF5AF8FC
:10507000080B69685AF8040B50EA010545D12BF07A
:1050800016051BF0400FADB242D0002F40D12BF0DF
:10509000170295B2019715F0100248D0019B002E1F
:1050A00042D103F1010B29075AD4EB0706D5D945A4
:1050B0006FDD0199A9EB0B035F18CB465B4649E016
:1050C0004BF0100B10237826C5E7782B04D1C6F1DE
:1050D000780343F01003BEE7029B41462520984722
:1050E0000028FFF647AF023447E608230026B2E760
:1050F000AA461BF480715AF8040BBDD01BF4007152
:105100001ABFC0B2614680B2B6E72BF0060295B274
:105110000DF1180B54E725F01105ADB2BB468CE735
:105120000D46B8E73B460D4603F1020BBBE7DDF841
:1051300004B082E7E36E0000DC6E0000CDE90432CB
:105140004146029B202098470028FFF613AF049B9E
:10515000059A01339945F1DCA4EB0B01CC189B4671
:105160000AB3029B4146302098470028FFF602AF61
:105170008EB901342744019B391B994224DC1D461A
:105180005DBB019AA9EB0B09224455461446914494
:1051900035E0019F92E7023441463046029B984732
:1051A0000028E7DAE6E640F206410D42E2D015F0CB
:1051B000020F14BF2B20202015F4806F04F101048E
:1051C000414618BF2D20E9E7029B41463020984711
:1051D000002804F10104CEDACCE606AB013D4146DD
:1051E000585D029B98470028CADAC3E6029B4146F5
:1051F00020209847002804F10104FFF6BBAEA9EB7C
:105200000403002BF2DCBFE57047012303FA01F130
:1052100003691B68194218BF82F0010212B183684A
:10522000DB68184783681B69FBE7014640F2E730FB
:1052300008B54FF47A72002300EBC1304914FAF735
:105240005FFFBDE80840FFF7E5B8836800EBC101E8
:10525000B3F5004F2CBF51F8220031F8120070470F
:1052600000EBC1018068B0F5004F2CBF41F822303F
:1052700021F81230704708B50122FFF7E6FFD04051
:1052800008BD8368B3F5004F00EBC10108D34B683C
:105290001AB143F001034B60704723F00103FAE7B2
:1052A0004B881AB143F001034B80704723F0010390
:1052B000FAE753000122FFF7D3BFB0F5004F34BF28
:1052C00004230823481C0833A0EBD300B0FA80F075
:1052D000C0F11F0070472DE9F0410D468668044675
:1052E000FFF7C9FFB6F5004F014601D3012832D0C0
:1052F0003046FFF7E2FF04EB80010E6996B9E368E0
:10530000012282401343E36002220D612B462946AD
:105310002046FFF7A5FF032229462046BDE8F041BD
:10532000FFF79EBF022231462046FFF78EFF294637
:10533000034607462046FFF793FF032233462946DC
:105340002046FFF78DFF39462B462046FFF788FFA2
:1053500002223146E1E7BDE8F081B2F5802F2CBF93
:1053600008230423D21A2DE9F0418C18CD1D25F015
:10537000070524F00704641B0026E40805602146A5
:10538000AC60EE602046FFF798FF421D92000130AE
:1053900002F107074FEAD707A2F110023146B8BF62
:1053A000324605F1100001F05FF93A4631462846D1
:1053B000FFF77FFF3346324631462846FFF750FF5E
:1053C000A4EB0708284631460122FFF75AFF424660
:1053D0003946FFF76EFF3B46324639462846FFF70F
:1053E0003FFF21462846FFF764FF434632462146E9
:1053F0002846FFF735FF214628460122FFF741FFE7
:105400003946BDE8F041FFF766BF002070470FB492
:1054100007B504A951F8040B0191FBF7C9F803B0D3
:105420005DF804EB04B07047038B13F0070305D15C
:105430000368002B0CBF002003207047022B05D10E
:10544000408BB0FA80F0400980007047012B05D1F5
:105450000368002B0CBF0020052070470020704718
:1054600010B50C4600B111B96FF0150010BD081D44
:1054700000F093F80028F9D1A368032BF6D9F3E7DD
:105480002DE9F0410D4607461946281D90461E4657
:1054900000F094F8044638B133464246294638466F
:1054A000A446BDE8F0416047BDE8F08110B4EFF3D9
:1054B0001182202484F31288BFF36F8F416110BCE6
:1054C0000121FBF7A7B838B50C46054658B151B1D4
:1054D0000B6843B14B6833B11C22002101F0C4F8C2
:1054E0002C61002038BD6FF01500FBE770B5054654
:1054F0000E46FFF7B5FF041E14DBEFF311822023E5
:1055000083F31288BFF36F8F6B8B2C8B4FF6FF7179
:105510008B4204F0070407D182F31188BFF36F8F29
:105520006FF00A04204670BD022C0CD101336B834E
:1055300082F31188BFF36F8F00232246314628463D
:10554000FFF79EFFEEE7062C14D8DFE804F0041303
:105550001313041A0400002333606B683BB9C5E9D8
:105560000066ACB902212846FBF754F8DAE71E6062
:105570006E60F6E782F31188BFF36F8F6FF004045B
:10558000D0E782F31188BFF36F8F6FF08504C9E70E
:1055900082F31188BFF36F8FC4E7034658B14268A6
:1055A00002F00302012A03D0032A04D1026812B1D7
:1055B0000020986070476FF0150070474268816066
:1055C00002F00302032A4FF0000203460CBF0068FA
:1055D00010465A6070477047FEE7012801D1EFF38B
:1055E0000583FEF7C7B901460068FFF7F6BF08B5A7
:1055F000FBF71EFABDE80840FBF73EBA0021012088
:10560000FFF7EBBF61B662B680F31188BFF36F8F0F
:10561000704772B6002383F31188BFF36F8FBFF317
:105620004F8F30BF62B6BFF36F8F704772B60023E3
:1056300083F31188BFF36F8FBFF34F8F20BF80F3C9
:105640001188BFF36F8F62B67047202809D9B0F177
:10565000004F08D80138B0FA80F0C0F11F004000B8
:105660007047082070473E20704708B5FBF77AFE68
:10567000002008BD0369C9B20C2201FB0233186C7B
:1056800000F00700704770B5C9B20369EFF31185E8
:10569000202484F31288BFF36F8F0C2606FB01349D
:1056A000246C14F0C00408D0A24206D085F31188FF
:1056B000BFF36F8F4FF0FF3070BD06FB0133012247
:1056C0001A6485F31188BFF36F8F436803EBC1033E
:1056D0005B6898470020EFE78022FFF7D4BFF8B55A
:1056E000069F0469C9B2EFF31186202585F312885D
:1056F000BFF36F8F0C2505FB0144256C05F0070CEB
:10570000BCF1010F0CD1276486F31188BFF36F8FB2
:10571000C4E90E23436853F8313098470020F8BDA0
:1057200005F0C005AF4286F31188BFF36F8F0CBF41
:105730006FF077004FF0FF30F1E713B5802400944D
:10574000FFF7CDFF02B010BD10B40069CBB21C242E
:1057500003FB0400002110BC10470020FDF75AB9DC
:10576000002000F055BC1046FEF73ABB43685B686A
:10577000D3F810350B600020704743685B6802EA7D
:10578000010021EA0201C3F80805C3F80C15002046
:10579000704743685B680020C3F80815704743688A
:1057A0005B680020C3F80C15704743685A68D2F84C
:1057B000043521EA03000B40C2F80805C2F80C3595
:1057C0000020704710B503695868F8B1884219D1B4
:1057D0009C6808685860A14200D198600020086069
:1057E0002AB15A680A609A68596002B99960002023
:1057F00010E0814206D10868206098688142EDD1AE
:105800009C60EBE7044600680028F2D1002AE8D14A
:105810006FF0150010BD37B50446002201210320AA
:10582000FBF79EFB6368DD6901AA0021284600F0B2
:105830002BF800280DDB019B2A6819791868FCF702
:1058400011FA002805DB204603B0BDE83040FCF724
:1058500097B903B030BDCA074368006905D4C1F3E6
:105860004202012A04D0022A0AD06FF015007047C4
:105870001B684FF0CC72C3F82425016000207047EC
:105880001B684FF0CD62F6E730B543681360057AC8
:10589000446804EBC504A34202D36FF0010030BD9D
:1058A0005C798C4201D00833F0E70020F7E74368C9
:1058B0001B68D3F88004C3F88004704703691A6832
:1058C00013680BB152681847704770B586B0066907
:1058D00004460D461422002101A800F0C5FE022353
:1058E0008DF8043033681B6C029333689B6C01A9FC
:1058F0002046CDE90335FFF7E1FF06B070BD30B5B6
:1059000087B004460D461422002101A800F0ACFE29
:1059100004230DEB030120468DF804300295FFF7B8
:10592000CDFF07B030BD10B586B00446142200216B
:1059300001A800F099FE052301A920468DF8043046
:10594000FFF7BCFF06B010BD30B503691C684368A3
:105950001B68EFF31185202080F31288BFF36F8F4F
:10596000206CB0B1E06CB8B9042AC4E91312C3F8D2
:105970003415C3F8382505D8002085F31188BFF306
:105980006F8F30BDD3F8002242F02002C3F800220E
:10599000F2E76FF00C00F0E76FF00F00EDE703693E
:1059A000186820B101601B6800205A6070476FF0D2
:1059B0008500704710B5426800691368006860B9D7
:1059C000D3F8104164B1D26A12780A70C3F810019A
:1059D000D3F8102101221A6010BD6FF08500FBE79B
:1059E0004FF0FF30F8E738B503691D6843681C685D
:1059F0002B6C1BB305F1080000F0F2FDEFF31182F0
:105A0000202383F31288BFF36F8FEB6C53B1D4F86C
:105A1000003223F02003C4F800320023C4F84C31D4
:105A2000D4F84C310123002085F8610085F86230FC
:105A3000636082F31188BFF36F8F38BD6FF00D0084
:105A4000FBE710B503691968D1F8A420D1F8B0407C
:105A5000121B13D0082A28BF08224068C1F8AC20C6
:105A60001968006AC1F8A8001B68D3F8A010D3F821
:105A7000B030194400F0D0FD012010BD1046FCE705
:105A800002680346D2F8580140B95B68DB0706D4C8
:105A9000D2F82001003818BF01207047012070475C
:105AA00010B544682368C3F84415C3F8482500229C
:105AB000C3F82021D3F82011C3F85821D3F8582176
:105AC000626851070BD501698A6842F001048C6055
:105AD000920701BF426812680821C2F8001501222E
